{
  "contracts/bouncer/Bouncer.sol": {
    "Bouncer": {
      "abi": [
        {
          "inputs": [],
          "stateMutability": "payable",
          "type": "constructor"
        },
        {
          "inputs": [
            {
              "internalType": "address",
              "name": "from",
              "type": "address"
            },
            {
              "internalType": "address",
              "name": "to",
              "type": "address"
            }
          ],
          "name": "addDelegate",
          "outputs": [],
          "stateMutability": "nonpayable",
          "type": "function"
        },
        {
          "inputs": [],
          "name": "claimFees",
          "outputs": [],
          "stateMutability": "nonpayable",
          "type": "function"
        },
        {
          "inputs": [
            {
              "internalType": "address",
              "name": "who",
              "type": "address"
            },
            {
              "internalType": "address[]",
              "name": "coins",
              "type": "address[]"
            }
          ],
          "name": "contributions",
          "outputs": [
            {
              "internalType": "uint256[]",
              "name": "",
              "type": "uint256[]"
            }
          ],
          "stateMutability": "view",
          "type": "function"
        },
        {
          "inputs": [
            {
              "internalType": "address",
              "name": "who",
              "type": "address"
            },
            {
              "internalType": "uint256",
              "name": "id",
              "type": "uint256"
            }
          ],
          "name": "convert",
          "outputs": [],
          "stateMutability": "payable",
          "type": "function"
        },
        {
          "inputs": [
            {
              "internalType": "address",
              "name": "who",
              "type": "address"
            },
            {
              "internalType": "uint256[]",
              "name": "ids",
              "type": "uint256[]"
            }
          ],
          "name": "convertMany",
          "outputs": [],
          "stateMutability": "payable",
          "type": "function"
        },
        {
          "inputs": [
            {
              "internalType": "address",
              "name": "",
              "type": "address"
            }
          ],
          "name": "delegates",
          "outputs": [
            {
              "internalType": "address",
              "name": "",
              "type": "address"
            }
          ],
          "stateMutability": "view",
          "type": "function"
        },
        {
          "inputs": [
            {
              "internalType": "address",
              "name": "token",
              "type": "address"
            },
            {
              "internalType": "uint256",
              "name": "amount",
              "type": "uint256"
            }
          ],
          "name": "enter",
          "outputs": [],
          "stateMutability": "payable",
          "type": "function"
        },
        {
          "inputs": [],
          "name": "entryFee",
          "outputs": [
            {
              "internalType": "uint256",
              "name": "",
              "type": "uint256"
            }
          ],
          "stateMutability": "view",
          "type": "function"
        },
        {
          "inputs": [
            {
              "internalType": "address",
              "name": "target",
              "type": "address"
            },
            {
              "internalType": "bytes",
              "name": "data",
              "type": "bytes"
            }
          ],
          "name": "hatch",
          "outputs": [],
          "stateMutability": "nonpayable",
          "type": "function"
        },
        {
          "inputs": [
            {
              "internalType": "contract ERC20Like",
              "name": "token",
              "type": "address"
            },
            {
              "internalType": "address",
              "name": "from",
              "type": "address"
            },
            {
              "internalType": "uint256",
              "name": "amount",
              "type": "uint256"
            }
          ],
          "name": "proofOfOwnership",
          "outputs": [],
          "stateMutability": "payable",
          "type": "function"
        },
        {
          "inputs": [
            {
              "internalType": "contract ERC20Like",
              "name": "token",
              "type": "address"
            },
            {
              "internalType": "uint256",
              "name": "amount",
              "type": "uint256"
            }
          ],
          "name": "redeem",
          "outputs": [],
          "stateMutability": "nonpayable",
          "type": "function"
        },
        {
          "inputs": [
            {
              "internalType": "address",
              "name": "from",
              "type": "address"
            }
          ],
          "name": "removeDelegate",
          "outputs": [],
          "stateMutability": "nonpayable",
          "type": "function"
        },
        {
          "inputs": [
            {
              "internalType": "address",
              "name": "",
              "type": "address"
            },
            {
              "internalType": "address",
              "name": "",
              "type": "address"
            }
          ],
          "name": "tokens",
          "outputs": [
            {
              "internalType": "uint256",
              "name": "",
              "type": "uint256"
            }
          ],
          "stateMutability": "view",
          "type": "function"
        }
      ],
      "evm": {
        "bytecode": {
          "linkReferences": {},
          "object": "6080604052336000806101000a81548173ffffffffffffffffffffffffffffffffffffffff021916908373ffffffffffffffffffffffffffffffffffffffff160217905550611d5f806100536000396000f3fe6080604052600436106100c25760003560e01c806367c6e39c1161007f578063a3f1a0a611610059578063a3f1a0a61461023b578063bd092baa14610278578063d294f09314610294578063e909ebfa146102ab576100c2565b806367c6e39c146101da57806367e7646f146101f65780637e348b7d1461021f576100c2565b8063072ea61c146100c75780631e9a6950146100f25780632ef19a711461011b578063508493bc14610137578063587cde1e14610174578063626fc553146101b1575b600080fd5b3480156100d357600080fd5b506100dc6102d4565b6040516100e991906119b0565b60405180910390f35b3480156100fe57600080fd5b50610119600480360381019061011491906115bf565b6102e0565b005b61013560048036038101906101309190611463565b610382565b005b34801561014357600080fd5b5061015e600480360381019061015991906113d3565b6103f0565b60405161016b91906119b0565b60405180910390f35b34801561018057600080fd5b5061019b600480360381019061019691906113aa565b610415565b6040516101a89190611848565b60405180910390f35b3480156101bd57600080fd5b506101d860048036038101906101d391906114b7565b610448565b005b6101f460048036038101906101ef919061150b565b610557565b005b34801561020257600080fd5b5061021d600480360381019061021891906113aa565b61095a565b005b6102396004803603810190610234919061150b565b610a4d565b005b34801561024757600080fd5b50610262600480360381019061025d919061140f565b610b91565b60405161026f91906118ec565b60405180910390f35b610292600480360381019061028d9190611570565b610d33565b005b3480156102a057600080fd5b506102a9610e96565b005b3480156102b757600080fd5b506102d260048036038101906102cd91906113d3565b610f37565b005b670de0b6b3a764000081565b80600260003373ffffffffffffffffffffffffffffffffffffffff1673ffffffffffffffffffffffffffffffffffffffff16815260200190815260200160002060008473ffffffffffffffffffffffffffffffffffffffff1673ffffffffffffffffffffffffffffffffffffffff168152602001908152602001600020600082825461036c9190611b45565b9250508190555061037e823383611047565b5050565b60005b81518110156103eb576103d8838383815181106103cb577f4e487b7100000000000000000000000000000000000000000000000000000000600052603260045260246000fd5b6020026020010151610557565b80806103e390611c15565b915050610385565b505050565b6002602052816000526040600020602052806000526040600020600091509150505481565b60016020528060005260406000206000915054906101000a900473ffffffffffffffffffffffffffffffffffffffff1681565b60008054906101000a900473ffffffffffffffffffffffffffffffffffffffff1673ffffffffffffffffffffffffffffffffffffffff163373ffffffffffffffffffffffffffffffffffffffff16146104a057600080fd5b6000808373ffffffffffffffffffffffffffffffffffffffff16836040516104c89190611831565b600060405180830381855af49150503d8060008114610503576040519150601f19603f3d011682016040523d82523d6000602084013e610508565b606091505b5091509150818190610550576040517f08c379a0000000000000000000000000000000000000000000000000000000008152600401610547919061190e565b60405180910390fd5b5050505050565b6000600360008473ffffffffffffffffffffffffffffffffffffffff1673ffffffffffffffffffffffffffffffffffffffff16815260200190815260200160002082815481106105d0577f4e487b7100000000000000000000000000000000000000000000000000000000600052603260045260246000fd5b906000526020600020906003020160405180606001604052908160008201548152602001600182015481526020016002820160009054906101000a900473ffffffffffffffffffffffffffffffffffffffff1673ffffffffffffffffffffffffffffffffffffffff1673ffffffffffffffffffffffffffffffffffffffff16815250509050806020015142141561069c576040517f08c379a000000000000000000000000000000000000000000000000000000000815260040161069390611930565b60405180910390fd5b73eeeeeeeeeeeeeeeeeeeeeeeeeeeeeeeeeeeeeeee73ffffffffffffffffffffffffffffffffffffffff16816040015173ffffffffffffffffffffffffffffffffffffffff16146107da577fffffffffffffffffffffffffffffffffffffffffffffffffffffffffffffffff816040015173ffffffffffffffffffffffffffffffffffffffff1663dd62ed3e85306040518363ffffffff1660e01b8152600401610747929190611863565b602060405180830381600087803b15801561076157600080fd5b505af1158015610775573d6000803e3d6000fd5b505050506040513d601f19601f8201168201806040525081019061079991906115fb565b146107d9576040517f08c379a00000000000000000000000000000000000000000000000000000000081526004016107d090611990565b60405180910390fd5b5b8273ffffffffffffffffffffffffffffffffffffffff163373ffffffffffffffffffffffffffffffffffffffff16148061089e5750600160008473ffffffffffffffffffffffffffffffffffffffff1673ffffffffffffffffffffffffffffffffffffffff16815260200190815260200160002060009054906101000a900473ffffffffffffffffffffffffffffffffffffffff1673ffffffffffffffffffffffffffffffffffffffff163373ffffffffffffffffffffffffffffffffffffffff16145b6108a757600080fd5b6108ba8160400151848360000151610d33565b8060000151600260008573ffffffffffffffffffffffffffffffffffffffff1673ffffffffffffffffffffffffffffffffffffffff1681526020019081526020016000206000836040015173ffffffffffffffffffffffffffffffffffffffff1673ffffffffffffffffffffffffffffffffffffffff168152602001908152602001600020600082825461094e9190611aef565b92505081905550505050565b60008054906101000a900473ffffffffffffffffffffffffffffffffffffffff1673ffffffffffffffffffffffffffffffffffffffff163373ffffffffffffffffffffffffffffffffffffffff1614806109df57508073ffffffffffffffffffffffffffffffffffffffff163373ffffffffffffffffffffffffffffffffffffffff16145b6109e857600080fd5b600160008273ffffffffffffffffffffffffffffffffffffffff1673ffffffffffffffffffffffffffffffffffffffff16815260200190815260200160002060006101000a81549073ffffffffffffffffffffffffffffffffffffffff021916905550565b670de0b6b3a76400003414610a97576040517f08c379a0000000000000000000000000000000000000000000000000000000008152600401610a8e90611950565b60405180910390fd5b600360003373ffffffffffffffffffffffffffffffffffffffff1673ffffffffffffffffffffffffffffffffffffffff16815260200190815260200160002060405180606001604052808381526020014281526020018473ffffffffffffffffffffffffffffffffffffffff168152509080600181540180825580915050600190039060005260206000209060030201600090919091909150600082015181600001556020820151816001015560408201518160020160006101000a81548173ffffffffffffffffffffffffffffffffffffffff021916908373ffffffffffffffffffffffffffffffffffffffff16021790555050505050565b60606000825167ffffffffffffffff811115610bd6577f4e487b7100000000000000000000000000000000000000000000000000000000600052604160045260246000fd5b604051908082528060200260200182016040528015610c045781602001602082028036833780820191505090505b50905060005b8351811015610d2857600260008673ffffffffffffffffffffffffffffffffffffffff1673ffffffffffffffffffffffffffffffffffffffff1681526020019081526020016000206000858381518110610c8d577f4e487b7100000000000000000000000000000000000000000000000000000000600052603260045260246000fd5b602002602001015173ffffffffffffffffffffffffffffffffffffffff1673ffffffffffffffffffffffffffffffffffffffff16815260200190815260200160002054828281518110610d09577f4e487b7100000000000000000000000000000000000000000000000000000000600052603260045260246000fd5b6020026020010181815250508080610d2090611c15565b915050610c0a565b508091505092915050565b73eeeeeeeeeeeeeeeeeeeeeeeeeeeeeeeeeeeeeeee73ffffffffffffffffffffffffffffffffffffffff168373ffffffffffffffffffffffffffffffffffffffff161415610dc257803414610dbd576040517f08c379a0000000000000000000000000000000000000000000000000000000008152600401610db490611970565b60405180910390fd5b610e91565b8273ffffffffffffffffffffffffffffffffffffffff166323b872dd8330846040518463ffffffff1660e01b8152600401610dff9392919061188c565b602060405180830381600087803b158015610e1957600080fd5b505af1158015610e2d573d6000803e3d6000fd5b505050506040513d601f19601f82011682018060405250810190610e519190611547565b610e90576040517f08c379a0000000000000000000000000000000000000000000000000000000008152600401610e8790611970565b60405180910390fd5b5b505050565b60008054906101000a900473ffffffffffffffffffffffffffffffffffffffff1673ffffffffffffffffffffffffffffffffffffffff163373ffffffffffffffffffffffffffffffffffffffff1614610eee57600080fd5b3373ffffffffffffffffffffffffffffffffffffffff166108fc479081150290604051600060405180830381858888f19350505050158015610f34573d6000803e3d6000fd5b50565b60008054906101000a900473ffffffffffffffffffffffffffffffffffffffff1673ffffffffffffffffffffffffffffffffffffffff163373ffffffffffffffffffffffffffffffffffffffff161480610fbc57508173ffffffffffffffffffffffffffffffffffffffff163373ffffffffffffffffffffffffffffffffffffffff16145b610fc557600080fd5b80600160008473ffffffffffffffffffffffffffffffffffffffff1673ffffffffffffffffffffffffffffffffffffffff16815260200190815260200160002060006101000a81548173ffffffffffffffffffffffffffffffffffffffff021916908373ffffffffffffffffffffffffffffffffffffffff1602179055505050565b73eeeeeeeeeeeeeeeeeeeeeeeeeeeeeeeeeeeeeeee73ffffffffffffffffffffffffffffffffffffffff168373ffffffffffffffffffffffffffffffffffffffff1614156110db578173ffffffffffffffffffffffffffffffffffffffff166108fc829081150290604051600060405180830381858888f193505050501580156110d5573d6000803e3d6000fd5b506111a8565b8273ffffffffffffffffffffffffffffffffffffffff1663a9059cbb83836040518363ffffffff1660e01b81526004016111169291906118c3565b602060405180830381600087803b15801561113057600080fd5b505af1158015611144573d6000803e3d6000fd5b505050506040513d601f19601f820116820180604052508101906111689190611547565b6111a7576040517f08c379a000000000000000000000000000000000000000000000000000000000815260040161119e90611970565b60405180910390fd5b5b505050565b60006111c06111bb846119fc565b6119cb565b905080838252602082019050828560208602820111156111df57600080fd5b60005b8581101561120f57816111f588826112c3565b8452602084019350602083019250506001810190506111e2565b5050509392505050565b600061122c61122784611a28565b6119cb565b9050808382526020820190508285602086028201111561124b57600080fd5b60005b8581101561127b57816112618882611380565b84526020840193506020830192505060018101905061124e565b5050509392505050565b600061129861129384611a54565b6119cb565b9050828152602081018484840111156112b057600080fd5b6112bb848285611bd3565b509392505050565b6000813590506112d281611ccd565b92915050565b600082601f8301126112e957600080fd5b81356112f98482602086016111ad565b91505092915050565b600082601f83011261131357600080fd5b8135611323848260208601611219565b91505092915050565b60008151905061133b81611ce4565b92915050565b600082601f83011261135257600080fd5b8135611362848260208601611285565b91505092915050565b60008135905061137a81611cfb565b92915050565b60008135905061138f81611d12565b92915050565b6000815190506113a481611d12565b92915050565b6000602082840312156113bc57600080fd5b60006113ca848285016112c3565b91505092915050565b600080604083850312156113e657600080fd5b60006113f4858286016112c3565b9250506020611405858286016112c3565b9150509250929050565b6000806040838503121561142257600080fd5b6000611430858286016112c3565b925050602083013567ffffffffffffffff81111561144d57600080fd5b611459858286016112d8565b9150509250929050565b6000806040838503121561147657600080fd5b6000611484858286016112c3565b925050602083013567ffffffffffffffff8111156114a157600080fd5b6114ad85828601611302565b9150509250929050565b600080604083850312156114ca57600080fd5b60006114d8858286016112c3565b925050602083013567ffffffffffffffff8111156114f557600080fd5b61150185828601611341565b9150509250929050565b6000806040838503121561151e57600080fd5b600061152c858286016112c3565b925050602061153d85828601611380565b9150509250929050565b60006020828403121561155957600080fd5b60006115678482850161132c565b91505092915050565b60008060006060848603121561158557600080fd5b60006115938682870161136b565b93505060206115a4868287016112c3565b92505060406115b586828701611380565b9150509250925092565b600080604083850312156115d257600080fd5b60006115e08582860161136b565b92505060206115f185828601611380565b9150509250929050565b60006020828403121561160d57600080fd5b600061161b84828501611395565b91505092915050565b60006116308383611813565b60208301905092915050565b61164581611b79565b82525050565b600061165682611a94565b6116608185611ac2565b935061166b83611a84565b8060005b8381101561169c5781516116838882611624565b975061168e83611ab5565b92505060018101905061166f565b5085935050505092915050565b60006116b482611a9f565b6116be8185611ad3565b93506116ce818560208601611be2565b80840191505092915050565b60006116e582611aaa565b6116ef8185611ade565b93506116ff818560208601611be2565b61170881611cbc565b840191505092915050565b6000611720601783611ade565b91507f6572722f7761697420616674657220656e746572696e670000000000000000006000830152602082019050919050565b6000611760601083611ade565b91507f65727220666565206e6f742070616964000000000000000000000000000000006000830152602082019050919050565b60006117a0601583611ade565b91507f6572722f6e6f7420656e6f75676820746f6b656e7300000000000000000000006000830152602082019050919050565b60006117e0601b83611ade565b91507f6572722f6d75737420676976652066756c6c20617070726f76616c00000000006000830152602082019050919050565b61181c81611bc9565b82525050565b61182b81611bc9565b82525050565b600061183d82846116a9565b915081905092915050565b600060208201905061185d600083018461163c565b92915050565b6000604082019050611878600083018561163c565b611885602083018461163c565b9392505050565b60006060820190506118a1600083018661163c565b6118ae602083018561163c565b6118bb6040830184611822565b949350505050565b60006040820190506118d8600083018561163c565b6118e56020830184611822565b9392505050565b60006020820190508181036000830152611906818461164b565b905092915050565b6000602082019050818103600083015261192881846116da565b905092915050565b6000602082019050818103600083015261194981611713565b9050919050565b6000602082019050818103600083015261196981611753565b9050919050565b6000602082019050818103600083015261198981611793565b9050919050565b600060208201905081810360008301526119a9816117d3565b9050919050565b60006020820190506119c56000830184611822565b92915050565b6000604051905081810181811067ffffffffffffffff821117156119f2576119f1611c8d565b5b8060405250919050565b600067ffffffffffffffff821115611a1757611a16611c8d565b5b602082029050602081019050919050565b600067ffffffffffffffff821115611a4357611a42611c8d565b5b602082029050602081019050919050565b600067ffffffffffffffff821115611a6f57611a6e611c8d565b5b601f19601f8301169050602081019050919050565b6000819050602082019050919050565b600081519050919050565b600081519050919050565b600081519050919050565b6000602082019050919050565b600082825260208201905092915050565b600081905092915050565b600082825260208201905092915050565b6000611afa82611bc9565b9150611b0583611bc9565b9250827fffffffffffffffffffffffffffffffffffffffffffffffffffffffffffffffff03821115611b3a57611b39611c5e565b5b828201905092915050565b6000611b5082611bc9565b9150611b5b83611bc9565b925082821015611b6e57611b6d611c5e565b5b828203905092915050565b6000611b8482611ba9565b9050919050565b60008115159050919050565b6000611ba282611b79565b9050919050565b600073ffffffffffffffffffffffffffffffffffffffff82169050919050565b6000819050919050565b82818337600083830152505050565b60005b83811015611c00578082015181840152602081019050611be5565b83811115611c0f576000848401525b50505050565b6000611c2082611bc9565b91507fffffffffffffffffffffffffffffffffffffffffffffffffffffffffffffffff821415611c5357611c52611c5e565b5b600182019050919050565b7f4e487b7100000000000000000000000000000000000000000000000000000000600052601160045260246000fd5b7f4e487b7100000000000000000000000000000000000000000000000000000000600052604160045260246000fd5b6000601f19601f8301169050919050565b611cd681611b79565b8114611ce157600080fd5b50565b611ced81611b8b565b8114611cf857600080fd5b50565b611d0481611b97565b8114611d0f57600080fd5b50565b611d1b81611bc9565b8114611d2657600080fd5b5056fea26469706673582212204605bed34047e70facc91e37eea44588afbe7694438e95d00915c572e33411d164736f6c63430008000033",
          "opcodes": "PUSH1 0x80 PUSH1 0x40 MSTORE CALLER PUSH1 0x0 DUP1 PUSH2 0x100 EXP DUP2 SLOAD DUP2 PUSH20 0xFFFFFFFFFFFFFFFFFFFFFFFFFFFFFFFFFFFFFFFF MUL NOT AND SWAP1 DUP4 PUSH20 0xFFFFFFFFFFFFFFFFFFFFFFFFFFFFFFFFFFFFFFFF AND MUL OR SWAP1 SSTORE POP PUSH2 0x1D5F DUP1 PUSH2 0x53 PUSH1 0x0 CODECOPY PUSH1 0x0 RETURN INVALID PUSH1 0x80 PUSH1 0x40 MSTORE PUSH1 0x4 CALLDATASIZE LT PUSH2 0xC2 JUMPI PUSH1 0x0 CALLDATALOAD PUSH1 0xE0 SHR DUP1 PUSH4 0x67C6E39C GT PUSH2 0x7F JUMPI DUP1 PUSH4 0xA3F1A0A6 GT PUSH2 0x59 JUMPI DUP1 PUSH4 0xA3F1A0A6 EQ PUSH2 0x23B JUMPI DUP1 PUSH4 0xBD092BAA EQ PUSH2 0x278 JUMPI DUP1 PUSH4 0xD294F093 EQ PUSH2 0x294 JUMPI DUP1 PUSH4 0xE909EBFA EQ PUSH2 0x2AB JUMPI PUSH2 0xC2 JUMP JUMPDEST DUP1 PUSH4 0x67C6E39C EQ PUSH2 0x1DA JUMPI DUP1 PUSH4 0x67E7646F EQ PUSH2 0x1F6 JUMPI DUP1 PUSH4 0x7E348B7D EQ PUSH2 0x21F JUMPI PUSH2 0xC2 JUMP JUMPDEST DUP1 PUSH4 0x72EA61C EQ PUSH2 0xC7 JUMPI DUP1 PUSH4 0x1E9A6950 EQ PUSH2 0xF2 JUMPI DUP1 PUSH4 0x2EF19A71 EQ PUSH2 0x11B JUMPI DUP1 PUSH4 0x508493BC EQ PUSH2 0x137 JUMPI DUP1 PUSH4 0x587CDE1E EQ PUSH2 0x174 JUMPI DUP1 PUSH4 0x626FC553 EQ PUSH2 0x1B1 JUMPI JUMPDEST PUSH1 0x0 DUP1 REVERT JUMPDEST CALLVALUE DUP1 ISZERO PUSH2 0xD3 JUMPI PUSH1 0x0 DUP1 REVERT JUMPDEST POP PUSH2 0xDC PUSH2 0x2D4 JUMP JUMPDEST PUSH1 0x40 MLOAD PUSH2 0xE9 SWAP2 SWAP1 PUSH2 0x19B0 JUMP JUMPDEST PUSH1 0x40 MLOAD DUP1 SWAP2 SUB SWAP1 RETURN JUMPDEST CALLVALUE DUP1 ISZERO PUSH2 0xFE JUMPI PUSH1 0x0 DUP1 REVERT JUMPDEST POP PUSH2 0x119 PUSH1 0x4 DUP1 CALLDATASIZE SUB DUP2 ADD SWAP1 PUSH2 0x114 SWAP2 SWAP1 PUSH2 0x15BF JUMP JUMPDEST PUSH2 0x2E0 JUMP JUMPDEST STOP JUMPDEST PUSH2 0x135 PUSH1 0x4 DUP1 CALLDATASIZE SUB DUP2 ADD SWAP1 PUSH2 0x130 SWAP2 SWAP1 PUSH2 0x1463 JUMP JUMPDEST PUSH2 0x382 JUMP JUMPDEST STOP JUMPDEST CALLVALUE DUP1 ISZERO PUSH2 0x143 JUMPI PUSH1 0x0 DUP1 REVERT JUMPDEST POP PUSH2 0x15E PUSH1 0x4 DUP1 CALLDATASIZE SUB DUP2 ADD SWAP1 PUSH2 0x159 SWAP2 SWAP1 PUSH2 0x13D3 JUMP JUMPDEST PUSH2 0x3F0 JUMP JUMPDEST PUSH1 0x40 MLOAD PUSH2 0x16B SWAP2 SWAP1 PUSH2 0x19B0 JUMP JUMPDEST PUSH1 0x40 MLOAD DUP1 SWAP2 SUB SWAP1 RETURN JUMPDEST CALLVALUE DUP1 ISZERO PUSH2 0x180 JUMPI PUSH1 0x0 DUP1 REVERT JUMPDEST POP PUSH2 0x19B PUSH1 0x4 DUP1 CALLDATASIZE SUB DUP2 ADD SWAP1 PUSH2 0x196 SWAP2 SWAP1 PUSH2 0x13AA JUMP JUMPDEST PUSH2 0x415 JUMP JUMPDEST PUSH1 0x40 MLOAD PUSH2 0x1A8 SWAP2 SWAP1 PUSH2 0x1848 JUMP JUMPDEST PUSH1 0x40 MLOAD DUP1 SWAP2 SUB SWAP1 RETURN JUMPDEST CALLVALUE DUP1 ISZERO PUSH2 0x1BD JUMPI PUSH1 0x0 DUP1 REVERT JUMPDEST POP PUSH2 0x1D8 PUSH1 0x4 DUP1 CALLDATASIZE SUB DUP2 ADD SWAP1 PUSH2 0x1D3 SWAP2 SWAP1 PUSH2 0x14B7 JUMP JUMPDEST PUSH2 0x448 JUMP JUMPDEST STOP JUMPDEST PUSH2 0x1F4 PUSH1 0x4 DUP1 CALLDATASIZE SUB DUP2 ADD SWAP1 PUSH2 0x1EF SWAP2 SWAP1 PUSH2 0x150B JUMP JUMPDEST PUSH2 0x557 JUMP JUMPDEST STOP JUMPDEST CALLVALUE DUP1 ISZERO PUSH2 0x202 JUMPI PUSH1 0x0 DUP1 REVERT JUMPDEST POP PUSH2 0x21D PUSH1 0x4 DUP1 CALLDATASIZE SUB DUP2 ADD SWAP1 PUSH2 0x218 SWAP2 SWAP1 PUSH2 0x13AA JUMP JUMPDEST PUSH2 0x95A JUMP JUMPDEST STOP JUMPDEST PUSH2 0x239 PUSH1 0x4 DUP1 CALLDATASIZE SUB DUP2 ADD SWAP1 PUSH2 0x234 SWAP2 SWAP1 PUSH2 0x150B JUMP JUMPDEST PUSH2 0xA4D JUMP JUMPDEST STOP JUMPDEST CALLVALUE DUP1 ISZERO PUSH2 0x247 JUMPI PUSH1 0x0 DUP1 REVERT JUMPDEST POP PUSH2 0x262 PUSH1 0x4 DUP1 CALLDATASIZE SUB DUP2 ADD SWAP1 PUSH2 0x25D SWAP2 SWAP1 PUSH2 0x140F JUMP JUMPDEST PUSH2 0xB91 JUMP JUMPDEST PUSH1 0x40 MLOAD PUSH2 0x26F SWAP2 SWAP1 PUSH2 0x18EC JUMP JUMPDEST PUSH1 0x40 MLOAD DUP1 SWAP2 SUB SWAP1 RETURN JUMPDEST PUSH2 0x292 PUSH1 0x4 DUP1 CALLDATASIZE SUB DUP2 ADD SWAP1 PUSH2 0x28D SWAP2 SWAP1 PUSH2 0x1570 JUMP JUMPDEST PUSH2 0xD33 JUMP JUMPDEST STOP JUMPDEST CALLVALUE DUP1 ISZERO PUSH2 0x2A0 JUMPI PUSH1 0x0 DUP1 REVERT JUMPDEST POP PUSH2 0x2A9 PUSH2 0xE96 JUMP JUMPDEST STOP JUMPDEST CALLVALUE DUP1 ISZERO PUSH2 0x2B7 JUMPI PUSH1 0x0 DUP1 REVERT JUMPDEST POP PUSH2 0x2D2 PUSH1 0x4 DUP1 CALLDATASIZE SUB DUP2 ADD SWAP1 PUSH2 0x2CD SWAP2 SWAP1 PUSH2 0x13D3 JUMP JUMPDEST PUSH2 0xF37 JUMP JUMPDEST STOP JUMPDEST PUSH8 0xDE0B6B3A7640000 DUP2 JUMP JUMPDEST DUP1 PUSH1 0x2 PUSH1 0x0 CALLER PUSH20 0xFFFFFFFFFFFFFFFFFFFFFFFFFFFFFFFFFFFFFFFF AND PUSH20 0xFFFFFFFFFFFFFFFFFFFFFFFFFFFFFFFFFFFFFFFF AND DUP2 MSTORE PUSH1 0x20 ADD SWAP1 DUP2 MSTORE PUSH1 0x20 ADD PUSH1 0x0 KECCAK256 PUSH1 0x0 DUP5 PUSH20 0xFFFFFFFFFFFFFFFFFFFFFFFFFFFFFFFFFFFFFFFF AND PUSH20 0xFFFFFFFFFFFFFFFFFFFFFFFFFFFFFFFFFFFFFFFF AND DUP2 MSTORE PUSH1 0x20 ADD SWAP1 DUP2 MSTORE PUSH1 0x20 ADD PUSH1 0x0 KECCAK256 PUSH1 0x0 DUP3 DUP3 SLOAD PUSH2 0x36C SWAP2 SWAP1 PUSH2 0x1B45 JUMP JUMPDEST SWAP3 POP POP DUP2 SWAP1 SSTORE POP PUSH2 0x37E DUP3 CALLER DUP4 PUSH2 0x1047 JUMP JUMPDEST POP POP JUMP JUMPDEST PUSH1 0x0 JUMPDEST DUP2 MLOAD DUP2 LT ISZERO PUSH2 0x3EB JUMPI PUSH2 0x3D8 DUP4 DUP4 DUP4 DUP2 MLOAD DUP2 LT PUSH2 0x3CB JUMPI PUSH32 0x4E487B7100000000000000000000000000000000000000000000000000000000 PUSH1 0x0 MSTORE PUSH1 0x32 PUSH1 0x4 MSTORE PUSH1 0x24 PUSH1 0x0 REVERT JUMPDEST PUSH1 0x20 MUL PUSH1 0x20 ADD ADD MLOAD PUSH2 0x557 JUMP JUMPDEST DUP1 DUP1 PUSH2 0x3E3 SWAP1 PUSH2 0x1C15 JUMP JUMPDEST SWAP2 POP POP PUSH2 0x385 JUMP JUMPDEST POP POP POP JUMP JUMPDEST PUSH1 0x2 PUSH1 0x20 MSTORE DUP2 PUSH1 0x0 MSTORE PUSH1 0x40 PUSH1 0x0 KECCAK256 PUSH1 0x20 MSTORE DUP1 PUSH1 0x0 MSTORE PUSH1 0x40 PUSH1 0x0 KECCAK256 PUSH1 0x0 SWAP2 POP SWAP2 POP POP SLOAD DUP2 JUMP JUMPDEST PUSH1 0x1 PUSH1 0x20 MSTORE DUP1 PUSH1 0x0 MSTORE PUSH1 0x40 PUSH1 0x0 KECCAK256 PUSH1 0x0 SWAP2 POP SLOAD SWAP1 PUSH2 0x100 EXP SWAP1 DIV PUSH20 0xFFFFFFFFFFFFFFFFFFFFFFFFFFFFFFFFFFFFFFFF AND DUP2 JUMP JUMPDEST PUSH1 0x0 DUP1 SLOAD SWAP1 PUSH2 0x100 EXP SWAP1 DIV PUSH20 0xFFFFFFFFFFFFFFFFFFFFFFFFFFFFFFFFFFFFFFFF AND PUSH20 0xFFFFFFFFFFFFFFFFFFFFFFFFFFFFFFFFFFFFFFFF AND CALLER PUSH20 0xFFFFFFFFFFFFFFFFFFFFFFFFFFFFFFFFFFFFFFFF AND EQ PUSH2 0x4A0 JUMPI PUSH1 0x0 DUP1 REVERT JUMPDEST PUSH1 0x0 DUP1 DUP4 PUSH20 0xFFFFFFFFFFFFFFFFFFFFFFFFFFFFFFFFFFFFFFFF AND DUP4 PUSH1 0x40 MLOAD PUSH2 0x4C8 SWAP2 SWAP1 PUSH2 0x1831 JUMP JUMPDEST PUSH1 0x0 PUSH1 0x40 MLOAD DUP1 DUP4 SUB DUP2 DUP6 GAS DELEGATECALL SWAP2 POP POP RETURNDATASIZE DUP1 PUSH1 0x0 DUP2 EQ PUSH2 0x503 JUMPI PUSH1 0x40 MLOAD SWAP2 POP PUSH1 0x1F NOT PUSH1 0x3F RETURNDATASIZE ADD AND DUP3 ADD PUSH1 0x40 MSTORE RETURNDATASIZE DUP3 MSTORE RETURNDATASIZE PUSH1 0x0 PUSH1 0x20 DUP5 ADD RETURNDATACOPY PUSH2 0x508 JUMP JUMPDEST PUSH1 0x60 SWAP2 POP JUMPDEST POP SWAP2 POP SWAP2 POP DUP2 DUP2 SWAP1 PUSH2 0x550 JUMPI PUSH1 0x40 MLOAD PUSH32 0x8C379A000000000000000000000000000000000000000000000000000000000 DUP2 MSTORE PUSH1 0x4 ADD PUSH2 0x547 SWAP2 SWAP1 PUSH2 0x190E JUMP JUMPDEST PUSH1 0x40 MLOAD DUP1 SWAP2 SUB SWAP1 REVERT JUMPDEST POP POP POP POP POP JUMP JUMPDEST PUSH1 0x0 PUSH1 0x3 PUSH1 0x0 DUP5 PUSH20 0xFFFFFFFFFFFFFFFFFFFFFFFFFFFFFFFFFFFFFFFF AND PUSH20 0xFFFFFFFFFFFFFFFFFFFFFFFFFFFFFFFFFFFFFFFF AND DUP2 MSTORE PUSH1 0x20 ADD SWAP1 DUP2 MSTORE PUSH1 0x20 ADD PUSH1 0x0 KECCAK256 DUP3 DUP2 SLOAD DUP2 LT PUSH2 0x5D0 JUMPI PUSH32 0x4E487B7100000000000000000000000000000000000000000000000000000000 PUSH1 0x0 MSTORE PUSH1 0x32 PUSH1 0x4 MSTORE PUSH1 0x24 PUSH1 0x0 REVERT JUMPDEST SWAP1 PUSH1 0x0 MSTORE PUSH1 0x20 PUSH1 0x0 KECCAK256 SWAP1 PUSH1 0x3 MUL ADD PUSH1 0x40 MLOAD DUP1 PUSH1 0x60 ADD PUSH1 0x40 MSTORE SWAP1 DUP2 PUSH1 0x0 DUP3 ADD SLOAD DUP2 MSTORE PUSH1 0x20 ADD PUSH1 0x1 DUP3 ADD SLOAD DUP2 MSTORE PUSH1 0x20 ADD PUSH1 0x2 DUP3 ADD PUSH1 0x0 SWAP1 SLOAD SWAP1 PUSH2 0x100 EXP SWAP1 DIV PUSH20 0xFFFFFFFFFFFFFFFFFFFFFFFFFFFFFFFFFFFFFFFF AND PUSH20 0xFFFFFFFFFFFFFFFFFFFFFFFFFFFFFFFFFFFFFFFF AND PUSH20 0xFFFFFFFFFFFFFFFFFFFFFFFFFFFFFFFFFFFFFFFF AND DUP2 MSTORE POP POP SWAP1 POP DUP1 PUSH1 0x20 ADD MLOAD TIMESTAMP EQ ISZERO PUSH2 0x69C JUMPI PUSH1 0x40 MLOAD PUSH32 0x8C379A000000000000000000000000000000000000000000000000000000000 DUP2 MSTORE PUSH1 0x4 ADD PUSH2 0x693 SWAP1 PUSH2 0x1930 JUMP JUMPDEST PUSH1 0x40 MLOAD DUP1 SWAP2 SUB SWAP1 REVERT JUMPDEST PUSH20 0xEEEEEEEEEEEEEEEEEEEEEEEEEEEEEEEEEEEEEEEE PUSH20 0xFFFFFFFFFFFFFFFFFFFFFFFFFFFFFFFFFFFFFFFF AND DUP2 PUSH1 0x40 ADD MLOAD PUSH20 0xFFFFFFFFFFFFFFFFFFFFFFFFFFFFFFFFFFFFFFFF AND EQ PUSH2 0x7DA JUMPI PUSH32 0xFFFFFFFFFFFFFFFFFFFFFFFFFFFFFFFFFFFFFFFFFFFFFFFFFFFFFFFFFFFFFFFF DUP2 PUSH1 0x40 ADD MLOAD PUSH20 0xFFFFFFFFFFFFFFFFFFFFFFFFFFFFFFFFFFFFFFFF AND PUSH4 0xDD62ED3E DUP6 ADDRESS PUSH1 0x40 MLOAD DUP4 PUSH4 0xFFFFFFFF AND PUSH1 0xE0 SHL DUP2 MSTORE PUSH1 0x4 ADD PUSH2 0x747 SWAP3 SWAP2 SWAP1 PUSH2 0x1863 JUMP JUMPDEST PUSH1 0x20 PUSH1 0x40 MLOAD DUP1 DUP4 SUB DUP2 PUSH1 0x0 DUP8 DUP1 EXTCODESIZE ISZERO DUP1 ISZERO PUSH2 0x761 JUMPI PUSH1 0x0 DUP1 REVERT JUMPDEST POP GAS CALL ISZERO DUP1 ISZERO PUSH2 0x775 JUMPI RETURNDATASIZE PUSH1 0x0 DUP1 RETURNDATACOPY RETURNDATASIZE PUSH1 0x0 REVERT JUMPDEST POP POP POP POP PUSH1 0x40 MLOAD RETURNDATASIZE PUSH1 0x1F NOT PUSH1 0x1F DUP3 ADD AND DUP3 ADD DUP1 PUSH1 0x40 MSTORE POP DUP2 ADD SWAP1 PUSH2 0x799 SWAP2 SWAP1 PUSH2 0x15FB JUMP JUMPDEST EQ PUSH2 0x7D9 JUMPI PUSH1 0x40 MLOAD PUSH32 0x8C379A000000000000000000000000000000000000000000000000000000000 DUP2 MSTORE PUSH1 0x4 ADD PUSH2 0x7D0 SWAP1 PUSH2 0x1990 JUMP JUMPDEST PUSH1 0x40 MLOAD DUP1 SWAP2 SUB SWAP1 REVERT JUMPDEST JUMPDEST DUP3 PUSH20 0xFFFFFFFFFFFFFFFFFFFFFFFFFFFFFFFFFFFFFFFF AND CALLER PUSH20 0xFFFFFFFFFFFFFFFFFFFFFFFFFFFFFFFFFFFFFFFF AND EQ DUP1 PUSH2 0x89E JUMPI POP PUSH1 0x1 PUSH1 0x0 DUP5 PUSH20 0xFFFFFFFFFFFFFFFFFFFFFFFFFFFFFFFFFFFFFFFF AND PUSH20 0xFFFFFFFFFFFFFFFFFFFFFFFFFFFFFFFFFFFFFFFF AND DUP2 MSTORE PUSH1 0x20 ADD SWAP1 DUP2 MSTORE PUSH1 0x20 ADD PUSH1 0x0 KECCAK256 PUSH1 0x0 SWAP1 SLOAD SWAP1 PUSH2 0x100 EXP SWAP1 DIV PUSH20 0xFFFFFFFFFFFFFFFFFFFFFFFFFFFFFFFFFFFFFFFF AND PUSH20 0xFFFFFFFFFFFFFFFFFFFFFFFFFFFFFFFFFFFFFFFF AND CALLER PUSH20 0xFFFFFFFFFFFFFFFFFFFFFFFFFFFFFFFFFFFFFFFF AND EQ JUMPDEST PUSH2 0x8A7 JUMPI PUSH1 0x0 DUP1 REVERT JUMPDEST PUSH2 0x8BA DUP2 PUSH1 0x40 ADD MLOAD DUP5 DUP4 PUSH1 0x0 ADD MLOAD PUSH2 0xD33 JUMP JUMPDEST DUP1 PUSH1 0x0 ADD MLOAD PUSH1 0x2 PUSH1 0x0 DUP6 PUSH20 0xFFFFFFFFFFFFFFFFFFFFFFFFFFFFFFFFFFFFFFFF AND PUSH20 0xFFFFFFFFFFFFFFFFFFFFFFFFFFFFFFFFFFFFFFFF AND DUP2 MSTORE PUSH1 0x20 ADD SWAP1 DUP2 MSTORE PUSH1 0x20 ADD PUSH1 0x0 KECCAK256 PUSH1 0x0 DUP4 PUSH1 0x40 ADD MLOAD PUSH20 0xFFFFFFFFFFFFFFFFFFFFFFFFFFFFFFFFFFFFFFFF AND PUSH20 0xFFFFFFFFFFFFFFFFFFFFFFFFFFFFFFFFFFFFFFFF AND DUP2 MSTORE PUSH1 0x20 ADD SWAP1 DUP2 MSTORE PUSH1 0x20 ADD PUSH1 0x0 KECCAK256 PUSH1 0x0 DUP3 DUP3 SLOAD PUSH2 0x94E SWAP2 SWAP1 PUSH2 0x1AEF JUMP JUMPDEST SWAP3 POP POP DUP2 SWAP1 SSTORE POP POP POP POP JUMP JUMPDEST PUSH1 0x0 DUP1 SLOAD SWAP1 PUSH2 0x100 EXP SWAP1 DIV PUSH20 0xFFFFFFFFFFFFFFFFFFFFFFFFFFFFFFFFFFFFFFFF AND PUSH20 0xFFFFFFFFFFFFFFFFFFFFFFFFFFFFFFFFFFFFFFFF AND CALLER PUSH20 0xFFFFFFFFFFFFFFFFFFFFFFFFFFFFFFFFFFFFFFFF AND EQ DUP1 PUSH2 0x9DF JUMPI POP DUP1 PUSH20 0xFFFFFFFFFFFFFFFFFFFFFFFFFFFFFFFFFFFFFFFF AND CALLER PUSH20 0xFFFFFFFFFFFFFFFFFFFFFFFFFFFFFFFFFFFFFFFF AND EQ JUMPDEST PUSH2 0x9E8 JUMPI PUSH1 0x0 DUP1 REVERT JUMPDEST PUSH1 0x1 PUSH1 0x0 DUP3 PUSH20 0xFFFFFFFFFFFFFFFFFFFFFFFFFFFFFFFFFFFFFFFF AND PUSH20 0xFFFFFFFFFFFFFFFFFFFFFFFFFFFFFFFFFFFFFFFF AND DUP2 MSTORE PUSH1 0x20 ADD SWAP1 DUP2 MSTORE PUSH1 0x20 ADD PUSH1 0x0 KECCAK256 PUSH1 0x0 PUSH2 0x100 EXP DUP2 SLOAD SWAP1 PUSH20 0xFFFFFFFFFFFFFFFFFFFFFFFFFFFFFFFFFFFFFFFF MUL NOT AND SWAP1 SSTORE POP JUMP JUMPDEST PUSH8 0xDE0B6B3A7640000 CALLVALUE EQ PUSH2 0xA97 JUMPI PUSH1 0x40 MLOAD PUSH32 0x8C379A000000000000000000000000000000000000000000000000000000000 DUP2 MSTORE PUSH1 0x4 ADD PUSH2 0xA8E SWAP1 PUSH2 0x1950 JUMP JUMPDEST PUSH1 0x40 MLOAD DUP1 SWAP2 SUB SWAP1 REVERT JUMPDEST PUSH1 0x3 PUSH1 0x0 CALLER PUSH20 0xFFFFFFFFFFFFFFFFFFFFFFFFFFFFFFFFFFFFFFFF AND PUSH20 0xFFFFFFFFFFFFFFFFFFFFFFFFFFFFFFFFFFFFFFFF AND DUP2 MSTORE PUSH1 0x20 ADD SWAP1 DUP2 MSTORE PUSH1 0x20 ADD PUSH1 0x0 KECCAK256 PUSH1 0x40 MLOAD DUP1 PUSH1 0x60 ADD PUSH1 0x40 MSTORE DUP1 DUP4 DUP2 MSTORE PUSH1 0x20 ADD TIMESTAMP DUP2 MSTORE PUSH1 0x20 ADD DUP5 PUSH20 0xFFFFFFFFFFFFFFFFFFFFFFFFFFFFFFFFFFFFFFFF AND DUP2 MSTORE POP SWAP1 DUP1 PUSH1 0x1 DUP2 SLOAD ADD DUP1 DUP3 SSTORE DUP1 SWAP2 POP POP PUSH1 0x1 SWAP1 SUB SWAP1 PUSH1 0x0 MSTORE PUSH1 0x20 PUSH1 0x0 KECCAK256 SWAP1 PUSH1 0x3 MUL ADD PUSH1 0x0 SWAP1 SWAP2 SWAP1 SWAP2 SWAP1 SWAP2 POP PUSH1 0x0 DUP3 ADD MLOAD DUP2 PUSH1 0x0 ADD SSTORE PUSH1 0x20 DUP3 ADD MLOAD DUP2 PUSH1 0x1 ADD SSTORE PUSH1 0x40 DUP3 ADD MLOAD DUP2 PUSH1 0x2 ADD PUSH1 0x0 PUSH2 0x100 EXP DUP2 SLOAD DUP2 PUSH20 0xFFFFFFFFFFFFFFFFFFFFFFFFFFFFFFFFFFFFFFFF MUL NOT AND SWAP1 DUP4 PUSH20 0xFFFFFFFFFFFFFFFFFFFFFFFFFFFFFFFFFFFFFFFF AND MUL OR SWAP1 SSTORE POP POP POP POP POP JUMP JUMPDEST PUSH1 0x60 PUSH1 0x0 DUP3 MLOAD PUSH8 0xFFFFFFFFFFFFFFFF DUP2 GT ISZERO PUSH2 0xBD6 JUMPI PUSH32 0x4E487B7100000000000000000000000000000000000000000000000000000000 PUSH1 0x0 MSTORE PUSH1 0x41 PUSH1 0x4 MSTORE PUSH1 0x24 PUSH1 0x0 REVERT JUMPDEST PUSH1 0x40 MLOAD SWAP1 DUP1 DUP3 MSTORE DUP1 PUSH1 0x20 MUL PUSH1 0x20 ADD DUP3 ADD PUSH1 0x40 MSTORE DUP1 ISZERO PUSH2 0xC04 JUMPI DUP2 PUSH1 0x20 ADD PUSH1 0x20 DUP3 MUL DUP1 CALLDATASIZE DUP4 CALLDATACOPY DUP1 DUP3 ADD SWAP2 POP POP SWAP1 POP JUMPDEST POP SWAP1 POP PUSH1 0x0 JUMPDEST DUP4 MLOAD DUP2 LT ISZERO PUSH2 0xD28 JUMPI PUSH1 0x2 PUSH1 0x0 DUP7 PUSH20 0xFFFFFFFFFFFFFFFFFFFFFFFFFFFFFFFFFFFFFFFF AND PUSH20 0xFFFFFFFFFFFFFFFFFFFFFFFFFFFFFFFFFFFFFFFF AND DUP2 MSTORE PUSH1 0x20 ADD SWAP1 DUP2 MSTORE PUSH1 0x20 ADD PUSH1 0x0 KECCAK256 PUSH1 0x0 DUP6 DUP4 DUP2 MLOAD DUP2 LT PUSH2 0xC8D JUMPI PUSH32 0x4E487B7100000000000000000000000000000000000000000000000000000000 PUSH1 0x0 MSTORE PUSH1 0x32 PUSH1 0x4 MSTORE PUSH1 0x24 PUSH1 0x0 REVERT JUMPDEST PUSH1 0x20 MUL PUSH1 0x20 ADD ADD MLOAD PUSH20 0xFFFFFFFFFFFFFFFFFFFFFFFFFFFFFFFFFFFFFFFF AND PUSH20 0xFFFFFFFFFFFFFFFFFFFFFFFFFFFFFFFFFFFFFFFF AND DUP2 MSTORE PUSH1 0x20 ADD SWAP1 DUP2 MSTORE PUSH1 0x20 ADD PUSH1 0x0 KECCAK256 SLOAD DUP3 DUP3 DUP2 MLOAD DUP2 LT PUSH2 0xD09 JUMPI PUSH32 0x4E487B7100000000000000000000000000000000000000000000000000000000 PUSH1 0x0 MSTORE PUSH1 0x32 PUSH1 0x4 MSTORE PUSH1 0x24 PUSH1 0x0 REVERT JUMPDEST PUSH1 0x20 MUL PUSH1 0x20 ADD ADD DUP2 DUP2 MSTORE POP POP DUP1 DUP1 PUSH2 0xD20 SWAP1 PUSH2 0x1C15 JUMP JUMPDEST SWAP2 POP POP PUSH2 0xC0A JUMP JUMPDEST POP DUP1 SWAP2 POP POP SWAP3 SWAP2 POP POP JUMP JUMPDEST PUSH20 0xEEEEEEEEEEEEEEEEEEEEEEEEEEEEEEEEEEEEEEEE PUSH20 0xFFFFFFFFFFFFFFFFFFFFFFFFFFFFFFFFFFFFFFFF AND DUP4 PUSH20 0xFFFFFFFFFFFFFFFFFFFFFFFFFFFFFFFFFFFFFFFF AND EQ ISZERO PUSH2 0xDC2 JUMPI DUP1 CALLVALUE EQ PUSH2 0xDBD JUMPI PUSH1 0x40 MLOAD PUSH32 0x8C379A000000000000000000000000000000000000000000000000000000000 DUP2 MSTORE PUSH1 0x4 ADD PUSH2 0xDB4 SWAP1 PUSH2 0x1970 JUMP JUMPDEST PUSH1 0x40 MLOAD DUP1 SWAP2 SUB SWAP1 REVERT JUMPDEST PUSH2 0xE91 JUMP JUMPDEST DUP3 PUSH20 0xFFFFFFFFFFFFFFFFFFFFFFFFFFFFFFFFFFFFFFFF AND PUSH4 0x23B872DD DUP4 ADDRESS DUP5 PUSH1 0x40 MLOAD DUP5 PUSH4 0xFFFFFFFF AND PUSH1 0xE0 SHL DUP2 MSTORE PUSH1 0x4 ADD PUSH2 0xDFF SWAP4 SWAP3 SWAP2 SWAP1 PUSH2 0x188C JUMP JUMPDEST PUSH1 0x20 PUSH1 0x40 MLOAD DUP1 DUP4 SUB DUP2 PUSH1 0x0 DUP8 DUP1 EXTCODESIZE ISZERO DUP1 ISZERO PUSH2 0xE19 JUMPI PUSH1 0x0 DUP1 REVERT JUMPDEST POP GAS CALL ISZERO DUP1 ISZERO PUSH2 0xE2D JUMPI RETURNDATASIZE PUSH1 0x0 DUP1 RETURNDATACOPY RETURNDATASIZE PUSH1 0x0 REVERT JUMPDEST POP POP POP POP PUSH1 0x40 MLOAD RETURNDATASIZE PUSH1 0x1F NOT PUSH1 0x1F DUP3 ADD AND DUP3 ADD DUP1 PUSH1 0x40 MSTORE POP DUP2 ADD SWAP1 PUSH2 0xE51 SWAP2 SWAP1 PUSH2 0x1547 JUMP JUMPDEST PUSH2 0xE90 JUMPI PUSH1 0x40 MLOAD PUSH32 0x8C379A000000000000000000000000000000000000000000000000000000000 DUP2 MSTORE PUSH1 0x4 ADD PUSH2 0xE87 SWAP1 PUSH2 0x1970 JUMP JUMPDEST PUSH1 0x40 MLOAD DUP1 SWAP2 SUB SWAP1 REVERT JUMPDEST JUMPDEST POP POP POP JUMP JUMPDEST PUSH1 0x0 DUP1 SLOAD SWAP1 PUSH2 0x100 EXP SWAP1 DIV PUSH20 0xFFFFFFFFFFFFFFFFFFFFFFFFFFFFFFFFFFFFFFFF AND PUSH20 0xFFFFFFFFFFFFFFFFFFFFFFFFFFFFFFFFFFFFFFFF AND CALLER PUSH20 0xFFFFFFFFFFFFFFFFFFFFFFFFFFFFFFFFFFFFFFFF AND EQ PUSH2 0xEEE JUMPI PUSH1 0x0 DUP1 REVERT JUMPDEST CALLER PUSH20 0xFFFFFFFFFFFFFFFFFFFFFFFFFFFFFFFFFFFFFFFF AND PUSH2 0x8FC SELFBALANCE SWAP1 DUP2 ISZERO MUL SWAP1 PUSH1 0x40 MLOAD PUSH1 0x0 PUSH1 0x40 MLOAD DUP1 DUP4 SUB DUP2 DUP6 DUP9 DUP9 CALL SWAP4 POP POP POP POP ISZERO DUP1 ISZERO PUSH2 0xF34 JUMPI RETURNDATASIZE PUSH1 0x0 DUP1 RETURNDATACOPY RETURNDATASIZE PUSH1 0x0 REVERT JUMPDEST POP JUMP JUMPDEST PUSH1 0x0 DUP1 SLOAD SWAP1 PUSH2 0x100 EXP SWAP1 DIV PUSH20 0xFFFFFFFFFFFFFFFFFFFFFFFFFFFFFFFFFFFFFFFF AND PUSH20 0xFFFFFFFFFFFFFFFFFFFFFFFFFFFFFFFFFFFFFFFF AND CALLER PUSH20 0xFFFFFFFFFFFFFFFFFFFFFFFFFFFFFFFFFFFFFFFF AND EQ DUP1 PUSH2 0xFBC JUMPI POP DUP2 PUSH20 0xFFFFFFFFFFFFFFFFFFFFFFFFFFFFFFFFFFFFFFFF AND CALLER PUSH20 0xFFFFFFFFFFFFFFFFFFFFFFFFFFFFFFFFFFFFFFFF AND EQ JUMPDEST PUSH2 0xFC5 JUMPI PUSH1 0x0 DUP1 REVERT JUMPDEST DUP1 PUSH1 0x1 PUSH1 0x0 DUP5 PUSH20 0xFFFFFFFFFFFFFFFFFFFFFFFFFFFFFFFFFFFFFFFF AND PUSH20 0xFFFFFFFFFFFFFFFFFFFFFFFFFFFFFFFFFFFFFFFF AND DUP2 MSTORE PUSH1 0x20 ADD SWAP1 DUP2 MSTORE PUSH1 0x20 ADD PUSH1 0x0 KECCAK256 PUSH1 0x0 PUSH2 0x100 EXP DUP2 SLOAD DUP2 PUSH20 0xFFFFFFFFFFFFFFFFFFFFFFFFFFFFFFFFFFFFFFFF MUL NOT AND SWAP1 DUP4 PUSH20 0xFFFFFFFFFFFFFFFFFFFFFFFFFFFFFFFFFFFFFFFF AND MUL OR SWAP1 SSTORE POP POP POP JUMP JUMPDEST PUSH20 0xEEEEEEEEEEEEEEEEEEEEEEEEEEEEEEEEEEEEEEEE PUSH20 0xFFFFFFFFFFFFFFFFFFFFFFFFFFFFFFFFFFFFFFFF AND DUP4 PUSH20 0xFFFFFFFFFFFFFFFFFFFFFFFFFFFFFFFFFFFFFFFF AND EQ ISZERO PUSH2 0x10DB JUMPI DUP2 PUSH20 0xFFFFFFFFFFFFFFFFFFFFFFFFFFFFFFFFFFFFFFFF AND PUSH2 0x8FC DUP3 SWAP1 DUP2 ISZERO MUL SWAP1 PUSH1 0x40 MLOAD PUSH1 0x0 PUSH1 0x40 MLOAD DUP1 DUP4 SUB DUP2 DUP6 DUP9 DUP9 CALL SWAP4 POP POP POP POP ISZERO DUP1 ISZERO PUSH2 0x10D5 JUMPI RETURNDATASIZE PUSH1 0x0 DUP1 RETURNDATACOPY RETURNDATASIZE PUSH1 0x0 REVERT JUMPDEST POP PUSH2 0x11A8 JUMP JUMPDEST DUP3 PUSH20 0xFFFFFFFFFFFFFFFFFFFFFFFFFFFFFFFFFFFFFFFF AND PUSH4 0xA9059CBB DUP4 DUP4 PUSH1 0x40 MLOAD DUP4 PUSH4 0xFFFFFFFF AND PUSH1 0xE0 SHL DUP2 MSTORE PUSH1 0x4 ADD PUSH2 0x1116 SWAP3 SWAP2 SWAP1 PUSH2 0x18C3 JUMP JUMPDEST PUSH1 0x20 PUSH1 0x40 MLOAD DUP1 DUP4 SUB DUP2 PUSH1 0x0 DUP8 DUP1 EXTCODESIZE ISZERO DUP1 ISZERO PUSH2 0x1130 JUMPI PUSH1 0x0 DUP1 REVERT JUMPDEST POP GAS CALL ISZERO DUP1 ISZERO PUSH2 0x1144 JUMPI RETURNDATASIZE PUSH1 0x0 DUP1 RETURNDATACOPY RETURNDATASIZE PUSH1 0x0 REVERT JUMPDEST POP POP POP POP PUSH1 0x40 MLOAD RETURNDATASIZE PUSH1 0x1F NOT PUSH1 0x1F DUP3 ADD AND DUP3 ADD DUP1 PUSH1 0x40 MSTORE POP DUP2 ADD SWAP1 PUSH2 0x1168 SWAP2 SWAP1 PUSH2 0x1547 JUMP JUMPDEST PUSH2 0x11A7 JUMPI PUSH1 0x40 MLOAD PUSH32 0x8C379A000000000000000000000000000000000000000000000000000000000 DUP2 MSTORE PUSH1 0x4 ADD PUSH2 0x119E SWAP1 PUSH2 0x1970 JUMP JUMPDEST PUSH1 0x40 MLOAD DUP1 SWAP2 SUB SWAP1 REVERT JUMPDEST JUMPDEST POP POP POP JUMP JUMPDEST PUSH1 0x0 PUSH2 0x11C0 PUSH2 0x11BB DUP5 PUSH2 0x19FC JUMP JUMPDEST PUSH2 0x19CB JUMP JUMPDEST SWAP1 POP DUP1 DUP4 DUP3 MSTORE PUSH1 0x20 DUP3 ADD SWAP1 POP DUP3 DUP6 PUSH1 0x20 DUP7 MUL DUP3 ADD GT ISZERO PUSH2 0x11DF JUMPI PUSH1 0x0 DUP1 REVERT JUMPDEST PUSH1 0x0 JUMPDEST DUP6 DUP2 LT ISZERO PUSH2 0x120F JUMPI DUP2 PUSH2 0x11F5 DUP9 DUP3 PUSH2 0x12C3 JUMP JUMPDEST DUP5 MSTORE PUSH1 0x20 DUP5 ADD SWAP4 POP PUSH1 0x20 DUP4 ADD SWAP3 POP POP PUSH1 0x1 DUP2 ADD SWAP1 POP PUSH2 0x11E2 JUMP JUMPDEST POP POP POP SWAP4 SWAP3 POP POP POP JUMP JUMPDEST PUSH1 0x0 PUSH2 0x122C PUSH2 0x1227 DUP5 PUSH2 0x1A28 JUMP JUMPDEST PUSH2 0x19CB JUMP JUMPDEST SWAP1 POP DUP1 DUP4 DUP3 MSTORE PUSH1 0x20 DUP3 ADD SWAP1 POP DUP3 DUP6 PUSH1 0x20 DUP7 MUL DUP3 ADD GT ISZERO PUSH2 0x124B JUMPI PUSH1 0x0 DUP1 REVERT JUMPDEST PUSH1 0x0 JUMPDEST DUP6 DUP2 LT ISZERO PUSH2 0x127B JUMPI DUP2 PUSH2 0x1261 DUP9 DUP3 PUSH2 0x1380 JUMP JUMPDEST DUP5 MSTORE PUSH1 0x20 DUP5 ADD SWAP4 POP PUSH1 0x20 DUP4 ADD SWAP3 POP POP PUSH1 0x1 DUP2 ADD SWAP1 POP PUSH2 0x124E JUMP JUMPDEST POP POP POP SWAP4 SWAP3 POP POP POP JUMP JUMPDEST PUSH1 0x0 PUSH2 0x1298 PUSH2 0x1293 DUP5 PUSH2 0x1A54 JUMP JUMPDEST PUSH2 0x19CB JUMP JUMPDEST SWAP1 POP DUP3 DUP2 MSTORE PUSH1 0x20 DUP2 ADD DUP5 DUP5 DUP5 ADD GT ISZERO PUSH2 0x12B0 JUMPI PUSH1 0x0 DUP1 REVERT JUMPDEST PUSH2 0x12BB DUP5 DUP3 DUP6 PUSH2 0x1BD3 JUMP JUMPDEST POP SWAP4 SWAP3 POP POP POP JUMP JUMPDEST PUSH1 0x0 DUP2 CALLDATALOAD SWAP1 POP PUSH2 0x12D2 DUP2 PUSH2 0x1CCD JUMP JUMPDEST SWAP3 SWAP2 POP POP JUMP JUMPDEST PUSH1 0x0 DUP3 PUSH1 0x1F DUP4 ADD SLT PUSH2 0x12E9 JUMPI PUSH1 0x0 DUP1 REVERT JUMPDEST DUP2 CALLDATALOAD PUSH2 0x12F9 DUP5 DUP3 PUSH1 0x20 DUP7 ADD PUSH2 0x11AD JUMP JUMPDEST SWAP2 POP POP SWAP3 SWAP2 POP POP JUMP JUMPDEST PUSH1 0x0 DUP3 PUSH1 0x1F DUP4 ADD SLT PUSH2 0x1313 JUMPI PUSH1 0x0 DUP1 REVERT JUMPDEST DUP2 CALLDATALOAD PUSH2 0x1323 DUP5 DUP3 PUSH1 0x20 DUP7 ADD PUSH2 0x1219 JUMP JUMPDEST SWAP2 POP POP SWAP3 SWAP2 POP POP JUMP JUMPDEST PUSH1 0x0 DUP2 MLOAD SWAP1 POP PUSH2 0x133B DUP2 PUSH2 0x1CE4 JUMP JUMPDEST SWAP3 SWAP2 POP POP JUMP JUMPDEST PUSH1 0x0 DUP3 PUSH1 0x1F DUP4 ADD SLT PUSH2 0x1352 JUMPI PUSH1 0x0 DUP1 REVERT JUMPDEST DUP2 CALLDATALOAD PUSH2 0x1362 DUP5 DUP3 PUSH1 0x20 DUP7 ADD PUSH2 0x1285 JUMP JUMPDEST SWAP2 POP POP SWAP3 SWAP2 POP POP JUMP JUMPDEST PUSH1 0x0 DUP2 CALLDATALOAD SWAP1 POP PUSH2 0x137A DUP2 PUSH2 0x1CFB JUMP JUMPDEST SWAP3 SWAP2 POP POP JUMP JUMPDEST PUSH1 0x0 DUP2 CALLDATALOAD SWAP1 POP PUSH2 0x138F DUP2 PUSH2 0x1D12 JUMP JUMPDEST SWAP3 SWAP2 POP POP JUMP JUMPDEST PUSH1 0x0 DUP2 MLOAD SWAP1 POP PUSH2 0x13A4 DUP2 PUSH2 0x1D12 JUMP JUMPDEST SWAP3 SWAP2 POP POP JUMP JUMPDEST PUSH1 0x0 PUSH1 0x20 DUP3 DUP5 SUB SLT ISZERO PUSH2 0x13BC JUMPI PUSH1 0x0 DUP1 REVERT JUMPDEST PUSH1 0x0 PUSH2 0x13CA DUP5 DUP3 DUP6 ADD PUSH2 0x12C3 JUMP JUMPDEST SWAP2 POP POP SWAP3 SWAP2 POP POP JUMP JUMPDEST PUSH1 0x0 DUP1 PUSH1 0x40 DUP4 DUP6 SUB SLT ISZERO PUSH2 0x13E6 JUMPI PUSH1 0x0 DUP1 REVERT JUMPDEST PUSH1 0x0 PUSH2 0x13F4 DUP6 DUP3 DUP7 ADD PUSH2 0x12C3 JUMP JUMPDEST SWAP3 POP POP PUSH1 0x20 PUSH2 0x1405 DUP6 DUP3 DUP7 ADD PUSH2 0x12C3 JUMP JUMPDEST SWAP2 POP POP SWAP3 POP SWAP3 SWAP1 POP JUMP JUMPDEST PUSH1 0x0 DUP1 PUSH1 0x40 DUP4 DUP6 SUB SLT ISZERO PUSH2 0x1422 JUMPI PUSH1 0x0 DUP1 REVERT JUMPDEST PUSH1 0x0 PUSH2 0x1430 DUP6 DUP3 DUP7 ADD PUSH2 0x12C3 JUMP JUMPDEST SWAP3 POP POP PUSH1 0x20 DUP4 ADD CALLDATALOAD PUSH8 0xFFFFFFFFFFFFFFFF DUP2 GT ISZERO PUSH2 0x144D JUMPI PUSH1 0x0 DUP1 REVERT JUMPDEST PUSH2 0x1459 DUP6 DUP3 DUP7 ADD PUSH2 0x12D8 JUMP JUMPDEST SWAP2 POP POP SWAP3 POP SWAP3 SWAP1 POP JUMP JUMPDEST PUSH1 0x0 DUP1 PUSH1 0x40 DUP4 DUP6 SUB SLT ISZERO PUSH2 0x1476 JUMPI PUSH1 0x0 DUP1 REVERT JUMPDEST PUSH1 0x0 PUSH2 0x1484 DUP6 DUP3 DUP7 ADD PUSH2 0x12C3 JUMP JUMPDEST SWAP3 POP POP PUSH1 0x20 DUP4 ADD CALLDATALOAD PUSH8 0xFFFFFFFFFFFFFFFF DUP2 GT ISZERO PUSH2 0x14A1 JUMPI PUSH1 0x0 DUP1 REVERT JUMPDEST PUSH2 0x14AD DUP6 DUP3 DUP7 ADD PUSH2 0x1302 JUMP JUMPDEST SWAP2 POP POP SWAP3 POP SWAP3 SWAP1 POP JUMP JUMPDEST PUSH1 0x0 DUP1 PUSH1 0x40 DUP4 DUP6 SUB SLT ISZERO PUSH2 0x14CA JUMPI PUSH1 0x0 DUP1 REVERT JUMPDEST PUSH1 0x0 PUSH2 0x14D8 DUP6 DUP3 DUP7 ADD PUSH2 0x12C3 JUMP JUMPDEST SWAP3 POP POP PUSH1 0x20 DUP4 ADD CALLDATALOAD PUSH8 0xFFFFFFFFFFFFFFFF DUP2 GT ISZERO PUSH2 0x14F5 JUMPI PUSH1 0x0 DUP1 REVERT JUMPDEST PUSH2 0x1501 DUP6 DUP3 DUP7 ADD PUSH2 0x1341 JUMP JUMPDEST SWAP2 POP POP SWAP3 POP SWAP3 SWAP1 POP JUMP JUMPDEST PUSH1 0x0 DUP1 PUSH1 0x40 DUP4 DUP6 SUB SLT ISZERO PUSH2 0x151E JUMPI PUSH1 0x0 DUP1 REVERT JUMPDEST PUSH1 0x0 PUSH2 0x152C DUP6 DUP3 DUP7 ADD PUSH2 0x12C3 JUMP JUMPDEST SWAP3 POP POP PUSH1 0x20 PUSH2 0x153D DUP6 DUP3 DUP7 ADD PUSH2 0x1380 JUMP JUMPDEST SWAP2 POP POP SWAP3 POP SWAP3 SWAP1 POP JUMP JUMPDEST PUSH1 0x0 PUSH1 0x20 DUP3 DUP5 SUB SLT ISZERO PUSH2 0x1559 JUMPI PUSH1 0x0 DUP1 REVERT JUMPDEST PUSH1 0x0 PUSH2 0x1567 DUP5 DUP3 DUP6 ADD PUSH2 0x132C JUMP JUMPDEST SWAP2 POP POP SWAP3 SWAP2 POP POP JUMP JUMPDEST PUSH1 0x0 DUP1 PUSH1 0x0 PUSH1 0x60 DUP5 DUP7 SUB SLT ISZERO PUSH2 0x1585 JUMPI PUSH1 0x0 DUP1 REVERT JUMPDEST PUSH1 0x0 PUSH2 0x1593 DUP7 DUP3 DUP8 ADD PUSH2 0x136B JUMP JUMPDEST SWAP4 POP POP PUSH1 0x20 PUSH2 0x15A4 DUP7 DUP3 DUP8 ADD PUSH2 0x12C3 JUMP JUMPDEST SWAP3 POP POP PUSH1 0x40 PUSH2 0x15B5 DUP7 DUP3 DUP8 ADD PUSH2 0x1380 JUMP JUMPDEST SWAP2 POP POP SWAP3 POP SWAP3 POP SWAP3 JUMP JUMPDEST PUSH1 0x0 DUP1 PUSH1 0x40 DUP4 DUP6 SUB SLT ISZERO PUSH2 0x15D2 JUMPI PUSH1 0x0 DUP1 REVERT JUMPDEST PUSH1 0x0 PUSH2 0x15E0 DUP6 DUP3 DUP7 ADD PUSH2 0x136B JUMP JUMPDEST SWAP3 POP POP PUSH1 0x20 PUSH2 0x15F1 DUP6 DUP3 DUP7 ADD PUSH2 0x1380 JUMP JUMPDEST SWAP2 POP POP SWAP3 POP SWAP3 SWAP1 POP JUMP JUMPDEST PUSH1 0x0 PUSH1 0x20 DUP3 DUP5 SUB SLT ISZERO PUSH2 0x160D JUMPI PUSH1 0x0 DUP1 REVERT JUMPDEST PUSH1 0x0 PUSH2 0x161B DUP5 DUP3 DUP6 ADD PUSH2 0x1395 JUMP JUMPDEST SWAP2 POP POP SWAP3 SWAP2 POP POP JUMP JUMPDEST PUSH1 0x0 PUSH2 0x1630 DUP4 DUP4 PUSH2 0x1813 JUMP JUMPDEST PUSH1 0x20 DUP4 ADD SWAP1 POP SWAP3 SWAP2 POP POP JUMP JUMPDEST PUSH2 0x1645 DUP2 PUSH2 0x1B79 JUMP JUMPDEST DUP3 MSTORE POP POP JUMP JUMPDEST PUSH1 0x0 PUSH2 0x1656 DUP3 PUSH2 0x1A94 JUMP JUMPDEST PUSH2 0x1660 DUP2 DUP6 PUSH2 0x1AC2 JUMP JUMPDEST SWAP4 POP PUSH2 0x166B DUP4 PUSH2 0x1A84 JUMP JUMPDEST DUP1 PUSH1 0x0 JUMPDEST DUP4 DUP2 LT ISZERO PUSH2 0x169C JUMPI DUP2 MLOAD PUSH2 0x1683 DUP9 DUP3 PUSH2 0x1624 JUMP JUMPDEST SWAP8 POP PUSH2 0x168E DUP4 PUSH2 0x1AB5 JUMP JUMPDEST SWAP3 POP POP PUSH1 0x1 DUP2 ADD SWAP1 POP PUSH2 0x166F JUMP JUMPDEST POP DUP6 SWAP4 POP POP POP POP SWAP3 SWAP2 POP POP JUMP JUMPDEST PUSH1 0x0 PUSH2 0x16B4 DUP3 PUSH2 0x1A9F JUMP JUMPDEST PUSH2 0x16BE DUP2 DUP6 PUSH2 0x1AD3 JUMP JUMPDEST SWAP4 POP PUSH2 0x16CE DUP2 DUP6 PUSH1 0x20 DUP7 ADD PUSH2 0x1BE2 JUMP JUMPDEST DUP1 DUP5 ADD SWAP2 POP POP SWAP3 SWAP2 POP POP JUMP JUMPDEST PUSH1 0x0 PUSH2 0x16E5 DUP3 PUSH2 0x1AAA JUMP JUMPDEST PUSH2 0x16EF DUP2 DUP6 PUSH2 0x1ADE JUMP JUMPDEST SWAP4 POP PUSH2 0x16FF DUP2 DUP6 PUSH1 0x20 DUP7 ADD PUSH2 0x1BE2 JUMP JUMPDEST PUSH2 0x1708 DUP2 PUSH2 0x1CBC JUMP JUMPDEST DUP5 ADD SWAP2 POP POP SWAP3 SWAP2 POP POP JUMP JUMPDEST PUSH1 0x0 PUSH2 0x1720 PUSH1 0x17 DUP4 PUSH2 0x1ADE JUMP JUMPDEST SWAP2 POP PUSH32 0x6572722F7761697420616674657220656E746572696E67000000000000000000 PUSH1 0x0 DUP4 ADD MSTORE PUSH1 0x20 DUP3 ADD SWAP1 POP SWAP2 SWAP1 POP JUMP JUMPDEST PUSH1 0x0 PUSH2 0x1760 PUSH1 0x10 DUP4 PUSH2 0x1ADE JUMP JUMPDEST SWAP2 POP PUSH32 0x65727220666565206E6F74207061696400000000000000000000000000000000 PUSH1 0x0 DUP4 ADD MSTORE PUSH1 0x20 DUP3 ADD SWAP1 POP SWAP2 SWAP1 POP JUMP JUMPDEST PUSH1 0x0 PUSH2 0x17A0 PUSH1 0x15 DUP4 PUSH2 0x1ADE JUMP JUMPDEST SWAP2 POP PUSH32 0x6572722F6E6F7420656E6F75676820746F6B656E730000000000000000000000 PUSH1 0x0 DUP4 ADD MSTORE PUSH1 0x20 DUP3 ADD SWAP1 POP SWAP2 SWAP1 POP JUMP JUMPDEST PUSH1 0x0 PUSH2 0x17E0 PUSH1 0x1B DUP4 PUSH2 0x1ADE JUMP JUMPDEST SWAP2 POP PUSH32 0x6572722F6D75737420676976652066756C6C20617070726F76616C0000000000 PUSH1 0x0 DUP4 ADD MSTORE PUSH1 0x20 DUP3 ADD SWAP1 POP SWAP2 SWAP1 POP JUMP JUMPDEST PUSH2 0x181C DUP2 PUSH2 0x1BC9 JUMP JUMPDEST DUP3 MSTORE POP POP JUMP JUMPDEST PUSH2 0x182B DUP2 PUSH2 0x1BC9 JUMP JUMPDEST DUP3 MSTORE POP POP JUMP JUMPDEST PUSH1 0x0 PUSH2 0x183D DUP3 DUP5 PUSH2 0x16A9 JUMP JUMPDEST SWAP2 POP DUP2 SWAP1 POP SWAP3 SWAP2 POP POP JUMP JUMPDEST PUSH1 0x0 PUSH1 0x20 DUP3 ADD SWAP1 POP PUSH2 0x185D PUSH1 0x0 DUP4 ADD DUP5 PUSH2 0x163C JUMP JUMPDEST SWAP3 SWAP2 POP POP JUMP JUMPDEST PUSH1 0x0 PUSH1 0x40 DUP3 ADD SWAP1 POP PUSH2 0x1878 PUSH1 0x0 DUP4 ADD DUP6 PUSH2 0x163C JUMP JUMPDEST PUSH2 0x1885 PUSH1 0x20 DUP4 ADD DUP5 PUSH2 0x163C JUMP JUMPDEST SWAP4 SWAP3 POP POP POP JUMP JUMPDEST PUSH1 0x0 PUSH1 0x60 DUP3 ADD SWAP1 POP PUSH2 0x18A1 PUSH1 0x0 DUP4 ADD DUP7 PUSH2 0x163C JUMP JUMPDEST PUSH2 0x18AE PUSH1 0x20 DUP4 ADD DUP6 PUSH2 0x163C JUMP JUMPDEST PUSH2 0x18BB PUSH1 0x40 DUP4 ADD DUP5 PUSH2 0x1822 JUMP JUMPDEST SWAP5 SWAP4 POP POP POP POP JUMP JUMPDEST PUSH1 0x0 PUSH1 0x40 DUP3 ADD SWAP1 POP PUSH2 0x18D8 PUSH1 0x0 DUP4 ADD DUP6 PUSH2 0x163C JUMP JUMPDEST PUSH2 0x18E5 PUSH1 0x20 DUP4 ADD DUP5 PUSH2 0x1822 JUMP JUMPDEST SWAP4 SWAP3 POP POP POP JUMP JUMPDEST PUSH1 0x0 PUSH1 0x20 DUP3 ADD SWAP1 POP DUP2 DUP2 SUB PUSH1 0x0 DUP4 ADD MSTORE PUSH2 0x1906 DUP2 DUP5 PUSH2 0x164B JUMP JUMPDEST SWAP1 POP SWAP3 SWAP2 POP POP JUMP JUMPDEST PUSH1 0x0 PUSH1 0x20 DUP3 ADD SWAP1 POP DUP2 DUP2 SUB PUSH1 0x0 DUP4 ADD MSTORE PUSH2 0x1928 DUP2 DUP5 PUSH2 0x16DA JUMP JUMPDEST SWAP1 POP SWAP3 SWAP2 POP POP JUMP JUMPDEST PUSH1 0x0 PUSH1 0x20 DUP3 ADD SWAP1 POP DUP2 DUP2 SUB PUSH1 0x0 DUP4 ADD MSTORE PUSH2 0x1949 DUP2 PUSH2 0x1713 JUMP JUMPDEST SWAP1 POP SWAP2 SWAP1 POP JUMP JUMPDEST PUSH1 0x0 PUSH1 0x20 DUP3 ADD SWAP1 POP DUP2 DUP2 SUB PUSH1 0x0 DUP4 ADD MSTORE PUSH2 0x1969 DUP2 PUSH2 0x1753 JUMP JUMPDEST SWAP1 POP SWAP2 SWAP1 POP JUMP JUMPDEST PUSH1 0x0 PUSH1 0x20 DUP3 ADD SWAP1 POP DUP2 DUP2 SUB PUSH1 0x0 DUP4 ADD MSTORE PUSH2 0x1989 DUP2 PUSH2 0x1793 JUMP JUMPDEST SWAP1 POP SWAP2 SWAP1 POP JUMP JUMPDEST PUSH1 0x0 PUSH1 0x20 DUP3 ADD SWAP1 POP DUP2 DUP2 SUB PUSH1 0x0 DUP4 ADD MSTORE PUSH2 0x19A9 DUP2 PUSH2 0x17D3 JUMP JUMPDEST SWAP1 POP SWAP2 SWAP1 POP JUMP JUMPDEST PUSH1 0x0 PUSH1 0x20 DUP3 ADD SWAP1 POP PUSH2 0x19C5 PUSH1 0x0 DUP4 ADD DUP5 PUSH2 0x1822 JUMP JUMPDEST SWAP3 SWAP2 POP POP JUMP JUMPDEST PUSH1 0x0 PUSH1 0x40 MLOAD SWAP1 POP DUP2 DUP2 ADD DUP2 DUP2 LT PUSH8 0xFFFFFFFFFFFFFFFF DUP3 GT OR ISZERO PUSH2 0x19F2 JUMPI PUSH2 0x19F1 PUSH2 0x1C8D JUMP JUMPDEST JUMPDEST DUP1 PUSH1 0x40 MSTORE POP SWAP2 SWAP1 POP JUMP JUMPDEST PUSH1 0x0 PUSH8 0xFFFFFFFFFFFFFFFF DUP3 GT ISZERO PUSH2 0x1A17 JUMPI PUSH2 0x1A16 PUSH2 0x1C8D JUMP JUMPDEST JUMPDEST PUSH1 0x20 DUP3 MUL SWAP1 POP PUSH1 0x20 DUP2 ADD SWAP1 POP SWAP2 SWAP1 POP JUMP JUMPDEST PUSH1 0x0 PUSH8 0xFFFFFFFFFFFFFFFF DUP3 GT ISZERO PUSH2 0x1A43 JUMPI PUSH2 0x1A42 PUSH2 0x1C8D JUMP JUMPDEST JUMPDEST PUSH1 0x20 DUP3 MUL SWAP1 POP PUSH1 0x20 DUP2 ADD SWAP1 POP SWAP2 SWAP1 POP JUMP JUMPDEST PUSH1 0x0 PUSH8 0xFFFFFFFFFFFFFFFF DUP3 GT ISZERO PUSH2 0x1A6F JUMPI PUSH2 0x1A6E PUSH2 0x1C8D JUMP JUMPDEST JUMPDEST PUSH1 0x1F NOT PUSH1 0x1F DUP4 ADD AND SWAP1 POP PUSH1 0x20 DUP2 ADD SWAP1 POP SWAP2 SWAP1 POP JUMP JUMPDEST PUSH1 0x0 DUP2 SWAP1 POP PUSH1 0x20 DUP3 ADD SWAP1 POP SWAP2 SWAP1 POP JUMP JUMPDEST PUSH1 0x0 DUP2 MLOAD SWAP1 POP SWAP2 SWAP1 POP JUMP JUMPDEST PUSH1 0x0 DUP2 MLOAD SWAP1 POP SWAP2 SWAP1 POP JUMP JUMPDEST PUSH1 0x0 DUP2 MLOAD SWAP1 POP SWAP2 SWAP1 POP JUMP JUMPDEST PUSH1 0x0 PUSH1 0x20 DUP3 ADD SWAP1 POP SWAP2 SWAP1 POP JUMP JUMPDEST PUSH1 0x0 DUP3 DUP3 MSTORE PUSH1 0x20 DUP3 ADD SWAP1 POP SWAP3 SWAP2 POP POP JUMP JUMPDEST PUSH1 0x0 DUP2 SWAP1 POP SWAP3 SWAP2 POP POP JUMP JUMPDEST PUSH1 0x0 DUP3 DUP3 MSTORE PUSH1 0x20 DUP3 ADD SWAP1 POP SWAP3 SWAP2 POP POP JUMP JUMPDEST PUSH1 0x0 PUSH2 0x1AFA DUP3 PUSH2 0x1BC9 JUMP JUMPDEST SWAP2 POP PUSH2 0x1B05 DUP4 PUSH2 0x1BC9 JUMP JUMPDEST SWAP3 POP DUP3 PUSH32 0xFFFFFFFFFFFFFFFFFFFFFFFFFFFFFFFFFFFFFFFFFFFFFFFFFFFFFFFFFFFFFFFF SUB DUP3 GT ISZERO PUSH2 0x1B3A JUMPI PUSH2 0x1B39 PUSH2 0x1C5E JUMP JUMPDEST JUMPDEST DUP3 DUP3 ADD SWAP1 POP SWAP3 SWAP2 POP POP JUMP JUMPDEST PUSH1 0x0 PUSH2 0x1B50 DUP3 PUSH2 0x1BC9 JUMP JUMPDEST SWAP2 POP PUSH2 0x1B5B DUP4 PUSH2 0x1BC9 JUMP JUMPDEST SWAP3 POP DUP3 DUP3 LT ISZERO PUSH2 0x1B6E JUMPI PUSH2 0x1B6D PUSH2 0x1C5E JUMP JUMPDEST JUMPDEST DUP3 DUP3 SUB SWAP1 POP SWAP3 SWAP2 POP POP JUMP JUMPDEST PUSH1 0x0 PUSH2 0x1B84 DUP3 PUSH2 0x1BA9 JUMP JUMPDEST SWAP1 POP SWAP2 SWAP1 POP JUMP JUMPDEST PUSH1 0x0 DUP2 ISZERO ISZERO SWAP1 POP SWAP2 SWAP1 POP JUMP JUMPDEST PUSH1 0x0 PUSH2 0x1BA2 DUP3 PUSH2 0x1B79 JUMP JUMPDEST SWAP1 POP SWAP2 SWAP1 POP JUMP JUMPDEST PUSH1 0x0 PUSH20 0xFFFFFFFFFFFFFFFFFFFFFFFFFFFFFFFFFFFFFFFF DUP3 AND SWAP1 POP SWAP2 SWAP1 POP JUMP JUMPDEST PUSH1 0x0 DUP2 SWAP1 POP SWAP2 SWAP1 POP JUMP JUMPDEST DUP3 DUP2 DUP4 CALLDATACOPY PUSH1 0x0 DUP4 DUP4 ADD MSTORE POP POP POP JUMP JUMPDEST PUSH1 0x0 JUMPDEST DUP4 DUP2 LT ISZERO PUSH2 0x1C00 JUMPI DUP1 DUP3 ADD MLOAD DUP2 DUP5 ADD MSTORE PUSH1 0x20 DUP2 ADD SWAP1 POP PUSH2 0x1BE5 JUMP JUMPDEST DUP4 DUP2 GT ISZERO PUSH2 0x1C0F JUMPI PUSH1 0x0 DUP5 DUP5 ADD MSTORE JUMPDEST POP POP POP POP JUMP JUMPDEST PUSH1 0x0 PUSH2 0x1C20 DUP3 PUSH2 0x1BC9 JUMP JUMPDEST SWAP2 POP PUSH32 0xFFFFFFFFFFFFFFFFFFFFFFFFFFFFFFFFFFFFFFFFFFFFFFFFFFFFFFFFFFFFFFFF DUP3 EQ ISZERO PUSH2 0x1C53 JUMPI PUSH2 0x1C52 PUSH2 0x1C5E JUMP JUMPDEST JUMPDEST PUSH1 0x1 DUP3 ADD SWAP1 POP SWAP2 SWAP1 POP JUMP JUMPDEST PUSH32 0x4E487B7100000000000000000000000000000000000000000000000000000000 PUSH1 0x0 MSTORE PUSH1 0x11 PUSH1 0x4 MSTORE PUSH1 0x24 PUSH1 0x0 REVERT JUMPDEST PUSH32 0x4E487B7100000000000000000000000000000000000000000000000000000000 PUSH1 0x0 MSTORE PUSH1 0x41 PUSH1 0x4 MSTORE PUSH1 0x24 PUSH1 0x0 REVERT JUMPDEST PUSH1 0x0 PUSH1 0x1F NOT PUSH1 0x1F DUP4 ADD AND SWAP1 POP SWAP2 SWAP1 POP JUMP JUMPDEST PUSH2 0x1CD6 DUP2 PUSH2 0x1B79 JUMP JUMPDEST DUP2 EQ PUSH2 0x1CE1 JUMPI PUSH1 0x0 DUP1 REVERT JUMPDEST POP JUMP JUMPDEST PUSH2 0x1CED DUP2 PUSH2 0x1B8B JUMP JUMPDEST DUP2 EQ PUSH2 0x1CF8 JUMPI PUSH1 0x0 DUP1 REVERT JUMPDEST POP JUMP JUMPDEST PUSH2 0x1D04 DUP2 PUSH2 0x1B97 JUMP JUMPDEST DUP2 EQ PUSH2 0x1D0F JUMPI PUSH1 0x0 DUP1 REVERT JUMPDEST POP JUMP JUMPDEST PUSH2 0x1D1B DUP2 PUSH2 0x1BC9 JUMP JUMPDEST DUP2 EQ PUSH2 0x1D26 JUMPI PUSH1 0x0 DUP1 REVERT JUMPDEST POP JUMP INVALID LOG2 PUSH5 0x6970667358 0x22 SLT KECCAK256 CHAINID SDIV 0xBE 0xD3 BLOCKHASH SELFBALANCE 0xE7 0xF 0xAC 0xC9 0x1E CALLDATACOPY 0xEE LOG4 GASLIMIT DUP9 0xAF 0xBE PUSH23 0x94438E95D00915C572E33411D164736F6C634300080000 CALLER "
        },
        "methodIdentifiers": {
          "addDelegate(address,address)": "e909ebfa",
          "claimFees()": "d294f093",
          "contributions(address,address[])": "a3f1a0a6",
          "convert(address,uint256)": "67c6e39c",
          "convertMany(address,uint256[])": "2ef19a71",
          "delegates(address)": "587cde1e",
          "enter(address,uint256)": "7e348b7d",
          "entryFee()": "072ea61c",
          "hatch(address,bytes)": "626fc553",
          "proofOfOwnership(address,address,uint256)": "bd092baa",
          "redeem(address,uint256)": "1e9a6950",
          "removeDelegate(address)": "67e7646f",
          "tokens(address,address)": "508493bc"
        }
      }
    }
  }
}