{
  "contracts/yield-aggregator/YieldAggregator.sol": {
    "YieldAggregator": {
      "abi": [
        {
          "inputs": [],
          "stateMutability": "nonpayable",
          "type": "constructor"
        },
        {
          "inputs": [
            {
              "internalType": "contract Protocol",
              "name": "protocol",
              "type": "address"
            },
            {
              "internalType": "address[]",
              "name": "tokens",
              "type": "address[]"
            },
            {
              "internalType": "uint256[]",
              "name": "amounts",
              "type": "uint256[]"
            }
          ],
          "name": "deposit",
          "outputs": [],
          "stateMutability": "nonpayable",
          "type": "function"
        },
        {
          "inputs": [],
          "name": "harvester",
          "outputs": [
            {
              "internalType": "address",
              "name": "",
              "type": "address"
            }
          ],
          "stateMutability": "view",
          "type": "function"
        },
        {
          "inputs": [],
          "name": "owner",
          "outputs": [
            {
              "internalType": "address",
              "name": "",
              "type": "address"
            }
          ],
          "stateMutability": "view",
          "type": "function"
        },
        {
          "inputs": [
            {
              "internalType": "address",
              "name": "",
              "type": "address"
            }
          ],
          "name": "poolTokens",
          "outputs": [
            {
              "internalType": "uint256",
              "name": "",
              "type": "uint256"
            }
          ],
          "stateMutability": "view",
          "type": "function"
        },
        {
          "inputs": [
            {
              "internalType": "contract Protocol",
              "name": "protocol",
              "type": "address"
            },
            {
              "internalType": "address[]",
              "name": "tokens",
              "type": "address[]"
            },
            {
              "internalType": "uint256[]",
              "name": "amounts",
              "type": "uint256[]"
            }
          ],
          "name": "withdraw",
          "outputs": [],
          "stateMutability": "nonpayable",
          "type": "function"
        }
      ],
      "evm": {
        "bytecode": {
          "linkReferences": {},
          "object": "608060405234801561001057600080fd5b50336000806101000a81548173ffffffffffffffffffffffffffffffffffffffff021916908373ffffffffffffffffffffffffffffffffffffffff160217905550610f74806100606000396000f3fe608060405234801561001057600080fd5b50600436106100575760003560e01c80634bdaeac11461005c578063562fa0df1461007a5780638da5cb5b14610096578063a9126169146100b4578063edbd7668146100e4575b600080fd5b610064610100565b6040516100719190610bfd565b60405180910390f35b610094600480360381019061008f9190610b28565b610126565b005b61009e6105ee565b6040516100ab9190610bfd565b60405180910390f35b6100ce60048036038101906100c99190610ad6565b610612565b6040516100db9190610ca1565b60405180910390f35b6100fe60048036038101906100f99190610b28565b61062a565b005b600160009054906101000a900473ffffffffffffffffffffffffffffffffffffffff1681565b60008373ffffffffffffffffffffffffffffffffffffffff16638da876c96040518163ffffffff1660e01b815260040160206040518083038186803b15801561016e57600080fd5b505afa158015610182573d6000803e3d6000fd5b505050506040513d601f19601f820116820180604052508101906101a69190610ba7565b905060005b83518110156104fd5760008482815181106101ef577f4e487b7100000000000000000000000000000000000000000000000000000000600052603260045260246000fd5b602002602001015190506000848381518110610234577f4e487b7100000000000000000000000000000000000000000000000000000000600052603260045260246000fd5b602002602001015190508173ffffffffffffffffffffffffffffffffffffffff166323b872dd3330846040518463ffffffff1660e01b815260040161027b93929190610c18565b602060405180830381600087803b15801561029557600080fd5b505af11580156102a9573d6000803e3d6000fd5b505050506040513d601f19601f820116820180604052508101906102cd9190610aff565b508173ffffffffffffffffffffffffffffffffffffffff1663095ea7b38860006040518363ffffffff1660e01b815260040161030a929190610c4f565b602060405180830381600087803b15801561032457600080fd5b505af1158015610338573d6000803e3d6000fd5b505050506040513d601f19601f8201168201806040525081019061035c9190610aff565b508173ffffffffffffffffffffffffffffffffffffffff1663095ea7b388836040518363ffffffff1660e01b8152600401610398929190610c78565b602060405180830381600087803b1580156103b257600080fd5b505af11580156103c6573d6000803e3d6000fd5b505050506040513d601f19601f820116820180604052508101906103ea9190610aff565b508673ffffffffffffffffffffffffffffffffffffffff1663a0712d68826040518263ffffffff1660e01b81526004016104249190610ca1565b600060405180830381600087803b15801561043e57600080fd5b505af192505050801561044f575060015b6104e7578173ffffffffffffffffffffffffffffffffffffffff1663095ea7b38860006040518363ffffffff1660e01b815260040161048f929190610c4f565b602060405180830381600087803b1580156104a957600080fd5b505af11580156104bd573d6000803e3d6000fd5b505050506040513d601f19601f820116820180604052508101906104e19190610aff565b506104e8565b5b505080806104f590610e3b565b9150506101ab565b5060008473ffffffffffffffffffffffffffffffffffffffff16638da876c96040518163ffffffff1660e01b815260040160206040518083038186803b15801561054657600080fd5b505afa15801561055a573d6000803e3d6000fd5b505050506040513d601f19601f8201168201806040525081019061057e9190610ba7565b90506000828261058e9190610d9b565b905080600260003373ffffffffffffffffffffffffffffffffffffffff1673ffffffffffffffffffffffffffffffffffffffff16815260200190815260200160002060008282546105df9190610d45565b92505081905550505050505050565b60008054906101000a900473ffffffffffffffffffffffffffffffffffffffff1681565b60026020528060005260406000206000915090505481565b60008373ffffffffffffffffffffffffffffffffffffffff16638da876c96040518163ffffffff1660e01b815260040160206040518083038186803b15801561067257600080fd5b505afa158015610686573d6000803e3d6000fd5b505050506040513d601f19601f820116820180604052508101906106aa9190610ba7565b905060005b83518110156108505760008482815181106106f3577f4e487b7100000000000000000000000000000000000000000000000000000000600052603260045260246000fd5b602002602001015190506000848381518110610738577f4e487b7100000000000000000000000000000000000000000000000000000000600052603260045260246000fd5b602002602001015190508673ffffffffffffffffffffffffffffffffffffffff166342966c68826040518263ffffffff1660e01b815260040161077b9190610ca1565b600060405180830381600087803b15801561079557600080fd5b505af11580156107a9573d6000803e3d6000fd5b505050508173ffffffffffffffffffffffffffffffffffffffff1663a9059cbb33836040518363ffffffff1660e01b81526004016107e8929190610c78565b602060405180830381600087803b15801561080257600080fd5b505af1158015610816573d6000803e3d6000fd5b505050506040513d601f19601f8201168201806040525081019061083a9190610aff565b505050808061084890610e3b565b9150506106af565b5060008473ffffffffffffffffffffffffffffffffffffffff16638da876c96040518163ffffffff1660e01b815260040160206040518083038186803b15801561089957600080fd5b505afa1580156108ad573d6000803e3d6000fd5b505050506040513d601f19601f820116820180604052508101906108d19190610ba7565b9050600081836108e19190610d9b565b905080600260003373ffffffffffffffffffffffffffffffffffffffff1673ffffffffffffffffffffffffffffffffffffffff16815260200190815260200160002060008282546109329190610d9b565b92505081905550505050505050565b600061095461094f84610ced565b610cbc565b9050808382526020820190508285602086028201111561097357600080fd5b60005b858110156109a357816109898882610a19565b845260208401935060208301925050600181019050610976565b5050509392505050565b60006109c06109bb84610d19565b610cbc565b905080838252602082019050828560208602820111156109df57600080fd5b60005b85811015610a0f57816109f58882610aac565b8452602084019350602083019250506001810190506109e2565b5050509392505050565b600081359050610a2881610ee2565b92915050565b600082601f830112610a3f57600080fd5b8135610a4f848260208601610941565b91505092915050565b600082601f830112610a6957600080fd5b8135610a798482602086016109ad565b91505092915050565b600081519050610a9181610ef9565b92915050565b600081359050610aa681610f10565b92915050565b600081359050610abb81610f27565b92915050565b600081519050610ad081610f27565b92915050565b600060208284031215610ae857600080fd5b6000610af684828501610a19565b91505092915050565b600060208284031215610b1157600080fd5b6000610b1f84828501610a82565b91505092915050565b600080600060608486031215610b3d57600080fd5b6000610b4b86828701610a97565b935050602084013567ffffffffffffffff811115610b6857600080fd5b610b7486828701610a2e565b925050604084013567ffffffffffffffff811115610b9157600080fd5b610b9d86828701610a58565b9150509250925092565b600060208284031215610bb957600080fd5b6000610bc784828501610ac1565b91505092915050565b610bd981610dcf565b82525050565b610be881610e29565b82525050565b610bf781610e1f565b82525050565b6000602082019050610c126000830184610bd0565b92915050565b6000606082019050610c2d6000830186610bd0565b610c3a6020830185610bd0565b610c476040830184610bee565b949350505050565b6000604082019050610c646000830185610bd0565b610c716020830184610bdf565b9392505050565b6000604082019050610c8d6000830185610bd0565b610c9a6020830184610bee565b9392505050565b6000602082019050610cb66000830184610bee565b92915050565b6000604051905081810181811067ffffffffffffffff82111715610ce357610ce2610eb3565b5b8060405250919050565b600067ffffffffffffffff821115610d0857610d07610eb3565b5b602082029050602081019050919050565b600067ffffffffffffffff821115610d3457610d33610eb3565b5b602082029050602081019050919050565b6000610d5082610e1f565b9150610d5b83610e1f565b9250827fffffffffffffffffffffffffffffffffffffffffffffffffffffffffffffffff03821115610d9057610d8f610e84565b5b828201905092915050565b6000610da682610e1f565b9150610db183610e1f565b925082821015610dc457610dc3610e84565b5b828203905092915050565b6000610dda82610dff565b9050919050565b60008115159050919050565b6000610df882610dcf565b9050919050565b600073ffffffffffffffffffffffffffffffffffffffff82169050919050565b6000819050919050565b6000610e3482610e1f565b9050919050565b6000610e4682610e1f565b91507fffffffffffffffffffffffffffffffffffffffffffffffffffffffffffffffff821415610e7957610e78610e84565b5b600182019050919050565b7f4e487b7100000000000000000000000000000000000000000000000000000000600052601160045260246000fd5b7f4e487b7100000000000000000000000000000000000000000000000000000000600052604160045260246000fd5b610eeb81610dcf565b8114610ef657600080fd5b50565b610f0281610de1565b8114610f0d57600080fd5b50565b610f1981610ded565b8114610f2457600080fd5b50565b610f3081610e1f565b8114610f3b57600080fd5b5056fea26469706673582212202d42538b6b0ac4bf7e490f55875b8f8e5d2416e967357093a1301d64cb18f03064736f6c63430008000033",
          "opcodes": "PUSH1 0x80 PUSH1 0x40 MSTORE CALLVALUE DUP1 ISZERO PUSH2 0x10 JUMPI PUSH1 0x0 DUP1 REVERT JUMPDEST POP CALLER PUSH1 0x0 DUP1 PUSH2 0x100 EXP DUP2 SLOAD DUP2 PUSH20 0xFFFFFFFFFFFFFFFFFFFFFFFFFFFFFFFFFFFFFFFF MUL NOT AND SWAP1 DUP4 PUSH20 0xFFFFFFFFFFFFFFFFFFFFFFFFFFFFFFFFFFFFFFFF AND MUL OR SWAP1 SSTORE POP PUSH2 0xF74 DUP1 PUSH2 0x60 PUSH1 0x0 CODECOPY PUSH1 0x0 RETURN INVALID PUSH1 0x80 PUSH1 0x40 MSTORE CALLVALUE DUP1 ISZERO PUSH2 0x10 JUMPI PUSH1 0x0 DUP1 REVERT JUMPDEST POP PUSH1 0x4 CALLDATASIZE LT PUSH2 0x57 JUMPI PUSH1 0x0 CALLDATALOAD PUSH1 0xE0 SHR DUP1 PUSH4 0x4BDAEAC1 EQ PUSH2 0x5C JUMPI DUP1 PUSH4 0x562FA0DF EQ PUSH2 0x7A JUMPI DUP1 PUSH4 0x8DA5CB5B EQ PUSH2 0x96 JUMPI DUP1 PUSH4 0xA9126169 EQ PUSH2 0xB4 JUMPI DUP1 PUSH4 0xEDBD7668 EQ PUSH2 0xE4 JUMPI JUMPDEST PUSH1 0x0 DUP1 REVERT JUMPDEST PUSH2 0x64 PUSH2 0x100 JUMP JUMPDEST PUSH1 0x40 MLOAD PUSH2 0x71 SWAP2 SWAP1 PUSH2 0xBFD JUMP JUMPDEST PUSH1 0x40 MLOAD DUP1 SWAP2 SUB SWAP1 RETURN JUMPDEST PUSH2 0x94 PUSH1 0x4 DUP1 CALLDATASIZE SUB DUP2 ADD SWAP1 PUSH2 0x8F SWAP2 SWAP1 PUSH2 0xB28 JUMP JUMPDEST PUSH2 0x126 JUMP JUMPDEST STOP JUMPDEST PUSH2 0x9E PUSH2 0x5EE JUMP JUMPDEST PUSH1 0x40 MLOAD PUSH2 0xAB SWAP2 SWAP1 PUSH2 0xBFD JUMP JUMPDEST PUSH1 0x40 MLOAD DUP1 SWAP2 SUB SWAP1 RETURN JUMPDEST PUSH2 0xCE PUSH1 0x4 DUP1 CALLDATASIZE SUB DUP2 ADD SWAP1 PUSH2 0xC9 SWAP2 SWAP1 PUSH2 0xAD6 JUMP JUMPDEST PUSH2 0x612 JUMP JUMPDEST PUSH1 0x40 MLOAD PUSH2 0xDB SWAP2 SWAP1 PUSH2 0xCA1 JUMP JUMPDEST PUSH1 0x40 MLOAD DUP1 SWAP2 SUB SWAP1 RETURN JUMPDEST PUSH2 0xFE PUSH1 0x4 DUP1 CALLDATASIZE SUB DUP2 ADD SWAP1 PUSH2 0xF9 SWAP2 SWAP1 PUSH2 0xB28 JUMP JUMPDEST PUSH2 0x62A JUMP JUMPDEST STOP JUMPDEST PUSH1 0x1 PUSH1 0x0 SWAP1 SLOAD SWAP1 PUSH2 0x100 EXP SWAP1 DIV PUSH20 0xFFFFFFFFFFFFFFFFFFFFFFFFFFFFFFFFFFFFFFFF AND DUP2 JUMP JUMPDEST PUSH1 0x0 DUP4 PUSH20 0xFFFFFFFFFFFFFFFFFFFFFFFFFFFFFFFFFFFFFFFF AND PUSH4 0x8DA876C9 PUSH1 0x40 MLOAD DUP2 PUSH4 0xFFFFFFFF AND PUSH1 0xE0 SHL DUP2 MSTORE PUSH1 0x4 ADD PUSH1 0x20 PUSH1 0x40 MLOAD DUP1 DUP4 SUB DUP2 DUP7 DUP1 EXTCODESIZE ISZERO DUP1 ISZERO PUSH2 0x16E JUMPI PUSH1 0x0 DUP1 REVERT JUMPDEST POP GAS STATICCALL ISZERO DUP1 ISZERO PUSH2 0x182 JUMPI RETURNDATASIZE PUSH1 0x0 DUP1 RETURNDATACOPY RETURNDATASIZE PUSH1 0x0 REVERT JUMPDEST POP POP POP POP PUSH1 0x40 MLOAD RETURNDATASIZE PUSH1 0x1F NOT PUSH1 0x1F DUP3 ADD AND DUP3 ADD DUP1 PUSH1 0x40 MSTORE POP DUP2 ADD SWAP1 PUSH2 0x1A6 SWAP2 SWAP1 PUSH2 0xBA7 JUMP JUMPDEST SWAP1 POP PUSH1 0x0 JUMPDEST DUP4 MLOAD DUP2 LT ISZERO PUSH2 0x4FD JUMPI PUSH1 0x0 DUP5 DUP3 DUP2 MLOAD DUP2 LT PUSH2 0x1EF JUMPI PUSH32 0x4E487B7100000000000000000000000000000000000000000000000000000000 PUSH1 0x0 MSTORE PUSH1 0x32 PUSH1 0x4 MSTORE PUSH1 0x24 PUSH1 0x0 REVERT JUMPDEST PUSH1 0x20 MUL PUSH1 0x20 ADD ADD MLOAD SWAP1 POP PUSH1 0x0 DUP5 DUP4 DUP2 MLOAD DUP2 LT PUSH2 0x234 JUMPI PUSH32 0x4E487B7100000000000000000000000000000000000000000000000000000000 PUSH1 0x0 MSTORE PUSH1 0x32 PUSH1 0x4 MSTORE PUSH1 0x24 PUSH1 0x0 REVERT JUMPDEST PUSH1 0x20 MUL PUSH1 0x20 ADD ADD MLOAD SWAP1 POP DUP2 PUSH20 0xFFFFFFFFFFFFFFFFFFFFFFFFFFFFFFFFFFFFFFFF AND PUSH4 0x23B872DD CALLER ADDRESS DUP5 PUSH1 0x40 MLOAD DUP5 PUSH4 0xFFFFFFFF AND PUSH1 0xE0 SHL DUP2 MSTORE PUSH1 0x4 ADD PUSH2 0x27B SWAP4 SWAP3 SWAP2 SWAP1 PUSH2 0xC18 JUMP JUMPDEST PUSH1 0x20 PUSH1 0x40 MLOAD DUP1 DUP4 SUB DUP2 PUSH1 0x0 DUP8 DUP1 EXTCODESIZE ISZERO DUP1 ISZERO PUSH2 0x295 JUMPI PUSH1 0x0 DUP1 REVERT JUMPDEST POP GAS CALL ISZERO DUP1 ISZERO PUSH2 0x2A9 JUMPI RETURNDATASIZE PUSH1 0x0 DUP1 RETURNDATACOPY RETURNDATASIZE PUSH1 0x0 REVERT JUMPDEST POP POP POP POP PUSH1 0x40 MLOAD RETURNDATASIZE PUSH1 0x1F NOT PUSH1 0x1F DUP3 ADD AND DUP3 ADD DUP1 PUSH1 0x40 MSTORE POP DUP2 ADD SWAP1 PUSH2 0x2CD SWAP2 SWAP1 PUSH2 0xAFF JUMP JUMPDEST POP DUP2 PUSH20 0xFFFFFFFFFFFFFFFFFFFFFFFFFFFFFFFFFFFFFFFF AND PUSH4 0x95EA7B3 DUP9 PUSH1 0x0 PUSH1 0x40 MLOAD DUP4 PUSH4 0xFFFFFFFF AND PUSH1 0xE0 SHL DUP2 MSTORE PUSH1 0x4 ADD PUSH2 0x30A SWAP3 SWAP2 SWAP1 PUSH2 0xC4F JUMP JUMPDEST PUSH1 0x20 PUSH1 0x40 MLOAD DUP1 DUP4 SUB DUP2 PUSH1 0x0 DUP8 DUP1 EXTCODESIZE ISZERO DUP1 ISZERO PUSH2 0x324 JUMPI PUSH1 0x0 DUP1 REVERT JUMPDEST POP GAS CALL ISZERO DUP1 ISZERO PUSH2 0x338 JUMPI RETURNDATASIZE PUSH1 0x0 DUP1 RETURNDATACOPY RETURNDATASIZE PUSH1 0x0 REVERT JUMPDEST POP POP POP POP PUSH1 0x40 MLOAD RETURNDATASIZE PUSH1 0x1F NOT PUSH1 0x1F DUP3 ADD AND DUP3 ADD DUP1 PUSH1 0x40 MSTORE POP DUP2 ADD SWAP1 PUSH2 0x35C SWAP2 SWAP1 PUSH2 0xAFF JUMP JUMPDEST POP DUP2 PUSH20 0xFFFFFFFFFFFFFFFFFFFFFFFFFFFFFFFFFFFFFFFF AND PUSH4 0x95EA7B3 DUP9 DUP4 PUSH1 0x40 MLOAD DUP4 PUSH4 0xFFFFFFFF AND PUSH1 0xE0 SHL DUP2 MSTORE PUSH1 0x4 ADD PUSH2 0x398 SWAP3 SWAP2 SWAP1 PUSH2 0xC78 JUMP JUMPDEST PUSH1 0x20 PUSH1 0x40 MLOAD DUP1 DUP4 SUB DUP2 PUSH1 0x0 DUP8 DUP1 EXTCODESIZE ISZERO DUP1 ISZERO PUSH2 0x3B2 JUMPI PUSH1 0x0 DUP1 REVERT JUMPDEST POP GAS CALL ISZERO DUP1 ISZERO PUSH2 0x3C6 JUMPI RETURNDATASIZE PUSH1 0x0 DUP1 RETURNDATACOPY RETURNDATASIZE PUSH1 0x0 REVERT JUMPDEST POP POP POP POP PUSH1 0x40 MLOAD RETURNDATASIZE PUSH1 0x1F NOT PUSH1 0x1F DUP3 ADD AND DUP3 ADD DUP1 PUSH1 0x40 MSTORE POP DUP2 ADD SWAP1 PUSH2 0x3EA SWAP2 SWAP1 PUSH2 0xAFF JUMP JUMPDEST POP DUP7 PUSH20 0xFFFFFFFFFFFFFFFFFFFFFFFFFFFFFFFFFFFFFFFF AND PUSH4 0xA0712D68 DUP3 PUSH1 0x40 MLOAD DUP3 PUSH4 0xFFFFFFFF AND PUSH1 0xE0 SHL DUP2 MSTORE PUSH1 0x4 ADD PUSH2 0x424 SWAP2 SWAP1 PUSH2 0xCA1 JUMP JUMPDEST PUSH1 0x0 PUSH1 0x40 MLOAD DUP1 DUP4 SUB DUP2 PUSH1 0x0 DUP8 DUP1 EXTCODESIZE ISZERO DUP1 ISZERO PUSH2 0x43E JUMPI PUSH1 0x0 DUP1 REVERT JUMPDEST POP GAS CALL SWAP3 POP POP POP DUP1 ISZERO PUSH2 0x44F JUMPI POP PUSH1 0x1 JUMPDEST PUSH2 0x4E7 JUMPI DUP2 PUSH20 0xFFFFFFFFFFFFFFFFFFFFFFFFFFFFFFFFFFFFFFFF AND PUSH4 0x95EA7B3 DUP9 PUSH1 0x0 PUSH1 0x40 MLOAD DUP4 PUSH4 0xFFFFFFFF AND PUSH1 0xE0 SHL DUP2 MSTORE PUSH1 0x4 ADD PUSH2 0x48F SWAP3 SWAP2 SWAP1 PUSH2 0xC4F JUMP JUMPDEST PUSH1 0x20 PUSH1 0x40 MLOAD DUP1 DUP4 SUB DUP2 PUSH1 0x0 DUP8 DUP1 EXTCODESIZE ISZERO DUP1 ISZERO PUSH2 0x4A9 JUMPI PUSH1 0x0 DUP1 REVERT JUMPDEST POP GAS CALL ISZERO DUP1 ISZERO PUSH2 0x4BD JUMPI RETURNDATASIZE PUSH1 0x0 DUP1 RETURNDATACOPY RETURNDATASIZE PUSH1 0x0 REVERT JUMPDEST POP POP POP POP PUSH1 0x40 MLOAD RETURNDATASIZE PUSH1 0x1F NOT PUSH1 0x1F DUP3 ADD AND DUP3 ADD DUP1 PUSH1 0x40 MSTORE POP DUP2 ADD SWAP1 PUSH2 0x4E1 SWAP2 SWAP1 PUSH2 0xAFF JUMP JUMPDEST POP PUSH2 0x4E8 JUMP JUMPDEST JUMPDEST POP POP DUP1 DUP1 PUSH2 0x4F5 SWAP1 PUSH2 0xE3B JUMP JUMPDEST SWAP2 POP POP PUSH2 0x1AB JUMP JUMPDEST POP PUSH1 0x0 DUP5 PUSH20 0xFFFFFFFFFFFFFFFFFFFFFFFFFFFFFFFFFFFFFFFF AND PUSH4 0x8DA876C9 PUSH1 0x40 MLOAD DUP2 PUSH4 0xFFFFFFFF AND PUSH1 0xE0 SHL DUP2 MSTORE PUSH1 0x4 ADD PUSH1 0x20 PUSH1 0x40 MLOAD DUP1 DUP4 SUB DUP2 DUP7 DUP1 EXTCODESIZE ISZERO DUP1 ISZERO PUSH2 0x546 JUMPI PUSH1 0x0 DUP1 REVERT JUMPDEST POP GAS STATICCALL ISZERO DUP1 ISZERO PUSH2 0x55A JUMPI RETURNDATASIZE PUSH1 0x0 DUP1 RETURNDATACOPY RETURNDATASIZE PUSH1 0x0 REVERT JUMPDEST POP POP POP POP PUSH1 0x40 MLOAD RETURNDATASIZE PUSH1 0x1F NOT PUSH1 0x1F DUP3 ADD AND DUP3 ADD DUP1 PUSH1 0x40 MSTORE POP DUP2 ADD SWAP1 PUSH2 0x57E SWAP2 SWAP1 PUSH2 0xBA7 JUMP JUMPDEST SWAP1 POP PUSH1 0x0 DUP3 DUP3 PUSH2 0x58E SWAP2 SWAP1 PUSH2 0xD9B JUMP JUMPDEST SWAP1 POP DUP1 PUSH1 0x2 PUSH1 0x0 CALLER PUSH20 0xFFFFFFFFFFFFFFFFFFFFFFFFFFFFFFFFFFFFFFFF AND PUSH20 0xFFFFFFFFFFFFFFFFFFFFFFFFFFFFFFFFFFFFFFFF AND DUP2 MSTORE PUSH1 0x20 ADD SWAP1 DUP2 MSTORE PUSH1 0x20 ADD PUSH1 0x0 KECCAK256 PUSH1 0x0 DUP3 DUP3 SLOAD PUSH2 0x5DF SWAP2 SWAP1 PUSH2 0xD45 JUMP JUMPDEST SWAP3 POP POP DUP2 SWAP1 SSTORE POP POP POP POP POP POP POP JUMP JUMPDEST PUSH1 0x0 DUP1 SLOAD SWAP1 PUSH2 0x100 EXP SWAP1 DIV PUSH20 0xFFFFFFFFFFFFFFFFFFFFFFFFFFFFFFFFFFFFFFFF AND DUP2 JUMP JUMPDEST PUSH1 0x2 PUSH1 0x20 MSTORE DUP1 PUSH1 0x0 MSTORE PUSH1 0x40 PUSH1 0x0 KECCAK256 PUSH1 0x0 SWAP2 POP SWAP1 POP SLOAD DUP2 JUMP JUMPDEST PUSH1 0x0 DUP4 PUSH20 0xFFFFFFFFFFFFFFFFFFFFFFFFFFFFFFFFFFFFFFFF AND PUSH4 0x8DA876C9 PUSH1 0x40 MLOAD DUP2 PUSH4 0xFFFFFFFF AND PUSH1 0xE0 SHL DUP2 MSTORE PUSH1 0x4 ADD PUSH1 0x20 PUSH1 0x40 MLOAD DUP1 DUP4 SUB DUP2 DUP7 DUP1 EXTCODESIZE ISZERO DUP1 ISZERO PUSH2 0x672 JUMPI PUSH1 0x0 DUP1 REVERT JUMPDEST POP GAS STATICCALL ISZERO DUP1 ISZERO PUSH2 0x686 JUMPI RETURNDATASIZE PUSH1 0x0 DUP1 RETURNDATACOPY RETURNDATASIZE PUSH1 0x0 REVERT JUMPDEST POP POP POP POP PUSH1 0x40 MLOAD RETURNDATASIZE PUSH1 0x1F NOT PUSH1 0x1F DUP3 ADD AND DUP3 ADD DUP1 PUSH1 0x40 MSTORE POP DUP2 ADD SWAP1 PUSH2 0x6AA SWAP2 SWAP1 PUSH2 0xBA7 JUMP JUMPDEST SWAP1 POP PUSH1 0x0 JUMPDEST DUP4 MLOAD DUP2 LT ISZERO PUSH2 0x850 JUMPI PUSH1 0x0 DUP5 DUP3 DUP2 MLOAD DUP2 LT PUSH2 0x6F3 JUMPI PUSH32 0x4E487B7100000000000000000000000000000000000000000000000000000000 PUSH1 0x0 MSTORE PUSH1 0x32 PUSH1 0x4 MSTORE PUSH1 0x24 PUSH1 0x0 REVERT JUMPDEST PUSH1 0x20 MUL PUSH1 0x20 ADD ADD MLOAD SWAP1 POP PUSH1 0x0 DUP5 DUP4 DUP2 MLOAD DUP2 LT PUSH2 0x738 JUMPI PUSH32 0x4E487B7100000000000000000000000000000000000000000000000000000000 PUSH1 0x0 MSTORE PUSH1 0x32 PUSH1 0x4 MSTORE PUSH1 0x24 PUSH1 0x0 REVERT JUMPDEST PUSH1 0x20 MUL PUSH1 0x20 ADD ADD MLOAD SWAP1 POP DUP7 PUSH20 0xFFFFFFFFFFFFFFFFFFFFFFFFFFFFFFFFFFFFFFFF AND PUSH4 0x42966C68 DUP3 PUSH1 0x40 MLOAD DUP3 PUSH4 0xFFFFFFFF AND PUSH1 0xE0 SHL DUP2 MSTORE PUSH1 0x4 ADD PUSH2 0x77B SWAP2 SWAP1 PUSH2 0xCA1 JUMP JUMPDEST PUSH1 0x0 PUSH1 0x40 MLOAD DUP1 DUP4 SUB DUP2 PUSH1 0x0 DUP8 DUP1 EXTCODESIZE ISZERO DUP1 ISZERO PUSH2 0x795 JUMPI PUSH1 0x0 DUP1 REVERT JUMPDEST POP GAS CALL ISZERO DUP1 ISZERO PUSH2 0x7A9 JUMPI RETURNDATASIZE PUSH1 0x0 DUP1 RETURNDATACOPY RETURNDATASIZE PUSH1 0x0 REVERT JUMPDEST POP POP POP POP DUP2 PUSH20 0xFFFFFFFFFFFFFFFFFFFFFFFFFFFFFFFFFFFFFFFF AND PUSH4 0xA9059CBB CALLER DUP4 PUSH1 0x40 MLOAD DUP4 PUSH4 0xFFFFFFFF AND PUSH1 0xE0 SHL DUP2 MSTORE PUSH1 0x4 ADD PUSH2 0x7E8 SWAP3 SWAP2 SWAP1 PUSH2 0xC78 JUMP JUMPDEST PUSH1 0x20 PUSH1 0x40 MLOAD DUP1 DUP4 SUB DUP2 PUSH1 0x0 DUP8 DUP1 EXTCODESIZE ISZERO DUP1 ISZERO PUSH2 0x802 JUMPI PUSH1 0x0 DUP1 REVERT JUMPDEST POP GAS CALL ISZERO DUP1 ISZERO PUSH2 0x816 JUMPI RETURNDATASIZE PUSH1 0x0 DUP1 RETURNDATACOPY RETURNDATASIZE PUSH1 0x0 REVERT JUMPDEST POP POP POP POP PUSH1 0x40 MLOAD RETURNDATASIZE PUSH1 0x1F NOT PUSH1 0x1F DUP3 ADD AND DUP3 ADD DUP1 PUSH1 0x40 MSTORE POP DUP2 ADD SWAP1 PUSH2 0x83A SWAP2 SWAP1 PUSH2 0xAFF JUMP JUMPDEST POP POP POP DUP1 DUP1 PUSH2 0x848 SWAP1 PUSH2 0xE3B JUMP JUMPDEST SWAP2 POP POP PUSH2 0x6AF JUMP JUMPDEST POP PUSH1 0x0 DUP5 PUSH20 0xFFFFFFFFFFFFFFFFFFFFFFFFFFFFFFFFFFFFFFFF AND PUSH4 0x8DA876C9 PUSH1 0x40 MLOAD DUP2 PUSH4 0xFFFFFFFF AND PUSH1 0xE0 SHL DUP2 MSTORE PUSH1 0x4 ADD PUSH1 0x20 PUSH1 0x40 MLOAD DUP1 DUP4 SUB DUP2 DUP7 DUP1 EXTCODESIZE ISZERO DUP1 ISZERO PUSH2 0x899 JUMPI PUSH1 0x0 DUP1 REVERT JUMPDEST POP GAS STATICCALL ISZERO DUP1 ISZERO PUSH2 0x8AD JUMPI RETURNDATASIZE PUSH1 0x0 DUP1 RETURNDATACOPY RETURNDATASIZE PUSH1 0x0 REVERT JUMPDEST POP POP POP POP PUSH1 0x40 MLOAD RETURNDATASIZE PUSH1 0x1F NOT PUSH1 0x1F DUP3 ADD AND DUP3 ADD DUP1 PUSH1 0x40 MSTORE POP DUP2 ADD SWAP1 PUSH2 0x8D1 SWAP2 SWAP1 PUSH2 0xBA7 JUMP JUMPDEST SWAP1 POP PUSH1 0x0 DUP2 DUP4 PUSH2 0x8E1 SWAP2 SWAP1 PUSH2 0xD9B JUMP JUMPDEST SWAP1 POP DUP1 PUSH1 0x2 PUSH1 0x0 CALLER PUSH20 0xFFFFFFFFFFFFFFFFFFFFFFFFFFFFFFFFFFFFFFFF AND PUSH20 0xFFFFFFFFFFFFFFFFFFFFFFFFFFFFFFFFFFFFFFFF AND DUP2 MSTORE PUSH1 0x20 ADD SWAP1 DUP2 MSTORE PUSH1 0x20 ADD PUSH1 0x0 KECCAK256 PUSH1 0x0 DUP3 DUP3 SLOAD PUSH2 0x932 SWAP2 SWAP1 PUSH2 0xD9B JUMP JUMPDEST SWAP3 POP POP DUP2 SWAP1 SSTORE POP POP POP POP POP POP POP JUMP JUMPDEST PUSH1 0x0 PUSH2 0x954 PUSH2 0x94F DUP5 PUSH2 0xCED JUMP JUMPDEST PUSH2 0xCBC JUMP JUMPDEST SWAP1 POP DUP1 DUP4 DUP3 MSTORE PUSH1 0x20 DUP3 ADD SWAP1 POP DUP3 DUP6 PUSH1 0x20 DUP7 MUL DUP3 ADD GT ISZERO PUSH2 0x973 JUMPI PUSH1 0x0 DUP1 REVERT JUMPDEST PUSH1 0x0 JUMPDEST DUP6 DUP2 LT ISZERO PUSH2 0x9A3 JUMPI DUP2 PUSH2 0x989 DUP9 DUP3 PUSH2 0xA19 JUMP JUMPDEST DUP5 MSTORE PUSH1 0x20 DUP5 ADD SWAP4 POP PUSH1 0x20 DUP4 ADD SWAP3 POP POP PUSH1 0x1 DUP2 ADD SWAP1 POP PUSH2 0x976 JUMP JUMPDEST POP POP POP SWAP4 SWAP3 POP POP POP JUMP JUMPDEST PUSH1 0x0 PUSH2 0x9C0 PUSH2 0x9BB DUP5 PUSH2 0xD19 JUMP JUMPDEST PUSH2 0xCBC JUMP JUMPDEST SWAP1 POP DUP1 DUP4 DUP3 MSTORE PUSH1 0x20 DUP3 ADD SWAP1 POP DUP3 DUP6 PUSH1 0x20 DUP7 MUL DUP3 ADD GT ISZERO PUSH2 0x9DF JUMPI PUSH1 0x0 DUP1 REVERT JUMPDEST PUSH1 0x0 JUMPDEST DUP6 DUP2 LT ISZERO PUSH2 0xA0F JUMPI DUP2 PUSH2 0x9F5 DUP9 DUP3 PUSH2 0xAAC JUMP JUMPDEST DUP5 MSTORE PUSH1 0x20 DUP5 ADD SWAP4 POP PUSH1 0x20 DUP4 ADD SWAP3 POP POP PUSH1 0x1 DUP2 ADD SWAP1 POP PUSH2 0x9E2 JUMP JUMPDEST POP POP POP SWAP4 SWAP3 POP POP POP JUMP JUMPDEST PUSH1 0x0 DUP2 CALLDATALOAD SWAP1 POP PUSH2 0xA28 DUP2 PUSH2 0xEE2 JUMP JUMPDEST SWAP3 SWAP2 POP POP JUMP JUMPDEST PUSH1 0x0 DUP3 PUSH1 0x1F DUP4 ADD SLT PUSH2 0xA3F JUMPI PUSH1 0x0 DUP1 REVERT JUMPDEST DUP2 CALLDATALOAD PUSH2 0xA4F DUP5 DUP3 PUSH1 0x20 DUP7 ADD PUSH2 0x941 JUMP JUMPDEST SWAP2 POP POP SWAP3 SWAP2 POP POP JUMP JUMPDEST PUSH1 0x0 DUP3 PUSH1 0x1F DUP4 ADD SLT PUSH2 0xA69 JUMPI PUSH1 0x0 DUP1 REVERT JUMPDEST DUP2 CALLDATALOAD PUSH2 0xA79 DUP5 DUP3 PUSH1 0x20 DUP7 ADD PUSH2 0x9AD JUMP JUMPDEST SWAP2 POP POP SWAP3 SWAP2 POP POP JUMP JUMPDEST PUSH1 0x0 DUP2 MLOAD SWAP1 POP PUSH2 0xA91 DUP2 PUSH2 0xEF9 JUMP JUMPDEST SWAP3 SWAP2 POP POP JUMP JUMPDEST PUSH1 0x0 DUP2 CALLDATALOAD SWAP1 POP PUSH2 0xAA6 DUP2 PUSH2 0xF10 JUMP JUMPDEST SWAP3 SWAP2 POP POP JUMP JUMPDEST PUSH1 0x0 DUP2 CALLDATALOAD SWAP1 POP PUSH2 0xABB DUP2 PUSH2 0xF27 JUMP JUMPDEST SWAP3 SWAP2 POP POP JUMP JUMPDEST PUSH1 0x0 DUP2 MLOAD SWAP1 POP PUSH2 0xAD0 DUP2 PUSH2 0xF27 JUMP JUMPDEST SWAP3 SWAP2 POP POP JUMP JUMPDEST PUSH1 0x0 PUSH1 0x20 DUP3 DUP5 SUB SLT ISZERO PUSH2 0xAE8 JUMPI PUSH1 0x0 DUP1 REVERT JUMPDEST PUSH1 0x0 PUSH2 0xAF6 DUP5 DUP3 DUP6 ADD PUSH2 0xA19 JUMP JUMPDEST SWAP2 POP POP SWAP3 SWAP2 POP POP JUMP JUMPDEST PUSH1 0x0 PUSH1 0x20 DUP3 DUP5 SUB SLT ISZERO PUSH2 0xB11 JUMPI PUSH1 0x0 DUP1 REVERT JUMPDEST PUSH1 0x0 PUSH2 0xB1F DUP5 DUP3 DUP6 ADD PUSH2 0xA82 JUMP JUMPDEST SWAP2 POP POP SWAP3 SWAP2 POP POP JUMP JUMPDEST PUSH1 0x0 DUP1 PUSH1 0x0 PUSH1 0x60 DUP5 DUP7 SUB SLT ISZERO PUSH2 0xB3D JUMPI PUSH1 0x0 DUP1 REVERT JUMPDEST PUSH1 0x0 PUSH2 0xB4B DUP7 DUP3 DUP8 ADD PUSH2 0xA97 JUMP JUMPDEST SWAP4 POP POP PUSH1 0x20 DUP5 ADD CALLDATALOAD PUSH8 0xFFFFFFFFFFFFFFFF DUP2 GT ISZERO PUSH2 0xB68 JUMPI PUSH1 0x0 DUP1 REVERT JUMPDEST PUSH2 0xB74 DUP7 DUP3 DUP8 ADD PUSH2 0xA2E JUMP JUMPDEST SWAP3 POP POP PUSH1 0x40 DUP5 ADD CALLDATALOAD PUSH8 0xFFFFFFFFFFFFFFFF DUP2 GT ISZERO PUSH2 0xB91 JUMPI PUSH1 0x0 DUP1 REVERT JUMPDEST PUSH2 0xB9D DUP7 DUP3 DUP8 ADD PUSH2 0xA58 JUMP JUMPDEST SWAP2 POP POP SWAP3 POP SWAP3 POP SWAP3 JUMP JUMPDEST PUSH1 0x0 PUSH1 0x20 DUP3 DUP5 SUB SLT ISZERO PUSH2 0xBB9 JUMPI PUSH1 0x0 DUP1 REVERT JUMPDEST PUSH1 0x0 PUSH2 0xBC7 DUP5 DUP3 DUP6 ADD PUSH2 0xAC1 JUMP JUMPDEST SWAP2 POP POP SWAP3 SWAP2 POP POP JUMP JUMPDEST PUSH2 0xBD9 DUP2 PUSH2 0xDCF JUMP JUMPDEST DUP3 MSTORE POP POP JUMP JUMPDEST PUSH2 0xBE8 DUP2 PUSH2 0xE29 JUMP JUMPDEST DUP3 MSTORE POP POP JUMP JUMPDEST PUSH2 0xBF7 DUP2 PUSH2 0xE1F JUMP JUMPDEST DUP3 MSTORE POP POP JUMP JUMPDEST PUSH1 0x0 PUSH1 0x20 DUP3 ADD SWAP1 POP PUSH2 0xC12 PUSH1 0x0 DUP4 ADD DUP5 PUSH2 0xBD0 JUMP JUMPDEST SWAP3 SWAP2 POP POP JUMP JUMPDEST PUSH1 0x0 PUSH1 0x60 DUP3 ADD SWAP1 POP PUSH2 0xC2D PUSH1 0x0 DUP4 ADD DUP7 PUSH2 0xBD0 JUMP JUMPDEST PUSH2 0xC3A PUSH1 0x20 DUP4 ADD DUP6 PUSH2 0xBD0 JUMP JUMPDEST PUSH2 0xC47 PUSH1 0x40 DUP4 ADD DUP5 PUSH2 0xBEE JUMP JUMPDEST SWAP5 SWAP4 POP POP POP POP JUMP JUMPDEST PUSH1 0x0 PUSH1 0x40 DUP3 ADD SWAP1 POP PUSH2 0xC64 PUSH1 0x0 DUP4 ADD DUP6 PUSH2 0xBD0 JUMP JUMPDEST PUSH2 0xC71 PUSH1 0x20 DUP4 ADD DUP5 PUSH2 0xBDF JUMP JUMPDEST SWAP4 SWAP3 POP POP POP JUMP JUMPDEST PUSH1 0x0 PUSH1 0x40 DUP3 ADD SWAP1 POP PUSH2 0xC8D PUSH1 0x0 DUP4 ADD DUP6 PUSH2 0xBD0 JUMP JUMPDEST PUSH2 0xC9A PUSH1 0x20 DUP4 ADD DUP5 PUSH2 0xBEE JUMP JUMPDEST SWAP4 SWAP3 POP POP POP JUMP JUMPDEST PUSH1 0x0 PUSH1 0x20 DUP3 ADD SWAP1 POP PUSH2 0xCB6 PUSH1 0x0 DUP4 ADD DUP5 PUSH2 0xBEE JUMP JUMPDEST SWAP3 SWAP2 POP POP JUMP JUMPDEST PUSH1 0x0 PUSH1 0x40 MLOAD SWAP1 POP DUP2 DUP2 ADD DUP2 DUP2 LT PUSH8 0xFFFFFFFFFFFFFFFF DUP3 GT OR ISZERO PUSH2 0xCE3 JUMPI PUSH2 0xCE2 PUSH2 0xEB3 JUMP JUMPDEST JUMPDEST DUP1 PUSH1 0x40 MSTORE POP SWAP2 SWAP1 POP JUMP JUMPDEST PUSH1 0x0 PUSH8 0xFFFFFFFFFFFFFFFF DUP3 GT ISZERO PUSH2 0xD08 JUMPI PUSH2 0xD07 PUSH2 0xEB3 JUMP JUMPDEST JUMPDEST PUSH1 0x20 DUP3 MUL SWAP1 POP PUSH1 0x20 DUP2 ADD SWAP1 POP SWAP2 SWAP1 POP JUMP JUMPDEST PUSH1 0x0 PUSH8 0xFFFFFFFFFFFFFFFF DUP3 GT ISZERO PUSH2 0xD34 JUMPI PUSH2 0xD33 PUSH2 0xEB3 JUMP JUMPDEST JUMPDEST PUSH1 0x20 DUP3 MUL SWAP1 POP PUSH1 0x20 DUP2 ADD SWAP1 POP SWAP2 SWAP1 POP JUMP JUMPDEST PUSH1 0x0 PUSH2 0xD50 DUP3 PUSH2 0xE1F JUMP JUMPDEST SWAP2 POP PUSH2 0xD5B DUP4 PUSH2 0xE1F JUMP JUMPDEST SWAP3 POP DUP3 PUSH32 0xFFFFFFFFFFFFFFFFFFFFFFFFFFFFFFFFFFFFFFFFFFFFFFFFFFFFFFFFFFFFFFFF SUB DUP3 GT ISZERO PUSH2 0xD90 JUMPI PUSH2 0xD8F PUSH2 0xE84 JUMP JUMPDEST JUMPDEST DUP3 DUP3 ADD SWAP1 POP SWAP3 SWAP2 POP POP JUMP JUMPDEST PUSH1 0x0 PUSH2 0xDA6 DUP3 PUSH2 0xE1F JUMP JUMPDEST SWAP2 POP PUSH2 0xDB1 DUP4 PUSH2 0xE1F JUMP JUMPDEST SWAP3 POP DUP3 DUP3 LT ISZERO PUSH2 0xDC4 JUMPI PUSH2 0xDC3 PUSH2 0xE84 JUMP JUMPDEST JUMPDEST DUP3 DUP3 SUB SWAP1 POP SWAP3 SWAP2 POP POP JUMP JUMPDEST PUSH1 0x0 PUSH2 0xDDA DUP3 PUSH2 0xDFF JUMP JUMPDEST SWAP1 POP SWAP2 SWAP1 POP JUMP JUMPDEST PUSH1 0x0 DUP2 ISZERO ISZERO SWAP1 POP SWAP2 SWAP1 POP JUMP JUMPDEST PUSH1 0x0 PUSH2 0xDF8 DUP3 PUSH2 0xDCF JUMP JUMPDEST SWAP1 POP SWAP2 SWAP1 POP JUMP JUMPDEST PUSH1 0x0 PUSH20 0xFFFFFFFFFFFFFFFFFFFFFFFFFFFFFFFFFFFFFFFF DUP3 AND SWAP1 POP SWAP2 SWAP1 POP JUMP JUMPDEST PUSH1 0x0 DUP2 SWAP1 POP SWAP2 SWAP1 POP JUMP JUMPDEST PUSH1 0x0 PUSH2 0xE34 DUP3 PUSH2 0xE1F JUMP JUMPDEST SWAP1 POP SWAP2 SWAP1 POP JUMP JUMPDEST PUSH1 0x0 PUSH2 0xE46 DUP3 PUSH2 0xE1F JUMP JUMPDEST SWAP2 POP PUSH32 0xFFFFFFFFFFFFFFFFFFFFFFFFFFFFFFFFFFFFFFFFFFFFFFFFFFFFFFFFFFFFFFFF DUP3 EQ ISZERO PUSH2 0xE79 JUMPI PUSH2 0xE78 PUSH2 0xE84 JUMP JUMPDEST JUMPDEST PUSH1 0x1 DUP3 ADD SWAP1 POP SWAP2 SWAP1 POP JUMP JUMPDEST PUSH32 0x4E487B7100000000000000000000000000000000000000000000000000000000 PUSH1 0x0 MSTORE PUSH1 0x11 PUSH1 0x4 MSTORE PUSH1 0x24 PUSH1 0x0 REVERT JUMPDEST PUSH32 0x4E487B7100000000000000000000000000000000000000000000000000000000 PUSH1 0x0 MSTORE PUSH1 0x41 PUSH1 0x4 MSTORE PUSH1 0x24 PUSH1 0x0 REVERT JUMPDEST PUSH2 0xEEB DUP2 PUSH2 0xDCF JUMP JUMPDEST DUP2 EQ PUSH2 0xEF6 JUMPI PUSH1 0x0 DUP1 REVERT JUMPDEST POP JUMP JUMPDEST PUSH2 0xF02 DUP2 PUSH2 0xDE1 JUMP JUMPDEST DUP2 EQ PUSH2 0xF0D JUMPI PUSH1 0x0 DUP1 REVERT JUMPDEST POP JUMP JUMPDEST PUSH2 0xF19 DUP2 PUSH2 0xDED JUMP JUMPDEST DUP2 EQ PUSH2 0xF24 JUMPI PUSH1 0x0 DUP1 REVERT JUMPDEST POP JUMP JUMPDEST PUSH2 0xF30 DUP2 PUSH2 0xE1F JUMP JUMPDEST DUP2 EQ PUSH2 0xF3B JUMPI PUSH1 0x0 DUP1 REVERT JUMPDEST POP JUMP INVALID LOG2 PUSH5 0x6970667358 0x22 SLT KECCAK256 0x2D TIMESTAMP MSTORE8 DUP12 PUSH12 0xAC4BF7E490F55875B8F8E5D 0x24 AND 0xE9 PUSH8 0x357093A1301D64CB XOR CREATE ADDRESS PUSH5 0x736F6C6343 STOP ADDMOD STOP STOP CALLER "
        },
        "methodIdentifiers": {
          "deposit(address,address[],uint256[])": "562fa0df",
          "harvester()": "4bdaeac1",
          "owner()": "8da5cb5b",
          "poolTokens(address)": "a9126169",
          "withdraw(address,address[],uint256[])": "edbd7668"
        }
      }
    }
  }
}