{
  "contracts/broker/Broker.sol": {
    "Broker": {
      "abi": [
        {
          "inputs": [
            {
              "internalType": "contract IUniswapV2Pair",
              "name": "_pair",
              "type": "address"
            },
            {
              "internalType": "contract ERC20Like",
              "name": "_token",
              "type": "address"
            },
            {
              "internalType": "contract iWETH9",
              "name": "_weth",
              "type": "address"
            }
          ],
          "stateMutability": "nonpayable",
          "type": "constructor"
        },
        {
          "inputs": [
            {
              "internalType": "uint256",
              "name": "amount",
              "type": "uint256"
            }
          ],
          "name": "borrow",
          "outputs": [],
          "stateMutability": "nonpayable",
          "type": "function"
        },
        {
          "inputs": [
            {
              "internalType": "address",
              "name": "",
              "type": "address"
            }
          ],
          "name": "debt",
          "outputs": [
            {
              "internalType": "uint256",
              "name": "",
              "type": "uint256"
            }
          ],
          "stateMutability": "view",
          "type": "function"
        },
        {
          "inputs": [
            {
              "internalType": "uint256",
              "name": "amount",
              "type": "uint256"
            }
          ],
          "name": "deposit",
          "outputs": [],
          "stateMutability": "nonpayable",
          "type": "function"
        },
        {
          "inputs": [
            {
              "internalType": "address",
              "name": "",
              "type": "address"
            }
          ],
          "name": "deposited",
          "outputs": [
            {
              "internalType": "uint256",
              "name": "",
              "type": "uint256"
            }
          ],
          "stateMutability": "view",
          "type": "function"
        },
        {
          "inputs": [],
          "name": "getReserves",
          "outputs": [
            {
              "internalType": "uint112",
              "name": "",
              "type": "uint112"
            },
            {
              "internalType": "uint112",
              "name": "",
              "type": "uint112"
            }
          ],
          "stateMutability": "view",
          "type": "function"
        },
        {
          "inputs": [
            {
              "internalType": "address",
              "name": "user",
              "type": "address"
            },
            {
              "internalType": "uint256",
              "name": "amount",
              "type": "uint256"
            }
          ],
          "name": "liquidate",
          "outputs": [
            {
              "internalType": "uint256",
              "name": "",
              "type": "uint256"
            }
          ],
          "stateMutability": "nonpayable",
          "type": "function"
        },
        {
          "inputs": [],
          "name": "pair",
          "outputs": [
            {
              "internalType": "contract IUniswapV2Pair",
              "name": "",
              "type": "address"
            }
          ],
          "stateMutability": "view",
          "type": "function"
        },
        {
          "inputs": [],
          "name": "rate",
          "outputs": [
            {
              "internalType": "uint256",
              "name": "",
              "type": "uint256"
            }
          ],
          "stateMutability": "view",
          "type": "function"
        },
        {
          "inputs": [
            {
              "internalType": "uint256",
              "name": "amount",
              "type": "uint256"
            }
          ],
          "name": "repay",
          "outputs": [],
          "stateMutability": "nonpayable",
          "type": "function"
        },
        {
          "inputs": [
            {
              "internalType": "address",
              "name": "user",
              "type": "address"
            }
          ],
          "name": "safeDebt",
          "outputs": [
            {
              "internalType": "uint256",
              "name": "",
              "type": "uint256"
            }
          ],
          "stateMutability": "view",
          "type": "function"
        },
        {
          "inputs": [],
          "name": "token",
          "outputs": [
            {
              "internalType": "contract ERC20Like",
              "name": "",
              "type": "address"
            }
          ],
          "stateMutability": "view",
          "type": "function"
        },
        {
          "inputs": [],
          "name": "weth",
          "outputs": [
            {
              "internalType": "contract iWETH9",
              "name": "",
              "type": "address"
            }
          ],
          "stateMutability": "view",
          "type": "function"
        },
        {
          "inputs": [
            {
              "internalType": "uint256",
              "name": "amount",
              "type": "uint256"
            }
          ],
          "name": "withdraw",
          "outputs": [],
          "stateMutability": "nonpayable",
          "type": "function"
        }
      ],
      "evm": {
        "bytecode": {
          "linkReferences": {},
          "object": "60a06040523480156200001157600080fd5b506040516200160d3803806200160d83398181016040528101906200003791906200013d565b826000806101000a81548173ffffffffffffffffffffffffffffffffffffffff021916908373ffffffffffffffffffffffffffffffffffffffff16021790555081600160006101000a81548173ffffffffffffffffffffffffffffffffffffffff021916908373ffffffffffffffffffffffffffffffffffffffff1602179055508073ffffffffffffffffffffffffffffffffffffffff1660808173ffffffffffffffffffffffffffffffffffffffff1660601b8152505050505062000251565b600081519050620001098162000203565b92915050565b60008151905062000120816200021d565b92915050565b600081519050620001378162000237565b92915050565b6000806000606084860312156200015357600080fd5b600062000163868287016200010f565b93505060206200017686828701620000f8565b9250506040620001898682870162000126565b9150509250925092565b6000620001a082620001e3565b9050919050565b6000620001b48262000193565b9050919050565b6000620001c88262000193565b9050919050565b6000620001dc8262000193565b9050919050565b600073ffffffffffffffffffffffffffffffffffffffff82169050919050565b6200020e81620001a7565b81146200021a57600080fd5b50565b6200022881620001bb565b81146200023457600080fd5b50565b6200024281620001cf565b81146200024e57600080fd5b50565b60805160601c611388620002856000396000818161050401528181610733015281816107e90152610a4701526113886000f3fe608060405234801561001057600080fd5b50600436106100cf5760003560e01c80639b6c56ec1161008c578063bcbaf48711610066578063bcbaf48714610201578063c5ebeaec14610231578063cb13cddb1461024d578063fc0c546a1461027d576100cf565b80639b6c56ec14610197578063a8aa1b31146101c7578063b6b55f25146101e5576100cf565b80630902f1ac146100d45780632c4e722e146100f35780632e1a7d4d146101115780632e4651651461012d578063371fd8e61461015d5780633fc8cef314610179575b600080fd5b6100dc61029b565b6040516100ea929190611008565b60405180910390f35b6100fb610350565b6040516101089190611031565b60405180910390f35b61012b60048036038101906101269190610e14565b610422565b005b61014760048036038101906101429190610d37565b6105b3565b6040516101549190611031565b60405180910390f35b61017760048036038101906101729190610e14565b610626565b005b610181610731565b60405161018e9190610fad565b60405180910390f35b6101b160048036038101906101ac9190610d37565b610755565b6040516101be9190611031565b60405180910390f35b6101cf61076d565b6040516101dc9190610f92565b60405180910390f35b6101ff60048036038101906101fa9190610e14565b610791565b005b61021b60048036038101906102169190610d60565b61089a565b6040516102289190611031565b60405180910390f35b61024b60048036038101906102469190610e14565b610afd565b005b61026760048036038101906102629190610d37565b610c90565b6040516102749190611031565b60405180910390f35b610285610ca8565b6040516102929190610f77565b60405180910390f35b60008060008060008054906101000a900473ffffffffffffffffffffffffffffffffffffffff1673ffffffffffffffffffffffffffffffffffffffff16630902f1ac6040518163ffffffff1660e01b815260040160606040518083038186803b15801561030757600080fd5b505afa15801561031b573d6000803e3d6000fd5b505050506040513d601f19601f8201168201806040525081019061033f9190610dc5565b509150915081819350935050509091565b60008060008060009054906101000a900473ffffffffffffffffffffffffffffffffffffffff1673ffffffffffffffffffffffffffffffffffffffff16630902f1ac6040518163ffffffff1660e01b815260040160606040518083038186803b1580156103bc57600080fd5b505afa1580156103d0573d6000803e3d6000fd5b505050506040513d601f19601f820116820180604052508101906103f49190610dc5565b50915091506000828261040791906110b3565b6dffffffffffffffffffffffffffff16905080935050505090565b80600260003373ffffffffffffffffffffffffffffffffffffffff1673ffffffffffffffffffffffffffffffffffffffff1681526020019081526020016000206000828254610471919061116f565b92505081905550600360003373ffffffffffffffffffffffffffffffffffffffff1673ffffffffffffffffffffffffffffffffffffffff168152602001908152602001600020546104c1336105b3565b1015610502576040517f08c379a00000000000000000000000000000000000000000000000000000000081526004016104f990610fe8565b60405180910390fd5b7f000000000000000000000000000000000000000000000000000000000000000073ffffffffffffffffffffffffffffffffffffffff1663a9059cbb33836040518363ffffffff1660e01b815260040161055d929190610f4e565b602060405180830381600087803b15801561057757600080fd5b505af115801561058b573d6000803e3d6000fd5b505050506040513d601f19601f820116820180604052508101906105af9190610d9c565b5050565b6000600360026105c1610350565b600260008673ffffffffffffffffffffffffffffffffffffffff1673ffffffffffffffffffffffffffffffffffffffff1681526020019081526020016000205461060b9190611115565b6106159190611115565b61061f91906110e4565b9050919050565b80600360003373ffffffffffffffffffffffffffffffffffffffff1673ffffffffffffffffffffffffffffffffffffffff1681526020019081526020016000206000828254610675919061116f565b92505081905550600160009054906101000a900473ffffffffffffffffffffffffffffffffffffffff1673ffffffffffffffffffffffffffffffffffffffff166323b872dd3330846040518463ffffffff1660e01b81526004016106db93929190610f17565b602060405180830381600087803b1580156106f557600080fd5b505af1158015610709573d6000803e3d6000fd5b505050506040513d601f19601f8201168201806040525081019061072d9190610d9c565b5050565b7f000000000000000000000000000000000000000000000000000000000000000081565b60036020528060005260406000206000915090505481565b60008054906101000a900473ffffffffffffffffffffffffffffffffffffffff1681565b80600260003373ffffffffffffffffffffffffffffffffffffffff1673ffffffffffffffffffffffffffffffffffffffff16815260200190815260200160002060008282546107e0919061105d565b925050819055507f000000000000000000000000000000000000000000000000000000000000000073ffffffffffffffffffffffffffffffffffffffff166323b872dd3330846040518463ffffffff1660e01b815260040161084493929190610f17565b602060405180830381600087803b15801561085e57600080fd5b505af1158015610872573d6000803e3d6000fd5b505050506040513d601f19601f820116820180604052508101906108969190610d9c565b5050565b6000600360008473ffffffffffffffffffffffffffffffffffffffff1673ffffffffffffffffffffffffffffffffffffffff168152602001908152602001600020546108e5846105b3565b1115610926576040517f08c379a000000000000000000000000000000000000000000000000000000000815260040161091d90610fc8565b60405180910390fd5b81600360008573ffffffffffffffffffffffffffffffffffffffff1673ffffffffffffffffffffffffffffffffffffffff1681526020019081526020016000206000828254610975919061116f565b92505081905550600160009054906101000a900473ffffffffffffffffffffffffffffffffffffffff1673ffffffffffffffffffffffffffffffffffffffff166323b872dd3330856040518463ffffffff1660e01b81526004016109db93929190610f17565b602060405180830381600087803b1580156109f557600080fd5b505af1158015610a09573d6000803e3d6000fd5b505050506040513d601f19601f82011682018060405250810190610a2d9190610d9c565b506000610a38610350565b83610a4391906110e4565b90507f000000000000000000000000000000000000000000000000000000000000000073ffffffffffffffffffffffffffffffffffffffff1663a9059cbb33836040518363ffffffff1660e01b8152600401610aa0929190610f4e565b602060405180830381600087803b158015610aba57600080fd5b505af1158015610ace573d6000803e3d6000fd5b505050506040513d601f19601f82011682018060405250810190610af29190610d9c565b508091505092915050565b80600360003373ffffffffffffffffffffffffffffffffffffffff1673ffffffffffffffffffffffffffffffffffffffff1681526020019081526020016000206000828254610b4c919061105d565b92505081905550600360003373ffffffffffffffffffffffffffffffffffffffff1673ffffffffffffffffffffffffffffffffffffffff16815260200190815260200160002054610b9c336105b3565b1015610bdd576040517f08c379a0000000000000000000000000000000000000000000000000000000008152600401610bd490610fe8565b60405180910390fd5b600160009054906101000a900473ffffffffffffffffffffffffffffffffffffffff1673ffffffffffffffffffffffffffffffffffffffff1663a9059cbb33836040518363ffffffff1660e01b8152600401610c3a929190610f4e565b602060405180830381600087803b158015610c5457600080fd5b505af1158015610c68573d6000803e3d6000fd5b505050506040513d601f19601f82011682018060405250810190610c8c9190610d9c565b5050565b60026020528060005260406000206000915090505481565b600160009054906101000a900473ffffffffffffffffffffffffffffffffffffffff1681565b600081359050610cdd816112df565b92915050565b600081519050610cf2816112f6565b92915050565b600081519050610d078161130d565b92915050565b600081359050610d1c81611324565b92915050565b600081519050610d318161133b565b92915050565b600060208284031215610d4957600080fd5b6000610d5784828501610cce565b91505092915050565b60008060408385031215610d7357600080fd5b6000610d8185828601610cce565b9250506020610d9285828601610d0d565b9150509250929050565b600060208284031215610dae57600080fd5b6000610dbc84828501610ce3565b91505092915050565b600080600060608486031215610dda57600080fd5b6000610de886828701610cf8565b9350506020610df986828701610cf8565b9250506040610e0a86828701610d22565b9150509250925092565b600060208284031215610e2657600080fd5b6000610e3484828501610d0d565b91505092915050565b610e46816111a3565b82525050565b610e5581611215565b82525050565b610e6481611239565b82525050565b610e738161125d565b82525050565b6000610e8660178361104c565b91507f6572723a206f766572636f6c6c61746572616c697a65640000000000000000006000830152602082019050919050565b6000610ec660188361104c565b91507f6572723a20756e646572636f6c6c61746572616c697a656400000000000000006000830152602082019050919050565b610f02816111c1565b82525050565b610f11816111fb565b82525050565b6000606082019050610f2c6000830186610e3d565b610f396020830185610e3d565b610f466040830184610f08565b949350505050565b6000604082019050610f636000830185610e3d565b610f706020830184610f08565b9392505050565b6000602082019050610f8c6000830184610e4c565b92915050565b6000602082019050610fa76000830184610e5b565b92915050565b6000602082019050610fc26000830184610e6a565b92915050565b60006020820190508181036000830152610fe181610e79565b9050919050565b6000602082019050818103600083015261100181610eb9565b9050919050565b600060408201905061101d6000830185610ef9565b61102a6020830184610ef9565b9392505050565b60006020820190506110466000830184610f08565b92915050565b600082825260208201905092915050565b6000611068826111fb565b9150611073836111fb565b9250827fffffffffffffffffffffffffffffffffffffffffffffffffffffffffffffffff038211156110a8576110a7611281565b5b828201905092915050565b60006110be826111c1565b91506110c9836111c1565b9250826110d9576110d86112b0565b5b828204905092915050565b60006110ef826111fb565b91506110fa836111fb565b92508261110a576111096112b0565b5b828204905092915050565b6000611120826111fb565b915061112b836111fb565b9250817fffffffffffffffffffffffffffffffffffffffffffffffffffffffffffffffff048311821515161561116457611163611281565b5b828202905092915050565b600061117a826111fb565b9150611185836111fb565b92508282101561119857611197611281565b5b828203905092915050565b60006111ae826111db565b9050919050565b60008115159050919050565b60006dffffffffffffffffffffffffffff82169050919050565b600073ffffffffffffffffffffffffffffffffffffffff82169050919050565b6000819050919050565b600063ffffffff82169050919050565b600061122082611227565b9050919050565b6000611232826111db565b9050919050565b60006112448261124b565b9050919050565b6000611256826111db565b9050919050565b60006112688261126f565b9050919050565b600061127a826111db565b9050919050565b7f4e487b7100000000000000000000000000000000000000000000000000000000600052601160045260246000fd5b7f4e487b7100000000000000000000000000000000000000000000000000000000600052601260045260246000fd5b6112e8816111a3565b81146112f357600080fd5b50565b6112ff816111b5565b811461130a57600080fd5b50565b611316816111c1565b811461132157600080fd5b50565b61132d816111fb565b811461133857600080fd5b50565b61134481611205565b811461134f57600080fd5b5056fea26469706673582212204840a1e3936073f6d138d902344c9f7b591560de52a27c6f1f7244148964a62c64736f6c63430008000033",
          "opcodes": "PUSH1 0xA0 PUSH1 0x40 MSTORE CALLVALUE DUP1 ISZERO PUSH3 0x11 JUMPI PUSH1 0x0 DUP1 REVERT JUMPDEST POP PUSH1 0x40 MLOAD PUSH3 0x160D CODESIZE SUB DUP1 PUSH3 0x160D DUP4 CODECOPY DUP2 DUP2 ADD PUSH1 0x40 MSTORE DUP2 ADD SWAP1 PUSH3 0x37 SWAP2 SWAP1 PUSH3 0x13D JUMP JUMPDEST DUP3 PUSH1 0x0 DUP1 PUSH2 0x100 EXP DUP2 SLOAD DUP2 PUSH20 0xFFFFFFFFFFFFFFFFFFFFFFFFFFFFFFFFFFFFFFFF MUL NOT AND SWAP1 DUP4 PUSH20 0xFFFFFFFFFFFFFFFFFFFFFFFFFFFFFFFFFFFFFFFF AND MUL OR SWAP1 SSTORE POP DUP2 PUSH1 0x1 PUSH1 0x0 PUSH2 0x100 EXP DUP2 SLOAD DUP2 PUSH20 0xFFFFFFFFFFFFFFFFFFFFFFFFFFFFFFFFFFFFFFFF MUL NOT AND SWAP1 DUP4 PUSH20 0xFFFFFFFFFFFFFFFFFFFFFFFFFFFFFFFFFFFFFFFF AND MUL OR SWAP1 SSTORE POP DUP1 PUSH20 0xFFFFFFFFFFFFFFFFFFFFFFFFFFFFFFFFFFFFFFFF AND PUSH1 0x80 DUP2 PUSH20 0xFFFFFFFFFFFFFFFFFFFFFFFFFFFFFFFFFFFFFFFF AND PUSH1 0x60 SHL DUP2 MSTORE POP POP POP POP POP PUSH3 0x251 JUMP JUMPDEST PUSH1 0x0 DUP2 MLOAD SWAP1 POP PUSH3 0x109 DUP2 PUSH3 0x203 JUMP JUMPDEST SWAP3 SWAP2 POP POP JUMP JUMPDEST PUSH1 0x0 DUP2 MLOAD SWAP1 POP PUSH3 0x120 DUP2 PUSH3 0x21D JUMP JUMPDEST SWAP3 SWAP2 POP POP JUMP JUMPDEST PUSH1 0x0 DUP2 MLOAD SWAP1 POP PUSH3 0x137 DUP2 PUSH3 0x237 JUMP JUMPDEST SWAP3 SWAP2 POP POP JUMP JUMPDEST PUSH1 0x0 DUP1 PUSH1 0x0 PUSH1 0x60 DUP5 DUP7 SUB SLT ISZERO PUSH3 0x153 JUMPI PUSH1 0x0 DUP1 REVERT JUMPDEST PUSH1 0x0 PUSH3 0x163 DUP7 DUP3 DUP8 ADD PUSH3 0x10F JUMP JUMPDEST SWAP4 POP POP PUSH1 0x20 PUSH3 0x176 DUP7 DUP3 DUP8 ADD PUSH3 0xF8 JUMP JUMPDEST SWAP3 POP POP PUSH1 0x40 PUSH3 0x189 DUP7 DUP3 DUP8 ADD PUSH3 0x126 JUMP JUMPDEST SWAP2 POP POP SWAP3 POP SWAP3 POP SWAP3 JUMP JUMPDEST PUSH1 0x0 PUSH3 0x1A0 DUP3 PUSH3 0x1E3 JUMP JUMPDEST SWAP1 POP SWAP2 SWAP1 POP JUMP JUMPDEST PUSH1 0x0 PUSH3 0x1B4 DUP3 PUSH3 0x193 JUMP JUMPDEST SWAP1 POP SWAP2 SWAP1 POP JUMP JUMPDEST PUSH1 0x0 PUSH3 0x1C8 DUP3 PUSH3 0x193 JUMP JUMPDEST SWAP1 POP SWAP2 SWAP1 POP JUMP JUMPDEST PUSH1 0x0 PUSH3 0x1DC DUP3 PUSH3 0x193 JUMP JUMPDEST SWAP1 POP SWAP2 SWAP1 POP JUMP JUMPDEST PUSH1 0x0 PUSH20 0xFFFFFFFFFFFFFFFFFFFFFFFFFFFFFFFFFFFFFFFF DUP3 AND SWAP1 POP SWAP2 SWAP1 POP JUMP JUMPDEST PUSH3 0x20E DUP2 PUSH3 0x1A7 JUMP JUMPDEST DUP2 EQ PUSH3 0x21A JUMPI PUSH1 0x0 DUP1 REVERT JUMPDEST POP JUMP JUMPDEST PUSH3 0x228 DUP2 PUSH3 0x1BB JUMP JUMPDEST DUP2 EQ PUSH3 0x234 JUMPI PUSH1 0x0 DUP1 REVERT JUMPDEST POP JUMP JUMPDEST PUSH3 0x242 DUP2 PUSH3 0x1CF JUMP JUMPDEST DUP2 EQ PUSH3 0x24E JUMPI PUSH1 0x0 DUP1 REVERT JUMPDEST POP JUMP JUMPDEST PUSH1 0x80 MLOAD PUSH1 0x60 SHR PUSH2 0x1388 PUSH3 0x285 PUSH1 0x0 CODECOPY PUSH1 0x0 DUP2 DUP2 PUSH2 0x504 ADD MSTORE DUP2 DUP2 PUSH2 0x733 ADD MSTORE DUP2 DUP2 PUSH2 0x7E9 ADD MSTORE PUSH2 0xA47 ADD MSTORE PUSH2 0x1388 PUSH1 0x0 RETURN INVALID PUSH1 0x80 PUSH1 0x40 MSTORE CALLVALUE DUP1 ISZERO PUSH2 0x10 JUMPI PUSH1 0x0 DUP1 REVERT JUMPDEST POP PUSH1 0x4 CALLDATASIZE LT PUSH2 0xCF JUMPI PUSH1 0x0 CALLDATALOAD PUSH1 0xE0 SHR DUP1 PUSH4 0x9B6C56EC GT PUSH2 0x8C JUMPI DUP1 PUSH4 0xBCBAF487 GT PUSH2 0x66 JUMPI DUP1 PUSH4 0xBCBAF487 EQ PUSH2 0x201 JUMPI DUP1 PUSH4 0xC5EBEAEC EQ PUSH2 0x231 JUMPI DUP1 PUSH4 0xCB13CDDB EQ PUSH2 0x24D JUMPI DUP1 PUSH4 0xFC0C546A EQ PUSH2 0x27D JUMPI PUSH2 0xCF JUMP JUMPDEST DUP1 PUSH4 0x9B6C56EC EQ PUSH2 0x197 JUMPI DUP1 PUSH4 0xA8AA1B31 EQ PUSH2 0x1C7 JUMPI DUP1 PUSH4 0xB6B55F25 EQ PUSH2 0x1E5 JUMPI PUSH2 0xCF JUMP JUMPDEST DUP1 PUSH4 0x902F1AC EQ PUSH2 0xD4 JUMPI DUP1 PUSH4 0x2C4E722E EQ PUSH2 0xF3 JUMPI DUP1 PUSH4 0x2E1A7D4D EQ PUSH2 0x111 JUMPI DUP1 PUSH4 0x2E465165 EQ PUSH2 0x12D JUMPI DUP1 PUSH4 0x371FD8E6 EQ PUSH2 0x15D JUMPI DUP1 PUSH4 0x3FC8CEF3 EQ PUSH2 0x179 JUMPI JUMPDEST PUSH1 0x0 DUP1 REVERT JUMPDEST PUSH2 0xDC PUSH2 0x29B JUMP JUMPDEST PUSH1 0x40 MLOAD PUSH2 0xEA SWAP3 SWAP2 SWAP1 PUSH2 0x1008 JUMP JUMPDEST PUSH1 0x40 MLOAD DUP1 SWAP2 SUB SWAP1 RETURN JUMPDEST PUSH2 0xFB PUSH2 0x350 JUMP JUMPDEST PUSH1 0x40 MLOAD PUSH2 0x108 SWAP2 SWAP1 PUSH2 0x1031 JUMP JUMPDEST PUSH1 0x40 MLOAD DUP1 SWAP2 SUB SWAP1 RETURN JUMPDEST PUSH2 0x12B PUSH1 0x4 DUP1 CALLDATASIZE SUB DUP2 ADD SWAP1 PUSH2 0x126 SWAP2 SWAP1 PUSH2 0xE14 JUMP JUMPDEST PUSH2 0x422 JUMP JUMPDEST STOP JUMPDEST PUSH2 0x147 PUSH1 0x4 DUP1 CALLDATASIZE SUB DUP2 ADD SWAP1 PUSH2 0x142 SWAP2 SWAP1 PUSH2 0xD37 JUMP JUMPDEST PUSH2 0x5B3 JUMP JUMPDEST PUSH1 0x40 MLOAD PUSH2 0x154 SWAP2 SWAP1 PUSH2 0x1031 JUMP JUMPDEST PUSH1 0x40 MLOAD DUP1 SWAP2 SUB SWAP1 RETURN JUMPDEST PUSH2 0x177 PUSH1 0x4 DUP1 CALLDATASIZE SUB DUP2 ADD SWAP1 PUSH2 0x172 SWAP2 SWAP1 PUSH2 0xE14 JUMP JUMPDEST PUSH2 0x626 JUMP JUMPDEST STOP JUMPDEST PUSH2 0x181 PUSH2 0x731 JUMP JUMPDEST PUSH1 0x40 MLOAD PUSH2 0x18E SWAP2 SWAP1 PUSH2 0xFAD JUMP JUMPDEST PUSH1 0x40 MLOAD DUP1 SWAP2 SUB SWAP1 RETURN JUMPDEST PUSH2 0x1B1 PUSH1 0x4 DUP1 CALLDATASIZE SUB DUP2 ADD SWAP1 PUSH2 0x1AC SWAP2 SWAP1 PUSH2 0xD37 JUMP JUMPDEST PUSH2 0x755 JUMP JUMPDEST PUSH1 0x40 MLOAD PUSH2 0x1BE SWAP2 SWAP1 PUSH2 0x1031 JUMP JUMPDEST PUSH1 0x40 MLOAD DUP1 SWAP2 SUB SWAP1 RETURN JUMPDEST PUSH2 0x1CF PUSH2 0x76D JUMP JUMPDEST PUSH1 0x40 MLOAD PUSH2 0x1DC SWAP2 SWAP1 PUSH2 0xF92 JUMP JUMPDEST PUSH1 0x40 MLOAD DUP1 SWAP2 SUB SWAP1 RETURN JUMPDEST PUSH2 0x1FF PUSH1 0x4 DUP1 CALLDATASIZE SUB DUP2 ADD SWAP1 PUSH2 0x1FA SWAP2 SWAP1 PUSH2 0xE14 JUMP JUMPDEST PUSH2 0x791 JUMP JUMPDEST STOP JUMPDEST PUSH2 0x21B PUSH1 0x4 DUP1 CALLDATASIZE SUB DUP2 ADD SWAP1 PUSH2 0x216 SWAP2 SWAP1 PUSH2 0xD60 JUMP JUMPDEST PUSH2 0x89A JUMP JUMPDEST PUSH1 0x40 MLOAD PUSH2 0x228 SWAP2 SWAP1 PUSH2 0x1031 JUMP JUMPDEST PUSH1 0x40 MLOAD DUP1 SWAP2 SUB SWAP1 RETURN JUMPDEST PUSH2 0x24B PUSH1 0x4 DUP1 CALLDATASIZE SUB DUP2 ADD SWAP1 PUSH2 0x246 SWAP2 SWAP1 PUSH2 0xE14 JUMP JUMPDEST PUSH2 0xAFD JUMP JUMPDEST STOP JUMPDEST PUSH2 0x267 PUSH1 0x4 DUP1 CALLDATASIZE SUB DUP2 ADD SWAP1 PUSH2 0x262 SWAP2 SWAP1 PUSH2 0xD37 JUMP JUMPDEST PUSH2 0xC90 JUMP JUMPDEST PUSH1 0x40 MLOAD PUSH2 0x274 SWAP2 SWAP1 PUSH2 0x1031 JUMP JUMPDEST PUSH1 0x40 MLOAD DUP1 SWAP2 SUB SWAP1 RETURN JUMPDEST PUSH2 0x285 PUSH2 0xCA8 JUMP JUMPDEST PUSH1 0x40 MLOAD PUSH2 0x292 SWAP2 SWAP1 PUSH2 0xF77 JUMP JUMPDEST PUSH1 0x40 MLOAD DUP1 SWAP2 SUB SWAP1 RETURN JUMPDEST PUSH1 0x0 DUP1 PUSH1 0x0 DUP1 PUSH1 0x0 DUP1 SLOAD SWAP1 PUSH2 0x100 EXP SWAP1 DIV PUSH20 0xFFFFFFFFFFFFFFFFFFFFFFFFFFFFFFFFFFFFFFFF AND PUSH20 0xFFFFFFFFFFFFFFFFFFFFFFFFFFFFFFFFFFFFFFFF AND PUSH4 0x902F1AC PUSH1 0x40 MLOAD DUP2 PUSH4 0xFFFFFFFF AND PUSH1 0xE0 SHL DUP2 MSTORE PUSH1 0x4 ADD PUSH1 0x60 PUSH1 0x40 MLOAD DUP1 DUP4 SUB DUP2 DUP7 DUP1 EXTCODESIZE ISZERO DUP1 ISZERO PUSH2 0x307 JUMPI PUSH1 0x0 DUP1 REVERT JUMPDEST POP GAS STATICCALL ISZERO DUP1 ISZERO PUSH2 0x31B JUMPI RETURNDATASIZE PUSH1 0x0 DUP1 RETURNDATACOPY RETURNDATASIZE PUSH1 0x0 REVERT JUMPDEST POP POP POP POP PUSH1 0x40 MLOAD RETURNDATASIZE PUSH1 0x1F NOT PUSH1 0x1F DUP3 ADD AND DUP3 ADD DUP1 PUSH1 0x40 MSTORE POP DUP2 ADD SWAP1 PUSH2 0x33F SWAP2 SWAP1 PUSH2 0xDC5 JUMP JUMPDEST POP SWAP2 POP SWAP2 POP DUP2 DUP2 SWAP4 POP SWAP4 POP POP POP SWAP1 SWAP2 JUMP JUMPDEST PUSH1 0x0 DUP1 PUSH1 0x0 DUP1 PUSH1 0x0 SWAP1 SLOAD SWAP1 PUSH2 0x100 EXP SWAP1 DIV PUSH20 0xFFFFFFFFFFFFFFFFFFFFFFFFFFFFFFFFFFFFFFFF AND PUSH20 0xFFFFFFFFFFFFFFFFFFFFFFFFFFFFFFFFFFFFFFFF AND PUSH4 0x902F1AC PUSH1 0x40 MLOAD DUP2 PUSH4 0xFFFFFFFF AND PUSH1 0xE0 SHL DUP2 MSTORE PUSH1 0x4 ADD PUSH1 0x60 PUSH1 0x40 MLOAD DUP1 DUP4 SUB DUP2 DUP7 DUP1 EXTCODESIZE ISZERO DUP1 ISZERO PUSH2 0x3BC JUMPI PUSH1 0x0 DUP1 REVERT JUMPDEST POP GAS STATICCALL ISZERO DUP1 ISZERO PUSH2 0x3D0 JUMPI RETURNDATASIZE PUSH1 0x0 DUP1 RETURNDATACOPY RETURNDATASIZE PUSH1 0x0 REVERT JUMPDEST POP POP POP POP PUSH1 0x40 MLOAD RETURNDATASIZE PUSH1 0x1F NOT PUSH1 0x1F DUP3 ADD AND DUP3 ADD DUP1 PUSH1 0x40 MSTORE POP DUP2 ADD SWAP1 PUSH2 0x3F4 SWAP2 SWAP1 PUSH2 0xDC5 JUMP JUMPDEST POP SWAP2 POP SWAP2 POP PUSH1 0x0 DUP3 DUP3 PUSH2 0x407 SWAP2 SWAP1 PUSH2 0x10B3 JUMP JUMPDEST PUSH14 0xFFFFFFFFFFFFFFFFFFFFFFFFFFFF AND SWAP1 POP DUP1 SWAP4 POP POP POP POP SWAP1 JUMP JUMPDEST DUP1 PUSH1 0x2 PUSH1 0x0 CALLER PUSH20 0xFFFFFFFFFFFFFFFFFFFFFFFFFFFFFFFFFFFFFFFF AND PUSH20 0xFFFFFFFFFFFFFFFFFFFFFFFFFFFFFFFFFFFFFFFF AND DUP2 MSTORE PUSH1 0x20 ADD SWAP1 DUP2 MSTORE PUSH1 0x20 ADD PUSH1 0x0 KECCAK256 PUSH1 0x0 DUP3 DUP3 SLOAD PUSH2 0x471 SWAP2 SWAP1 PUSH2 0x116F JUMP JUMPDEST SWAP3 POP POP DUP2 SWAP1 SSTORE POP PUSH1 0x3 PUSH1 0x0 CALLER PUSH20 0xFFFFFFFFFFFFFFFFFFFFFFFFFFFFFFFFFFFFFFFF AND PUSH20 0xFFFFFFFFFFFFFFFFFFFFFFFFFFFFFFFFFFFFFFFF AND DUP2 MSTORE PUSH1 0x20 ADD SWAP1 DUP2 MSTORE PUSH1 0x20 ADD PUSH1 0x0 KECCAK256 SLOAD PUSH2 0x4C1 CALLER PUSH2 0x5B3 JUMP JUMPDEST LT ISZERO PUSH2 0x502 JUMPI PUSH1 0x40 MLOAD PUSH32 0x8C379A000000000000000000000000000000000000000000000000000000000 DUP2 MSTORE PUSH1 0x4 ADD PUSH2 0x4F9 SWAP1 PUSH2 0xFE8 JUMP JUMPDEST PUSH1 0x40 MLOAD DUP1 SWAP2 SUB SWAP1 REVERT JUMPDEST PUSH32 0x0 PUSH20 0xFFFFFFFFFFFFFFFFFFFFFFFFFFFFFFFFFFFFFFFF AND PUSH4 0xA9059CBB CALLER DUP4 PUSH1 0x40 MLOAD DUP4 PUSH4 0xFFFFFFFF AND PUSH1 0xE0 SHL DUP2 MSTORE PUSH1 0x4 ADD PUSH2 0x55D SWAP3 SWAP2 SWAP1 PUSH2 0xF4E JUMP JUMPDEST PUSH1 0x20 PUSH1 0x40 MLOAD DUP1 DUP4 SUB DUP2 PUSH1 0x0 DUP8 DUP1 EXTCODESIZE ISZERO DUP1 ISZERO PUSH2 0x577 JUMPI PUSH1 0x0 DUP1 REVERT JUMPDEST POP GAS CALL ISZERO DUP1 ISZERO PUSH2 0x58B JUMPI RETURNDATASIZE PUSH1 0x0 DUP1 RETURNDATACOPY RETURNDATASIZE PUSH1 0x0 REVERT JUMPDEST POP POP POP POP PUSH1 0x40 MLOAD RETURNDATASIZE PUSH1 0x1F NOT PUSH1 0x1F DUP3 ADD AND DUP3 ADD DUP1 PUSH1 0x40 MSTORE POP DUP2 ADD SWAP1 PUSH2 0x5AF SWAP2 SWAP1 PUSH2 0xD9C JUMP JUMPDEST POP POP JUMP JUMPDEST PUSH1 0x0 PUSH1 0x3 PUSH1 0x2 PUSH2 0x5C1 PUSH2 0x350 JUMP JUMPDEST PUSH1 0x2 PUSH1 0x0 DUP7 PUSH20 0xFFFFFFFFFFFFFFFFFFFFFFFFFFFFFFFFFFFFFFFF AND PUSH20 0xFFFFFFFFFFFFFFFFFFFFFFFFFFFFFFFFFFFFFFFF AND DUP2 MSTORE PUSH1 0x20 ADD SWAP1 DUP2 MSTORE PUSH1 0x20 ADD PUSH1 0x0 KECCAK256 SLOAD PUSH2 0x60B SWAP2 SWAP1 PUSH2 0x1115 JUMP JUMPDEST PUSH2 0x615 SWAP2 SWAP1 PUSH2 0x1115 JUMP JUMPDEST PUSH2 0x61F SWAP2 SWAP1 PUSH2 0x10E4 JUMP JUMPDEST SWAP1 POP SWAP2 SWAP1 POP JUMP JUMPDEST DUP1 PUSH1 0x3 PUSH1 0x0 CALLER PUSH20 0xFFFFFFFFFFFFFFFFFFFFFFFFFFFFFFFFFFFFFFFF AND PUSH20 0xFFFFFFFFFFFFFFFFFFFFFFFFFFFFFFFFFFFFFFFF AND DUP2 MSTORE PUSH1 0x20 ADD SWAP1 DUP2 MSTORE PUSH1 0x20 ADD PUSH1 0x0 KECCAK256 PUSH1 0x0 DUP3 DUP3 SLOAD PUSH2 0x675 SWAP2 SWAP1 PUSH2 0x116F JUMP JUMPDEST SWAP3 POP POP DUP2 SWAP1 SSTORE POP PUSH1 0x1 PUSH1 0x0 SWAP1 SLOAD SWAP1 PUSH2 0x100 EXP SWAP1 DIV PUSH20 0xFFFFFFFFFFFFFFFFFFFFFFFFFFFFFFFFFFFFFFFF AND PUSH20 0xFFFFFFFFFFFFFFFFFFFFFFFFFFFFFFFFFFFFFFFF AND PUSH4 0x23B872DD CALLER ADDRESS DUP5 PUSH1 0x40 MLOAD DUP5 PUSH4 0xFFFFFFFF AND PUSH1 0xE0 SHL DUP2 MSTORE PUSH1 0x4 ADD PUSH2 0x6DB SWAP4 SWAP3 SWAP2 SWAP1 PUSH2 0xF17 JUMP JUMPDEST PUSH1 0x20 PUSH1 0x40 MLOAD DUP1 DUP4 SUB DUP2 PUSH1 0x0 DUP8 DUP1 EXTCODESIZE ISZERO DUP1 ISZERO PUSH2 0x6F5 JUMPI PUSH1 0x0 DUP1 REVERT JUMPDEST POP GAS CALL ISZERO DUP1 ISZERO PUSH2 0x709 JUMPI RETURNDATASIZE PUSH1 0x0 DUP1 RETURNDATACOPY RETURNDATASIZE PUSH1 0x0 REVERT JUMPDEST POP POP POP POP PUSH1 0x40 MLOAD RETURNDATASIZE PUSH1 0x1F NOT PUSH1 0x1F DUP3 ADD AND DUP3 ADD DUP1 PUSH1 0x40 MSTORE POP DUP2 ADD SWAP1 PUSH2 0x72D SWAP2 SWAP1 PUSH2 0xD9C JUMP JUMPDEST POP POP JUMP JUMPDEST PUSH32 0x0 DUP2 JUMP JUMPDEST PUSH1 0x3 PUSH1 0x20 MSTORE DUP1 PUSH1 0x0 MSTORE PUSH1 0x40 PUSH1 0x0 KECCAK256 PUSH1 0x0 SWAP2 POP SWAP1 POP SLOAD DUP2 JUMP JUMPDEST PUSH1 0x0 DUP1 SLOAD SWAP1 PUSH2 0x100 EXP SWAP1 DIV PUSH20 0xFFFFFFFFFFFFFFFFFFFFFFFFFFFFFFFFFFFFFFFF AND DUP2 JUMP JUMPDEST DUP1 PUSH1 0x2 PUSH1 0x0 CALLER PUSH20 0xFFFFFFFFFFFFFFFFFFFFFFFFFFFFFFFFFFFFFFFF AND PUSH20 0xFFFFFFFFFFFFFFFFFFFFFFFFFFFFFFFFFFFFFFFF AND DUP2 MSTORE PUSH1 0x20 ADD SWAP1 DUP2 MSTORE PUSH1 0x20 ADD PUSH1 0x0 KECCAK256 PUSH1 0x0 DUP3 DUP3 SLOAD PUSH2 0x7E0 SWAP2 SWAP1 PUSH2 0x105D JUMP JUMPDEST SWAP3 POP POP DUP2 SWAP1 SSTORE POP PUSH32 0x0 PUSH20 0xFFFFFFFFFFFFFFFFFFFFFFFFFFFFFFFFFFFFFFFF AND PUSH4 0x23B872DD CALLER ADDRESS DUP5 PUSH1 0x40 MLOAD DUP5 PUSH4 0xFFFFFFFF AND PUSH1 0xE0 SHL DUP2 MSTORE PUSH1 0x4 ADD PUSH2 0x844 SWAP4 SWAP3 SWAP2 SWAP1 PUSH2 0xF17 JUMP JUMPDEST PUSH1 0x20 PUSH1 0x40 MLOAD DUP1 DUP4 SUB DUP2 PUSH1 0x0 DUP8 DUP1 EXTCODESIZE ISZERO DUP1 ISZERO PUSH2 0x85E JUMPI PUSH1 0x0 DUP1 REVERT JUMPDEST POP GAS CALL ISZERO DUP1 ISZERO PUSH2 0x872 JUMPI RETURNDATASIZE PUSH1 0x0 DUP1 RETURNDATACOPY RETURNDATASIZE PUSH1 0x0 REVERT JUMPDEST POP POP POP POP PUSH1 0x40 MLOAD RETURNDATASIZE PUSH1 0x1F NOT PUSH1 0x1F DUP3 ADD AND DUP3 ADD DUP1 PUSH1 0x40 MSTORE POP DUP2 ADD SWAP1 PUSH2 0x896 SWAP2 SWAP1 PUSH2 0xD9C JUMP JUMPDEST POP POP JUMP JUMPDEST PUSH1 0x0 PUSH1 0x3 PUSH1 0x0 DUP5 PUSH20 0xFFFFFFFFFFFFFFFFFFFFFFFFFFFFFFFFFFFFFFFF AND PUSH20 0xFFFFFFFFFFFFFFFFFFFFFFFFFFFFFFFFFFFFFFFF AND DUP2 MSTORE PUSH1 0x20 ADD SWAP1 DUP2 MSTORE PUSH1 0x20 ADD PUSH1 0x0 KECCAK256 SLOAD PUSH2 0x8E5 DUP5 PUSH2 0x5B3 JUMP JUMPDEST GT ISZERO PUSH2 0x926 JUMPI PUSH1 0x40 MLOAD PUSH32 0x8C379A000000000000000000000000000000000000000000000000000000000 DUP2 MSTORE PUSH1 0x4 ADD PUSH2 0x91D SWAP1 PUSH2 0xFC8 JUMP JUMPDEST PUSH1 0x40 MLOAD DUP1 SWAP2 SUB SWAP1 REVERT JUMPDEST DUP2 PUSH1 0x3 PUSH1 0x0 DUP6 PUSH20 0xFFFFFFFFFFFFFFFFFFFFFFFFFFFFFFFFFFFFFFFF AND PUSH20 0xFFFFFFFFFFFFFFFFFFFFFFFFFFFFFFFFFFFFFFFF AND DUP2 MSTORE PUSH1 0x20 ADD SWAP1 DUP2 MSTORE PUSH1 0x20 ADD PUSH1 0x0 KECCAK256 PUSH1 0x0 DUP3 DUP3 SLOAD PUSH2 0x975 SWAP2 SWAP1 PUSH2 0x116F JUMP JUMPDEST SWAP3 POP POP DUP2 SWAP1 SSTORE POP PUSH1 0x1 PUSH1 0x0 SWAP1 SLOAD SWAP1 PUSH2 0x100 EXP SWAP1 DIV PUSH20 0xFFFFFFFFFFFFFFFFFFFFFFFFFFFFFFFFFFFFFFFF AND PUSH20 0xFFFFFFFFFFFFFFFFFFFFFFFFFFFFFFFFFFFFFFFF AND PUSH4 0x23B872DD CALLER ADDRESS DUP6 PUSH1 0x40 MLOAD DUP5 PUSH4 0xFFFFFFFF AND PUSH1 0xE0 SHL DUP2 MSTORE PUSH1 0x4 ADD PUSH2 0x9DB SWAP4 SWAP3 SWAP2 SWAP1 PUSH2 0xF17 JUMP JUMPDEST PUSH1 0x20 PUSH1 0x40 MLOAD DUP1 DUP4 SUB DUP2 PUSH1 0x0 DUP8 DUP1 EXTCODESIZE ISZERO DUP1 ISZERO PUSH2 0x9F5 JUMPI PUSH1 0x0 DUP1 REVERT JUMPDEST POP GAS CALL ISZERO DUP1 ISZERO PUSH2 0xA09 JUMPI RETURNDATASIZE PUSH1 0x0 DUP1 RETURNDATACOPY RETURNDATASIZE PUSH1 0x0 REVERT JUMPDEST POP POP POP POP PUSH1 0x40 MLOAD RETURNDATASIZE PUSH1 0x1F NOT PUSH1 0x1F DUP3 ADD AND DUP3 ADD DUP1 PUSH1 0x40 MSTORE POP DUP2 ADD SWAP1 PUSH2 0xA2D SWAP2 SWAP1 PUSH2 0xD9C JUMP JUMPDEST POP PUSH1 0x0 PUSH2 0xA38 PUSH2 0x350 JUMP JUMPDEST DUP4 PUSH2 0xA43 SWAP2 SWAP1 PUSH2 0x10E4 JUMP JUMPDEST SWAP1 POP PUSH32 0x0 PUSH20 0xFFFFFFFFFFFFFFFFFFFFFFFFFFFFFFFFFFFFFFFF AND PUSH4 0xA9059CBB CALLER DUP4 PUSH1 0x40 MLOAD DUP4 PUSH4 0xFFFFFFFF AND PUSH1 0xE0 SHL DUP2 MSTORE PUSH1 0x4 ADD PUSH2 0xAA0 SWAP3 SWAP2 SWAP1 PUSH2 0xF4E JUMP JUMPDEST PUSH1 0x20 PUSH1 0x40 MLOAD DUP1 DUP4 SUB DUP2 PUSH1 0x0 DUP8 DUP1 EXTCODESIZE ISZERO DUP1 ISZERO PUSH2 0xABA JUMPI PUSH1 0x0 DUP1 REVERT JUMPDEST POP GAS CALL ISZERO DUP1 ISZERO PUSH2 0xACE JUMPI RETURNDATASIZE PUSH1 0x0 DUP1 RETURNDATACOPY RETURNDATASIZE PUSH1 0x0 REVERT JUMPDEST POP POP POP POP PUSH1 0x40 MLOAD RETURNDATASIZE PUSH1 0x1F NOT PUSH1 0x1F DUP3 ADD AND DUP3 ADD DUP1 PUSH1 0x40 MSTORE POP DUP2 ADD SWAP1 PUSH2 0xAF2 SWAP2 SWAP1 PUSH2 0xD9C JUMP JUMPDEST POP DUP1 SWAP2 POP POP SWAP3 SWAP2 POP POP JUMP JUMPDEST DUP1 PUSH1 0x3 PUSH1 0x0 CALLER PUSH20 0xFFFFFFFFFFFFFFFFFFFFFFFFFFFFFFFFFFFFFFFF AND PUSH20 0xFFFFFFFFFFFFFFFFFFFFFFFFFFFFFFFFFFFFFFFF AND DUP2 MSTORE PUSH1 0x20 ADD SWAP1 DUP2 MSTORE PUSH1 0x20 ADD PUSH1 0x0 KECCAK256 PUSH1 0x0 DUP3 DUP3 SLOAD PUSH2 0xB4C SWAP2 SWAP1 PUSH2 0x105D JUMP JUMPDEST SWAP3 POP POP DUP2 SWAP1 SSTORE POP PUSH1 0x3 PUSH1 0x0 CALLER PUSH20 0xFFFFFFFFFFFFFFFFFFFFFFFFFFFFFFFFFFFFFFFF AND PUSH20 0xFFFFFFFFFFFFFFFFFFFFFFFFFFFFFFFFFFFFFFFF AND DUP2 MSTORE PUSH1 0x20 ADD SWAP1 DUP2 MSTORE PUSH1 0x20 ADD PUSH1 0x0 KECCAK256 SLOAD PUSH2 0xB9C CALLER PUSH2 0x5B3 JUMP JUMPDEST LT ISZERO PUSH2 0xBDD JUMPI PUSH1 0x40 MLOAD PUSH32 0x8C379A000000000000000000000000000000000000000000000000000000000 DUP2 MSTORE PUSH1 0x4 ADD PUSH2 0xBD4 SWAP1 PUSH2 0xFE8 JUMP JUMPDEST PUSH1 0x40 MLOAD DUP1 SWAP2 SUB SWAP1 REVERT JUMPDEST PUSH1 0x1 PUSH1 0x0 SWAP1 SLOAD SWAP1 PUSH2 0x100 EXP SWAP1 DIV PUSH20 0xFFFFFFFFFFFFFFFFFFFFFFFFFFFFFFFFFFFFFFFF AND PUSH20 0xFFFFFFFFFFFFFFFFFFFFFFFFFFFFFFFFFFFFFFFF AND PUSH4 0xA9059CBB CALLER DUP4 PUSH1 0x40 MLOAD DUP4 PUSH4 0xFFFFFFFF AND PUSH1 0xE0 SHL DUP2 MSTORE PUSH1 0x4 ADD PUSH2 0xC3A SWAP3 SWAP2 SWAP1 PUSH2 0xF4E JUMP JUMPDEST PUSH1 0x20 PUSH1 0x40 MLOAD DUP1 DUP4 SUB DUP2 PUSH1 0x0 DUP8 DUP1 EXTCODESIZE ISZERO DUP1 ISZERO PUSH2 0xC54 JUMPI PUSH1 0x0 DUP1 REVERT JUMPDEST POP GAS CALL ISZERO DUP1 ISZERO PUSH2 0xC68 JUMPI RETURNDATASIZE PUSH1 0x0 DUP1 RETURNDATACOPY RETURNDATASIZE PUSH1 0x0 REVERT JUMPDEST POP POP POP POP PUSH1 0x40 MLOAD RETURNDATASIZE PUSH1 0x1F NOT PUSH1 0x1F DUP3 ADD AND DUP3 ADD DUP1 PUSH1 0x40 MSTORE POP DUP2 ADD SWAP1 PUSH2 0xC8C SWAP2 SWAP1 PUSH2 0xD9C JUMP JUMPDEST POP POP JUMP JUMPDEST PUSH1 0x2 PUSH1 0x20 MSTORE DUP1 PUSH1 0x0 MSTORE PUSH1 0x40 PUSH1 0x0 KECCAK256 PUSH1 0x0 SWAP2 POP SWAP1 POP SLOAD DUP2 JUMP JUMPDEST PUSH1 0x1 PUSH1 0x0 SWAP1 SLOAD SWAP1 PUSH2 0x100 EXP SWAP1 DIV PUSH20 0xFFFFFFFFFFFFFFFFFFFFFFFFFFFFFFFFFFFFFFFF AND DUP2 JUMP JUMPDEST PUSH1 0x0 DUP2 CALLDATALOAD SWAP1 POP PUSH2 0xCDD DUP2 PUSH2 0x12DF JUMP JUMPDEST SWAP3 SWAP2 POP POP JUMP JUMPDEST PUSH1 0x0 DUP2 MLOAD SWAP1 POP PUSH2 0xCF2 DUP2 PUSH2 0x12F6 JUMP JUMPDEST SWAP3 SWAP2 POP POP JUMP JUMPDEST PUSH1 0x0 DUP2 MLOAD SWAP1 POP PUSH2 0xD07 DUP2 PUSH2 0x130D JUMP JUMPDEST SWAP3 SWAP2 POP POP JUMP JUMPDEST PUSH1 0x0 DUP2 CALLDATALOAD SWAP1 POP PUSH2 0xD1C DUP2 PUSH2 0x1324 JUMP JUMPDEST SWAP3 SWAP2 POP POP JUMP JUMPDEST PUSH1 0x0 DUP2 MLOAD SWAP1 POP PUSH2 0xD31 DUP2 PUSH2 0x133B JUMP JUMPDEST SWAP3 SWAP2 POP POP JUMP JUMPDEST PUSH1 0x0 PUSH1 0x20 DUP3 DUP5 SUB SLT ISZERO PUSH2 0xD49 JUMPI PUSH1 0x0 DUP1 REVERT JUMPDEST PUSH1 0x0 PUSH2 0xD57 DUP5 DUP3 DUP6 ADD PUSH2 0xCCE JUMP JUMPDEST SWAP2 POP POP SWAP3 SWAP2 POP POP JUMP JUMPDEST PUSH1 0x0 DUP1 PUSH1 0x40 DUP4 DUP6 SUB SLT ISZERO PUSH2 0xD73 JUMPI PUSH1 0x0 DUP1 REVERT JUMPDEST PUSH1 0x0 PUSH2 0xD81 DUP6 DUP3 DUP7 ADD PUSH2 0xCCE JUMP JUMPDEST SWAP3 POP POP PUSH1 0x20 PUSH2 0xD92 DUP6 DUP3 DUP7 ADD PUSH2 0xD0D JUMP JUMPDEST SWAP2 POP POP SWAP3 POP SWAP3 SWAP1 POP JUMP JUMPDEST PUSH1 0x0 PUSH1 0x20 DUP3 DUP5 SUB SLT ISZERO PUSH2 0xDAE JUMPI PUSH1 0x0 DUP1 REVERT JUMPDEST PUSH1 0x0 PUSH2 0xDBC DUP5 DUP3 DUP6 ADD PUSH2 0xCE3 JUMP JUMPDEST SWAP2 POP POP SWAP3 SWAP2 POP POP JUMP JUMPDEST PUSH1 0x0 DUP1 PUSH1 0x0 PUSH1 0x60 DUP5 DUP7 SUB SLT ISZERO PUSH2 0xDDA JUMPI PUSH1 0x0 DUP1 REVERT JUMPDEST PUSH1 0x0 PUSH2 0xDE8 DUP7 DUP3 DUP8 ADD PUSH2 0xCF8 JUMP JUMPDEST SWAP4 POP POP PUSH1 0x20 PUSH2 0xDF9 DUP7 DUP3 DUP8 ADD PUSH2 0xCF8 JUMP JUMPDEST SWAP3 POP POP PUSH1 0x40 PUSH2 0xE0A DUP7 DUP3 DUP8 ADD PUSH2 0xD22 JUMP JUMPDEST SWAP2 POP POP SWAP3 POP SWAP3 POP SWAP3 JUMP JUMPDEST PUSH1 0x0 PUSH1 0x20 DUP3 DUP5 SUB SLT ISZERO PUSH2 0xE26 JUMPI PUSH1 0x0 DUP1 REVERT JUMPDEST PUSH1 0x0 PUSH2 0xE34 DUP5 DUP3 DUP6 ADD PUSH2 0xD0D JUMP JUMPDEST SWAP2 POP POP SWAP3 SWAP2 POP POP JUMP JUMPDEST PUSH2 0xE46 DUP2 PUSH2 0x11A3 JUMP JUMPDEST DUP3 MSTORE POP POP JUMP JUMPDEST PUSH2 0xE55 DUP2 PUSH2 0x1215 JUMP JUMPDEST DUP3 MSTORE POP POP JUMP JUMPDEST PUSH2 0xE64 DUP2 PUSH2 0x1239 JUMP JUMPDEST DUP3 MSTORE POP POP JUMP JUMPDEST PUSH2 0xE73 DUP2 PUSH2 0x125D JUMP JUMPDEST DUP3 MSTORE POP POP JUMP JUMPDEST PUSH1 0x0 PUSH2 0xE86 PUSH1 0x17 DUP4 PUSH2 0x104C JUMP JUMPDEST SWAP2 POP PUSH32 0x6572723A206F766572636F6C6C61746572616C697A6564000000000000000000 PUSH1 0x0 DUP4 ADD MSTORE PUSH1 0x20 DUP3 ADD SWAP1 POP SWAP2 SWAP1 POP JUMP JUMPDEST PUSH1 0x0 PUSH2 0xEC6 PUSH1 0x18 DUP4 PUSH2 0x104C JUMP JUMPDEST SWAP2 POP PUSH32 0x6572723A20756E646572636F6C6C61746572616C697A65640000000000000000 PUSH1 0x0 DUP4 ADD MSTORE PUSH1 0x20 DUP3 ADD SWAP1 POP SWAP2 SWAP1 POP JUMP JUMPDEST PUSH2 0xF02 DUP2 PUSH2 0x11C1 JUMP JUMPDEST DUP3 MSTORE POP POP JUMP JUMPDEST PUSH2 0xF11 DUP2 PUSH2 0x11FB JUMP JUMPDEST DUP3 MSTORE POP POP JUMP JUMPDEST PUSH1 0x0 PUSH1 0x60 DUP3 ADD SWAP1 POP PUSH2 0xF2C PUSH1 0x0 DUP4 ADD DUP7 PUSH2 0xE3D JUMP JUMPDEST PUSH2 0xF39 PUSH1 0x20 DUP4 ADD DUP6 PUSH2 0xE3D JUMP JUMPDEST PUSH2 0xF46 PUSH1 0x40 DUP4 ADD DUP5 PUSH2 0xF08 JUMP JUMPDEST SWAP5 SWAP4 POP POP POP POP JUMP JUMPDEST PUSH1 0x0 PUSH1 0x40 DUP3 ADD SWAP1 POP PUSH2 0xF63 PUSH1 0x0 DUP4 ADD DUP6 PUSH2 0xE3D JUMP JUMPDEST PUSH2 0xF70 PUSH1 0x20 DUP4 ADD DUP5 PUSH2 0xF08 JUMP JUMPDEST SWAP4 SWAP3 POP POP POP JUMP JUMPDEST PUSH1 0x0 PUSH1 0x20 DUP3 ADD SWAP1 POP PUSH2 0xF8C PUSH1 0x0 DUP4 ADD DUP5 PUSH2 0xE4C JUMP JUMPDEST SWAP3 SWAP2 POP POP JUMP JUMPDEST PUSH1 0x0 PUSH1 0x20 DUP3 ADD SWAP1 POP PUSH2 0xFA7 PUSH1 0x0 DUP4 ADD DUP5 PUSH2 0xE5B JUMP JUMPDEST SWAP3 SWAP2 POP POP JUMP JUMPDEST PUSH1 0x0 PUSH1 0x20 DUP3 ADD SWAP1 POP PUSH2 0xFC2 PUSH1 0x0 DUP4 ADD DUP5 PUSH2 0xE6A JUMP JUMPDEST SWAP3 SWAP2 POP POP JUMP JUMPDEST PUSH1 0x0 PUSH1 0x20 DUP3 ADD SWAP1 POP DUP2 DUP2 SUB PUSH1 0x0 DUP4 ADD MSTORE PUSH2 0xFE1 DUP2 PUSH2 0xE79 JUMP JUMPDEST SWAP1 POP SWAP2 SWAP1 POP JUMP JUMPDEST PUSH1 0x0 PUSH1 0x20 DUP3 ADD SWAP1 POP DUP2 DUP2 SUB PUSH1 0x0 DUP4 ADD MSTORE PUSH2 0x1001 DUP2 PUSH2 0xEB9 JUMP JUMPDEST SWAP1 POP SWAP2 SWAP1 POP JUMP JUMPDEST PUSH1 0x0 PUSH1 0x40 DUP3 ADD SWAP1 POP PUSH2 0x101D PUSH1 0x0 DUP4 ADD DUP6 PUSH2 0xEF9 JUMP JUMPDEST PUSH2 0x102A PUSH1 0x20 DUP4 ADD DUP5 PUSH2 0xEF9 JUMP JUMPDEST SWAP4 SWAP3 POP POP POP JUMP JUMPDEST PUSH1 0x0 PUSH1 0x20 DUP3 ADD SWAP1 POP PUSH2 0x1046 PUSH1 0x0 DUP4 ADD DUP5 PUSH2 0xF08 JUMP JUMPDEST SWAP3 SWAP2 POP POP JUMP JUMPDEST PUSH1 0x0 DUP3 DUP3 MSTORE PUSH1 0x20 DUP3 ADD SWAP1 POP SWAP3 SWAP2 POP POP JUMP JUMPDEST PUSH1 0x0 PUSH2 0x1068 DUP3 PUSH2 0x11FB JUMP JUMPDEST SWAP2 POP PUSH2 0x1073 DUP4 PUSH2 0x11FB JUMP JUMPDEST SWAP3 POP DUP3 PUSH32 0xFFFFFFFFFFFFFFFFFFFFFFFFFFFFFFFFFFFFFFFFFFFFFFFFFFFFFFFFFFFFFFFF SUB DUP3 GT ISZERO PUSH2 0x10A8 JUMPI PUSH2 0x10A7 PUSH2 0x1281 JUMP JUMPDEST JUMPDEST DUP3 DUP3 ADD SWAP1 POP SWAP3 SWAP2 POP POP JUMP JUMPDEST PUSH1 0x0 PUSH2 0x10BE DUP3 PUSH2 0x11C1 JUMP JUMPDEST SWAP2 POP PUSH2 0x10C9 DUP4 PUSH2 0x11C1 JUMP JUMPDEST SWAP3 POP DUP3 PUSH2 0x10D9 JUMPI PUSH2 0x10D8 PUSH2 0x12B0 JUMP JUMPDEST JUMPDEST DUP3 DUP3 DIV SWAP1 POP SWAP3 SWAP2 POP POP JUMP JUMPDEST PUSH1 0x0 PUSH2 0x10EF DUP3 PUSH2 0x11FB JUMP JUMPDEST SWAP2 POP PUSH2 0x10FA DUP4 PUSH2 0x11FB JUMP JUMPDEST SWAP3 POP DUP3 PUSH2 0x110A JUMPI PUSH2 0x1109 PUSH2 0x12B0 JUMP JUMPDEST JUMPDEST DUP3 DUP3 DIV SWAP1 POP SWAP3 SWAP2 POP POP JUMP JUMPDEST PUSH1 0x0 PUSH2 0x1120 DUP3 PUSH2 0x11FB JUMP JUMPDEST SWAP2 POP PUSH2 0x112B DUP4 PUSH2 0x11FB JUMP JUMPDEST SWAP3 POP DUP2 PUSH32 0xFFFFFFFFFFFFFFFFFFFFFFFFFFFFFFFFFFFFFFFFFFFFFFFFFFFFFFFFFFFFFFFF DIV DUP4 GT DUP3 ISZERO ISZERO AND ISZERO PUSH2 0x1164 JUMPI PUSH2 0x1163 PUSH2 0x1281 JUMP JUMPDEST JUMPDEST DUP3 DUP3 MUL SWAP1 POP SWAP3 SWAP2 POP POP JUMP JUMPDEST PUSH1 0x0 PUSH2 0x117A DUP3 PUSH2 0x11FB JUMP JUMPDEST SWAP2 POP PUSH2 0x1185 DUP4 PUSH2 0x11FB JUMP JUMPDEST SWAP3 POP DUP3 DUP3 LT ISZERO PUSH2 0x1198 JUMPI PUSH2 0x1197 PUSH2 0x1281 JUMP JUMPDEST JUMPDEST DUP3 DUP3 SUB SWAP1 POP SWAP3 SWAP2 POP POP JUMP JUMPDEST PUSH1 0x0 PUSH2 0x11AE DUP3 PUSH2 0x11DB JUMP JUMPDEST SWAP1 POP SWAP2 SWAP1 POP JUMP JUMPDEST PUSH1 0x0 DUP2 ISZERO ISZERO SWAP1 POP SWAP2 SWAP1 POP JUMP JUMPDEST PUSH1 0x0 PUSH14 0xFFFFFFFFFFFFFFFFFFFFFFFFFFFF DUP3 AND SWAP1 POP SWAP2 SWAP1 POP JUMP JUMPDEST PUSH1 0x0 PUSH20 0xFFFFFFFFFFFFFFFFFFFFFFFFFFFFFFFFFFFFFFFF DUP3 AND SWAP1 POP SWAP2 SWAP1 POP JUMP JUMPDEST PUSH1 0x0 DUP2 SWAP1 POP SWAP2 SWAP1 POP JUMP JUMPDEST PUSH1 0x0 PUSH4 0xFFFFFFFF DUP3 AND SWAP1 POP SWAP2 SWAP1 POP JUMP JUMPDEST PUSH1 0x0 PUSH2 0x1220 DUP3 PUSH2 0x1227 JUMP JUMPDEST SWAP1 POP SWAP2 SWAP1 POP JUMP JUMPDEST PUSH1 0x0 PUSH2 0x1232 DUP3 PUSH2 0x11DB JUMP JUMPDEST SWAP1 POP SWAP2 SWAP1 POP JUMP JUMPDEST PUSH1 0x0 PUSH2 0x1244 DUP3 PUSH2 0x124B JUMP JUMPDEST SWAP1 POP SWAP2 SWAP1 POP JUMP JUMPDEST PUSH1 0x0 PUSH2 0x1256 DUP3 PUSH2 0x11DB JUMP JUMPDEST SWAP1 POP SWAP2 SWAP1 POP JUMP JUMPDEST PUSH1 0x0 PUSH2 0x1268 DUP3 PUSH2 0x126F JUMP JUMPDEST SWAP1 POP SWAP2 SWAP1 POP JUMP JUMPDEST PUSH1 0x0 PUSH2 0x127A DUP3 PUSH2 0x11DB JUMP JUMPDEST SWAP1 POP SWAP2 SWAP1 POP JUMP JUMPDEST PUSH32 0x4E487B7100000000000000000000000000000000000000000000000000000000 PUSH1 0x0 MSTORE PUSH1 0x11 PUSH1 0x4 MSTORE PUSH1 0x24 PUSH1 0x0 REVERT JUMPDEST PUSH32 0x4E487B7100000000000000000000000000000000000000000000000000000000 PUSH1 0x0 MSTORE PUSH1 0x12 PUSH1 0x4 MSTORE PUSH1 0x24 PUSH1 0x0 REVERT JUMPDEST PUSH2 0x12E8 DUP2 PUSH2 0x11A3 JUMP JUMPDEST DUP2 EQ PUSH2 0x12F3 JUMPI PUSH1 0x0 DUP1 REVERT JUMPDEST POP JUMP JUMPDEST PUSH2 0x12FF DUP2 PUSH2 0x11B5 JUMP JUMPDEST DUP2 EQ PUSH2 0x130A JUMPI PUSH1 0x0 DUP1 REVERT JUMPDEST POP JUMP JUMPDEST PUSH2 0x1316 DUP2 PUSH2 0x11C1 JUMP JUMPDEST DUP2 EQ PUSH2 0x1321 JUMPI PUSH1 0x0 DUP1 REVERT JUMPDEST POP JUMP JUMPDEST PUSH2 0x132D DUP2 PUSH2 0x11FB JUMP JUMPDEST DUP2 EQ PUSH2 0x1338 JUMPI PUSH1 0x0 DUP1 REVERT JUMPDEST POP JUMP JUMPDEST PUSH2 0x1344 DUP2 PUSH2 0x1205 JUMP JUMPDEST DUP2 EQ PUSH2 0x134F JUMPI PUSH1 0x0 DUP1 REVERT JUMPDEST POP JUMP INVALID LOG2 PUSH5 0x6970667358 0x22 SLT KECCAK256 0x48 BLOCKHASH LOG1 0xE3 SWAP4 PUSH1 0x73 0xF6 0xD1 CODESIZE 0xD9 MUL CALLVALUE 0x4C SWAP16 PUSH28 0x591560DE52A27C6F1F7244148964A62C64736F6C6343000800003300 "
        },
        "methodIdentifiers": {
          "borrow(uint256)": "c5ebeaec",
          "debt(address)": "9b6c56ec",
          "deposit(uint256)": "b6b55f25",
          "deposited(address)": "cb13cddb",
          "getReserves()": "0902f1ac",
          "liquidate(address,uint256)": "bcbaf487",
          "pair()": "a8aa1b31",
          "rate()": "2c4e722e",
          "repay(uint256)": "371fd8e6",
          "safeDebt(address)": "2e465165",
          "token()": "fc0c546a",
          "weth()": "3fc8cef3",
          "withdraw(uint256)": "2e1a7d4d"
        }
      }
    }
  }
}