{
  "contracts/vault/SingleOwnerGuard.sol": {
    "SingleOwnerGuard": {
      "abi": [
        {
          "constant": false,
          "inputs": [],
          "name": "cleanup",
          "outputs": [],
          "payable": false,
          "stateMutability": "nonpayable",
          "type": "function"
        },
        {
          "constant": true,
          "inputs": [
            {
              "name": "",
              "type": "uint256"
            }
          ],
          "name": "publicOps",
          "outputs": [
            {
              "name": "",
              "type": "string"
            }
          ],
          "payable": false,
          "stateMutability": "view",
          "type": "function"
        },
        {
          "constant": false,
          "inputs": [
            {
              "name": "op",
              "type": "string"
            }
          ],
          "name": "addPublicOperation",
          "outputs": [],
          "payable": false,
          "stateMutability": "nonpayable",
          "type": "function"
        },
        {
          "constant": true,
          "inputs": [],
          "name": "owner",
          "outputs": [
            {
              "name": "",
              "type": "address"
            }
          ],
          "payable": false,
          "stateMutability": "view",
          "type": "function"
        },
        {
          "constant": true,
          "inputs": [],
          "name": "id",
          "outputs": [
            {
              "name": "",
              "type": "bytes32"
            }
          ],
          "payable": false,
          "stateMutability": "view",
          "type": "function"
        },
        {
          "constant": true,
          "inputs": [
            {
              "name": "who",
              "type": "address"
            },
            {
              "name": "op",
              "type": "string"
            }
          ],
          "name": "isAllowed",
          "outputs": [
            {
              "name": "",
              "type": "uint8"
            },
            {
              "name": "",
              "type": "uint8"
            }
          ],
          "payable": false,
          "stateMutability": "view",
          "type": "function"
        },
        {
          "constant": false,
          "inputs": [
            {
              "name": "vault_",
              "type": "address"
            }
          ],
          "name": "initialize",
          "outputs": [],
          "payable": false,
          "stateMutability": "nonpayable",
          "type": "function"
        }
      ],
      "devdoc": {
        "methods": {}
      },
      "evm": {
        "assembly": "    /* \"contracts/vault/SingleOwnerGuard.sol\":70:1487  contract SingleOwnerGuard is Guard {... */\n  mstore(0x40, 0x60)\n  jumpi(tag_1, iszero(callvalue))\n  0x0\n  dup1\n  revert\ntag_1:\ntag_2:\n  dataSize(sub_0)\n  dup1\n  dataOffset(sub_0)\n  0x0\n  codecopy\n  0x0\n  return\nstop\n\nsub_0: assembly {\n        /* \"contracts/vault/SingleOwnerGuard.sol\":70:1487  contract SingleOwnerGuard is Guard {... */\n      mstore(0x40, 0x60)\n      jumpi(tag_1, iszero(calldatasize))\n      calldataload(0x0)\n      0x100000000000000000000000000000000000000000000000000000000\n      swap1\n      div\n      0xffffffff\n      and\n      dup1\n      0x3cecd719\n      eq\n      tag_2\n      jumpi\n      dup1\n      0x57a07d2e\n      eq\n      tag_3\n      jumpi\n      dup1\n      0x662ea8ec\n      eq\n      tag_4\n      jumpi\n      dup1\n      0x8da5cb5b\n      eq\n      tag_5\n      jumpi\n      dup1\n      0xaf640d0f\n      eq\n      tag_6\n      jumpi\n      dup1\n      0xb9460632\n      eq\n      tag_7\n      jumpi\n      dup1\n      0xc4d66de8\n      eq\n      tag_8\n      jumpi\n    tag_1:\n      0x0\n      dup1\n      revert\n        /* \"contracts/vault/SingleOwnerGuard.sol\":530:692  function cleanup() external {... */\n    tag_2:\n      jumpi(tag_9, iszero(callvalue))\n      0x0\n      dup1\n      revert\n    tag_9:\n      tag_10\n      jump(tag_11)\n    tag_10:\n      stop\n        /* \"contracts/vault/SingleOwnerGuard.sol\":225:250  string[] public publicOps */\n    tag_3:\n      jumpi(tag_12, iszero(callvalue))\n      0x0\n      dup1\n      revert\n    tag_12:\n      tag_13\n      0x4\n      dup1\n      dup1\n      calldataload\n      swap1\n      0x20\n      add\n      swap1\n      swap2\n      swap1\n      pop\n      pop\n      jump(tag_14)\n    tag_13:\n      mload(0x40)\n      dup1\n      dup1\n      0x20\n      add\n      dup3\n      dup2\n      sub\n      dup3\n      mstore\n      dup4\n      dup2\n      dup2\n      mload\n      dup2\n      mstore\n      0x20\n      add\n      swap2\n      pop\n      dup1\n      mload\n      swap1\n      0x20\n      add\n      swap1\n      dup1\n      dup4\n      dup4\n        /* \"--CODEGEN--\":23:24   */\n      0x0\n        /* \"--CODEGEN--\":8:108   */\n    tag_15:\n        /* \"--CODEGEN--\":33:36   */\n      dup4\n        /* \"--CODEGEN--\":30:31   */\n      dup2\n        /* \"--CODEGEN--\":27:29   */\n      lt\n        /* \"--CODEGEN--\":8:108   */\n      iszero\n      tag_16\n      jumpi\n        /* \"--CODEGEN--\":99:100   */\n      dup1\n        /* \"--CODEGEN--\":94:97   */\n      dup3\n        /* \"--CODEGEN--\":90:93   */\n      add\n        /* \"--CODEGEN--\":84:89   */\n      mload\n        /* \"--CODEGEN--\":80:81   */\n      dup2\n        /* \"--CODEGEN--\":75:78   */\n      dup5\n        /* \"--CODEGEN--\":71:74   */\n      add\n        /* \"--CODEGEN--\":64:70   */\n      mstore\n        /* \"--CODEGEN--\":8:108   */\n    tag_17:\n        /* \"--CODEGEN--\":52:54   */\n      0x20\n        /* \"--CODEGEN--\":49:50   */\n      dup2\n        /* \"--CODEGEN--\":45:48   */\n      add\n        /* \"--CODEGEN--\":40:55   */\n      swap1\n      pop\n        /* \"--CODEGEN--\":8:108   */\n      jump(tag_15)\n    tag_16:\n        /* \"--CODEGEN--\":12:26   */\n      pop\n        /* \"--CODEGEN--\":3:112   */\n      pop\n      pop\n      pop\n      swap1\n      pop\n      swap1\n      dup2\n      add\n      swap1\n      0x1f\n      and\n      dup1\n      iszero\n      tag_18\n      jumpi\n      dup1\n      dup3\n      sub\n      dup1\n      mload\n      0x1\n      dup4\n      0x20\n      sub\n      0x100\n      exp\n      sub\n      not\n      and\n      dup2\n      mstore\n      0x20\n      add\n      swap2\n      pop\n    tag_18:\n      pop\n      swap3\n      pop\n      pop\n      pop\n      mload(0x40)\n      dup1\n      swap2\n      sub\n      swap1\n      return\n        /* \"contracts/vault/SingleOwnerGuard.sol\":1188:1320  function addPublicOperation(string op) external {... */\n    tag_4:\n      jumpi(tag_19, iszero(callvalue))\n      0x0\n      dup1\n      revert\n    tag_19:\n      tag_20\n      0x4\n      dup1\n      dup1\n      calldataload\n      swap1\n      0x20\n      add\n      swap1\n      dup3\n      add\n      dup1\n      calldataload\n      swap1\n      0x20\n      add\n      swap2\n      swap1\n      swap2\n      swap3\n      swap1\n      pop\n      pop\n      jump(tag_21)\n    tag_20:\n      stop\n        /* \"contracts/vault/SingleOwnerGuard.sol\":1401:1485  function owner() public view returns (address) {... */\n    tag_5:\n      jumpi(tag_22, iszero(callvalue))\n      0x0\n      dup1\n      revert\n    tag_22:\n      tag_23\n      jump(tag_24)\n    tag_23:\n      mload(0x40)\n      dup1\n      dup3\n      0xffffffffffffffffffffffffffffffffffffffff\n      and\n      0xffffffffffffffffffffffffffffffffffffffff\n      and\n      dup2\n      mstore\n      0x20\n      add\n      swap2\n      pop\n      pop\n      mload(0x40)\n      dup1\n      swap2\n      sub\n      swap1\n      return\n        /* \"contracts/vault/SingleOwnerGuard.sol\":111:154  bytes32 public constant id = \"single-owner\" */\n    tag_6:\n      jumpi(tag_25, iszero(callvalue))\n      0x0\n      dup1\n      revert\n    tag_25:\n      tag_26\n      jump(tag_27)\n    tag_26:\n      mload(0x40)\n      dup1\n      dup3\n      not(0x0)\n      and\n      not(0x0)\n      and\n      dup2\n      mstore\n      0x20\n      add\n      swap2\n      pop\n      pop\n      mload(0x40)\n      dup1\n      swap2\n      sub\n      swap1\n      return\n        /* \"contracts/vault/SingleOwnerGuard.sol\":766:1136  function isAllowed(address who, string op) external view returns (uint8, uint8) {... */\n    tag_7:\n      jumpi(tag_28, iszero(callvalue))\n      0x0\n      dup1\n      revert\n    tag_28:\n      tag_29\n      0x4\n      dup1\n      dup1\n      calldataload\n      0xffffffffffffffffffffffffffffffffffffffff\n      and\n      swap1\n      0x20\n      add\n      swap1\n      swap2\n      swap1\n      dup1\n      calldataload\n      swap1\n      0x20\n      add\n      swap1\n      dup3\n      add\n      dup1\n      calldataload\n      swap1\n      0x20\n      add\n      swap2\n      swap1\n      swap2\n      swap3\n      swap1\n      pop\n      pop\n      jump(tag_30)\n    tag_29:\n      mload(0x40)\n      dup1\n      dup4\n      0xff\n      and\n      0xff\n      and\n      dup2\n      mstore\n      0x20\n      add\n      dup3\n      0xff\n      and\n      0xff\n      and\n      dup2\n      mstore\n      0x20\n      add\n      swap3\n      pop\n      pop\n      pop\n      mload(0x40)\n      dup1\n      swap2\n      sub\n      swap1\n      return\n        /* \"contracts/vault/SingleOwnerGuard.sol\":318:460  function initialize(Vault vault_) external {... */\n    tag_8:\n      jumpi(tag_31, iszero(callvalue))\n      0x0\n      dup1\n      revert\n    tag_31:\n      tag_32\n      0x4\n      dup1\n      dup1\n      calldataload\n      0xffffffffffffffffffffffffffffffffffffffff\n      and\n      swap1\n      0x20\n      add\n      swap1\n      swap2\n      swap1\n      pop\n      pop\n      jump(tag_33)\n    tag_32:\n      stop\n        /* \"contracts/vault/SingleOwnerGuard.sol\":530:692  function cleanup() external {... */\n    tag_11:\n        /* \"contracts/vault/SingleOwnerGuard.sol\":598:603  vault */\n      0x0\n      0x1\n      swap1\n      sload\n      swap1\n      0x100\n      exp\n      swap1\n      div\n      0xffffffffffffffffffffffffffffffffffffffff\n      and\n        /* \"contracts/vault/SingleOwnerGuard.sol\":576:604  msg.sender == address(vault) */\n      0xffffffffffffffffffffffffffffffffffffffff\n      and\n        /* \"contracts/vault/SingleOwnerGuard.sol\":576:586  msg.sender */\n      caller\n        /* \"contracts/vault/SingleOwnerGuard.sol\":576:604  msg.sender == address(vault) */\n      0xffffffffffffffffffffffffffffffffffffffff\n      and\n      eq\n        /* \"contracts/vault/SingleOwnerGuard.sol\":568:605  require(msg.sender == address(vault)) */\n      iszero\n      iszero\n      tag_35\n      jumpi\n      0x0\n      dup1\n      revert\n    tag_35:\n        /* \"contracts/vault/SingleOwnerGuard.sol\":640:644  this */\n      address\n        /* \"contracts/vault/SingleOwnerGuard.sol\":623:644  vault.guard() == this */\n      0xffffffffffffffffffffffffffffffffffffffff\n      and\n        /* \"contracts/vault/SingleOwnerGuard.sol\":623:628  vault */\n      0x0\n      0x1\n      swap1\n      sload\n      swap1\n      0x100\n      exp\n      swap1\n      div\n      0xffffffffffffffffffffffffffffffffffffffff\n      and\n        /* \"contracts/vault/SingleOwnerGuard.sol\":623:634  vault.guard */\n      0xffffffffffffffffffffffffffffffffffffffff\n      and\n      0x7ceab3b1\n        /* \"contracts/vault/SingleOwnerGuard.sol\":623:636  vault.guard() */\n      mstore(add(0x20, mload(0x40)), 0x0)\n      mload(0x40)\n      dup2\n      0xffffffff\n      and\n      0x100000000000000000000000000000000000000000000000000000000\n      mul\n      dup2\n      mstore\n      0x4\n      add\n      0x20\n      mload(0x40)\n      dup1\n      dup4\n      sub\n      dup2\n      0x0\n      dup8\n      dup1\n      extcodesize\n      iszero\n      iszero\n      tag_36\n      jumpi\n      0x0\n      dup1\n      revert\n    tag_36:\n      sub(gas, 0x2c6)\n      call\n      iszero\n      iszero\n      tag_37\n      jumpi\n      0x0\n      dup1\n      revert\n    tag_37:\n      pop\n      pop\n      pop\n      mload(0x40)\n      dup1\n      mload\n      swap1\n      pop\n        /* \"contracts/vault/SingleOwnerGuard.sol\":623:644  vault.guard() == this */\n      0xffffffffffffffffffffffffffffffffffffffff\n      and\n      eq\n        /* \"contracts/vault/SingleOwnerGuard.sol\":615:645  require(vault.guard() == this) */\n      iszero\n      iszero\n      tag_38\n      jumpi\n      0x0\n      dup1\n      revert\n    tag_38:\n        /* \"contracts/vault/SingleOwnerGuard.sol\":677:684  owner() */\n      tag_39\n        /* \"contracts/vault/SingleOwnerGuard.sol\":677:682  owner */\n      tag_24\n        /* \"contracts/vault/SingleOwnerGuard.sol\":677:684  owner() */\n      jump\t// in\n    tag_39:\n        /* \"contracts/vault/SingleOwnerGuard.sol\":664:685  selfdestruct(owner()) */\n      0xffffffffffffffffffffffffffffffffffffffff\n      and\n      selfdestruct\n        /* \"contracts/vault/SingleOwnerGuard.sol\":530:692  function cleanup() external {... */\n    tag_34:\n      jump\t// out\n        /* \"contracts/vault/SingleOwnerGuard.sol\":225:250  string[] public publicOps */\n    tag_14:\n      0x1\n      dup2\n      dup2\n      sload\n      dup2\n      lt\n      iszero\n      iszero\n      tag_40\n      jumpi\n      invalid\n    tag_40:\n      swap1\n      0x0\n      mstore\n      keccak256(0x0, 0x20)\n      swap1\n      add\n      0x0\n    tag_41:\n      swap2\n      pop\n      swap1\n      pop\n      dup1\n      sload\n      0x1\n      dup2\n      0x1\n      and\n      iszero\n      0x100\n      mul\n      sub\n      and\n      0x2\n      swap1\n      div\n      dup1\n      0x1f\n      add\n      0x20\n      dup1\n      swap2\n      div\n      mul\n      0x20\n      add\n      mload(0x40)\n      swap1\n      dup2\n      add\n      0x40\n      mstore\n      dup1\n      swap3\n      swap2\n      swap1\n      dup2\n      dup2\n      mstore\n      0x20\n      add\n      dup3\n      dup1\n      sload\n      0x1\n      dup2\n      0x1\n      and\n      iszero\n      0x100\n      mul\n      sub\n      and\n      0x2\n      swap1\n      div\n      dup1\n      iszero\n      tag_42\n      jumpi\n      dup1\n      0x1f\n      lt\n      tag_43\n      jumpi\n      0x100\n      dup1\n      dup4\n      sload\n      div\n      mul\n      dup4\n      mstore\n      swap2\n      0x20\n      add\n      swap2\n      jump(tag_42)\n    tag_43:\n      dup3\n      add\n      swap2\n      swap1\n      0x0\n      mstore\n      keccak256(0x0, 0x20)\n      swap1\n    tag_44:\n      dup2\n      sload\n      dup2\n      mstore\n      swap1\n      0x1\n      add\n      swap1\n      0x20\n      add\n      dup1\n      dup4\n      gt\n      tag_44\n      jumpi\n      dup3\n      swap1\n      sub\n      0x1f\n      and\n      dup3\n      add\n      swap2\n    tag_42:\n      pop\n      pop\n      pop\n      pop\n      pop\n      dup2\n      jump\t// out\n        /* \"contracts/vault/SingleOwnerGuard.sol\":1188:1320  function addPublicOperation(string op) external {... */\n    tag_21:\n        /* \"contracts/vault/SingleOwnerGuard.sol\":1268:1275  owner() */\n      tag_46\n        /* \"contracts/vault/SingleOwnerGuard.sol\":1268:1273  owner */\n      tag_24\n        /* \"contracts/vault/SingleOwnerGuard.sol\":1268:1275  owner() */\n      jump\t// in\n    tag_46:\n        /* \"contracts/vault/SingleOwnerGuard.sol\":1254:1275  msg.sender == owner() */\n      0xffffffffffffffffffffffffffffffffffffffff\n      and\n        /* \"contracts/vault/SingleOwnerGuard.sol\":1254:1264  msg.sender */\n      caller\n        /* \"contracts/vault/SingleOwnerGuard.sol\":1254:1275  msg.sender == owner() */\n      0xffffffffffffffffffffffffffffffffffffffff\n      and\n      eq\n        /* \"contracts/vault/SingleOwnerGuard.sol\":1246:1276  require(msg.sender == owner()) */\n      iszero\n      iszero\n      tag_47\n      jumpi\n      0x0\n      dup1\n      revert\n    tag_47:\n        /* \"contracts/vault/SingleOwnerGuard.sol\":1295:1304  publicOps */\n      0x1\n        /* \"contracts/vault/SingleOwnerGuard.sol\":1295:1313  publicOps.push(op) */\n      dup1\n      sload\n      dup1\n      0x1\n      add\n      dup3\n      dup2\n      tag_48\n      swap2\n      swap1\n      jump\t// in(tag_49)\n    tag_48:\n      swap2\n      0x0\n      mstore\n      keccak256(0x0, 0x20)\n      swap1\n      add\n      0x0\n    tag_50:\n        /* \"contracts/vault/SingleOwnerGuard.sol\":1310:1312  op */\n      dup5\n      dup5\n        /* \"contracts/vault/SingleOwnerGuard.sol\":1295:1313  publicOps.push(op) */\n      swap1\n      swap2\n      swap3\n      swap1\n      swap2\n      swap3\n      pop\n      swap2\n      swap1\n      tag_51\n      swap3\n      swap2\n      swap1\n      jump\t// in(tag_52)\n    tag_51:\n      pop\n      pop\n        /* \"contracts/vault/SingleOwnerGuard.sol\":1188:1320  function addPublicOperation(string op) external {... */\n    tag_45:\n      pop\n      pop\n      jump\t// out\n        /* \"contracts/vault/SingleOwnerGuard.sol\":1401:1485  function owner() public view returns (address) {... */\n    tag_24:\n        /* \"contracts/vault/SingleOwnerGuard.sol\":1439:1446  address */\n      0x0\n        /* \"contracts/vault/SingleOwnerGuard.sol\":1465:1470  vault */\n      dup1\n      0x1\n      swap1\n      sload\n      swap1\n      0x100\n      exp\n      swap1\n      div\n      0xffffffffffffffffffffffffffffffffffffffff\n      and\n        /* \"contracts/vault/SingleOwnerGuard.sol\":1465:1476  vault.owner */\n      0xffffffffffffffffffffffffffffffffffffffff\n      and\n      0x8da5cb5b\n        /* \"contracts/vault/SingleOwnerGuard.sol\":1465:1478  vault.owner() */\n      mstore(add(0x20, mload(0x40)), 0x0)\n      mload(0x40)\n      dup2\n      0xffffffff\n      and\n      0x100000000000000000000000000000000000000000000000000000000\n      mul\n      dup2\n      mstore\n      0x4\n      add\n      0x20\n      mload(0x40)\n      dup1\n      dup4\n      sub\n      dup2\n      0x0\n      dup8\n      dup1\n      extcodesize\n      iszero\n      iszero\n      tag_54\n      jumpi\n      0x0\n      dup1\n      revert\n    tag_54:\n      sub(gas, 0x2c6)\n      call\n      iszero\n      iszero\n      tag_55\n      jumpi\n      0x0\n      dup1\n      revert\n    tag_55:\n      pop\n      pop\n      pop\n      mload(0x40)\n      dup1\n      mload\n      swap1\n      pop\n        /* \"contracts/vault/SingleOwnerGuard.sol\":1458:1478  return vault.owner() */\n      swap1\n      pop\n        /* \"contracts/vault/SingleOwnerGuard.sol\":1401:1485  function owner() public view returns (address) {... */\n    tag_53:\n      swap1\n      jump\t// out\n        /* \"contracts/vault/SingleOwnerGuard.sol\":111:154  bytes32 public constant id = \"single-owner\" */\n    tag_27:\n      0x73696e676c652d6f776e65720000000000000000000000000000000000000000\n      dup2\n      jump\t// out\n        /* \"contracts/vault/SingleOwnerGuard.sol\":766:1136  function isAllowed(address who, string op) external view returns (uint8, uint8) {... */\n    tag_30:\n        /* \"contracts/vault/SingleOwnerGuard.sol\":832:837  uint8 */\n      0x0\n        /* \"contracts/vault/SingleOwnerGuard.sol\":839:844  uint8 */\n      dup1\n        /* \"contracts/vault/SingleOwnerGuard.sol\":920:926  uint i */\n      0x0\n        /* \"contracts/vault/SingleOwnerGuard.sol\":867:874  owner() */\n      tag_57\n        /* \"contracts/vault/SingleOwnerGuard.sol\":867:872  owner */\n      tag_24\n        /* \"contracts/vault/SingleOwnerGuard.sol\":867:874  owner() */\n      jump\t// in\n    tag_57:\n        /* \"contracts/vault/SingleOwnerGuard.sol\":860:874  who == owner() */\n      0xffffffffffffffffffffffffffffffffffffffff\n      and\n        /* \"contracts/vault/SingleOwnerGuard.sol\":860:863  who */\n      dup7\n        /* \"contracts/vault/SingleOwnerGuard.sol\":860:874  who == owner() */\n      0xffffffffffffffffffffffffffffffffffffffff\n      and\n      eq\n        /* \"contracts/vault/SingleOwnerGuard.sol\":856:896  if (who == owner()) return (NO_ERROR, 1) */\n      iszero\n      tag_58\n      jumpi\n        /* \"contracts/vault/GuardConstants.sol\":90:91  0 */\n      0x0\n        /* \"contracts/vault/SingleOwnerGuard.sol\":894:895  1 */\n      0x1\n        /* \"contracts/vault/SingleOwnerGuard.sol\":876:896  return (NO_ERROR, 1) */\n      dup1\n      swap1\n      pop\n      swap3\n      pop\n      swap3\n      pop\n      jump(tag_56)\n        /* \"contracts/vault/SingleOwnerGuard.sol\":856:896  if (who == owner()) return (NO_ERROR, 1) */\n    tag_58:\n        /* \"contracts/vault/SingleOwnerGuard.sol\":929:930  0 */\n      0x0\n        /* \"contracts/vault/SingleOwnerGuard.sol\":920:930  uint i = 0 */\n      swap1\n      pop\n        /* \"contracts/vault/SingleOwnerGuard.sol\":915:1082  for (uint i = 0; i < publicOps.length; i++) {... */\n    tag_59:\n        /* \"contracts/vault/SingleOwnerGuard.sol\":936:945  publicOps */\n      0x1\n        /* \"contracts/vault/SingleOwnerGuard.sol\":936:952  publicOps.length */\n      dup1\n      sload\n      swap1\n      pop\n        /* \"contracts/vault/SingleOwnerGuard.sol\":932:933  i */\n      dup2\n        /* \"contracts/vault/SingleOwnerGuard.sol\":932:952  i < publicOps.length */\n      lt\n        /* \"contracts/vault/SingleOwnerGuard.sol\":915:1082  for (uint i = 0; i < publicOps.length; i++) {... */\n      iszero\n      tag_60\n      jumpi\n        /* \"contracts/vault/SingleOwnerGuard.sol\":1014:1016  op */\n      dup5\n      dup5\n        /* \"contracts/vault/SingleOwnerGuard.sol\":1004:1017  keccak256(op) */\n      mload(0x40)\n      dup1\n      dup4\n      dup4\n      dup1\n      dup3\n      dup5\n      calldatacopy\n      dup3\n      add\n      swap2\n      pop\n      pop\n      swap3\n      pop\n      pop\n      pop\n      mload(0x40)\n      dup1\n      swap2\n      sub\n      swap1\n      keccak256\n        /* \"contracts/vault/SingleOwnerGuard.sol\":977:1017  keccak256(publicOps[i]) == keccak256(op) */\n      not(0x0)\n      and\n        /* \"contracts/vault/SingleOwnerGuard.sol\":987:996  publicOps */\n      0x1\n        /* \"contracts/vault/SingleOwnerGuard.sol\":997:998  i */\n      dup3\n        /* \"contracts/vault/SingleOwnerGuard.sol\":987:999  publicOps[i] */\n      dup2\n      sload\n      dup2\n      lt\n      iszero\n      iszero\n      tag_62\n      jumpi\n      invalid\n    tag_62:\n      swap1\n      0x0\n      mstore\n      keccak256(0x0, 0x20)\n      swap1\n      add\n      0x0\n    tag_63:\n      pop\n        /* \"contracts/vault/SingleOwnerGuard.sol\":977:1000  keccak256(publicOps[i]) */\n      mload(0x40)\n      dup1\n      dup3\n      dup1\n      sload\n      0x1\n      dup2\n      0x1\n      and\n      iszero\n      0x100\n      mul\n      sub\n      and\n      0x2\n      swap1\n      div\n      dup1\n      iszero\n      tag_64\n      jumpi\n      dup1\n      0x1f\n      lt\n      tag_65\n      jumpi\n      0x100\n      dup1\n      dup4\n      sload\n      div\n      mul\n      dup4\n      mstore\n      swap2\n      dup3\n      add\n      swap2\n      jump(tag_64)\n    tag_65:\n      dup3\n      add\n      swap2\n      swap1\n      0x0\n      mstore\n      keccak256(0x0, 0x20)\n      swap1\n    tag_66:\n      dup2\n      sload\n      dup2\n      mstore\n      swap1\n      0x1\n      add\n      swap1\n      0x20\n      add\n      dup1\n      dup4\n      gt\n      tag_66\n      jumpi\n    tag_64:\n      pop\n      pop\n      swap2\n      pop\n      pop\n      mload(0x40)\n      dup1\n      swap2\n      sub\n      swap1\n      keccak256\n        /* \"contracts/vault/SingleOwnerGuard.sol\":977:1017  keccak256(publicOps[i]) == keccak256(op) */\n      not(0x0)\n      and\n      eq\n        /* \"contracts/vault/SingleOwnerGuard.sol\":973:1072  if (keccak256(publicOps[i]) == keccak256(op)) {... */\n      iszero\n      tag_67\n      jumpi\n        /* \"contracts/vault/GuardConstants.sol\":90:91  0 */\n      0x0\n        /* \"contracts/vault/SingleOwnerGuard.sol\":1055:1056  2 */\n      0x2\n        /* \"contracts/vault/SingleOwnerGuard.sol\":1037:1057  return (NO_ERROR, 2) */\n      dup1\n      swap1\n      pop\n      swap3\n      pop\n      swap3\n      pop\n      jump(tag_56)\n        /* \"contracts/vault/SingleOwnerGuard.sol\":973:1072  if (keccak256(publicOps[i]) == keccak256(op)) {... */\n    tag_67:\n        /* \"contracts/vault/SingleOwnerGuard.sol\":915:1082  for (uint i = 0; i < publicOps.length; i++) {... */\n    tag_61:\n        /* \"contracts/vault/SingleOwnerGuard.sol\":954:957  i++ */\n      dup1\n      dup1\n      0x1\n      add\n      swap2\n      pop\n      pop\n        /* \"contracts/vault/SingleOwnerGuard.sol\":915:1082  for (uint i = 0; i < publicOps.length; i++) {... */\n      jump(tag_59)\n    tag_60:\n        /* \"contracts/vault/GuardConstants.sol\":141:142  1 */\n      0x1\n        /* \"contracts/vault/SingleOwnerGuard.sol\":1127:1128  1 */\n      dup1\n        /* \"contracts/vault/SingleOwnerGuard.sol\":1100:1129  return (PERMISSION_DENIED, 1) */\n      dup1\n      swap1\n      pop\n      swap3\n      pop\n      swap3\n      pop\n        /* \"contracts/vault/SingleOwnerGuard.sol\":766:1136  function isAllowed(address who, string op) external view returns (uint8, uint8) {... */\n    tag_56:\n      pop\n      swap4\n      pop\n      swap4\n      swap2\n      pop\n      pop\n      jump\t// out\n        /* \"contracts/vault/SingleOwnerGuard.sol\":318:460  function initialize(Vault vault_) external {... */\n    tag_33:\n        /* \"contracts/vault/SingleOwnerGuard.sol\":380:391  initialized */\n      0x0\n      dup1\n      swap1\n      sload\n      swap1\n      0x100\n      exp\n      swap1\n      div\n      0xff\n      and\n        /* \"contracts/vault/SingleOwnerGuard.sol\":379:391  !initialized */\n      iszero\n        /* \"contracts/vault/SingleOwnerGuard.sol\":371:392  require(!initialized) */\n      iszero\n      iszero\n      tag_69\n      jumpi\n      0x0\n      dup1\n      revert\n    tag_69:\n        /* \"contracts/vault/SingleOwnerGuard.sol\":419:425  vault_ */\n      dup1\n        /* \"contracts/vault/SingleOwnerGuard.sol\":411:416  vault */\n      0x0\n      0x1\n        /* \"contracts/vault/SingleOwnerGuard.sol\":411:425  vault = vault_ */\n      0x100\n      exp\n      dup2\n      sload\n      dup2\n      0xffffffffffffffffffffffffffffffffffffffff\n      mul\n      not\n      and\n      swap1\n      dup4\n      0xffffffffffffffffffffffffffffffffffffffff\n      and\n      mul\n      or\n      swap1\n      sstore\n      pop\n        /* \"contracts/vault/SingleOwnerGuard.sol\":449:453  true */\n      0x1\n        /* \"contracts/vault/SingleOwnerGuard.sol\":435:446  initialized */\n      0x0\n      dup1\n        /* \"contracts/vault/SingleOwnerGuard.sol\":435:453  initialized = true */\n      0x100\n      exp\n      dup2\n      sload\n      dup2\n      0xff\n      mul\n      not\n      and\n      swap1\n      dup4\n      iszero\n      iszero\n      mul\n      or\n      swap1\n      sstore\n      pop\n        /* \"contracts/vault/SingleOwnerGuard.sol\":318:460  function initialize(Vault vault_) external {... */\n    tag_68:\n      pop\n      jump\t// out\n        /* \"contracts/vault/SingleOwnerGuard.sol\":70:1487  contract SingleOwnerGuard is Guard {... */\n    tag_49:\n      dup2\n      sload\n      dup2\n      dup4\n      sstore\n      dup2\n      dup2\n      iszero\n      gt\n      tag_70\n      jumpi\n      dup2\n      dup4\n      0x0\n      mstore\n      keccak256(0x0, 0x20)\n      swap2\n      dup3\n      add\n      swap2\n      add\n      tag_71\n      swap2\n      swap1\n      jump\t// in(tag_72)\n    tag_71:\n    tag_70:\n      pop\n      pop\n      pop\n      jump\t// out\n    tag_52:\n      dup3\n      dup1\n      sload\n      0x1\n      dup2\n      0x1\n      and\n      iszero\n      0x100\n      mul\n      sub\n      and\n      0x2\n      swap1\n      div\n      swap1\n      0x0\n      mstore\n      keccak256(0x0, 0x20)\n      swap1\n      0x1f\n      add\n      0x20\n      swap1\n      div\n      dup2\n      add\n      swap3\n      dup3\n      0x1f\n      lt\n      tag_74\n      jumpi\n      dup1\n      calldataload\n      not(0xff)\n      and\n      dup4\n      dup1\n      add\n      or\n      dup6\n      sstore\n      jump(tag_73)\n    tag_74:\n      dup3\n      dup1\n      add\n      0x1\n      add\n      dup6\n      sstore\n      dup3\n      iszero\n      tag_73\n      jumpi\n      swap2\n      dup3\n      add\n    tag_75:\n      dup3\n      dup2\n      gt\n      iszero\n      tag_76\n      jumpi\n      dup3\n      calldataload\n      dup3\n      sstore\n      swap2\n      0x20\n      add\n      swap2\n      swap1\n      0x1\n      add\n      swap1\n      jump(tag_75)\n    tag_76:\n    tag_73:\n      pop\n      swap1\n      pop\n      tag_77\n      swap2\n      swap1\n      jump\t// in(tag_78)\n    tag_77:\n      pop\n      swap1\n      jump\t// out\n    tag_72:\n      tag_79\n      swap2\n      swap1\n    tag_80:\n      dup1\n      dup3\n      gt\n      iszero\n      tag_81\n      jumpi\n      0x0\n      dup2\n      dup2\n      tag_82\n      swap2\n      swap1\n      jump\t// in(tag_83)\n    tag_82:\n      pop\n      0x1\n      add\n      jump(tag_80)\n    tag_81:\n      pop\n      swap1\n      jump\n    tag_79:\n      swap1\n      jump\t// out\n    tag_78:\n      tag_84\n      swap2\n      swap1\n    tag_85:\n      dup1\n      dup3\n      gt\n      iszero\n      tag_86\n      jumpi\n      0x0\n      dup2\n      0x0\n      swap1\n      sstore\n      pop\n      0x1\n      add\n      jump(tag_85)\n    tag_86:\n      pop\n      swap1\n      jump\n    tag_84:\n      swap1\n      jump\t// out\n    tag_83:\n      pop\n      dup1\n      sload\n      0x1\n      dup2\n      0x1\n      and\n      iszero\n      0x100\n      mul\n      sub\n      and\n      0x2\n      swap1\n      div\n      0x0\n      dup3\n      sstore\n      dup1\n      0x1f\n      lt\n      tag_88\n      jumpi\n      pop\n      jump(tag_87)\n    tag_88:\n      0x1f\n      add\n      0x20\n      swap1\n      div\n      swap1\n      0x0\n      mstore\n      keccak256(0x0, 0x20)\n      swap1\n      dup2\n      add\n      swap1\n      tag_89\n      swap2\n      swap1\n      jump\t// in(tag_78)\n    tag_89:\n    tag_87:\n      pop\n      jump\t// out\n\n    auxdata: 0xa165627a7a7230582043a756e76afb0b73f3d5563411b98ea86d00c2ccfd0c595ff304f9847fe4789d0029\n}\n",
        "bytecode": {
          "linkReferences": {},
          "object": "6060604052341561000f57600080fd5b5b61093a8061001f6000396000f30060606040523615610081576000357c0100000000000000000000000000000000000000000000000000000000900463ffffffff1680633cecd7191461008657806357a07d2e1461009b578063662ea8ec146101385780638da5cb5b14610166578063af640d0f146101bb578063b9460632146101ec578063c4d66de814610260575b600080fd5b341561009157600080fd5b610099610299565b005b34156100a657600080fd5b6100bc60048080359060200190919050506103f9565b6040518080602001828103825283818151815260200191508051906020019080838360005b838110156100fd5780820151818401525b6020810190506100e1565b50505050905090810190601f16801561012a5780820380516001836020036101000a031916815260200191505b509250505060405180910390f35b341561014357600080fd5b610164600480803590602001908201803590602001919091929050506104b6565b005b341561017157600080fd5b610179610536565b604051808273ffffffffffffffffffffffffffffffffffffffff1673ffffffffffffffffffffffffffffffffffffffff16815260200191505060405180910390f35b34156101c657600080fd5b6101ce6105e6565b60405180826000191660001916815260200191505060405180910390f35b34156101f757600080fd5b610237600480803573ffffffffffffffffffffffffffffffffffffffff16906020019091908035906020019082018035906020019190919290505061060a565b604051808360ff1660ff1681526020018260ff1660ff1681526020019250505060405180910390f35b341561026b57600080fd5b610297600480803573ffffffffffffffffffffffffffffffffffffffff1690602001909190505061074f565b005b600060019054906101000a900473ffffffffffffffffffffffffffffffffffffffff1673ffffffffffffffffffffffffffffffffffffffff163373ffffffffffffffffffffffffffffffffffffffff161415156102f557600080fd5b3073ffffffffffffffffffffffffffffffffffffffff16600060019054906101000a900473ffffffffffffffffffffffffffffffffffffffff1673ffffffffffffffffffffffffffffffffffffffff16637ceab3b16000604051602001526040518163ffffffff167c0100000000000000000000000000000000000000000000000000000000028152600401602060405180830381600087803b151561039a57600080fd5b6102c65a03f115156103ab57600080fd5b5050506040518051905073ffffffffffffffffffffffffffffffffffffffff161415156103d757600080fd5b6103df610536565b73ffffffffffffffffffffffffffffffffffffffff16ff5b565b60018181548110151561040857fe5b906000526020600020900160005b915090508054600181600116156101000203166002900480601f0160208091040260200160405190810160405280929190818152602001828054600181600116156101000203166002900480156104ae5780601f10610483576101008083540402835291602001916104ae565b820191906000526020600020905b81548152906001019060200180831161049157829003601f168201915b505050505081565b6104be610536565b73ffffffffffffffffffffffffffffffffffffffff163373ffffffffffffffffffffffffffffffffffffffff161415156104f757600080fd5b6001805480600101828161050b91906107c9565b916000526020600020900160005b848490919290919250919061052f9291906107f5565b50505b5050565b60008060019054906101000a900473ffffffffffffffffffffffffffffffffffffffff1673ffffffffffffffffffffffffffffffffffffffff16638da5cb5b6000604051602001526040518163ffffffff167c0100000000000000000000000000000000000000000000000000000000028152600401602060405180830381600087803b15156105c557600080fd5b6102c65a03f115156105d657600080fd5b5050506040518051905090505b90565b7f73696e676c652d6f776e6572000000000000000000000000000000000000000081565b6000806000610617610536565b73ffffffffffffffffffffffffffffffffffffffff168673ffffffffffffffffffffffffffffffffffffffff16141561065a576000600180905092509250610746565b600090505b60018054905081101561073b5784846040518083838082843782019150509250505060405180910390206000191660018281548110151561069c57fe5b906000526020600020900160005b5060405180828054600181600116156101000203166002900480156107065780601f106106e4576101008083540402835291820191610706565b820191906000526020600020905b8154815290600101906020018083116106f2575b5050915050604051809103902060001916141561072d576000600280905092509250610746565b5b808060010191505061065f565b600180809050925092505b50935093915050565b6000809054906101000a900460ff1615151561076a57600080fd5b80600060016101000a81548173ffffffffffffffffffffffffffffffffffffffff021916908373ffffffffffffffffffffffffffffffffffffffff16021790555060016000806101000a81548160ff0219169083151502179055505b50565b8154818355818115116107f0578183600052602060002091820191016107ef9190610875565b5b505050565b828054600181600116156101000203166002900490600052602060002090601f016020900481019282601f1061083657803560ff1916838001178555610864565b82800160010185558215610864579182015b82811115610863578235825591602001919060010190610848565b5b50905061087191906108a1565b5090565b61089e91905b8082111561089a576000818161089191906108c6565b5060010161087b565b5090565b90565b6108c391905b808211156108bf5760008160009055506001016108a7565b5090565b90565b50805460018160011615610100020316600290046000825580601f106108ec575061090b565b601f01602090049060005260206000209081019061090a91906108a1565b5b505600a165627a7a7230582043a756e76afb0b73f3d5563411b98ea86d00c2ccfd0c595ff304f9847fe4789d0029",
          "opcodes": "PUSH1 0x60 PUSH1 0x40 MSTORE CALLVALUE ISZERO PUSH2 0xF JUMPI PUSH1 0x0 DUP1 REVERT JUMPDEST JUMPDEST PUSH2 0x93A DUP1 PUSH2 0x1F PUSH1 0x0 CODECOPY PUSH1 0x0 RETURN STOP PUSH1 0x60 PUSH1 0x40 MSTORE CALLDATASIZE ISZERO PUSH2 0x81 JUMPI PUSH1 0x0 CALLDATALOAD PUSH29 0x100000000000000000000000000000000000000000000000000000000 SWAP1 DIV PUSH4 0xFFFFFFFF AND DUP1 PUSH4 0x3CECD719 EQ PUSH2 0x86 JUMPI DUP1 PUSH4 0x57A07D2E EQ PUSH2 0x9B JUMPI DUP1 PUSH4 0x662EA8EC EQ PUSH2 0x138 JUMPI DUP1 PUSH4 0x8DA5CB5B EQ PUSH2 0x166 JUMPI DUP1 PUSH4 0xAF640D0F EQ PUSH2 0x1BB JUMPI DUP1 PUSH4 0xB9460632 EQ PUSH2 0x1EC JUMPI DUP1 PUSH4 0xC4D66DE8 EQ PUSH2 0x260 JUMPI JUMPDEST PUSH1 0x0 DUP1 REVERT JUMPDEST CALLVALUE ISZERO PUSH2 0x91 JUMPI PUSH1 0x0 DUP1 REVERT JUMPDEST PUSH2 0x99 PUSH2 0x299 JUMP JUMPDEST STOP JUMPDEST CALLVALUE ISZERO PUSH2 0xA6 JUMPI PUSH1 0x0 DUP1 REVERT JUMPDEST PUSH2 0xBC PUSH1 0x4 DUP1 DUP1 CALLDATALOAD SWAP1 PUSH1 0x20 ADD SWAP1 SWAP2 SWAP1 POP POP PUSH2 0x3F9 JUMP JUMPDEST PUSH1 0x40 MLOAD DUP1 DUP1 PUSH1 0x20 ADD DUP3 DUP2 SUB DUP3 MSTORE DUP4 DUP2 DUP2 MLOAD DUP2 MSTORE PUSH1 0x20 ADD SWAP2 POP DUP1 MLOAD SWAP1 PUSH1 0x20 ADD SWAP1 DUP1 DUP4 DUP4 PUSH1 0x0 JUMPDEST DUP4 DUP2 LT ISZERO PUSH2 0xFD JUMPI DUP1 DUP3 ADD MLOAD DUP2 DUP5 ADD MSTORE JUMPDEST PUSH1 0x20 DUP2 ADD SWAP1 POP PUSH2 0xE1 JUMP JUMPDEST POP POP POP POP SWAP1 POP SWAP1 DUP2 ADD SWAP1 PUSH1 0x1F AND DUP1 ISZERO PUSH2 0x12A JUMPI DUP1 DUP3 SUB DUP1 MLOAD PUSH1 0x1 DUP4 PUSH1 0x20 SUB PUSH2 0x100 EXP SUB NOT AND DUP2 MSTORE PUSH1 0x20 ADD SWAP2 POP JUMPDEST POP SWAP3 POP POP POP PUSH1 0x40 MLOAD DUP1 SWAP2 SUB SWAP1 RETURN JUMPDEST CALLVALUE ISZERO PUSH2 0x143 JUMPI PUSH1 0x0 DUP1 REVERT JUMPDEST PUSH2 0x164 PUSH1 0x4 DUP1 DUP1 CALLDATALOAD SWAP1 PUSH1 0x20 ADD SWAP1 DUP3 ADD DUP1 CALLDATALOAD SWAP1 PUSH1 0x20 ADD SWAP2 SWAP1 SWAP2 SWAP3 SWAP1 POP POP PUSH2 0x4B6 JUMP JUMPDEST STOP JUMPDEST CALLVALUE ISZERO PUSH2 0x171 JUMPI PUSH1 0x0 DUP1 REVERT JUMPDEST PUSH2 0x179 PUSH2 0x536 JUMP JUMPDEST PUSH1 0x40 MLOAD DUP1 DUP3 PUSH20 0xFFFFFFFFFFFFFFFFFFFFFFFFFFFFFFFFFFFFFFFF AND PUSH20 0xFFFFFFFFFFFFFFFFFFFFFFFFFFFFFFFFFFFFFFFF AND DUP2 MSTORE PUSH1 0x20 ADD SWAP2 POP POP PUSH1 0x40 MLOAD DUP1 SWAP2 SUB SWAP1 RETURN JUMPDEST CALLVALUE ISZERO PUSH2 0x1C6 JUMPI PUSH1 0x0 DUP1 REVERT JUMPDEST PUSH2 0x1CE PUSH2 0x5E6 JUMP JUMPDEST PUSH1 0x40 MLOAD DUP1 DUP3 PUSH1 0x0 NOT AND PUSH1 0x0 NOT AND DUP2 MSTORE PUSH1 0x20 ADD SWAP2 POP POP PUSH1 0x40 MLOAD DUP1 SWAP2 SUB SWAP1 RETURN JUMPDEST CALLVALUE ISZERO PUSH2 0x1F7 JUMPI PUSH1 0x0 DUP1 REVERT JUMPDEST PUSH2 0x237 PUSH1 0x4 DUP1 DUP1 CALLDATALOAD PUSH20 0xFFFFFFFFFFFFFFFFFFFFFFFFFFFFFFFFFFFFFFFF AND SWAP1 PUSH1 0x20 ADD SWAP1 SWAP2 SWAP1 DUP1 CALLDATALOAD SWAP1 PUSH1 0x20 ADD SWAP1 DUP3 ADD DUP1 CALLDATALOAD SWAP1 PUSH1 0x20 ADD SWAP2 SWAP1 SWAP2 SWAP3 SWAP1 POP POP PUSH2 0x60A JUMP JUMPDEST PUSH1 0x40 MLOAD DUP1 DUP4 PUSH1 0xFF AND PUSH1 0xFF AND DUP2 MSTORE PUSH1 0x20 ADD DUP3 PUSH1 0xFF AND PUSH1 0xFF AND DUP2 MSTORE PUSH1 0x20 ADD SWAP3 POP POP POP PUSH1 0x40 MLOAD DUP1 SWAP2 SUB SWAP1 RETURN JUMPDEST CALLVALUE ISZERO PUSH2 0x26B JUMPI PUSH1 0x0 DUP1 REVERT JUMPDEST PUSH2 0x297 PUSH1 0x4 DUP1 DUP1 CALLDATALOAD PUSH20 0xFFFFFFFFFFFFFFFFFFFFFFFFFFFFFFFFFFFFFFFF AND SWAP1 PUSH1 0x20 ADD SWAP1 SWAP2 SWAP1 POP POP PUSH2 0x74F JUMP JUMPDEST STOP JUMPDEST PUSH1 0x0 PUSH1 0x1 SWAP1 SLOAD SWAP1 PUSH2 0x100 EXP SWAP1 DIV PUSH20 0xFFFFFFFFFFFFFFFFFFFFFFFFFFFFFFFFFFFFFFFF AND PUSH20 0xFFFFFFFFFFFFFFFFFFFFFFFFFFFFFFFFFFFFFFFF AND CALLER PUSH20 0xFFFFFFFFFFFFFFFFFFFFFFFFFFFFFFFFFFFFFFFF AND EQ ISZERO ISZERO PUSH2 0x2F5 JUMPI PUSH1 0x0 DUP1 REVERT JUMPDEST ADDRESS PUSH20 0xFFFFFFFFFFFFFFFFFFFFFFFFFFFFFFFFFFFFFFFF AND PUSH1 0x0 PUSH1 0x1 SWAP1 SLOAD SWAP1 PUSH2 0x100 EXP SWAP1 DIV PUSH20 0xFFFFFFFFFFFFFFFFFFFFFFFFFFFFFFFFFFFFFFFF AND PUSH20 0xFFFFFFFFFFFFFFFFFFFFFFFFFFFFFFFFFFFFFFFF AND PUSH4 0x7CEAB3B1 PUSH1 0x0 PUSH1 0x40 MLOAD PUSH1 0x20 ADD MSTORE PUSH1 0x40 MLOAD DUP2 PUSH4 0xFFFFFFFF AND PUSH29 0x100000000000000000000000000000000000000000000000000000000 MUL DUP2 MSTORE PUSH1 0x4 ADD PUSH1 0x20 PUSH1 0x40 MLOAD DUP1 DUP4 SUB DUP2 PUSH1 0x0 DUP8 DUP1 EXTCODESIZE ISZERO ISZERO PUSH2 0x39A JUMPI PUSH1 0x0 DUP1 REVERT JUMPDEST PUSH2 0x2C6 GAS SUB CALL ISZERO ISZERO PUSH2 0x3AB JUMPI PUSH1 0x0 DUP1 REVERT JUMPDEST POP POP POP PUSH1 0x40 MLOAD DUP1 MLOAD SWAP1 POP PUSH20 0xFFFFFFFFFFFFFFFFFFFFFFFFFFFFFFFFFFFFFFFF AND EQ ISZERO ISZERO PUSH2 0x3D7 JUMPI PUSH1 0x0 DUP1 REVERT JUMPDEST PUSH2 0x3DF PUSH2 0x536 JUMP JUMPDEST PUSH20 0xFFFFFFFFFFFFFFFFFFFFFFFFFFFFFFFFFFFFFFFF AND SELFDESTRUCT JUMPDEST JUMP JUMPDEST PUSH1 0x1 DUP2 DUP2 SLOAD DUP2 LT ISZERO ISZERO PUSH2 0x408 JUMPI INVALID JUMPDEST SWAP1 PUSH1 0x0 MSTORE PUSH1 0x20 PUSH1 0x0 KECCAK256 SWAP1 ADD PUSH1 0x0 JUMPDEST SWAP2 POP SWAP1 POP DUP1 SLOAD PUSH1 0x1 DUP2 PUSH1 0x1 AND ISZERO PUSH2 0x100 MUL SUB AND PUSH1 0x2 SWAP1 DIV DUP1 PUSH1 0x1F ADD PUSH1 0x20 DUP1 SWAP2 DIV MUL PUSH1 0x20 ADD PUSH1 0x40 MLOAD SWAP1 DUP2 ADD PUSH1 0x40 MSTORE DUP1 SWAP3 SWAP2 SWAP1 DUP2 DUP2 MSTORE PUSH1 0x20 ADD DUP3 DUP1 SLOAD PUSH1 0x1 DUP2 PUSH1 0x1 AND ISZERO PUSH2 0x100 MUL SUB AND PUSH1 0x2 SWAP1 DIV DUP1 ISZERO PUSH2 0x4AE JUMPI DUP1 PUSH1 0x1F LT PUSH2 0x483 JUMPI PUSH2 0x100 DUP1 DUP4 SLOAD DIV MUL DUP4 MSTORE SWAP2 PUSH1 0x20 ADD SWAP2 PUSH2 0x4AE JUMP JUMPDEST DUP3 ADD SWAP2 SWAP1 PUSH1 0x0 MSTORE PUSH1 0x20 PUSH1 0x0 KECCAK256 SWAP1 JUMPDEST DUP2 SLOAD DUP2 MSTORE SWAP1 PUSH1 0x1 ADD SWAP1 PUSH1 0x20 ADD DUP1 DUP4 GT PUSH2 0x491 JUMPI DUP3 SWAP1 SUB PUSH1 0x1F AND DUP3 ADD SWAP2 JUMPDEST POP POP POP POP POP DUP2 JUMP JUMPDEST PUSH2 0x4BE PUSH2 0x536 JUMP JUMPDEST PUSH20 0xFFFFFFFFFFFFFFFFFFFFFFFFFFFFFFFFFFFFFFFF AND CALLER PUSH20 0xFFFFFFFFFFFFFFFFFFFFFFFFFFFFFFFFFFFFFFFF AND EQ ISZERO ISZERO PUSH2 0x4F7 JUMPI PUSH1 0x0 DUP1 REVERT JUMPDEST PUSH1 0x1 DUP1 SLOAD DUP1 PUSH1 0x1 ADD DUP3 DUP2 PUSH2 0x50B SWAP2 SWAP1 PUSH2 0x7C9 JUMP JUMPDEST SWAP2 PUSH1 0x0 MSTORE PUSH1 0x20 PUSH1 0x0 KECCAK256 SWAP1 ADD PUSH1 0x0 JUMPDEST DUP5 DUP5 SWAP1 SWAP2 SWAP3 SWAP1 SWAP2 SWAP3 POP SWAP2 SWAP1 PUSH2 0x52F SWAP3 SWAP2 SWAP1 PUSH2 0x7F5 JUMP JUMPDEST POP POP JUMPDEST POP POP JUMP JUMPDEST PUSH1 0x0 DUP1 PUSH1 0x1 SWAP1 SLOAD SWAP1 PUSH2 0x100 EXP SWAP1 DIV PUSH20 0xFFFFFFFFFFFFFFFFFFFFFFFFFFFFFFFFFFFFFFFF AND PUSH20 0xFFFFFFFFFFFFFFFFFFFFFFFFFFFFFFFFFFFFFFFF AND PUSH4 0x8DA5CB5B PUSH1 0x0 PUSH1 0x40 MLOAD PUSH1 0x20 ADD MSTORE PUSH1 0x40 MLOAD DUP2 PUSH4 0xFFFFFFFF AND PUSH29 0x100000000000000000000000000000000000000000000000000000000 MUL DUP2 MSTORE PUSH1 0x4 ADD PUSH1 0x20 PUSH1 0x40 MLOAD DUP1 DUP4 SUB DUP2 PUSH1 0x0 DUP8 DUP1 EXTCODESIZE ISZERO ISZERO PUSH2 0x5C5 JUMPI PUSH1 0x0 DUP1 REVERT JUMPDEST PUSH2 0x2C6 GAS SUB CALL ISZERO ISZERO PUSH2 0x5D6 JUMPI PUSH1 0x0 DUP1 REVERT JUMPDEST POP POP POP PUSH1 0x40 MLOAD DUP1 MLOAD SWAP1 POP SWAP1 POP JUMPDEST SWAP1 JUMP JUMPDEST PUSH32 0x73696E676C652D6F776E65720000000000000000000000000000000000000000 DUP2 JUMP JUMPDEST PUSH1 0x0 DUP1 PUSH1 0x0 PUSH2 0x617 PUSH2 0x536 JUMP JUMPDEST PUSH20 0xFFFFFFFFFFFFFFFFFFFFFFFFFFFFFFFFFFFFFFFF AND DUP7 PUSH20 0xFFFFFFFFFFFFFFFFFFFFFFFFFFFFFFFFFFFFFFFF AND EQ ISZERO PUSH2 0x65A JUMPI PUSH1 0x0 PUSH1 0x1 DUP1 SWAP1 POP SWAP3 POP SWAP3 POP PUSH2 0x746 JUMP JUMPDEST PUSH1 0x0 SWAP1 POP JUMPDEST PUSH1 0x1 DUP1 SLOAD SWAP1 POP DUP2 LT ISZERO PUSH2 0x73B JUMPI DUP5 DUP5 PUSH1 0x40 MLOAD DUP1 DUP4 DUP4 DUP1 DUP3 DUP5 CALLDATACOPY DUP3 ADD SWAP2 POP POP SWAP3 POP POP POP PUSH1 0x40 MLOAD DUP1 SWAP2 SUB SWAP1 KECCAK256 PUSH1 0x0 NOT AND PUSH1 0x1 DUP3 DUP2 SLOAD DUP2 LT ISZERO ISZERO PUSH2 0x69C JUMPI INVALID JUMPDEST SWAP1 PUSH1 0x0 MSTORE PUSH1 0x20 PUSH1 0x0 KECCAK256 SWAP1 ADD PUSH1 0x0 JUMPDEST POP PUSH1 0x40 MLOAD DUP1 DUP3 DUP1 SLOAD PUSH1 0x1 DUP2 PUSH1 0x1 AND ISZERO PUSH2 0x100 MUL SUB AND PUSH1 0x2 SWAP1 DIV DUP1 ISZERO PUSH2 0x706 JUMPI DUP1 PUSH1 0x1F LT PUSH2 0x6E4 JUMPI PUSH2 0x100 DUP1 DUP4 SLOAD DIV MUL DUP4 MSTORE SWAP2 DUP3 ADD SWAP2 PUSH2 0x706 JUMP JUMPDEST DUP3 ADD SWAP2 SWAP1 PUSH1 0x0 MSTORE PUSH1 0x20 PUSH1 0x0 KECCAK256 SWAP1 JUMPDEST DUP2 SLOAD DUP2 MSTORE SWAP1 PUSH1 0x1 ADD SWAP1 PUSH1 0x20 ADD DUP1 DUP4 GT PUSH2 0x6F2 JUMPI JUMPDEST POP POP SWAP2 POP POP PUSH1 0x40 MLOAD DUP1 SWAP2 SUB SWAP1 KECCAK256 PUSH1 0x0 NOT AND EQ ISZERO PUSH2 0x72D JUMPI PUSH1 0x0 PUSH1 0x2 DUP1 SWAP1 POP SWAP3 POP SWAP3 POP PUSH2 0x746 JUMP JUMPDEST JUMPDEST DUP1 DUP1 PUSH1 0x1 ADD SWAP2 POP POP PUSH2 0x65F JUMP JUMPDEST PUSH1 0x1 DUP1 DUP1 SWAP1 POP SWAP3 POP SWAP3 POP JUMPDEST POP SWAP4 POP SWAP4 SWAP2 POP POP JUMP JUMPDEST PUSH1 0x0 DUP1 SWAP1 SLOAD SWAP1 PUSH2 0x100 EXP SWAP1 DIV PUSH1 0xFF AND ISZERO ISZERO ISZERO PUSH2 0x76A JUMPI PUSH1 0x0 DUP1 REVERT JUMPDEST DUP1 PUSH1 0x0 PUSH1 0x1 PUSH2 0x100 EXP DUP2 SLOAD DUP2 PUSH20 0xFFFFFFFFFFFFFFFFFFFFFFFFFFFFFFFFFFFFFFFF MUL NOT AND SWAP1 DUP4 PUSH20 0xFFFFFFFFFFFFFFFFFFFFFFFFFFFFFFFFFFFFFFFF AND MUL OR SWAP1 SSTORE POP PUSH1 0x1 PUSH1 0x0 DUP1 PUSH2 0x100 EXP DUP2 SLOAD DUP2 PUSH1 0xFF MUL NOT AND SWAP1 DUP4 ISZERO ISZERO MUL OR SWAP1 SSTORE POP JUMPDEST POP JUMP JUMPDEST DUP2 SLOAD DUP2 DUP4 SSTORE DUP2 DUP2 ISZERO GT PUSH2 0x7F0 JUMPI DUP2 DUP4 PUSH1 0x0 MSTORE PUSH1 0x20 PUSH1 0x0 KECCAK256 SWAP2 DUP3 ADD SWAP2 ADD PUSH2 0x7EF SWAP2 SWAP1 PUSH2 0x875 JUMP JUMPDEST JUMPDEST POP POP POP JUMP JUMPDEST DUP3 DUP1 SLOAD PUSH1 0x1 DUP2 PUSH1 0x1 AND ISZERO PUSH2 0x100 MUL SUB AND PUSH1 0x2 SWAP1 DIV SWAP1 PUSH1 0x0 MSTORE PUSH1 0x20 PUSH1 0x0 KECCAK256 SWAP1 PUSH1 0x1F ADD PUSH1 0x20 SWAP1 DIV DUP2 ADD SWAP3 DUP3 PUSH1 0x1F LT PUSH2 0x836 JUMPI DUP1 CALLDATALOAD PUSH1 0xFF NOT AND DUP4 DUP1 ADD OR DUP6 SSTORE PUSH2 0x864 JUMP JUMPDEST DUP3 DUP1 ADD PUSH1 0x1 ADD DUP6 SSTORE DUP3 ISZERO PUSH2 0x864 JUMPI SWAP2 DUP3 ADD JUMPDEST DUP3 DUP2 GT ISZERO PUSH2 0x863 JUMPI DUP3 CALLDATALOAD DUP3 SSTORE SWAP2 PUSH1 0x20 ADD SWAP2 SWAP1 PUSH1 0x1 ADD SWAP1 PUSH2 0x848 JUMP JUMPDEST JUMPDEST POP SWAP1 POP PUSH2 0x871 SWAP2 SWAP1 PUSH2 0x8A1 JUMP JUMPDEST POP SWAP1 JUMP JUMPDEST PUSH2 0x89E SWAP2 SWAP1 JUMPDEST DUP1 DUP3 GT ISZERO PUSH2 0x89A JUMPI PUSH1 0x0 DUP2 DUP2 PUSH2 0x891 SWAP2 SWAP1 PUSH2 0x8C6 JUMP JUMPDEST POP PUSH1 0x1 ADD PUSH2 0x87B JUMP JUMPDEST POP SWAP1 JUMP JUMPDEST SWAP1 JUMP JUMPDEST PUSH2 0x8C3 SWAP2 SWAP1 JUMPDEST DUP1 DUP3 GT ISZERO PUSH2 0x8BF JUMPI PUSH1 0x0 DUP2 PUSH1 0x0 SWAP1 SSTORE POP PUSH1 0x1 ADD PUSH2 0x8A7 JUMP JUMPDEST POP SWAP1 JUMP JUMPDEST SWAP1 JUMP JUMPDEST POP DUP1 SLOAD PUSH1 0x1 DUP2 PUSH1 0x1 AND ISZERO PUSH2 0x100 MUL SUB AND PUSH1 0x2 SWAP1 DIV PUSH1 0x0 DUP3 SSTORE DUP1 PUSH1 0x1F LT PUSH2 0x8EC JUMPI POP PUSH2 0x90B JUMP JUMPDEST PUSH1 0x1F ADD PUSH1 0x20 SWAP1 DIV SWAP1 PUSH1 0x0 MSTORE PUSH1 0x20 PUSH1 0x0 KECCAK256 SWAP1 DUP2 ADD SWAP1 PUSH2 0x90A SWAP2 SWAP1 PUSH2 0x8A1 JUMP JUMPDEST JUMPDEST POP JUMP STOP LOG1 PUSH6 0x627A7A723058 KECCAK256 NUMBER 0xa7 JUMP 0xe7 PUSH11 0xFB0B73F3D5563411B98EA8 PUSH14 0xC2CCFD0C595FF304F9847FE478 SWAP14 STOP 0x29 "
        },
        "gasEstimates": {
          "creation": {
            "codeDepositCost": "472400",
            "executionCost": "501",
            "totalCost": "472901"
          },
          "external": {
            "addPublicOperation(string)": "infinite",
            "cleanup()": "infinite",
            "id()": "289",
            "initialize(address)": "41146",
            "isAllowed(address,string)": "infinite",
            "owner()": "infinite",
            "publicOps(uint256)": "infinite"
          }
        },
        "methodIdentifiers": {
          "addPublicOperation(string)": "662ea8ec",
          "cleanup()": "3cecd719",
          "id()": "af640d0f",
          "initialize(address)": "c4d66de8",
          "isAllowed(address,string)": "b9460632",
          "owner()": "8da5cb5b",
          "publicOps(uint256)": "57a07d2e"
        }
      },
      "userdoc": {
        "methods": {}
      }
    }
  }
}