{
  "contracts/vault/Vault.sol": {
    "Vault": {
      "abi": [
        {
          "constant": false,
          "inputs": [
            {
              "name": "impl",
              "type": "bytes32"
            }
          ],
          "name": "updateGuard",
          "outputs": [
            {
              "name": "",
              "type": "address"
            }
          ],
          "payable": false,
          "stateMutability": "nonpayable",
          "type": "function"
        },
        {
          "constant": false,
          "inputs": [
            {
              "name": "tok",
              "type": "address"
            },
            {
              "name": "amnt",
              "type": "uint256"
            }
          ],
          "name": "deposit",
          "outputs": [],
          "payable": false,
          "stateMutability": "nonpayable",
          "type": "function"
        },
        {
          "constant": false,
          "inputs": [],
          "name": "acceptOwnership",
          "outputs": [],
          "payable": false,
          "stateMutability": "nonpayable",
          "type": "function"
        },
        {
          "constant": true,
          "inputs": [],
          "name": "registry",
          "outputs": [
            {
              "name": "",
              "type": "address"
            }
          ],
          "payable": false,
          "stateMutability": "view",
          "type": "function"
        },
        {
          "constant": true,
          "inputs": [],
          "name": "guard",
          "outputs": [
            {
              "name": "",
              "type": "address"
            }
          ],
          "payable": false,
          "stateMutability": "view",
          "type": "function"
        },
        {
          "constant": true,
          "inputs": [],
          "name": "owner",
          "outputs": [
            {
              "name": "",
              "type": "address"
            }
          ],
          "payable": false,
          "stateMutability": "view",
          "type": "function"
        },
        {
          "constant": true,
          "inputs": [
            {
              "name": "",
              "type": "address"
            },
            {
              "name": "",
              "type": "address"
            }
          ],
          "name": "balances",
          "outputs": [
            {
              "name": "",
              "type": "uint256"
            }
          ],
          "payable": false,
          "stateMutability": "view",
          "type": "function"
        },
        {
          "constant": false,
          "inputs": [
            {
              "name": "target",
              "type": "address"
            },
            {
              "name": "data",
              "type": "bytes"
            }
          ],
          "name": "emergencyCall",
          "outputs": [],
          "payable": false,
          "stateMutability": "nonpayable",
          "type": "function"
        },
        {
          "constant": true,
          "inputs": [],
          "name": "pendingOwner",
          "outputs": [
            {
              "name": "",
              "type": "address"
            }
          ],
          "payable": false,
          "stateMutability": "view",
          "type": "function"
        },
        {
          "constant": false,
          "inputs": [
            {
              "name": "newOwner",
              "type": "address"
            }
          ],
          "name": "transferOwnership",
          "outputs": [],
          "payable": false,
          "stateMutability": "nonpayable",
          "type": "function"
        },
        {
          "constant": false,
          "inputs": [
            {
              "name": "tok",
              "type": "address"
            },
            {
              "name": "amnt",
              "type": "uint256"
            }
          ],
          "name": "withdraw",
          "outputs": [],
          "payable": false,
          "stateMutability": "nonpayable",
          "type": "function"
        },
        {
          "inputs": [
            {
              "name": "registry_",
              "type": "address"
            }
          ],
          "payable": false,
          "stateMutability": "nonpayable",
          "type": "constructor"
        }
      ],
      "devdoc": {
        "methods": {}
      },
      "evm": {
        "assembly": "    /* \"contracts/vault/Vault.sol\":834:3305  contract Vault is GuardConstants, EIP1167Factory {... */\n  mstore(0x40, 0x60)\n    /* \"contracts/vault/Vault.sol\":1093:1269  function Vault(GuardRegistry registry_) public {... */\n  jumpi(tag_1, iszero(callvalue))\n  0x0\n  dup1\n  revert\ntag_1:\n  mload(0x40)\n  0x20\n  dup1\n  bytecodeSize\n  dup4\n  codecopy\n  dup2\n  add\n  0x40\n  mstore\n  dup1\n  dup1\n  mload\n  swap1\n  0x20\n  add\n  swap1\n  swap2\n  swap1\n  pop\n  pop\ntag_2:\n    /* \"contracts/vault/Vault.sol\":1158:1168  msg.sender */\n  caller\n    /* \"contracts/vault/Vault.sol\":1150:1155  owner */\n  0x0\n  dup1\n    /* \"contracts/vault/Vault.sol\":1150:1168  owner = msg.sender */\n  0x100\n  exp\n  dup2\n  sload\n  dup2\n  0xffffffffffffffffffffffffffffffffffffffff\n  mul\n  not\n  and\n  swap1\n  dup4\n  0xffffffffffffffffffffffffffffffffffffffff\n  and\n  mul\n  or\n  swap1\n  sstore\n  pop\n    /* \"contracts/vault/Vault.sol\":1189:1198  registry_ */\n  dup1\n    /* \"contracts/vault/Vault.sol\":1178:1186  registry */\n  0x2\n  0x0\n    /* \"contracts/vault/Vault.sol\":1178:1198  registry = registry_ */\n  0x100\n  exp\n  dup2\n  sload\n  dup2\n  0xffffffffffffffffffffffffffffffffffffffff\n  mul\n  not\n  and\n  swap1\n  dup4\n  0xffffffffffffffffffffffffffffffffffffffff\n  and\n  mul\n  or\n  swap1\n  sstore\n  pop\n    /* \"contracts/vault/Vault.sol\":1217:1262  createGuard(registry.defaultImplementation()) */\n  tag_4\n    /* \"contracts/vault/Vault.sol\":1229:1237  registry */\n  0x2\n  0x0\n  swap1\n  sload\n  swap1\n  0x100\n  exp\n  swap1\n  div\n  0xffffffffffffffffffffffffffffffffffffffff\n  and\n    /* \"contracts/vault/Vault.sol\":1229:1259  registry.defaultImplementation */\n  0xffffffffffffffffffffffffffffffffffffffff\n  and\n  0xb39c4593\n    /* \"contracts/vault/Vault.sol\":1229:1261  registry.defaultImplementation() */\n  mstore(add(0x20, mload(0x40)), 0x0)\n  mload(0x40)\n  dup2\n  0xffffffff\n  and\n  0x100000000000000000000000000000000000000000000000000000000\n  mul\n  dup2\n  mstore\n  0x4\n  add\n  0x20\n  mload(0x40)\n  dup1\n  dup4\n  sub\n  dup2\n  0x0\n  dup8\n  dup1\n  extcodesize\n  iszero\n  iszero\n  tag_5\n  jumpi\n  0x0\n  dup1\n  revert\ntag_5:\n  sub(gas, 0x2c6)\n  call\n  iszero\n  iszero\n  tag_6\n  jumpi\n  0x0\n  dup1\n  revert\ntag_6:\n  pop\n  pop\n  pop\n  mload(0x40)\n  dup1\n  mload\n  swap1\n  pop\n    /* \"contracts/vault/Vault.sol\":1217:1228  createGuard */\n  or(tag_0_51, mul(0x100000000, tag_7))\n    /* \"contracts/vault/Vault.sol\":1217:1262  createGuard(registry.defaultImplementation()) */\n  0x100000000\n  swap1\n  div\n  jump\t// in\ntag_4:\n  pop\n    /* \"contracts/vault/Vault.sol\":1093:1269  function Vault(GuardRegistry registry_) public {... */\ntag_3:\n  pop\n    /* \"contracts/vault/Vault.sol\":834:3305  contract Vault is GuardConstants, EIP1167Factory {... */\n  jump(tag_8)\n    /* \"contracts/vault/Vault.sol\":1312:1693  function createGuard(bytes32 implementation) private returns (Guard) {... */\ntag_7:\n    /* \"contracts/vault/Vault.sol\":1374:1379  Guard */\n  0x0\n    /* \"contracts/vault/Vault.sol\":1391:1403  address impl */\n  dup1\n    /* \"contracts/vault/Vault.sol\":1406:1414  registry */\n  0x2\n  0x0\n  swap1\n  sload\n  swap1\n  0x100\n  exp\n  swap1\n  div\n  0xffffffffffffffffffffffffffffffffffffffff\n  and\n    /* \"contracts/vault/Vault.sol\":1406:1430  registry.implementations */\n  0xffffffffffffffffffffffffffffffffffffffff\n  and\n  0x2cfeaca\n    /* \"contracts/vault/Vault.sol\":1431:1445  implementation */\n  dup5\n    /* \"contracts/vault/Vault.sol\":1406:1446  registry.implementations(implementation) */\n  mstore(add(0x20, mload(0x40)), 0x0)\n  mload(0x40)\n  dup3\n  0xffffffff\n  and\n  0x100000000000000000000000000000000000000000000000000000000\n  mul\n  dup2\n  mstore\n  0x4\n  add\n  dup1\n  dup3\n  not(0x0)\n  and\n  not(0x0)\n  and\n  dup2\n  mstore\n  0x20\n  add\n  swap2\n  pop\n  pop\n  0x20\n  mload(0x40)\n  dup1\n  dup4\n  sub\n  dup2\n  0x0\n  dup8\n  dup1\n  extcodesize\n  iszero\n  iszero\n  tag_10\n  jumpi\n  0x0\n  dup1\n  revert\ntag_10:\n  sub(gas, 0x2c6)\n  call\n  iszero\n  iszero\n  tag_11\n  jumpi\n  0x0\n  dup1\n  revert\ntag_11:\n  pop\n  pop\n  pop\n  mload(0x40)\n  dup1\n  mload\n  swap1\n  pop\n    /* \"contracts/vault/Vault.sol\":1391:1446  address impl = registry.implementations(implementation) */\n  swap1\n  pop\n    /* \"contracts/vault/Vault.sol\":1480:1484  0x00 */\n  0x0\n    /* \"contracts/vault/Vault.sol\":1464:1485  impl != address(0x00) */\n  0xffffffffffffffffffffffffffffffffffffffff\n  and\n    /* \"contracts/vault/Vault.sol\":1464:1468  impl */\n  dup2\n    /* \"contracts/vault/Vault.sol\":1464:1485  impl != address(0x00) */\n  0xffffffffffffffffffffffffffffffffffffffff\n  and\n  eq\n  iszero\n    /* \"contracts/vault/Vault.sol\":1456:1486  require(impl != address(0x00)) */\n  iszero\n  iszero\n  tag_12\n  jumpi\n  0x0\n  dup1\n  revert\ntag_12:\n    /* \"contracts/vault/Vault.sol\":1535:1539  0x00 */\n  0x0\n    /* \"contracts/vault/Vault.sol\":1509:1540  address(guard) != address(0x00) */\n  0xffffffffffffffffffffffffffffffffffffffff\n  and\n    /* \"contracts/vault/Vault.sol\":1517:1522  guard */\n  0x3\n  0x0\n  swap1\n  sload\n  swap1\n  0x100\n  exp\n  swap1\n  div\n  0xffffffffffffffffffffffffffffffffffffffff\n  and\n    /* \"contracts/vault/Vault.sol\":1509:1540  address(guard) != address(0x00) */\n  0xffffffffffffffffffffffffffffffffffffffff\n  and\n  eq\n  iszero\n    /* \"contracts/vault/Vault.sol\":1505:1582  if (address(guard) != address(0x00)) {... */\n  iszero\n  tag_13\n  jumpi\n    /* \"contracts/vault/Vault.sol\":1556:1561  guard */\n  0x3\n  0x0\n  swap1\n  sload\n  swap1\n  0x100\n  exp\n  swap1\n  div\n  0xffffffffffffffffffffffffffffffffffffffff\n  and\n    /* \"contracts/vault/Vault.sol\":1556:1569  guard.cleanup */\n  0xffffffffffffffffffffffffffffffffffffffff\n  and\n  0x3cecd719\n    /* \"contracts/vault/Vault.sol\":1556:1571  guard.cleanup() */\n  mload(0x40)\n  dup2\n  0xffffffff\n  and\n  0x100000000000000000000000000000000000000000000000000000000\n  mul\n  dup2\n  mstore\n  0x4\n  add\n  0x0\n  mload(0x40)\n  dup1\n  dup4\n  sub\n  dup2\n  0x0\n  dup8\n  dup1\n  extcodesize\n  iszero\n  iszero\n  tag_14\n  jumpi\n  0x0\n  dup1\n  revert\ntag_14:\n  sub(gas, 0x2c6)\n  call\n  iszero\n  iszero\n  tag_15\n  jumpi\n  0x0\n  dup1\n  revert\ntag_15:\n  pop\n  pop\n  pop\n    /* \"contracts/vault/Vault.sol\":1505:1582  if (address(guard) != address(0x00)) {... */\ntag_13:\n    /* \"contracts/vault/Vault.sol\":1614:1631  createClone(impl) */\n  tag_16\n    /* \"contracts/vault/Vault.sol\":1626:1630  impl */\n  dup2\n    /* \"contracts/vault/Vault.sol\":1614:1625  createClone */\n  or(tag_0_91, mul(0x100000000, tag_17))\n    /* \"contracts/vault/Vault.sol\":1614:1631  createClone(impl) */\n  0x100000000\n  swap1\n  div\n  jump\t// in\ntag_16:\n    /* \"contracts/vault/Vault.sol\":1600:1605  guard */\n  0x3\n  0x0\n    /* \"contracts/vault/Vault.sol\":1600:1632  guard = Guard(createClone(impl)) */\n  0x100\n  exp\n  dup2\n  sload\n  dup2\n  0xffffffffffffffffffffffffffffffffffffffff\n  mul\n  not\n  and\n  swap1\n  dup4\n  0xffffffffffffffffffffffffffffffffffffffff\n  and\n  mul\n  or\n  swap1\n  sstore\n  pop\n    /* \"contracts/vault/Vault.sol\":1642:1647  guard */\n  0x3\n  0x0\n  swap1\n  sload\n  swap1\n  0x100\n  exp\n  swap1\n  div\n  0xffffffffffffffffffffffffffffffffffffffff\n  and\n    /* \"contracts/vault/Vault.sol\":1642:1658  guard.initialize */\n  0xffffffffffffffffffffffffffffffffffffffff\n  and\n  0xc4d66de8\n    /* \"contracts/vault/Vault.sol\":1659:1663  this */\n  address\n    /* \"contracts/vault/Vault.sol\":1642:1664  guard.initialize(this) */\n  mload(0x40)\n  dup3\n  0xffffffff\n  and\n  0x100000000000000000000000000000000000000000000000000000000\n  mul\n  dup2\n  mstore\n  0x4\n  add\n  dup1\n  dup3\n  0xffffffffffffffffffffffffffffffffffffffff\n  and\n  0xffffffffffffffffffffffffffffffffffffffff\n  and\n  dup2\n  mstore\n  0x20\n  add\n  swap2\n  pop\n  pop\n  0x0\n  mload(0x40)\n  dup1\n  dup4\n  sub\n  dup2\n  0x0\n  dup8\n  dup1\n  extcodesize\n  iszero\n  iszero\n  tag_18\n  jumpi\n  0x0\n  dup1\n  revert\ntag_18:\n  sub(gas, 0x2c6)\n  call\n  iszero\n  iszero\n  tag_19\n  jumpi\n  0x0\n  dup1\n  revert\ntag_19:\n  pop\n  pop\n  pop\n    /* \"contracts/vault/Vault.sol\":1681:1686  guard */\n  0x3\n  0x0\n  swap1\n  sload\n  swap1\n  0x100\n  exp\n  swap1\n  div\n  0xffffffffffffffffffffffffffffffffffffffff\n  and\n    /* \"contracts/vault/Vault.sol\":1674:1686  return guard */\n  swap2\n  pop\n    /* \"contracts/vault/Vault.sol\":1312:1693  function createGuard(bytes32 implementation) private returns (Guard) {... */\ntag_9:\n  pop\n  swap2\n  swap1\n  pop\n  jump\t// out\n    /* \"contracts/vault/Vault.sol\":345:830  function createClone(address target) internal returns (address result) {... */\ntag_17:\n    /* \"contracts/vault/Vault.sol\":400:414  address result */\n  0x0\n    /* \"contracts/vault/Vault.sol\":426:445  bytes20 targetBytes */\n  dup1\n    /* \"contracts/vault/Vault.sol\":456:462  target */\n  dup3\n    /* \"contracts/vault/Vault.sol\":448:463  bytes20(target) */\n  0x1000000000000000000000000\n  mul\n    /* \"contracts/vault/Vault.sol\":426:463  bytes20 targetBytes = bytes20(target) */\n  swap1\n  pop\n    /* \"contracts/vault/Vault.sol\":515:519  0x40 */\n  0x40\n    /* \"contracts/vault/Vault.sol\":509:514  mload */\n  mload\n    /* \"contracts/vault/Vault.sol\":547:613  0x3d602d80600a3d3981f3363d3d373d3d3d363d73000000000000000000000000 */\n  0x3d602d80600a3d3981f3363d3d373d3d3d363d73000000000000000000000000\n    /* \"contracts/vault/Vault.sol\":540:545  clone */\n  dup2\n    /* \"contracts/vault/Vault.sol\":533:539  mstore */\n  mstore\n    /* \"contracts/vault/Vault.sol\":652:663  targetBytes */\n  dup2\n    /* \"contracts/vault/Vault.sol\":645:649  0x14 */\n  0x14\n    /* \"contracts/vault/Vault.sol\":638:643  clone */\n  dup3\n    /* \"contracts/vault/Vault.sol\":634:637  add */\n  add\n    /* \"contracts/vault/Vault.sol\":627:633  mstore */\n  mstore\n    /* \"contracts/vault/Vault.sol\":702:768  0x5af43d82803e903d91602b57fd5bf30000000000000000000000000000000000 */\n  0x5af43d82803e903d91602b57fd5bf30000000000000000000000000000000000\n    /* \"contracts/vault/Vault.sol\":695:699  0x28 */\n  0x28\n    /* \"contracts/vault/Vault.sol\":688:693  clone */\n  dup3\n    /* \"contracts/vault/Vault.sol\":684:687  add */\n  add\n    /* \"contracts/vault/Vault.sol\":677:683  mstore */\n  mstore\n    /* \"contracts/vault/Vault.sol\":809:813  0x37 */\n  0x37\n    /* \"contracts/vault/Vault.sol\":802:807  clone */\n  dup2\n    /* \"contracts/vault/Vault.sol\":799:800  0 */\n  0x0\n    /* \"contracts/vault/Vault.sol\":792:798  create */\n  create\n    /* \"contracts/vault/Vault.sol\":782:814  result := create(0, clone, 0x37) */\n  swap3\n  pop\n    /* \"contracts/vault/Vault.sol\":482:824  {... */\n  pop\ntag_20:\n  pop\n  swap2\n  swap1\n  pop\n  jump\t// out\n    /* \"contracts/vault/Vault.sol\":834:3305  contract Vault is GuardConstants, EIP1167Factory {... */\ntag_8:\n  dataSize(sub_0)\n  dup1\n  dataOffset(sub_0)\n  0x0\n  codecopy\n  0x0\n  return\nstop\n\nsub_0: assembly {\n        /* \"contracts/vault/Vault.sol\":834:3305  contract Vault is GuardConstants, EIP1167Factory {... */\n      mstore(0x40, 0x60)\n      jumpi(tag_1, iszero(calldatasize))\n      calldataload(0x0)\n      0x100000000000000000000000000000000000000000000000000000000\n      swap1\n      div\n      0xffffffff\n      and\n      dup1\n      0x46c469a4\n      eq\n      tag_2\n      jumpi\n      dup1\n      0x47e7ef24\n      eq\n      tag_3\n      jumpi\n      dup1\n      0x79ba5097\n      eq\n      tag_4\n      jumpi\n      dup1\n      0x7b103999\n      eq\n      tag_5\n      jumpi\n      dup1\n      0x7ceab3b1\n      eq\n      tag_6\n      jumpi\n      dup1\n      0x8da5cb5b\n      eq\n      tag_7\n      jumpi\n      dup1\n      0xc23f001f\n      eq\n      tag_8\n      jumpi\n      dup1\n      0xc4bf0220\n      eq\n      tag_9\n      jumpi\n      dup1\n      0xe30c3978\n      eq\n      tag_10\n      jumpi\n      dup1\n      0xf2fde38b\n      eq\n      tag_11\n      jumpi\n      dup1\n      0xf3fef3a3\n      eq\n      tag_12\n      jumpi\n    tag_1:\n      0x0\n      dup1\n      revert\n        /* \"contracts/vault/Vault.sol\":1958:2111  function updateGuard(bytes32 impl) public returns (Guard) {... */\n    tag_2:\n      jumpi(tag_13, iszero(callvalue))\n      0x0\n      dup1\n      revert\n    tag_13:\n      tag_14\n      0x4\n      dup1\n      dup1\n      calldataload\n      not(0x0)\n      and\n      swap1\n      0x20\n      add\n      swap1\n      swap2\n      swap1\n      pop\n      pop\n      jump(tag_15)\n    tag_14:\n      mload(0x40)\n      dup1\n      dup3\n      0xffffffffffffffffffffffffffffffffffffffff\n      and\n      0xffffffffffffffffffffffffffffffffffffffff\n      and\n      dup2\n      mstore\n      0x20\n      add\n      swap2\n      pop\n      pop\n      mload(0x40)\n      dup1\n      swap2\n      sub\n      swap1\n      return\n        /* \"contracts/vault/Vault.sol\":2143:2379  function deposit(ERC20Like tok, uint amnt) public {... */\n    tag_3:\n      jumpi(tag_16, iszero(callvalue))\n      0x0\n      dup1\n      revert\n    tag_16:\n      tag_17\n      0x4\n      dup1\n      dup1\n      calldataload\n      0xffffffffffffffffffffffffffffffffffffffff\n      and\n      swap1\n      0x20\n      add\n      swap1\n      swap2\n      swap1\n      dup1\n      calldataload\n      swap1\n      0x20\n      add\n      swap1\n      swap2\n      swap1\n      pop\n      pop\n      jump(tag_18)\n    tag_17:\n      stop\n        /* \"contracts/vault/Vault.sol\":3140:3303  function acceptOwnership() public {... */\n    tag_4:\n      jumpi(tag_19, iszero(callvalue))\n      0x0\n      dup1\n      revert\n    tag_19:\n      tag_20\n      jump(tag_21)\n    tag_20:\n      stop\n        /* \"contracts/vault/Vault.sol\":953:982  GuardRegistry public registry */\n    tag_5:\n      jumpi(tag_22, iszero(callvalue))\n      0x0\n      dup1\n      revert\n    tag_22:\n      tag_23\n      jump(tag_24)\n    tag_23:\n      mload(0x40)\n      dup1\n      dup3\n      0xffffffffffffffffffffffffffffffffffffffff\n      and\n      0xffffffffffffffffffffffffffffffffffffffff\n      and\n      dup2\n      mstore\n      0x20\n      add\n      swap2\n      pop\n      pop\n      mload(0x40)\n      dup1\n      swap2\n      sub\n      swap1\n      return\n        /* \"contracts/vault/Vault.sol\":993:1011  Guard public guard */\n    tag_6:\n      jumpi(tag_25, iszero(callvalue))\n      0x0\n      dup1\n      revert\n    tag_25:\n      tag_26\n      jump(tag_27)\n    tag_26:\n      mload(0x40)\n      dup1\n      dup3\n      0xffffffffffffffffffffffffffffffffffffffff\n      and\n      0xffffffffffffffffffffffffffffffffffffffff\n      and\n      dup2\n      mstore\n      0x20\n      add\n      swap2\n      pop\n      pop\n      mload(0x40)\n      dup1\n      swap2\n      sub\n      swap1\n      return\n        /* \"contracts/vault/Vault.sol\":889:909  address public owner */\n    tag_7:\n      jumpi(tag_28, iszero(callvalue))\n      0x0\n      dup1\n      revert\n    tag_28:\n      tag_29\n      jump(tag_30)\n    tag_29:\n      mload(0x40)\n      dup1\n      dup3\n      0xffffffffffffffffffffffffffffffffffffffff\n      and\n      0xffffffffffffffffffffffffffffffffffffffff\n      and\n      dup2\n      mstore\n      0x20\n      add\n      swap2\n      pop\n      pop\n      mload(0x40)\n      dup1\n      swap2\n      sub\n      swap1\n      return\n        /* \"contracts/vault/Vault.sol\":1022:1082  mapping(address => mapping(address => uint)) public balances */\n    tag_8:\n      jumpi(tag_31, iszero(callvalue))\n      0x0\n      dup1\n      revert\n    tag_31:\n      tag_32\n      0x4\n      dup1\n      dup1\n      calldataload\n      0xffffffffffffffffffffffffffffffffffffffff\n      and\n      swap1\n      0x20\n      add\n      swap1\n      swap2\n      swap1\n      dup1\n      calldataload\n      0xffffffffffffffffffffffffffffffffffffffff\n      and\n      swap1\n      0x20\n      add\n      swap1\n      swap2\n      swap1\n      pop\n      pop\n      jump(tag_33)\n    tag_32:\n      mload(0x40)\n      dup1\n      dup3\n      dup2\n      mstore\n      0x20\n      add\n      swap2\n      pop\n      pop\n      mload(0x40)\n      dup1\n      swap2\n      sub\n      swap1\n      return\n        /* \"contracts/vault/Vault.sol\":2729:2901  function emergencyCall(address target, bytes memory data) public {... */\n    tag_9:\n      jumpi(tag_34, iszero(callvalue))\n      0x0\n      dup1\n      revert\n    tag_34:\n      tag_35\n      0x4\n      dup1\n      dup1\n      calldataload\n      0xffffffffffffffffffffffffffffffffffffffff\n      and\n      swap1\n      0x20\n      add\n      swap1\n      swap2\n      swap1\n      dup1\n      calldataload\n      swap1\n      0x20\n      add\n      swap1\n      dup3\n      add\n      dup1\n      calldataload\n      swap1\n      0x20\n      add\n      swap1\n      dup1\n      dup1\n      0x1f\n      add\n      0x20\n      dup1\n      swap2\n      div\n      mul\n      0x20\n      add\n      mload(0x40)\n      swap1\n      dup2\n      add\n      0x40\n      mstore\n      dup1\n      swap4\n      swap3\n      swap2\n      swap1\n      dup2\n      dup2\n      mstore\n      0x20\n      add\n      dup4\n      dup4\n      dup1\n      dup3\n      dup5\n      calldatacopy\n      dup3\n      add\n      swap2\n      pop\n      pop\n      pop\n      pop\n      pop\n      pop\n      swap2\n      swap1\n      pop\n      pop\n      jump(tag_36)\n    tag_35:\n      stop\n        /* \"contracts/vault/Vault.sol\":915:942  address public pendingOwner */\n    tag_10:\n      jumpi(tag_37, iszero(callvalue))\n      0x0\n      dup1\n      revert\n    tag_37:\n      tag_38\n      jump(tag_39)\n    tag_38:\n      mload(0x40)\n      dup1\n      dup3\n      0xffffffffffffffffffffffffffffffffffffffff\n      and\n      0xffffffffffffffffffffffffffffffffffffffff\n      and\n      dup2\n      mstore\n      0x20\n      add\n      swap2\n      pop\n      pop\n      mload(0x40)\n      dup1\n      swap2\n      sub\n      swap1\n      return\n        /* \"contracts/vault/Vault.sol\":2954:3093  function transferOwnership(address newOwner) public {... */\n    tag_11:\n      jumpi(tag_40, iszero(callvalue))\n      0x0\n      dup1\n      revert\n    tag_40:\n      tag_41\n      0x4\n      dup1\n      dup1\n      calldataload\n      0xffffffffffffffffffffffffffffffffffffffff\n      and\n      swap1\n      0x20\n      add\n      swap1\n      swap2\n      swap1\n      pop\n      pop\n      jump(tag_42)\n    tag_41:\n      stop\n        /* \"contracts/vault/Vault.sol\":2412:2692  function withdraw(ERC20Like tok, uint amnt) public {... */\n    tag_12:\n      jumpi(tag_43, iszero(callvalue))\n      0x0\n      dup1\n      revert\n    tag_43:\n      tag_44\n      0x4\n      dup1\n      dup1\n      calldataload\n      0xffffffffffffffffffffffffffffffffffffffff\n      and\n      swap1\n      0x20\n      add\n      swap1\n      swap2\n      swap1\n      dup1\n      calldataload\n      swap1\n      0x20\n      add\n      swap1\n      swap2\n      swap1\n      pop\n      pop\n      jump(tag_45)\n    tag_44:\n      stop\n        /* \"contracts/vault/Vault.sol\":1958:2111  function updateGuard(bytes32 impl) public returns (Guard) {... */\n    tag_15:\n        /* \"contracts/vault/Vault.sol\":2009:2014  Guard */\n      0x0\n        /* \"contracts/vault/Vault.sol\":2034:2060  checkAccess(\"updateGuard\") */\n      tag_47\n      0x40\n      dup1\n      mload\n      swap1\n      dup2\n      add\n      0x40\n      mstore\n      dup1\n      0xb\n      dup2\n      mstore\n      0x20\n      add\n      0x7570646174654775617264000000000000000000000000000000000000000000\n      dup2\n      mstore\n      pop\n        /* \"contracts/vault/Vault.sol\":2034:2045  checkAccess */\n      tag_48\n        /* \"contracts/vault/Vault.sol\":2034:2060  checkAccess(\"updateGuard\") */\n      jump\t// in\n    tag_47:\n        /* \"contracts/vault/Vault.sol\":2026:2061  require(checkAccess(\"updateGuard\")) */\n      iszero\n      iszero\n      tag_49\n      jumpi\n      0x0\n      dup1\n      revert\n    tag_49:\n        /* \"contracts/vault/Vault.sol\":2087:2104  createGuard(impl) */\n      tag_50\n        /* \"contracts/vault/Vault.sol\":2099:2103  impl */\n      dup3\n        /* \"contracts/vault/Vault.sol\":2087:2098  createGuard */\n      tag_51\n        /* \"contracts/vault/Vault.sol\":2087:2104  createGuard(impl) */\n      jump\t// in\n    tag_50:\n        /* \"contracts/vault/Vault.sol\":2080:2104  return createGuard(impl) */\n      swap1\n      pop\n        /* \"contracts/vault/Vault.sol\":1958:2111  function updateGuard(bytes32 impl) public returns (Guard) {... */\n    tag_46:\n      swap2\n      swap1\n      pop\n      jump\t// out\n        /* \"contracts/vault/Vault.sol\":2143:2379  function deposit(ERC20Like tok, uint amnt) public {... */\n    tag_18:\n        /* \"contracts/vault/Vault.sol\":2211:2233  checkAccess(\"deposit\") */\n      tag_53\n      0x40\n      dup1\n      mload\n      swap1\n      dup2\n      add\n      0x40\n      mstore\n      dup1\n      0x7\n      dup2\n      mstore\n      0x20\n      add\n      0x6465706f73697400000000000000000000000000000000000000000000000000\n      dup2\n      mstore\n      pop\n        /* \"contracts/vault/Vault.sol\":2211:2222  checkAccess */\n      tag_48\n        /* \"contracts/vault/Vault.sol\":2211:2233  checkAccess(\"deposit\") */\n      jump\t// in\n    tag_53:\n        /* \"contracts/vault/Vault.sol\":2203:2234  require(checkAccess(\"deposit\")) */\n      iszero\n      iszero\n      tag_54\n      jumpi\n      0x0\n      dup1\n      revert\n    tag_54:\n        /* \"contracts/vault/Vault.sol\":2261:2264  tok */\n      dup2\n        /* \"contracts/vault/Vault.sol\":2261:2277  tok.transferFrom */\n      0xffffffffffffffffffffffffffffffffffffffff\n      and\n      0x23b872dd\n        /* \"contracts/vault/Vault.sol\":2278:2288  msg.sender */\n      caller\n        /* \"contracts/vault/Vault.sol\":2298:2302  this */\n      address\n        /* \"contracts/vault/Vault.sol\":2305:2309  amnt */\n      dup5\n        /* \"contracts/vault/Vault.sol\":2261:2310  tok.transferFrom(msg.sender, address(this), amnt) */\n      mstore(add(0x20, mload(0x40)), 0x0)\n      mload(0x40)\n      dup5\n      0xffffffff\n      and\n      0x100000000000000000000000000000000000000000000000000000000\n      mul\n      dup2\n      mstore\n      0x4\n      add\n      dup1\n      dup5\n      0xffffffffffffffffffffffffffffffffffffffff\n      and\n      0xffffffffffffffffffffffffffffffffffffffff\n      and\n      dup2\n      mstore\n      0x20\n      add\n      dup4\n      0xffffffffffffffffffffffffffffffffffffffff\n      and\n      0xffffffffffffffffffffffffffffffffffffffff\n      and\n      dup2\n      mstore\n      0x20\n      add\n      dup3\n      dup2\n      mstore\n      0x20\n      add\n      swap4\n      pop\n      pop\n      pop\n      pop\n      0x20\n      mload(0x40)\n      dup1\n      dup4\n      sub\n      dup2\n      0x0\n      dup8\n      dup1\n      extcodesize\n      iszero\n      iszero\n      tag_55\n      jumpi\n      0x0\n      dup1\n      revert\n    tag_55:\n      sub(gas, 0x2c6)\n      call\n      iszero\n      iszero\n      tag_56\n      jumpi\n      0x0\n      dup1\n      revert\n    tag_56:\n      pop\n      pop\n      pop\n      mload(0x40)\n      dup1\n      mload\n      swap1\n      pop\n        /* \"contracts/vault/Vault.sol\":2253:2311  require(tok.transferFrom(msg.sender, address(this), amnt)) */\n      iszero\n      iszero\n      tag_57\n      jumpi\n      0x0\n      dup1\n      revert\n    tag_57:\n        /* \"contracts/vault/Vault.sol\":2368:2372  amnt */\n      dup1\n        /* \"contracts/vault/Vault.sol\":2330:2338  balances */\n      0x4\n        /* \"contracts/vault/Vault.sol\":2330:2350  balances[msg.sender] */\n      0x0\n        /* \"contracts/vault/Vault.sol\":2339:2349  msg.sender */\n      caller\n        /* \"contracts/vault/Vault.sol\":2330:2350  balances[msg.sender] */\n      0xffffffffffffffffffffffffffffffffffffffff\n      and\n      0xffffffffffffffffffffffffffffffffffffffff\n      and\n      dup2\n      mstore\n      0x20\n      add\n      swap1\n      dup2\n      mstore\n      0x20\n      add\n      0x0\n      keccak256\n        /* \"contracts/vault/Vault.sol\":2330:2364  balances[msg.sender][address(tok)] */\n      0x0\n        /* \"contracts/vault/Vault.sol\":2359:2362  tok */\n      dup5\n        /* \"contracts/vault/Vault.sol\":2330:2364  balances[msg.sender][address(tok)] */\n      0xffffffffffffffffffffffffffffffffffffffff\n      and\n      0xffffffffffffffffffffffffffffffffffffffff\n      and\n      dup2\n      mstore\n      0x20\n      add\n      swap1\n      dup2\n      mstore\n      0x20\n      add\n      0x0\n      keccak256\n      0x0\n        /* \"contracts/vault/Vault.sol\":2330:2372  balances[msg.sender][address(tok)] += amnt */\n      dup3\n      dup3\n      sload\n      add\n      swap3\n      pop\n      pop\n      dup2\n      swap1\n      sstore\n      pop\n        /* \"contracts/vault/Vault.sol\":2143:2379  function deposit(ERC20Like tok, uint amnt) public {... */\n    tag_52:\n      pop\n      pop\n      jump\t// out\n        /* \"contracts/vault/Vault.sol\":3140:3303  function acceptOwnership() public {... */\n    tag_21:\n        /* \"contracts/vault/Vault.sol\":3206:3218  pendingOwner */\n      0x1\n      0x0\n      swap1\n      sload\n      swap1\n      0x100\n      exp\n      swap1\n      div\n      0xffffffffffffffffffffffffffffffffffffffff\n      and\n        /* \"contracts/vault/Vault.sol\":3192:3218  msg.sender == pendingOwner */\n      0xffffffffffffffffffffffffffffffffffffffff\n      and\n        /* \"contracts/vault/Vault.sol\":3192:3202  msg.sender */\n      caller\n        /* \"contracts/vault/Vault.sol\":3192:3218  msg.sender == pendingOwner */\n      0xffffffffffffffffffffffffffffffffffffffff\n      and\n      eq\n        /* \"contracts/vault/Vault.sol\":3184:3219  require(msg.sender == pendingOwner) */\n      iszero\n      iszero\n      tag_59\n      jumpi\n      0x0\n      dup1\n      revert\n    tag_59:\n        /* \"contracts/vault/Vault.sol\":3246:3258  pendingOwner */\n      0x1\n      0x0\n      swap1\n      sload\n      swap1\n      0x100\n      exp\n      swap1\n      div\n      0xffffffffffffffffffffffffffffffffffffffff\n      and\n        /* \"contracts/vault/Vault.sol\":3238:3243  owner */\n      0x0\n      dup1\n        /* \"contracts/vault/Vault.sol\":3238:3258  owner = pendingOwner */\n      0x100\n      exp\n      dup2\n      sload\n      dup2\n      0xffffffffffffffffffffffffffffffffffffffff\n      mul\n      not\n      and\n      swap1\n      dup4\n      0xffffffffffffffffffffffffffffffffffffffff\n      and\n      mul\n      or\n      swap1\n      sstore\n      pop\n        /* \"contracts/vault/Vault.sol\":3291:3295  0x00 */\n      0x0\n        /* \"contracts/vault/Vault.sol\":3268:3280  pendingOwner */\n      0x1\n      0x0\n        /* \"contracts/vault/Vault.sol\":3268:3296  pendingOwner = address(0x00) */\n      0x100\n      exp\n      dup2\n      sload\n      dup2\n      0xffffffffffffffffffffffffffffffffffffffff\n      mul\n      not\n      and\n      swap1\n      dup4\n      0xffffffffffffffffffffffffffffffffffffffff\n      and\n      mul\n      or\n      swap1\n      sstore\n      pop\n        /* \"contracts/vault/Vault.sol\":3140:3303  function acceptOwnership() public {... */\n    tag_58:\n      jump\t// out\n        /* \"contracts/vault/Vault.sol\":953:982  GuardRegistry public registry */\n    tag_24:\n      0x2\n      0x0\n      swap1\n      sload\n      swap1\n      0x100\n      exp\n      swap1\n      div\n      0xffffffffffffffffffffffffffffffffffffffff\n      and\n      dup2\n      jump\t// out\n        /* \"contracts/vault/Vault.sol\":993:1011  Guard public guard */\n    tag_27:\n      0x3\n      0x0\n      swap1\n      sload\n      swap1\n      0x100\n      exp\n      swap1\n      div\n      0xffffffffffffffffffffffffffffffffffffffff\n      and\n      dup2\n      jump\t// out\n        /* \"contracts/vault/Vault.sol\":889:909  address public owner */\n    tag_30:\n      0x0\n      dup1\n      swap1\n      sload\n      swap1\n      0x100\n      exp\n      swap1\n      div\n      0xffffffffffffffffffffffffffffffffffffffff\n      and\n      dup2\n      jump\t// out\n        /* \"contracts/vault/Vault.sol\":1022:1082  mapping(address => mapping(address => uint)) public balances */\n    tag_33:\n      mstore(0x20, 0x4)\n      dup2\n      0x0\n      mstore\n      mstore(0x20, keccak256(0x0, 0x40))\n      dup1\n      0x0\n      mstore\n      keccak256(0x0, 0x40)\n      0x0\n      swap2\n      pop\n      swap2\n      pop\n      pop\n      sload\n      dup2\n      jump\t// out\n        /* \"contracts/vault/Vault.sol\":2729:2901  function emergencyCall(address target, bytes memory data) public {... */\n    tag_36:\n        /* \"contracts/vault/Vault.sol\":2812:2840  checkAccess(\"emergencyCall\") */\n      tag_61\n      0x40\n      dup1\n      mload\n      swap1\n      dup2\n      add\n      0x40\n      mstore\n      dup1\n      0xd\n      dup2\n      mstore\n      0x20\n      add\n      0x656d657267656e637943616c6c00000000000000000000000000000000000000\n      dup2\n      mstore\n      pop\n        /* \"contracts/vault/Vault.sol\":2812:2823  checkAccess */\n      tag_48\n        /* \"contracts/vault/Vault.sol\":2812:2840  checkAccess(\"emergencyCall\") */\n      jump\t// in\n    tag_61:\n        /* \"contracts/vault/Vault.sol\":2804:2841  require(checkAccess(\"emergencyCall\")) */\n      iszero\n      iszero\n      tag_62\n      jumpi\n      0x0\n      dup1\n      revert\n    tag_62:\n        /* \"contracts/vault/Vault.sol\":2868:2874  target */\n      dup2\n        /* \"contracts/vault/Vault.sol\":2868:2887  target.delegatecall */\n      0xffffffffffffffffffffffffffffffffffffffff\n      and\n        /* \"contracts/vault/Vault.sol\":2888:2892  data */\n      dup2\n        /* \"contracts/vault/Vault.sol\":2868:2893  target.delegatecall(data) */\n      mload(0x40)\n      dup1\n      dup3\n      dup1\n      mload\n      swap1\n      0x20\n      add\n      swap1\n      dup1\n      dup4\n      dup4\n        /* \"--CODEGEN--\":23:24   */\n      0x0\n        /* \"--CODEGEN--\":8:108   */\n    tag_63:\n        /* \"--CODEGEN--\":33:36   */\n      dup4\n        /* \"--CODEGEN--\":30:31   */\n      dup2\n        /* \"--CODEGEN--\":27:29   */\n      lt\n        /* \"--CODEGEN--\":8:108   */\n      iszero\n      tag_64\n      jumpi\n        /* \"--CODEGEN--\":99:100   */\n      dup1\n        /* \"--CODEGEN--\":94:97   */\n      dup3\n        /* \"--CODEGEN--\":90:93   */\n      add\n        /* \"--CODEGEN--\":84:89   */\n      mload\n        /* \"--CODEGEN--\":80:81   */\n      dup2\n        /* \"--CODEGEN--\":75:78   */\n      dup5\n        /* \"--CODEGEN--\":71:74   */\n      add\n        /* \"--CODEGEN--\":64:70   */\n      mstore\n        /* \"--CODEGEN--\":8:108   */\n    tag_65:\n        /* \"--CODEGEN--\":52:54   */\n      0x20\n        /* \"--CODEGEN--\":49:50   */\n      dup2\n        /* \"--CODEGEN--\":45:48   */\n      add\n        /* \"--CODEGEN--\":40:55   */\n      swap1\n      pop\n        /* \"--CODEGEN--\":8:108   */\n      jump(tag_63)\n    tag_64:\n        /* \"--CODEGEN--\":12:26   */\n      pop\n        /* \"--CODEGEN--\":3:112   */\n      pop\n      pop\n      pop\n      swap1\n      pop\n      swap1\n      dup2\n      add\n      swap1\n      0x1f\n      and\n      dup1\n      iszero\n      tag_66\n      jumpi\n      dup1\n      dup3\n      sub\n      dup1\n      mload\n      0x1\n      dup4\n      0x20\n      sub\n      0x100\n      exp\n      sub\n      not\n      and\n      dup2\n      mstore\n      0x20\n      add\n      swap2\n      pop\n    tag_66:\n      pop\n      swap2\n      pop\n      pop\n      0x0\n      mload(0x40)\n      dup1\n      dup4\n      sub\n      dup2\n      dup6\n      sub(gas, 0x646e)\n      delegatecall\n      swap2\n      pop\n      pop\n        /* \"contracts/vault/Vault.sol\":2860:2894  require(target.delegatecall(data)) */\n      iszero\n      iszero\n      tag_67\n      jumpi\n      0x0\n      dup1\n      revert\n    tag_67:\n        /* \"contracts/vault/Vault.sol\":2729:2901  function emergencyCall(address target, bytes memory data) public {... */\n    tag_60:\n      pop\n      pop\n      jump\t// out\n        /* \"contracts/vault/Vault.sol\":915:942  address public pendingOwner */\n    tag_39:\n      0x1\n      0x0\n      swap1\n      sload\n      swap1\n      0x100\n      exp\n      swap1\n      div\n      0xffffffffffffffffffffffffffffffffffffffff\n      and\n      dup2\n      jump\t// out\n        /* \"contracts/vault/Vault.sol\":2954:3093  function transferOwnership(address newOwner) public {... */\n    tag_42:\n        /* \"contracts/vault/Vault.sol\":3038:3043  owner */\n      0x0\n      dup1\n      swap1\n      sload\n      swap1\n      0x100\n      exp\n      swap1\n      div\n      0xffffffffffffffffffffffffffffffffffffffff\n      and\n        /* \"contracts/vault/Vault.sol\":3024:3043  msg.sender == owner */\n      0xffffffffffffffffffffffffffffffffffffffff\n      and\n        /* \"contracts/vault/Vault.sol\":3024:3034  msg.sender */\n      caller\n        /* \"contracts/vault/Vault.sol\":3024:3043  msg.sender == owner */\n      0xffffffffffffffffffffffffffffffffffffffff\n      and\n      eq\n        /* \"contracts/vault/Vault.sol\":3016:3044  require(msg.sender == owner) */\n      iszero\n      iszero\n      tag_69\n      jumpi\n      0x0\n      dup1\n      revert\n    tag_69:\n        /* \"contracts/vault/Vault.sol\":3078:3086  newOwner */\n      dup1\n        /* \"contracts/vault/Vault.sol\":3063:3075  pendingOwner */\n      0x1\n      0x0\n        /* \"contracts/vault/Vault.sol\":3063:3086  pendingOwner = newOwner */\n      0x100\n      exp\n      dup2\n      sload\n      dup2\n      0xffffffffffffffffffffffffffffffffffffffff\n      mul\n      not\n      and\n      swap1\n      dup4\n      0xffffffffffffffffffffffffffffffffffffffff\n      and\n      mul\n      or\n      swap1\n      sstore\n      pop\n        /* \"contracts/vault/Vault.sol\":2954:3093  function transferOwnership(address newOwner) public {... */\n    tag_68:\n      pop\n      jump\t// out\n        /* \"contracts/vault/Vault.sol\":2412:2692  function withdraw(ERC20Like tok, uint amnt) public {... */\n    tag_45:\n        /* \"contracts/vault/Vault.sol\":2481:2504  checkAccess(\"withdraw\") */\n      tag_71\n      0x40\n      dup1\n      mload\n      swap1\n      dup2\n      add\n      0x40\n      mstore\n      dup1\n      0x8\n      dup2\n      mstore\n      0x20\n      add\n      0x7769746864726177000000000000000000000000000000000000000000000000\n      dup2\n      mstore\n      pop\n        /* \"contracts/vault/Vault.sol\":2481:2492  checkAccess */\n      tag_48\n        /* \"contracts/vault/Vault.sol\":2481:2504  checkAccess(\"withdraw\") */\n      jump\t// in\n    tag_71:\n        /* \"contracts/vault/Vault.sol\":2473:2505  require(checkAccess(\"withdraw\")) */\n      iszero\n      iszero\n      tag_72\n      jumpi\n      0x0\n      dup1\n      revert\n    tag_72:\n        /* \"contracts/vault/Vault.sol\":2570:2574  amnt */\n      dup1\n        /* \"contracts/vault/Vault.sol\":2532:2540  balances */\n      0x4\n        /* \"contracts/vault/Vault.sol\":2532:2552  balances[msg.sender] */\n      0x0\n        /* \"contracts/vault/Vault.sol\":2541:2551  msg.sender */\n      caller\n        /* \"contracts/vault/Vault.sol\":2532:2552  balances[msg.sender] */\n      0xffffffffffffffffffffffffffffffffffffffff\n      and\n      0xffffffffffffffffffffffffffffffffffffffff\n      and\n      dup2\n      mstore\n      0x20\n      add\n      swap1\n      dup2\n      mstore\n      0x20\n      add\n      0x0\n      keccak256\n        /* \"contracts/vault/Vault.sol\":2532:2566  balances[msg.sender][address(tok)] */\n      0x0\n        /* \"contracts/vault/Vault.sol\":2561:2564  tok */\n      dup5\n        /* \"contracts/vault/Vault.sol\":2532:2566  balances[msg.sender][address(tok)] */\n      0xffffffffffffffffffffffffffffffffffffffff\n      and\n      0xffffffffffffffffffffffffffffffffffffffff\n      and\n      dup2\n      mstore\n      0x20\n      add\n      swap1\n      dup2\n      mstore\n      0x20\n      add\n      0x0\n      keccak256\n      sload\n        /* \"contracts/vault/Vault.sol\":2532:2574  balances[msg.sender][address(tok)] >= amnt */\n      lt\n      iszero\n        /* \"contracts/vault/Vault.sol\":2524:2575  require(balances[msg.sender][address(tok)] >= amnt) */\n      iszero\n      iszero\n      tag_73\n      jumpi\n      0x0\n      dup1\n      revert\n    tag_73:\n        /* \"contracts/vault/Vault.sol\":2594:2597  tok */\n      dup2\n        /* \"contracts/vault/Vault.sol\":2594:2606  tok.transfer */\n      0xffffffffffffffffffffffffffffffffffffffff\n      and\n      0xa9059cbb\n        /* \"contracts/vault/Vault.sol\":2607:2617  msg.sender */\n      caller\n        /* \"contracts/vault/Vault.sol\":2619:2623  amnt */\n      dup4\n        /* \"contracts/vault/Vault.sol\":2594:2624  tok.transfer(msg.sender, amnt) */\n      mstore(add(0x20, mload(0x40)), 0x0)\n      mload(0x40)\n      dup4\n      0xffffffff\n      and\n      0x100000000000000000000000000000000000000000000000000000000\n      mul\n      dup2\n      mstore\n      0x4\n      add\n      dup1\n      dup4\n      0xffffffffffffffffffffffffffffffffffffffff\n      and\n      0xffffffffffffffffffffffffffffffffffffffff\n      and\n      dup2\n      mstore\n      0x20\n      add\n      dup3\n      dup2\n      mstore\n      0x20\n      add\n      swap3\n      pop\n      pop\n      pop\n      0x20\n      mload(0x40)\n      dup1\n      dup4\n      sub\n      dup2\n      0x0\n      dup8\n      dup1\n      extcodesize\n      iszero\n      iszero\n      tag_74\n      jumpi\n      0x0\n      dup1\n      revert\n    tag_74:\n      sub(gas, 0x2c6)\n      call\n      iszero\n      iszero\n      tag_75\n      jumpi\n      0x0\n      dup1\n      revert\n    tag_75:\n      pop\n      pop\n      pop\n      mload(0x40)\n      dup1\n      mload\n      swap1\n      pop\n      pop\n        /* \"contracts/vault/Vault.sol\":2681:2685  amnt */\n      dup1\n        /* \"contracts/vault/Vault.sol\":2643:2651  balances */\n      0x4\n        /* \"contracts/vault/Vault.sol\":2643:2663  balances[msg.sender] */\n      0x0\n        /* \"contracts/vault/Vault.sol\":2652:2662  msg.sender */\n      caller\n        /* \"contracts/vault/Vault.sol\":2643:2663  balances[msg.sender] */\n      0xffffffffffffffffffffffffffffffffffffffff\n      and\n      0xffffffffffffffffffffffffffffffffffffffff\n      and\n      dup2\n      mstore\n      0x20\n      add\n      swap1\n      dup2\n      mstore\n      0x20\n      add\n      0x0\n      keccak256\n        /* \"contracts/vault/Vault.sol\":2643:2677  balances[msg.sender][address(tok)] */\n      0x0\n        /* \"contracts/vault/Vault.sol\":2672:2675  tok */\n      dup5\n        /* \"contracts/vault/Vault.sol\":2643:2677  balances[msg.sender][address(tok)] */\n      0xffffffffffffffffffffffffffffffffffffffff\n      and\n      0xffffffffffffffffffffffffffffffffffffffff\n      and\n      dup2\n      mstore\n      0x20\n      add\n      swap1\n      dup2\n      mstore\n      0x20\n      add\n      0x0\n      keccak256\n      0x0\n        /* \"contracts/vault/Vault.sol\":2643:2685  balances[msg.sender][address(tok)] -= amnt */\n      dup3\n      dup3\n      sload\n      sub\n      swap3\n      pop\n      pop\n      dup2\n      swap1\n      sstore\n      pop\n        /* \"contracts/vault/Vault.sol\":2412:2692  function withdraw(ERC20Like tok, uint amnt) public {... */\n    tag_70:\n      pop\n      pop\n      jump\t// out\n        /* \"contracts/vault/Vault.sol\":1723:1909  function checkAccess(string memory op) private returns (bool) {... */\n    tag_48:\n        /* \"contracts/vault/Vault.sol\":1779:1783  bool */\n      0x0\n        /* \"contracts/vault/Vault.sol\":1795:1806  uint8 error */\n      dup1\n        /* \"contracts/vault/Vault.sol\":1828:1833  guard */\n      0x3\n      0x0\n      swap1\n      sload\n      swap1\n      0x100\n      exp\n      swap1\n      div\n      0xffffffffffffffffffffffffffffffffffffffff\n      and\n        /* \"contracts/vault/Vault.sol\":1828:1843  guard.isAllowed */\n      0xffffffffffffffffffffffffffffffffffffffff\n      and\n      0xb9460632\n        /* \"contracts/vault/Vault.sol\":1844:1854  msg.sender */\n      caller\n        /* \"contracts/vault/Vault.sol\":1856:1858  op */\n      dup6\n        /* \"contracts/vault/Vault.sol\":1828:1859  guard.isAllowed(msg.sender, op) */\n      mstore(add(0x40, mload(0x40)), 0x0)\n      mload(0x40)\n      dup4\n      0xffffffff\n      and\n      0x100000000000000000000000000000000000000000000000000000000\n      mul\n      dup2\n      mstore\n      0x4\n      add\n      dup1\n      dup4\n      0xffffffffffffffffffffffffffffffffffffffff\n      and\n      0xffffffffffffffffffffffffffffffffffffffff\n      and\n      dup2\n      mstore\n      0x20\n      add\n      dup1\n      0x20\n      add\n      dup3\n      dup2\n      sub\n      dup3\n      mstore\n      dup4\n      dup2\n      dup2\n      mload\n      dup2\n      mstore\n      0x20\n      add\n      swap2\n      pop\n      dup1\n      mload\n      swap1\n      0x20\n      add\n      swap1\n      dup1\n      dup4\n      dup4\n        /* \"--CODEGEN--\":23:24   */\n      0x0\n        /* \"--CODEGEN--\":8:108   */\n    tag_77:\n        /* \"--CODEGEN--\":33:36   */\n      dup4\n        /* \"--CODEGEN--\":30:31   */\n      dup2\n        /* \"--CODEGEN--\":27:29   */\n      lt\n        /* \"--CODEGEN--\":8:108   */\n      iszero\n      tag_78\n      jumpi\n        /* \"--CODEGEN--\":99:100   */\n      dup1\n        /* \"--CODEGEN--\":94:97   */\n      dup3\n        /* \"--CODEGEN--\":90:93   */\n      add\n        /* \"--CODEGEN--\":84:89   */\n      mload\n        /* \"--CODEGEN--\":80:81   */\n      dup2\n        /* \"--CODEGEN--\":75:78   */\n      dup5\n        /* \"--CODEGEN--\":71:74   */\n      add\n        /* \"--CODEGEN--\":64:70   */\n      mstore\n        /* \"--CODEGEN--\":8:108   */\n    tag_79:\n        /* \"--CODEGEN--\":52:54   */\n      0x20\n        /* \"--CODEGEN--\":49:50   */\n      dup2\n        /* \"--CODEGEN--\":45:48   */\n      add\n        /* \"--CODEGEN--\":40:55   */\n      swap1\n      pop\n        /* \"--CODEGEN--\":8:108   */\n      jump(tag_77)\n    tag_78:\n        /* \"--CODEGEN--\":12:26   */\n      pop\n        /* \"--CODEGEN--\":3:112   */\n      pop\n      pop\n      pop\n      swap1\n      pop\n      swap1\n      dup2\n      add\n      swap1\n      0x1f\n      and\n      dup1\n      iszero\n      tag_80\n      jumpi\n      dup1\n      dup3\n      sub\n      dup1\n      mload\n      0x1\n      dup4\n      0x20\n      sub\n      0x100\n      exp\n      sub\n      not\n      and\n      dup2\n      mstore\n      0x20\n      add\n      swap2\n      pop\n    tag_80:\n      pop\n      swap4\n      pop\n      pop\n      pop\n      pop\n      0x40\n      dup1\n      mload\n      dup1\n      dup4\n      sub\n      dup2\n      0x0\n      dup8\n      dup1\n      extcodesize\n      iszero\n      iszero\n      tag_81\n      jumpi\n      0x0\n      dup1\n      revert\n    tag_81:\n      sub(gas, 0x2c6)\n      call\n      iszero\n      iszero\n      tag_82\n      jumpi\n      0x0\n      dup1\n      revert\n    tag_82:\n      pop\n      pop\n      pop\n      mload(0x40)\n      dup1\n      mload\n      swap1\n      0x20\n      add\n      dup1\n      mload\n      swap1\n      pop\n        /* \"contracts/vault/Vault.sol\":1816:1859  (error, ) = guard.isAllowed(msg.sender, op) */\n      pop\n      dup1\n      swap2\n      pop\n      pop\n        /* \"contracts/vault/GuardConstants.sol\":90:91  0 */\n      0x0\n        /* \"contracts/vault/Vault.sol\":1885:1902  error == NO_ERROR */\n      0xff\n      and\n        /* \"contracts/vault/Vault.sol\":1885:1890  error */\n      dup2\n        /* \"contracts/vault/Vault.sol\":1885:1902  error == NO_ERROR */\n      0xff\n      and\n      eq\n        /* \"contracts/vault/Vault.sol\":1878:1902  return error == NO_ERROR */\n      swap2\n      pop\n        /* \"contracts/vault/Vault.sol\":1723:1909  function checkAccess(string memory op) private returns (bool) {... */\n    tag_76:\n      pop\n      swap2\n      swap1\n      pop\n      jump\t// out\n        /* \"contracts/vault/Vault.sol\":1312:1693  function createGuard(bytes32 implementation) private returns (Guard) {... */\n    tag_51:\n        /* \"contracts/vault/Vault.sol\":1374:1379  Guard */\n      0x0\n        /* \"contracts/vault/Vault.sol\":1391:1403  address impl */\n      dup1\n        /* \"contracts/vault/Vault.sol\":1406:1414  registry */\n      0x2\n      0x0\n      swap1\n      sload\n      swap1\n      0x100\n      exp\n      swap1\n      div\n      0xffffffffffffffffffffffffffffffffffffffff\n      and\n        /* \"contracts/vault/Vault.sol\":1406:1430  registry.implementations */\n      0xffffffffffffffffffffffffffffffffffffffff\n      and\n      0x2cfeaca\n        /* \"contracts/vault/Vault.sol\":1431:1445  implementation */\n      dup5\n        /* \"contracts/vault/Vault.sol\":1406:1446  registry.implementations(implementation) */\n      mstore(add(0x20, mload(0x40)), 0x0)\n      mload(0x40)\n      dup3\n      0xffffffff\n      and\n      0x100000000000000000000000000000000000000000000000000000000\n      mul\n      dup2\n      mstore\n      0x4\n      add\n      dup1\n      dup3\n      not(0x0)\n      and\n      not(0x0)\n      and\n      dup2\n      mstore\n      0x20\n      add\n      swap2\n      pop\n      pop\n      0x20\n      mload(0x40)\n      dup1\n      dup4\n      sub\n      dup2\n      0x0\n      dup8\n      dup1\n      extcodesize\n      iszero\n      iszero\n      tag_84\n      jumpi\n      0x0\n      dup1\n      revert\n    tag_84:\n      sub(gas, 0x2c6)\n      call\n      iszero\n      iszero\n      tag_85\n      jumpi\n      0x0\n      dup1\n      revert\n    tag_85:\n      pop\n      pop\n      pop\n      mload(0x40)\n      dup1\n      mload\n      swap1\n      pop\n        /* \"contracts/vault/Vault.sol\":1391:1446  address impl = registry.implementations(implementation) */\n      swap1\n      pop\n        /* \"contracts/vault/Vault.sol\":1480:1484  0x00 */\n      0x0\n        /* \"contracts/vault/Vault.sol\":1464:1485  impl != address(0x00) */\n      0xffffffffffffffffffffffffffffffffffffffff\n      and\n        /* \"contracts/vault/Vault.sol\":1464:1468  impl */\n      dup2\n        /* \"contracts/vault/Vault.sol\":1464:1485  impl != address(0x00) */\n      0xffffffffffffffffffffffffffffffffffffffff\n      and\n      eq\n      iszero\n        /* \"contracts/vault/Vault.sol\":1456:1486  require(impl != address(0x00)) */\n      iszero\n      iszero\n      tag_86\n      jumpi\n      0x0\n      dup1\n      revert\n    tag_86:\n        /* \"contracts/vault/Vault.sol\":1535:1539  0x00 */\n      0x0\n        /* \"contracts/vault/Vault.sol\":1509:1540  address(guard) != address(0x00) */\n      0xffffffffffffffffffffffffffffffffffffffff\n      and\n        /* \"contracts/vault/Vault.sol\":1517:1522  guard */\n      0x3\n      0x0\n      swap1\n      sload\n      swap1\n      0x100\n      exp\n      swap1\n      div\n      0xffffffffffffffffffffffffffffffffffffffff\n      and\n        /* \"contracts/vault/Vault.sol\":1509:1540  address(guard) != address(0x00) */\n      0xffffffffffffffffffffffffffffffffffffffff\n      and\n      eq\n      iszero\n        /* \"contracts/vault/Vault.sol\":1505:1582  if (address(guard) != address(0x00)) {... */\n      iszero\n      tag_87\n      jumpi\n        /* \"contracts/vault/Vault.sol\":1556:1561  guard */\n      0x3\n      0x0\n      swap1\n      sload\n      swap1\n      0x100\n      exp\n      swap1\n      div\n      0xffffffffffffffffffffffffffffffffffffffff\n      and\n        /* \"contracts/vault/Vault.sol\":1556:1569  guard.cleanup */\n      0xffffffffffffffffffffffffffffffffffffffff\n      and\n      0x3cecd719\n        /* \"contracts/vault/Vault.sol\":1556:1571  guard.cleanup() */\n      mload(0x40)\n      dup2\n      0xffffffff\n      and\n      0x100000000000000000000000000000000000000000000000000000000\n      mul\n      dup2\n      mstore\n      0x4\n      add\n      0x0\n      mload(0x40)\n      dup1\n      dup4\n      sub\n      dup2\n      0x0\n      dup8\n      dup1\n      extcodesize\n      iszero\n      iszero\n      tag_88\n      jumpi\n      0x0\n      dup1\n      revert\n    tag_88:\n      sub(gas, 0x2c6)\n      call\n      iszero\n      iszero\n      tag_89\n      jumpi\n      0x0\n      dup1\n      revert\n    tag_89:\n      pop\n      pop\n      pop\n        /* \"contracts/vault/Vault.sol\":1505:1582  if (address(guard) != address(0x00)) {... */\n    tag_87:\n        /* \"contracts/vault/Vault.sol\":1614:1631  createClone(impl) */\n      tag_90\n        /* \"contracts/vault/Vault.sol\":1626:1630  impl */\n      dup2\n        /* \"contracts/vault/Vault.sol\":1614:1625  createClone */\n      tag_91\n        /* \"contracts/vault/Vault.sol\":1614:1631  createClone(impl) */\n      jump\t// in\n    tag_90:\n        /* \"contracts/vault/Vault.sol\":1600:1605  guard */\n      0x3\n      0x0\n        /* \"contracts/vault/Vault.sol\":1600:1632  guard = Guard(createClone(impl)) */\n      0x100\n      exp\n      dup2\n      sload\n      dup2\n      0xffffffffffffffffffffffffffffffffffffffff\n      mul\n      not\n      and\n      swap1\n      dup4\n      0xffffffffffffffffffffffffffffffffffffffff\n      and\n      mul\n      or\n      swap1\n      sstore\n      pop\n        /* \"contracts/vault/Vault.sol\":1642:1647  guard */\n      0x3\n      0x0\n      swap1\n      sload\n      swap1\n      0x100\n      exp\n      swap1\n      div\n      0xffffffffffffffffffffffffffffffffffffffff\n      and\n        /* \"contracts/vault/Vault.sol\":1642:1658  guard.initialize */\n      0xffffffffffffffffffffffffffffffffffffffff\n      and\n      0xc4d66de8\n        /* \"contracts/vault/Vault.sol\":1659:1663  this */\n      address\n        /* \"contracts/vault/Vault.sol\":1642:1664  guard.initialize(this) */\n      mload(0x40)\n      dup3\n      0xffffffff\n      and\n      0x100000000000000000000000000000000000000000000000000000000\n      mul\n      dup2\n      mstore\n      0x4\n      add\n      dup1\n      dup3\n      0xffffffffffffffffffffffffffffffffffffffff\n      and\n      0xffffffffffffffffffffffffffffffffffffffff\n      and\n      dup2\n      mstore\n      0x20\n      add\n      swap2\n      pop\n      pop\n      0x0\n      mload(0x40)\n      dup1\n      dup4\n      sub\n      dup2\n      0x0\n      dup8\n      dup1\n      extcodesize\n      iszero\n      iszero\n      tag_92\n      jumpi\n      0x0\n      dup1\n      revert\n    tag_92:\n      sub(gas, 0x2c6)\n      call\n      iszero\n      iszero\n      tag_93\n      jumpi\n      0x0\n      dup1\n      revert\n    tag_93:\n      pop\n      pop\n      pop\n        /* \"contracts/vault/Vault.sol\":1681:1686  guard */\n      0x3\n      0x0\n      swap1\n      sload\n      swap1\n      0x100\n      exp\n      swap1\n      div\n      0xffffffffffffffffffffffffffffffffffffffff\n      and\n        /* \"contracts/vault/Vault.sol\":1674:1686  return guard */\n      swap2\n      pop\n        /* \"contracts/vault/Vault.sol\":1312:1693  function createGuard(bytes32 implementation) private returns (Guard) {... */\n    tag_83:\n      pop\n      swap2\n      swap1\n      pop\n      jump\t// out\n        /* \"contracts/vault/Vault.sol\":345:830  function createClone(address target) internal returns (address result) {... */\n    tag_91:\n        /* \"contracts/vault/Vault.sol\":400:414  address result */\n      0x0\n        /* \"contracts/vault/Vault.sol\":426:445  bytes20 targetBytes */\n      dup1\n        /* \"contracts/vault/Vault.sol\":456:462  target */\n      dup3\n        /* \"contracts/vault/Vault.sol\":448:463  bytes20(target) */\n      0x1000000000000000000000000\n      mul\n        /* \"contracts/vault/Vault.sol\":426:463  bytes20 targetBytes = bytes20(target) */\n      swap1\n      pop\n        /* \"contracts/vault/Vault.sol\":515:519  0x40 */\n      0x40\n        /* \"contracts/vault/Vault.sol\":509:514  mload */\n      mload\n        /* \"contracts/vault/Vault.sol\":547:613  0x3d602d80600a3d3981f3363d3d373d3d3d363d73000000000000000000000000 */\n      0x3d602d80600a3d3981f3363d3d373d3d3d363d73000000000000000000000000\n        /* \"contracts/vault/Vault.sol\":540:545  clone */\n      dup2\n        /* \"contracts/vault/Vault.sol\":533:539  mstore */\n      mstore\n        /* \"contracts/vault/Vault.sol\":652:663  targetBytes */\n      dup2\n        /* \"contracts/vault/Vault.sol\":645:649  0x14 */\n      0x14\n        /* \"contracts/vault/Vault.sol\":638:643  clone */\n      dup3\n        /* \"contracts/vault/Vault.sol\":634:637  add */\n      add\n        /* \"contracts/vault/Vault.sol\":627:633  mstore */\n      mstore\n        /* \"contracts/vault/Vault.sol\":702:768  0x5af43d82803e903d91602b57fd5bf30000000000000000000000000000000000 */\n      0x5af43d82803e903d91602b57fd5bf30000000000000000000000000000000000\n        /* \"contracts/vault/Vault.sol\":695:699  0x28 */\n      0x28\n        /* \"contracts/vault/Vault.sol\":688:693  clone */\n      dup3\n        /* \"contracts/vault/Vault.sol\":684:687  add */\n      add\n        /* \"contracts/vault/Vault.sol\":677:683  mstore */\n      mstore\n        /* \"contracts/vault/Vault.sol\":809:813  0x37 */\n      0x37\n        /* \"contracts/vault/Vault.sol\":802:807  clone */\n      dup2\n        /* \"contracts/vault/Vault.sol\":799:800  0 */\n      0x0\n        /* \"contracts/vault/Vault.sol\":792:798  create */\n      create\n        /* \"contracts/vault/Vault.sol\":782:814  result := create(0, clone, 0x37) */\n      swap3\n      pop\n        /* \"contracts/vault/Vault.sol\":482:824  {... */\n      pop\n    tag_94:\n      pop\n      swap2\n      swap1\n      pop\n      jump\t// out\n\n    auxdata: 0xa165627a7a72305820ac9c073bf47e4c0830397e47776798f6d3129c2b7ed0ec25b08856f7f03b094e0029\n}\n",
        "bytecode": {
          "linkReferences": {},
          "object": "606060405234156200001057600080fd5b6040516020806200166b833981016040528080519060200190919050505b336000806101000a81548173ffffffffffffffffffffffffffffffffffffffff021916908373ffffffffffffffffffffffffffffffffffffffff16021790555080600260006101000a81548173ffffffffffffffffffffffffffffffffffffffff021916908373ffffffffffffffffffffffffffffffffffffffff16021790555062000178600260009054906101000a900473ffffffffffffffffffffffffffffffffffffffff1673ffffffffffffffffffffffffffffffffffffffff1663b39c45936000604051602001526040518163ffffffff167c0100000000000000000000000000000000000000000000000000000000028152600401602060405180830381600087803b15156200014257600080fd5b6102c65a03f115156200015457600080fd5b50505060405180519050620001816401000000000262000d3a176401000000009004565b505b506200054a565b600080600260009054906101000a900473ffffffffffffffffffffffffffffffffffffffff1673ffffffffffffffffffffffffffffffffffffffff166302cfeaca846000604051602001526040518263ffffffff167c0100000000000000000000000000000000000000000000000000000000028152600401808260001916600019168152602001915050602060405180830381600087803b15156200022657600080fd5b6102c65a03f115156200023857600080fd5b505050604051805190509050600073ffffffffffffffffffffffffffffffffffffffff168173ffffffffffffffffffffffffffffffffffffffff16141515156200028157600080fd5b600073ffffffffffffffffffffffffffffffffffffffff16600360009054906101000a900473ffffffffffffffffffffffffffffffffffffffff1673ffffffffffffffffffffffffffffffffffffffff161415156200037657600360009054906101000a900473ffffffffffffffffffffffffffffffffffffffff1673ffffffffffffffffffffffffffffffffffffffff16633cecd7196040518163ffffffff167c0100000000000000000000000000000000000000000000000000000000028152600401600060405180830381600087803b15156200036057600080fd5b6102c65a03f115156200037257600080fd5b5050505b6200039581620004d3640100000000026200106e176401000000009004565b600360006101000a81548173ffffffffffffffffffffffffffffffffffffffff021916908373ffffffffffffffffffffffffffffffffffffffff160217905550600360009054906101000a900473ffffffffffffffffffffffffffffffffffffffff1673ffffffffffffffffffffffffffffffffffffffff1663c4d66de8306040518263ffffffff167c0100000000000000000000000000000000000000000000000000000000028152600401808273ffffffffffffffffffffffffffffffffffffffff1673ffffffffffffffffffffffffffffffffffffffff168152602001915050600060405180830381600087803b15156200049257600080fd5b6102c65a03f11515620004a457600080fd5b505050600360009054906101000a900473ffffffffffffffffffffffffffffffffffffffff1691505b50919050565b600080826c010000000000000000000000000290506040517f3d602d80600a3d3981f3363d3d373d3d3d363d7300000000000000000000000081528160148201527f5af43d82803e903d91602b57fd5bf3000000000000000000000000000000000060288201526037816000f09250505b50919050565b611111806200055a6000396000f300606060405236156100ad576000357c0100000000000000000000000000000000000000000000000000000000900463ffffffff16806346c469a4146100b257806347e7ef241461011957806379ba50971461015b5780637b103999146101705780637ceab3b1146101c55780638da5cb5b1461021a578063c23f001f1461026f578063c4bf0220146102db578063e30c397814610357578063f2fde38b146103ac578063f3fef3a3146103e5575b600080fd5b34156100bd57600080fd5b6100d7600480803560001916906020019091905050610427565b604051808273ffffffffffffffffffffffffffffffffffffffff1673ffffffffffffffffffffffffffffffffffffffff16815260200191505060405180910390f35b341561012457600080fd5b610159600480803573ffffffffffffffffffffffffffffffffffffffff16906020019091908035906020019091905050610483565b005b341561016657600080fd5b61016e610660565b005b341561017b57600080fd5b610183610763565b604051808273ffffffffffffffffffffffffffffffffffffffff1673ffffffffffffffffffffffffffffffffffffffff16815260200191505060405180910390f35b34156101d057600080fd5b6101d8610789565b604051808273ffffffffffffffffffffffffffffffffffffffff1673ffffffffffffffffffffffffffffffffffffffff16815260200191505060405180910390f35b341561022557600080fd5b61022d6107af565b604051808273ffffffffffffffffffffffffffffffffffffffff1673ffffffffffffffffffffffffffffffffffffffff16815260200191505060405180910390f35b341561027a57600080fd5b6102c5600480803573ffffffffffffffffffffffffffffffffffffffff1690602001909190803573ffffffffffffffffffffffffffffffffffffffff169060200190919050506107d4565b6040518082815260200191505060405180910390f35b34156102e657600080fd5b610355600480803573ffffffffffffffffffffffffffffffffffffffff1690602001909190803590602001908201803590602001908080601f016020809104026020016040519081016040528093929190818152602001838380828437820191505050505050919050506107f9565b005b341561036257600080fd5b61036a6108dc565b604051808273ffffffffffffffffffffffffffffffffffffffff1673ffffffffffffffffffffffffffffffffffffffff16815260200191505060405180910390f35b34156103b757600080fd5b6103e3600480803573ffffffffffffffffffffffffffffffffffffffff16906020019091905050610902565b005b34156103f057600080fd5b610425600480803573ffffffffffffffffffffffffffffffffffffffff169060200190919080359060200190919050506109a2565b005b60006104676040805190810160405280600b81526020017f7570646174654775617264000000000000000000000000000000000000000000815250610bcc565b151561047257600080fd5b61047b82610d3a565b90505b919050565b6104c16040805190810160405280600781526020017f6465706f73697400000000000000000000000000000000000000000000000000815250610bcc565b15156104cc57600080fd5b8173ffffffffffffffffffffffffffffffffffffffff166323b872dd3330846000604051602001526040518463ffffffff167c0100000000000000000000000000000000000000000000000000000000028152600401808473ffffffffffffffffffffffffffffffffffffffff1673ffffffffffffffffffffffffffffffffffffffff1681526020018373ffffffffffffffffffffffffffffffffffffffff1673ffffffffffffffffffffffffffffffffffffffff1681526020018281526020019350505050602060405180830381600087803b15156105ab57600080fd5b6102c65a03f115156105bc57600080fd5b5050506040518051905015156105d157600080fd5b80600460003373ffffffffffffffffffffffffffffffffffffffff1673ffffffffffffffffffffffffffffffffffffffff16815260200190815260200160002060008473ffffffffffffffffffffffffffffffffffffffff1673ffffffffffffffffffffffffffffffffffffffff168152602001908152602001600020600082825401925050819055505b5050565b600160009054906101000a900473ffffffffffffffffffffffffffffffffffffffff1673ffffffffffffffffffffffffffffffffffffffff163373ffffffffffffffffffffffffffffffffffffffff161415156106bc57600080fd5b600160009054906101000a900473ffffffffffffffffffffffffffffffffffffffff166000806101000a81548173ffffffffffffffffffffffffffffffffffffffff021916908373ffffffffffffffffffffffffffffffffffffffff1602179055506000600160006101000a81548173ffffffffffffffffffffffffffffffffffffffff021916908373ffffffffffffffffffffffffffffffffffffffff1602179055505b565b600260009054906101000a900473ffffffffffffffffffffffffffffffffffffffff1681565b600360009054906101000a900473ffffffffffffffffffffffffffffffffffffffff1681565b6000809054906101000a900473ffffffffffffffffffffffffffffffffffffffff1681565b6004602052816000526040600020602052806000526040600020600091509150505481565b6108376040805190810160405280600d81526020017f656d657267656e637943616c6c00000000000000000000000000000000000000815250610bcc565b151561084257600080fd5b8173ffffffffffffffffffffffffffffffffffffffff168160405180828051906020019080838360005b838110156108885780820151818401525b60208101905061086c565b50505050905090810190601f1680156108b55780820380516001836020036101000a031916815260200191505b509150506000604051808303818561646e5a03f491505015156108d757600080fd5b5b5050565b600160009054906101000a900473ffffffffffffffffffffffffffffffffffffffff1681565b6000809054906101000a900473ffffffffffffffffffffffffffffffffffffffff1673ffffffffffffffffffffffffffffffffffffffff163373ffffffffffffffffffffffffffffffffffffffff1614151561095d57600080fd5b80600160006101000a81548173ffffffffffffffffffffffffffffffffffffffff021916908373ffffffffffffffffffffffffffffffffffffffff1602179055505b50565b6109e06040805190810160405280600881526020017f7769746864726177000000000000000000000000000000000000000000000000815250610bcc565b15156109eb57600080fd5b80600460003373ffffffffffffffffffffffffffffffffffffffff1673ffffffffffffffffffffffffffffffffffffffff16815260200190815260200160002060008473ffffffffffffffffffffffffffffffffffffffff1673ffffffffffffffffffffffffffffffffffffffff1681526020019081526020016000205410151515610a7657600080fd5b8173ffffffffffffffffffffffffffffffffffffffff1663a9059cbb33836000604051602001526040518363ffffffff167c0100000000000000000000000000000000000000000000000000000000028152600401808373ffffffffffffffffffffffffffffffffffffffff1673ffffffffffffffffffffffffffffffffffffffff16815260200182815260200192505050602060405180830381600087803b1515610b2157600080fd5b6102c65a03f11515610b3257600080fd5b505050604051805190505080600460003373ffffffffffffffffffffffffffffffffffffffff1673ffffffffffffffffffffffffffffffffffffffff16815260200190815260200160002060008473ffffffffffffffffffffffffffffffffffffffff1673ffffffffffffffffffffffffffffffffffffffff168152602001908152602001600020600082825403925050819055505b5050565b600080600360009054906101000a900473ffffffffffffffffffffffffffffffffffffffff1673ffffffffffffffffffffffffffffffffffffffff1663b946063233856000604051604001526040518363ffffffff167c0100000000000000000000000000000000000000000000000000000000028152600401808373ffffffffffffffffffffffffffffffffffffffff1673ffffffffffffffffffffffffffffffffffffffff16815260200180602001828103825283818151815260200191508051906020019080838360005b83811015610cb65780820151818401525b602081019050610c9a565b50505050905090810190601f168015610ce35780820380516001836020036101000a031916815260200191505b5093505050506040805180830381600087803b1515610d0157600080fd5b6102c65a03f11515610d1257600080fd5b505050604051805190602001805190505080915050600060ff168160ff161491505b50919050565b600080600260009054906101000a900473ffffffffffffffffffffffffffffffffffffffff1673ffffffffffffffffffffffffffffffffffffffff166302cfeaca846000604051602001526040518263ffffffff167c0100000000000000000000000000000000000000000000000000000000028152600401808260001916600019168152602001915050602060405180830381600087803b1515610dde57600080fd5b6102c65a03f11515610def57600080fd5b505050604051805190509050600073ffffffffffffffffffffffffffffffffffffffff168173ffffffffffffffffffffffffffffffffffffffff1614151515610e3757600080fd5b600073ffffffffffffffffffffffffffffffffffffffff16600360009054906101000a900473ffffffffffffffffffffffffffffffffffffffff1673ffffffffffffffffffffffffffffffffffffffff16141515610f2957600360009054906101000a900473ffffffffffffffffffffffffffffffffffffffff1673ffffffffffffffffffffffffffffffffffffffff16633cecd7196040518163ffffffff167c0100000000000000000000000000000000000000000000000000000000028152600401600060405180830381600087803b1515610f1457600080fd5b6102c65a03f11515610f2557600080fd5b5050505b610f328161106e565b600360006101000a81548173ffffffffffffffffffffffffffffffffffffffff021916908373ffffffffffffffffffffffffffffffffffffffff160217905550600360009054906101000a900473ffffffffffffffffffffffffffffffffffffffff1673ffffffffffffffffffffffffffffffffffffffff1663c4d66de8306040518263ffffffff167c0100000000000000000000000000000000000000000000000000000000028152600401808273ffffffffffffffffffffffffffffffffffffffff1673ffffffffffffffffffffffffffffffffffffffff168152602001915050600060405180830381600087803b151561102e57600080fd5b6102c65a03f1151561103f57600080fd5b505050600360009054906101000a900473ffffffffffffffffffffffffffffffffffffffff1691505b50919050565b600080826c010000000000000000000000000290506040517f3d602d80600a3d3981f3363d3d373d3d3d363d7300000000000000000000000081528160148201527f5af43d82803e903d91602b57fd5bf3000000000000000000000000000000000060288201526037816000f09250505b509190505600a165627a7a72305820ac9c073bf47e4c0830397e47776798f6d3129c2b7ed0ec25b08856f7f03b094e0029",
          "opcodes": "PUSH1 0x60 PUSH1 0x40 MSTORE CALLVALUE ISZERO PUSH3 0x10 JUMPI PUSH1 0x0 DUP1 REVERT JUMPDEST PUSH1 0x40 MLOAD PUSH1 0x20 DUP1 PUSH3 0x166B DUP4 CODECOPY DUP2 ADD PUSH1 0x40 MSTORE DUP1 DUP1 MLOAD SWAP1 PUSH1 0x20 ADD SWAP1 SWAP2 SWAP1 POP POP JUMPDEST CALLER PUSH1 0x0 DUP1 PUSH2 0x100 EXP DUP2 SLOAD DUP2 PUSH20 0xFFFFFFFFFFFFFFFFFFFFFFFFFFFFFFFFFFFFFFFF MUL NOT AND SWAP1 DUP4 PUSH20 0xFFFFFFFFFFFFFFFFFFFFFFFFFFFFFFFFFFFFFFFF AND MUL OR SWAP1 SSTORE POP DUP1 PUSH1 0x2 PUSH1 0x0 PUSH2 0x100 EXP DUP2 SLOAD DUP2 PUSH20 0xFFFFFFFFFFFFFFFFFFFFFFFFFFFFFFFFFFFFFFFF MUL NOT AND SWAP1 DUP4 PUSH20 0xFFFFFFFFFFFFFFFFFFFFFFFFFFFFFFFFFFFFFFFF AND MUL OR SWAP1 SSTORE POP PUSH3 0x178 PUSH1 0x2 PUSH1 0x0 SWAP1 SLOAD SWAP1 PUSH2 0x100 EXP SWAP1 DIV PUSH20 0xFFFFFFFFFFFFFFFFFFFFFFFFFFFFFFFFFFFFFFFF AND PUSH20 0xFFFFFFFFFFFFFFFFFFFFFFFFFFFFFFFFFFFFFFFF AND PUSH4 0xB39C4593 PUSH1 0x0 PUSH1 0x40 MLOAD PUSH1 0x20 ADD MSTORE PUSH1 0x40 MLOAD DUP2 PUSH4 0xFFFFFFFF AND PUSH29 0x100000000000000000000000000000000000000000000000000000000 MUL DUP2 MSTORE PUSH1 0x4 ADD PUSH1 0x20 PUSH1 0x40 MLOAD DUP1 DUP4 SUB DUP2 PUSH1 0x0 DUP8 DUP1 EXTCODESIZE ISZERO ISZERO PUSH3 0x142 JUMPI PUSH1 0x0 DUP1 REVERT JUMPDEST PUSH2 0x2C6 GAS SUB CALL ISZERO ISZERO PUSH3 0x154 JUMPI PUSH1 0x0 DUP1 REVERT JUMPDEST POP POP POP PUSH1 0x40 MLOAD DUP1 MLOAD SWAP1 POP PUSH3 0x181 PUSH5 0x100000000 MUL PUSH3 0xD3A OR PUSH5 0x100000000 SWAP1 DIV JUMP JUMPDEST POP JUMPDEST POP PUSH3 0x54A JUMP JUMPDEST PUSH1 0x0 DUP1 PUSH1 0x2 PUSH1 0x0 SWAP1 SLOAD SWAP1 PUSH2 0x100 EXP SWAP1 DIV PUSH20 0xFFFFFFFFFFFFFFFFFFFFFFFFFFFFFFFFFFFFFFFF AND PUSH20 0xFFFFFFFFFFFFFFFFFFFFFFFFFFFFFFFFFFFFFFFF AND PUSH4 0x2CFEACA DUP5 PUSH1 0x0 PUSH1 0x40 MLOAD PUSH1 0x20 ADD MSTORE PUSH1 0x40 MLOAD DUP3 PUSH4 0xFFFFFFFF AND PUSH29 0x100000000000000000000000000000000000000000000000000000000 MUL DUP2 MSTORE PUSH1 0x4 ADD DUP1 DUP3 PUSH1 0x0 NOT AND PUSH1 0x0 NOT AND DUP2 MSTORE PUSH1 0x20 ADD SWAP2 POP POP PUSH1 0x20 PUSH1 0x40 MLOAD DUP1 DUP4 SUB DUP2 PUSH1 0x0 DUP8 DUP1 EXTCODESIZE ISZERO ISZERO PUSH3 0x226 JUMPI PUSH1 0x0 DUP1 REVERT JUMPDEST PUSH2 0x2C6 GAS SUB CALL ISZERO ISZERO PUSH3 0x238 JUMPI PUSH1 0x0 DUP1 REVERT JUMPDEST POP POP POP PUSH1 0x40 MLOAD DUP1 MLOAD SWAP1 POP SWAP1 POP PUSH1 0x0 PUSH20 0xFFFFFFFFFFFFFFFFFFFFFFFFFFFFFFFFFFFFFFFF AND DUP2 PUSH20 0xFFFFFFFFFFFFFFFFFFFFFFFFFFFFFFFFFFFFFFFF AND EQ ISZERO ISZERO ISZERO PUSH3 0x281 JUMPI PUSH1 0x0 DUP1 REVERT JUMPDEST PUSH1 0x0 PUSH20 0xFFFFFFFFFFFFFFFFFFFFFFFFFFFFFFFFFFFFFFFF AND PUSH1 0x3 PUSH1 0x0 SWAP1 SLOAD SWAP1 PUSH2 0x100 EXP SWAP1 DIV PUSH20 0xFFFFFFFFFFFFFFFFFFFFFFFFFFFFFFFFFFFFFFFF AND PUSH20 0xFFFFFFFFFFFFFFFFFFFFFFFFFFFFFFFFFFFFFFFF AND EQ ISZERO ISZERO PUSH3 0x376 JUMPI PUSH1 0x3 PUSH1 0x0 SWAP1 SLOAD SWAP1 PUSH2 0x100 EXP SWAP1 DIV PUSH20 0xFFFFFFFFFFFFFFFFFFFFFFFFFFFFFFFFFFFFFFFF AND PUSH20 0xFFFFFFFFFFFFFFFFFFFFFFFFFFFFFFFFFFFFFFFF AND PUSH4 0x3CECD719 PUSH1 0x40 MLOAD DUP2 PUSH4 0xFFFFFFFF AND PUSH29 0x100000000000000000000000000000000000000000000000000000000 MUL DUP2 MSTORE PUSH1 0x4 ADD PUSH1 0x0 PUSH1 0x40 MLOAD DUP1 DUP4 SUB DUP2 PUSH1 0x0 DUP8 DUP1 EXTCODESIZE ISZERO ISZERO PUSH3 0x360 JUMPI PUSH1 0x0 DUP1 REVERT JUMPDEST PUSH2 0x2C6 GAS SUB CALL ISZERO ISZERO PUSH3 0x372 JUMPI PUSH1 0x0 DUP1 REVERT JUMPDEST POP POP POP JUMPDEST PUSH3 0x395 DUP2 PUSH3 0x4D3 PUSH5 0x100000000 MUL PUSH3 0x106E OR PUSH5 0x100000000 SWAP1 DIV JUMP JUMPDEST PUSH1 0x3 PUSH1 0x0 PUSH2 0x100 EXP DUP2 SLOAD DUP2 PUSH20 0xFFFFFFFFFFFFFFFFFFFFFFFFFFFFFFFFFFFFFFFF MUL NOT AND SWAP1 DUP4 PUSH20 0xFFFFFFFFFFFFFFFFFFFFFFFFFFFFFFFFFFFFFFFF AND MUL OR SWAP1 SSTORE POP PUSH1 0x3 PUSH1 0x0 SWAP1 SLOAD SWAP1 PUSH2 0x100 EXP SWAP1 DIV PUSH20 0xFFFFFFFFFFFFFFFFFFFFFFFFFFFFFFFFFFFFFFFF AND PUSH20 0xFFFFFFFFFFFFFFFFFFFFFFFFFFFFFFFFFFFFFFFF AND PUSH4 0xC4D66DE8 ADDRESS PUSH1 0x40 MLOAD DUP3 PUSH4 0xFFFFFFFF AND PUSH29 0x100000000000000000000000000000000000000000000000000000000 MUL DUP2 MSTORE PUSH1 0x4 ADD DUP1 DUP3 PUSH20 0xFFFFFFFFFFFFFFFFFFFFFFFFFFFFFFFFFFFFFFFF AND PUSH20 0xFFFFFFFFFFFFFFFFFFFFFFFFFFFFFFFFFFFFFFFF AND DUP2 MSTORE PUSH1 0x20 ADD SWAP2 POP POP PUSH1 0x0 PUSH1 0x40 MLOAD DUP1 DUP4 SUB DUP2 PUSH1 0x0 DUP8 DUP1 EXTCODESIZE ISZERO ISZERO PUSH3 0x492 JUMPI PUSH1 0x0 DUP1 REVERT JUMPDEST PUSH2 0x2C6 GAS SUB CALL ISZERO ISZERO PUSH3 0x4A4 JUMPI PUSH1 0x0 DUP1 REVERT JUMPDEST POP POP POP PUSH1 0x3 PUSH1 0x0 SWAP1 SLOAD SWAP1 PUSH2 0x100 EXP SWAP1 DIV PUSH20 0xFFFFFFFFFFFFFFFFFFFFFFFFFFFFFFFFFFFFFFFF AND SWAP2 POP JUMPDEST POP SWAP2 SWAP1 POP JUMP JUMPDEST PUSH1 0x0 DUP1 DUP3 PUSH13 0x1000000000000000000000000 MUL SWAP1 POP PUSH1 0x40 MLOAD PUSH32 0x3D602D80600A3D3981F3363D3D373D3D3D363D73000000000000000000000000 DUP2 MSTORE DUP2 PUSH1 0x14 DUP3 ADD MSTORE PUSH32 0x5AF43D82803E903D91602B57FD5BF30000000000000000000000000000000000 PUSH1 0x28 DUP3 ADD MSTORE PUSH1 0x37 DUP2 PUSH1 0x0 CREATE SWAP3 POP POP JUMPDEST POP SWAP2 SWAP1 POP JUMP JUMPDEST PUSH2 0x1111 DUP1 PUSH3 0x55A PUSH1 0x0 CODECOPY PUSH1 0x0 RETURN STOP PUSH1 0x60 PUSH1 0x40 MSTORE CALLDATASIZE ISZERO PUSH2 0xAD JUMPI PUSH1 0x0 CALLDATALOAD PUSH29 0x100000000000000000000000000000000000000000000000000000000 SWAP1 DIV PUSH4 0xFFFFFFFF AND DUP1 PUSH4 0x46C469A4 EQ PUSH2 0xB2 JUMPI DUP1 PUSH4 0x47E7EF24 EQ PUSH2 0x119 JUMPI DUP1 PUSH4 0x79BA5097 EQ PUSH2 0x15B JUMPI DUP1 PUSH4 0x7B103999 EQ PUSH2 0x170 JUMPI DUP1 PUSH4 0x7CEAB3B1 EQ PUSH2 0x1C5 JUMPI DUP1 PUSH4 0x8DA5CB5B EQ PUSH2 0x21A JUMPI DUP1 PUSH4 0xC23F001F EQ PUSH2 0x26F JUMPI DUP1 PUSH4 0xC4BF0220 EQ PUSH2 0x2DB JUMPI DUP1 PUSH4 0xE30C3978 EQ PUSH2 0x357 JUMPI DUP1 PUSH4 0xF2FDE38B EQ PUSH2 0x3AC JUMPI DUP1 PUSH4 0xF3FEF3A3 EQ PUSH2 0x3E5 JUMPI JUMPDEST PUSH1 0x0 DUP1 REVERT JUMPDEST CALLVALUE ISZERO PUSH2 0xBD JUMPI PUSH1 0x0 DUP1 REVERT JUMPDEST PUSH2 0xD7 PUSH1 0x4 DUP1 DUP1 CALLDATALOAD PUSH1 0x0 NOT AND SWAP1 PUSH1 0x20 ADD SWAP1 SWAP2 SWAP1 POP POP PUSH2 0x427 JUMP JUMPDEST PUSH1 0x40 MLOAD DUP1 DUP3 PUSH20 0xFFFFFFFFFFFFFFFFFFFFFFFFFFFFFFFFFFFFFFFF AND PUSH20 0xFFFFFFFFFFFFFFFFFFFFFFFFFFFFFFFFFFFFFFFF AND DUP2 MSTORE PUSH1 0x20 ADD SWAP2 POP POP PUSH1 0x40 MLOAD DUP1 SWAP2 SUB SWAP1 RETURN JUMPDEST CALLVALUE ISZERO PUSH2 0x124 JUMPI PUSH1 0x0 DUP1 REVERT JUMPDEST PUSH2 0x159 PUSH1 0x4 DUP1 DUP1 CALLDATALOAD PUSH20 0xFFFFFFFFFFFFFFFFFFFFFFFFFFFFFFFFFFFFFFFF AND SWAP1 PUSH1 0x20 ADD SWAP1 SWAP2 SWAP1 DUP1 CALLDATALOAD SWAP1 PUSH1 0x20 ADD SWAP1 SWAP2 SWAP1 POP POP PUSH2 0x483 JUMP JUMPDEST STOP JUMPDEST CALLVALUE ISZERO PUSH2 0x166 JUMPI PUSH1 0x0 DUP1 REVERT JUMPDEST PUSH2 0x16E PUSH2 0x660 JUMP JUMPDEST STOP JUMPDEST CALLVALUE ISZERO PUSH2 0x17B JUMPI PUSH1 0x0 DUP1 REVERT JUMPDEST PUSH2 0x183 PUSH2 0x763 JUMP JUMPDEST PUSH1 0x40 MLOAD DUP1 DUP3 PUSH20 0xFFFFFFFFFFFFFFFFFFFFFFFFFFFFFFFFFFFFFFFF AND PUSH20 0xFFFFFFFFFFFFFFFFFFFFFFFFFFFFFFFFFFFFFFFF AND DUP2 MSTORE PUSH1 0x20 ADD SWAP2 POP POP PUSH1 0x40 MLOAD DUP1 SWAP2 SUB SWAP1 RETURN JUMPDEST CALLVALUE ISZERO PUSH2 0x1D0 JUMPI PUSH1 0x0 DUP1 REVERT JUMPDEST PUSH2 0x1D8 PUSH2 0x789 JUMP JUMPDEST PUSH1 0x40 MLOAD DUP1 DUP3 PUSH20 0xFFFFFFFFFFFFFFFFFFFFFFFFFFFFFFFFFFFFFFFF AND PUSH20 0xFFFFFFFFFFFFFFFFFFFFFFFFFFFFFFFFFFFFFFFF AND DUP2 MSTORE PUSH1 0x20 ADD SWAP2 POP POP PUSH1 0x40 MLOAD DUP1 SWAP2 SUB SWAP1 RETURN JUMPDEST CALLVALUE ISZERO PUSH2 0x225 JUMPI PUSH1 0x0 DUP1 REVERT JUMPDEST PUSH2 0x22D PUSH2 0x7AF JUMP JUMPDEST PUSH1 0x40 MLOAD DUP1 DUP3 PUSH20 0xFFFFFFFFFFFFFFFFFFFFFFFFFFFFFFFFFFFFFFFF AND PUSH20 0xFFFFFFFFFFFFFFFFFFFFFFFFFFFFFFFFFFFFFFFF AND DUP2 MSTORE PUSH1 0x20 ADD SWAP2 POP POP PUSH1 0x40 MLOAD DUP1 SWAP2 SUB SWAP1 RETURN JUMPDEST CALLVALUE ISZERO PUSH2 0x27A JUMPI PUSH1 0x0 DUP1 REVERT JUMPDEST PUSH2 0x2C5 PUSH1 0x4 DUP1 DUP1 CALLDATALOAD PUSH20 0xFFFFFFFFFFFFFFFFFFFFFFFFFFFFFFFFFFFFFFFF AND SWAP1 PUSH1 0x20 ADD SWAP1 SWAP2 SWAP1 DUP1 CALLDATALOAD PUSH20 0xFFFFFFFFFFFFFFFFFFFFFFFFFFFFFFFFFFFFFFFF AND SWAP1 PUSH1 0x20 ADD SWAP1 SWAP2 SWAP1 POP POP PUSH2 0x7D4 JUMP JUMPDEST PUSH1 0x40 MLOAD DUP1 DUP3 DUP2 MSTORE PUSH1 0x20 ADD SWAP2 POP POP PUSH1 0x40 MLOAD DUP1 SWAP2 SUB SWAP1 RETURN JUMPDEST CALLVALUE ISZERO PUSH2 0x2E6 JUMPI PUSH1 0x0 DUP1 REVERT JUMPDEST PUSH2 0x355 PUSH1 0x4 DUP1 DUP1 CALLDATALOAD PUSH20 0xFFFFFFFFFFFFFFFFFFFFFFFFFFFFFFFFFFFFFFFF AND SWAP1 PUSH1 0x20 ADD SWAP1 SWAP2 SWAP1 DUP1 CALLDATALOAD SWAP1 PUSH1 0x20 ADD SWAP1 DUP3 ADD DUP1 CALLDATALOAD SWAP1 PUSH1 0x20 ADD SWAP1 DUP1 DUP1 PUSH1 0x1F ADD PUSH1 0x20 DUP1 SWAP2 DIV MUL PUSH1 0x20 ADD PUSH1 0x40 MLOAD SWAP1 DUP2 ADD PUSH1 0x40 MSTORE DUP1 SWAP4 SWAP3 SWAP2 SWAP1 DUP2 DUP2 MSTORE PUSH1 0x20 ADD DUP4 DUP4 DUP1 DUP3 DUP5 CALLDATACOPY DUP3 ADD SWAP2 POP POP POP POP POP POP SWAP2 SWAP1 POP POP PUSH2 0x7F9 JUMP JUMPDEST STOP JUMPDEST CALLVALUE ISZERO PUSH2 0x362 JUMPI PUSH1 0x0 DUP1 REVERT JUMPDEST PUSH2 0x36A PUSH2 0x8DC JUMP JUMPDEST PUSH1 0x40 MLOAD DUP1 DUP3 PUSH20 0xFFFFFFFFFFFFFFFFFFFFFFFFFFFFFFFFFFFFFFFF AND PUSH20 0xFFFFFFFFFFFFFFFFFFFFFFFFFFFFFFFFFFFFFFFF AND DUP2 MSTORE PUSH1 0x20 ADD SWAP2 POP POP PUSH1 0x40 MLOAD DUP1 SWAP2 SUB SWAP1 RETURN JUMPDEST CALLVALUE ISZERO PUSH2 0x3B7 JUMPI PUSH1 0x0 DUP1 REVERT JUMPDEST PUSH2 0x3E3 PUSH1 0x4 DUP1 DUP1 CALLDATALOAD PUSH20 0xFFFFFFFFFFFFFFFFFFFFFFFFFFFFFFFFFFFFFFFF AND SWAP1 PUSH1 0x20 ADD SWAP1 SWAP2 SWAP1 POP POP PUSH2 0x902 JUMP JUMPDEST STOP JUMPDEST CALLVALUE ISZERO PUSH2 0x3F0 JUMPI PUSH1 0x0 DUP1 REVERT JUMPDEST PUSH2 0x425 PUSH1 0x4 DUP1 DUP1 CALLDATALOAD PUSH20 0xFFFFFFFFFFFFFFFFFFFFFFFFFFFFFFFFFFFFFFFF AND SWAP1 PUSH1 0x20 ADD SWAP1 SWAP2 SWAP1 DUP1 CALLDATALOAD SWAP1 PUSH1 0x20 ADD SWAP1 SWAP2 SWAP1 POP POP PUSH2 0x9A2 JUMP JUMPDEST STOP JUMPDEST PUSH1 0x0 PUSH2 0x467 PUSH1 0x40 DUP1 MLOAD SWAP1 DUP2 ADD PUSH1 0x40 MSTORE DUP1 PUSH1 0xB DUP2 MSTORE PUSH1 0x20 ADD PUSH32 0x7570646174654775617264000000000000000000000000000000000000000000 DUP2 MSTORE POP PUSH2 0xBCC JUMP JUMPDEST ISZERO ISZERO PUSH2 0x472 JUMPI PUSH1 0x0 DUP1 REVERT JUMPDEST PUSH2 0x47B DUP3 PUSH2 0xD3A JUMP JUMPDEST SWAP1 POP JUMPDEST SWAP2 SWAP1 POP JUMP JUMPDEST PUSH2 0x4C1 PUSH1 0x40 DUP1 MLOAD SWAP1 DUP2 ADD PUSH1 0x40 MSTORE DUP1 PUSH1 0x7 DUP2 MSTORE PUSH1 0x20 ADD PUSH32 0x6465706F73697400000000000000000000000000000000000000000000000000 DUP2 MSTORE POP PUSH2 0xBCC JUMP JUMPDEST ISZERO ISZERO PUSH2 0x4CC JUMPI PUSH1 0x0 DUP1 REVERT JUMPDEST DUP2 PUSH20 0xFFFFFFFFFFFFFFFFFFFFFFFFFFFFFFFFFFFFFFFF AND PUSH4 0x23B872DD CALLER ADDRESS DUP5 PUSH1 0x0 PUSH1 0x40 MLOAD PUSH1 0x20 ADD MSTORE PUSH1 0x40 MLOAD DUP5 PUSH4 0xFFFFFFFF AND PUSH29 0x100000000000000000000000000000000000000000000000000000000 MUL DUP2 MSTORE PUSH1 0x4 ADD DUP1 DUP5 PUSH20 0xFFFFFFFFFFFFFFFFFFFFFFFFFFFFFFFFFFFFFFFF AND PUSH20 0xFFFFFFFFFFFFFFFFFFFFFFFFFFFFFFFFFFFFFFFF AND DUP2 MSTORE PUSH1 0x20 ADD DUP4 PUSH20 0xFFFFFFFFFFFFFFFFFFFFFFFFFFFFFFFFFFFFFFFF AND PUSH20 0xFFFFFFFFFFFFFFFFFFFFFFFFFFFFFFFFFFFFFFFF AND DUP2 MSTORE PUSH1 0x20 ADD DUP3 DUP2 MSTORE PUSH1 0x20 ADD SWAP4 POP POP POP POP PUSH1 0x20 PUSH1 0x40 MLOAD DUP1 DUP4 SUB DUP2 PUSH1 0x0 DUP8 DUP1 EXTCODESIZE ISZERO ISZERO PUSH2 0x5AB JUMPI PUSH1 0x0 DUP1 REVERT JUMPDEST PUSH2 0x2C6 GAS SUB CALL ISZERO ISZERO PUSH2 0x5BC JUMPI PUSH1 0x0 DUP1 REVERT JUMPDEST POP POP POP PUSH1 0x40 MLOAD DUP1 MLOAD SWAP1 POP ISZERO ISZERO PUSH2 0x5D1 JUMPI PUSH1 0x0 DUP1 REVERT JUMPDEST DUP1 PUSH1 0x4 PUSH1 0x0 CALLER PUSH20 0xFFFFFFFFFFFFFFFFFFFFFFFFFFFFFFFFFFFFFFFF AND PUSH20 0xFFFFFFFFFFFFFFFFFFFFFFFFFFFFFFFFFFFFFFFF AND DUP2 MSTORE PUSH1 0x20 ADD SWAP1 DUP2 MSTORE PUSH1 0x20 ADD PUSH1 0x0 KECCAK256 PUSH1 0x0 DUP5 PUSH20 0xFFFFFFFFFFFFFFFFFFFFFFFFFFFFFFFFFFFFFFFF AND PUSH20 0xFFFFFFFFFFFFFFFFFFFFFFFFFFFFFFFFFFFFFFFF AND DUP2 MSTORE PUSH1 0x20 ADD SWAP1 DUP2 MSTORE PUSH1 0x20 ADD PUSH1 0x0 KECCAK256 PUSH1 0x0 DUP3 DUP3 SLOAD ADD SWAP3 POP POP DUP2 SWAP1 SSTORE POP JUMPDEST POP POP JUMP JUMPDEST PUSH1 0x1 PUSH1 0x0 SWAP1 SLOAD SWAP1 PUSH2 0x100 EXP SWAP1 DIV PUSH20 0xFFFFFFFFFFFFFFFFFFFFFFFFFFFFFFFFFFFFFFFF AND PUSH20 0xFFFFFFFFFFFFFFFFFFFFFFFFFFFFFFFFFFFFFFFF AND CALLER PUSH20 0xFFFFFFFFFFFFFFFFFFFFFFFFFFFFFFFFFFFFFFFF AND EQ ISZERO ISZERO PUSH2 0x6BC JUMPI PUSH1 0x0 DUP1 REVERT JUMPDEST PUSH1 0x1 PUSH1 0x0 SWAP1 SLOAD SWAP1 PUSH2 0x100 EXP SWAP1 DIV PUSH20 0xFFFFFFFFFFFFFFFFFFFFFFFFFFFFFFFFFFFFFFFF AND PUSH1 0x0 DUP1 PUSH2 0x100 EXP DUP2 SLOAD DUP2 PUSH20 0xFFFFFFFFFFFFFFFFFFFFFFFFFFFFFFFFFFFFFFFF MUL NOT AND SWAP1 DUP4 PUSH20 0xFFFFFFFFFFFFFFFFFFFFFFFFFFFFFFFFFFFFFFFF AND MUL OR SWAP1 SSTORE POP PUSH1 0x0 PUSH1 0x1 PUSH1 0x0 PUSH2 0x100 EXP DUP2 SLOAD DUP2 PUSH20 0xFFFFFFFFFFFFFFFFFFFFFFFFFFFFFFFFFFFFFFFF MUL NOT AND SWAP1 DUP4 PUSH20 0xFFFFFFFFFFFFFFFFFFFFFFFFFFFFFFFFFFFFFFFF AND MUL OR SWAP1 SSTORE POP JUMPDEST JUMP JUMPDEST PUSH1 0x2 PUSH1 0x0 SWAP1 SLOAD SWAP1 PUSH2 0x100 EXP SWAP1 DIV PUSH20 0xFFFFFFFFFFFFFFFFFFFFFFFFFFFFFFFFFFFFFFFF AND DUP2 JUMP JUMPDEST PUSH1 0x3 PUSH1 0x0 SWAP1 SLOAD SWAP1 PUSH2 0x100 EXP SWAP1 DIV PUSH20 0xFFFFFFFFFFFFFFFFFFFFFFFFFFFFFFFFFFFFFFFF AND DUP2 JUMP JUMPDEST PUSH1 0x0 DUP1 SWAP1 SLOAD SWAP1 PUSH2 0x100 EXP SWAP1 DIV PUSH20 0xFFFFFFFFFFFFFFFFFFFFFFFFFFFFFFFFFFFFFFFF AND DUP2 JUMP JUMPDEST PUSH1 0x4 PUSH1 0x20 MSTORE DUP2 PUSH1 0x0 MSTORE PUSH1 0x40 PUSH1 0x0 KECCAK256 PUSH1 0x20 MSTORE DUP1 PUSH1 0x0 MSTORE PUSH1 0x40 PUSH1 0x0 KECCAK256 PUSH1 0x0 SWAP2 POP SWAP2 POP POP SLOAD DUP2 JUMP JUMPDEST PUSH2 0x837 PUSH1 0x40 DUP1 MLOAD SWAP1 DUP2 ADD PUSH1 0x40 MSTORE DUP1 PUSH1 0xD DUP2 MSTORE PUSH1 0x20 ADD PUSH32 0x656D657267656E637943616C6C00000000000000000000000000000000000000 DUP2 MSTORE POP PUSH2 0xBCC JUMP JUMPDEST ISZERO ISZERO PUSH2 0x842 JUMPI PUSH1 0x0 DUP1 REVERT JUMPDEST DUP2 PUSH20 0xFFFFFFFFFFFFFFFFFFFFFFFFFFFFFFFFFFFFFFFF AND DUP2 PUSH1 0x40 MLOAD DUP1 DUP3 DUP1 MLOAD SWAP1 PUSH1 0x20 ADD SWAP1 DUP1 DUP4 DUP4 PUSH1 0x0 JUMPDEST DUP4 DUP2 LT ISZERO PUSH2 0x888 JUMPI DUP1 DUP3 ADD MLOAD DUP2 DUP5 ADD MSTORE JUMPDEST PUSH1 0x20 DUP2 ADD SWAP1 POP PUSH2 0x86C JUMP JUMPDEST POP POP POP POP SWAP1 POP SWAP1 DUP2 ADD SWAP1 PUSH1 0x1F AND DUP1 ISZERO PUSH2 0x8B5 JUMPI DUP1 DUP3 SUB DUP1 MLOAD PUSH1 0x1 DUP4 PUSH1 0x20 SUB PUSH2 0x100 EXP SUB NOT AND DUP2 MSTORE PUSH1 0x20 ADD SWAP2 POP JUMPDEST POP SWAP2 POP POP PUSH1 0x0 PUSH1 0x40 MLOAD DUP1 DUP4 SUB DUP2 DUP6 PUSH2 0x646E GAS SUB DELEGATECALL SWAP2 POP POP ISZERO ISZERO PUSH2 0x8D7 JUMPI PUSH1 0x0 DUP1 REVERT JUMPDEST JUMPDEST POP POP JUMP JUMPDEST PUSH1 0x1 PUSH1 0x0 SWAP1 SLOAD SWAP1 PUSH2 0x100 EXP SWAP1 DIV PUSH20 0xFFFFFFFFFFFFFFFFFFFFFFFFFFFFFFFFFFFFFFFF AND DUP2 JUMP JUMPDEST PUSH1 0x0 DUP1 SWAP1 SLOAD SWAP1 PUSH2 0x100 EXP SWAP1 DIV PUSH20 0xFFFFFFFFFFFFFFFFFFFFFFFFFFFFFFFFFFFFFFFF AND PUSH20 0xFFFFFFFFFFFFFFFFFFFFFFFFFFFFFFFFFFFFFFFF AND CALLER PUSH20 0xFFFFFFFFFFFFFFFFFFFFFFFFFFFFFFFFFFFFFFFF AND EQ ISZERO ISZERO PUSH2 0x95D JUMPI PUSH1 0x0 DUP1 REVERT JUMPDEST DUP1 PUSH1 0x1 PUSH1 0x0 PUSH2 0x100 EXP DUP2 SLOAD DUP2 PUSH20 0xFFFFFFFFFFFFFFFFFFFFFFFFFFFFFFFFFFFFFFFF MUL NOT AND SWAP1 DUP4 PUSH20 0xFFFFFFFFFFFFFFFFFFFFFFFFFFFFFFFFFFFFFFFF AND MUL OR SWAP1 SSTORE POP JUMPDEST POP JUMP JUMPDEST PUSH2 0x9E0 PUSH1 0x40 DUP1 MLOAD SWAP1 DUP2 ADD PUSH1 0x40 MSTORE DUP1 PUSH1 0x8 DUP2 MSTORE PUSH1 0x20 ADD PUSH32 0x7769746864726177000000000000000000000000000000000000000000000000 DUP2 MSTORE POP PUSH2 0xBCC JUMP JUMPDEST ISZERO ISZERO PUSH2 0x9EB JUMPI PUSH1 0x0 DUP1 REVERT JUMPDEST DUP1 PUSH1 0x4 PUSH1 0x0 CALLER PUSH20 0xFFFFFFFFFFFFFFFFFFFFFFFFFFFFFFFFFFFFFFFF AND PUSH20 0xFFFFFFFFFFFFFFFFFFFFFFFFFFFFFFFFFFFFFFFF AND DUP2 MSTORE PUSH1 0x20 ADD SWAP1 DUP2 MSTORE PUSH1 0x20 ADD PUSH1 0x0 KECCAK256 PUSH1 0x0 DUP5 PUSH20 0xFFFFFFFFFFFFFFFFFFFFFFFFFFFFFFFFFFFFFFFF AND PUSH20 0xFFFFFFFFFFFFFFFFFFFFFFFFFFFFFFFFFFFFFFFF AND DUP2 MSTORE PUSH1 0x20 ADD SWAP1 DUP2 MSTORE PUSH1 0x20 ADD PUSH1 0x0 KECCAK256 SLOAD LT ISZERO ISZERO ISZERO PUSH2 0xA76 JUMPI PUSH1 0x0 DUP1 REVERT JUMPDEST DUP2 PUSH20 0xFFFFFFFFFFFFFFFFFFFFFFFFFFFFFFFFFFFFFFFF AND PUSH4 0xA9059CBB CALLER DUP4 PUSH1 0x0 PUSH1 0x40 MLOAD PUSH1 0x20 ADD MSTORE PUSH1 0x40 MLOAD DUP4 PUSH4 0xFFFFFFFF AND PUSH29 0x100000000000000000000000000000000000000000000000000000000 MUL DUP2 MSTORE PUSH1 0x4 ADD DUP1 DUP4 PUSH20 0xFFFFFFFFFFFFFFFFFFFFFFFFFFFFFFFFFFFFFFFF AND PUSH20 0xFFFFFFFFFFFFFFFFFFFFFFFFFFFFFFFFFFFFFFFF AND DUP2 MSTORE PUSH1 0x20 ADD DUP3 DUP2 MSTORE PUSH1 0x20 ADD SWAP3 POP POP POP PUSH1 0x20 PUSH1 0x40 MLOAD DUP1 DUP4 SUB DUP2 PUSH1 0x0 DUP8 DUP1 EXTCODESIZE ISZERO ISZERO PUSH2 0xB21 JUMPI PUSH1 0x0 DUP1 REVERT JUMPDEST PUSH2 0x2C6 GAS SUB CALL ISZERO ISZERO PUSH2 0xB32 JUMPI PUSH1 0x0 DUP1 REVERT JUMPDEST POP POP POP PUSH1 0x40 MLOAD DUP1 MLOAD SWAP1 POP POP DUP1 PUSH1 0x4 PUSH1 0x0 CALLER PUSH20 0xFFFFFFFFFFFFFFFFFFFFFFFFFFFFFFFFFFFFFFFF AND PUSH20 0xFFFFFFFFFFFFFFFFFFFFFFFFFFFFFFFFFFFFFFFF AND DUP2 MSTORE PUSH1 0x20 ADD SWAP1 DUP2 MSTORE PUSH1 0x20 ADD PUSH1 0x0 KECCAK256 PUSH1 0x0 DUP5 PUSH20 0xFFFFFFFFFFFFFFFFFFFFFFFFFFFFFFFFFFFFFFFF AND PUSH20 0xFFFFFFFFFFFFFFFFFFFFFFFFFFFFFFFFFFFFFFFF AND DUP2 MSTORE PUSH1 0x20 ADD SWAP1 DUP2 MSTORE PUSH1 0x20 ADD PUSH1 0x0 KECCAK256 PUSH1 0x0 DUP3 DUP3 SLOAD SUB SWAP3 POP POP DUP2 SWAP1 SSTORE POP JUMPDEST POP POP JUMP JUMPDEST PUSH1 0x0 DUP1 PUSH1 0x3 PUSH1 0x0 SWAP1 SLOAD SWAP1 PUSH2 0x100 EXP SWAP1 DIV PUSH20 0xFFFFFFFFFFFFFFFFFFFFFFFFFFFFFFFFFFFFFFFF AND PUSH20 0xFFFFFFFFFFFFFFFFFFFFFFFFFFFFFFFFFFFFFFFF AND PUSH4 0xB9460632 CALLER DUP6 PUSH1 0x0 PUSH1 0x40 MLOAD PUSH1 0x40 ADD MSTORE PUSH1 0x40 MLOAD DUP4 PUSH4 0xFFFFFFFF AND PUSH29 0x100000000000000000000000000000000000000000000000000000000 MUL DUP2 MSTORE PUSH1 0x4 ADD DUP1 DUP4 PUSH20 0xFFFFFFFFFFFFFFFFFFFFFFFFFFFFFFFFFFFFFFFF AND PUSH20 0xFFFFFFFFFFFFFFFFFFFFFFFFFFFFFFFFFFFFFFFF AND DUP2 MSTORE PUSH1 0x20 ADD DUP1 PUSH1 0x20 ADD DUP3 DUP2 SUB DUP3 MSTORE DUP4 DUP2 DUP2 MLOAD DUP2 MSTORE PUSH1 0x20 ADD SWAP2 POP DUP1 MLOAD SWAP1 PUSH1 0x20 ADD SWAP1 DUP1 DUP4 DUP4 PUSH1 0x0 JUMPDEST DUP4 DUP2 LT ISZERO PUSH2 0xCB6 JUMPI DUP1 DUP3 ADD MLOAD DUP2 DUP5 ADD MSTORE JUMPDEST PUSH1 0x20 DUP2 ADD SWAP1 POP PUSH2 0xC9A JUMP JUMPDEST POP POP POP POP SWAP1 POP SWAP1 DUP2 ADD SWAP1 PUSH1 0x1F AND DUP1 ISZERO PUSH2 0xCE3 JUMPI DUP1 DUP3 SUB DUP1 MLOAD PUSH1 0x1 DUP4 PUSH1 0x20 SUB PUSH2 0x100 EXP SUB NOT AND DUP2 MSTORE PUSH1 0x20 ADD SWAP2 POP JUMPDEST POP SWAP4 POP POP POP POP PUSH1 0x40 DUP1 MLOAD DUP1 DUP4 SUB DUP2 PUSH1 0x0 DUP8 DUP1 EXTCODESIZE ISZERO ISZERO PUSH2 0xD01 JUMPI PUSH1 0x0 DUP1 REVERT JUMPDEST PUSH2 0x2C6 GAS SUB CALL ISZERO ISZERO PUSH2 0xD12 JUMPI PUSH1 0x0 DUP1 REVERT JUMPDEST POP POP POP PUSH1 0x40 MLOAD DUP1 MLOAD SWAP1 PUSH1 0x20 ADD DUP1 MLOAD SWAP1 POP POP DUP1 SWAP2 POP POP PUSH1 0x0 PUSH1 0xFF AND DUP2 PUSH1 0xFF AND EQ SWAP2 POP JUMPDEST POP SWAP2 SWAP1 POP JUMP JUMPDEST PUSH1 0x0 DUP1 PUSH1 0x2 PUSH1 0x0 SWAP1 SLOAD SWAP1 PUSH2 0x100 EXP SWAP1 DIV PUSH20 0xFFFFFFFFFFFFFFFFFFFFFFFFFFFFFFFFFFFFFFFF AND PUSH20 0xFFFFFFFFFFFFFFFFFFFFFFFFFFFFFFFFFFFFFFFF AND PUSH4 0x2CFEACA DUP5 PUSH1 0x0 PUSH1 0x40 MLOAD PUSH1 0x20 ADD MSTORE PUSH1 0x40 MLOAD DUP3 PUSH4 0xFFFFFFFF AND PUSH29 0x100000000000000000000000000000000000000000000000000000000 MUL DUP2 MSTORE PUSH1 0x4 ADD DUP1 DUP3 PUSH1 0x0 NOT AND PUSH1 0x0 NOT AND DUP2 MSTORE PUSH1 0x20 ADD SWAP2 POP POP PUSH1 0x20 PUSH1 0x40 MLOAD DUP1 DUP4 SUB DUP2 PUSH1 0x0 DUP8 DUP1 EXTCODESIZE ISZERO ISZERO PUSH2 0xDDE JUMPI PUSH1 0x0 DUP1 REVERT JUMPDEST PUSH2 0x2C6 GAS SUB CALL ISZERO ISZERO PUSH2 0xDEF JUMPI PUSH1 0x0 DUP1 REVERT JUMPDEST POP POP POP PUSH1 0x40 MLOAD DUP1 MLOAD SWAP1 POP SWAP1 POP PUSH1 0x0 PUSH20 0xFFFFFFFFFFFFFFFFFFFFFFFFFFFFFFFFFFFFFFFF AND DUP2 PUSH20 0xFFFFFFFFFFFFFFFFFFFFFFFFFFFFFFFFFFFFFFFF AND EQ ISZERO ISZERO ISZERO PUSH2 0xE37 JUMPI PUSH1 0x0 DUP1 REVERT JUMPDEST PUSH1 0x0 PUSH20 0xFFFFFFFFFFFFFFFFFFFFFFFFFFFFFFFFFFFFFFFF AND PUSH1 0x3 PUSH1 0x0 SWAP1 SLOAD SWAP1 PUSH2 0x100 EXP SWAP1 DIV PUSH20 0xFFFFFFFFFFFFFFFFFFFFFFFFFFFFFFFFFFFFFFFF AND PUSH20 0xFFFFFFFFFFFFFFFFFFFFFFFFFFFFFFFFFFFFFFFF AND EQ ISZERO ISZERO PUSH2 0xF29 JUMPI PUSH1 0x3 PUSH1 0x0 SWAP1 SLOAD SWAP1 PUSH2 0x100 EXP SWAP1 DIV PUSH20 0xFFFFFFFFFFFFFFFFFFFFFFFFFFFFFFFFFFFFFFFF AND PUSH20 0xFFFFFFFFFFFFFFFFFFFFFFFFFFFFFFFFFFFFFFFF AND PUSH4 0x3CECD719 PUSH1 0x40 MLOAD DUP2 PUSH4 0xFFFFFFFF AND PUSH29 0x100000000000000000000000000000000000000000000000000000000 MUL DUP2 MSTORE PUSH1 0x4 ADD PUSH1 0x0 PUSH1 0x40 MLOAD DUP1 DUP4 SUB DUP2 PUSH1 0x0 DUP8 DUP1 EXTCODESIZE ISZERO ISZERO PUSH2 0xF14 JUMPI PUSH1 0x0 DUP1 REVERT JUMPDEST PUSH2 0x2C6 GAS SUB CALL ISZERO ISZERO PUSH2 0xF25 JUMPI PUSH1 0x0 DUP1 REVERT JUMPDEST POP POP POP JUMPDEST PUSH2 0xF32 DUP2 PUSH2 0x106E JUMP JUMPDEST PUSH1 0x3 PUSH1 0x0 PUSH2 0x100 EXP DUP2 SLOAD DUP2 PUSH20 0xFFFFFFFFFFFFFFFFFFFFFFFFFFFFFFFFFFFFFFFF MUL NOT AND SWAP1 DUP4 PUSH20 0xFFFFFFFFFFFFFFFFFFFFFFFFFFFFFFFFFFFFFFFF AND MUL OR SWAP1 SSTORE POP PUSH1 0x3 PUSH1 0x0 SWAP1 SLOAD SWAP1 PUSH2 0x100 EXP SWAP1 DIV PUSH20 0xFFFFFFFFFFFFFFFFFFFFFFFFFFFFFFFFFFFFFFFF AND PUSH20 0xFFFFFFFFFFFFFFFFFFFFFFFFFFFFFFFFFFFFFFFF AND PUSH4 0xC4D66DE8 ADDRESS PUSH1 0x40 MLOAD DUP3 PUSH4 0xFFFFFFFF AND PUSH29 0x100000000000000000000000000000000000000000000000000000000 MUL DUP2 MSTORE PUSH1 0x4 ADD DUP1 DUP3 PUSH20 0xFFFFFFFFFFFFFFFFFFFFFFFFFFFFFFFFFFFFFFFF AND PUSH20 0xFFFFFFFFFFFFFFFFFFFFFFFFFFFFFFFFFFFFFFFF AND DUP2 MSTORE PUSH1 0x20 ADD SWAP2 POP POP PUSH1 0x0 PUSH1 0x40 MLOAD DUP1 DUP4 SUB DUP2 PUSH1 0x0 DUP8 DUP1 EXTCODESIZE ISZERO ISZERO PUSH2 0x102E JUMPI PUSH1 0x0 DUP1 REVERT JUMPDEST PUSH2 0x2C6 GAS SUB CALL ISZERO ISZERO PUSH2 0x103F JUMPI PUSH1 0x0 DUP1 REVERT JUMPDEST POP POP POP PUSH1 0x3 PUSH1 0x0 SWAP1 SLOAD SWAP1 PUSH2 0x100 EXP SWAP1 DIV PUSH20 0xFFFFFFFFFFFFFFFFFFFFFFFFFFFFFFFFFFFFFFFF AND SWAP2 POP JUMPDEST POP SWAP2 SWAP1 POP JUMP JUMPDEST PUSH1 0x0 DUP1 DUP3 PUSH13 0x1000000000000000000000000 MUL SWAP1 POP PUSH1 0x40 MLOAD PUSH32 0x3D602D80600A3D3981F3363D3D373D3D3D363D73000000000000000000000000 DUP2 MSTORE DUP2 PUSH1 0x14 DUP3 ADD MSTORE PUSH32 0x5AF43D82803E903D91602B57FD5BF30000000000000000000000000000000000 PUSH1 0x28 DUP3 ADD MSTORE PUSH1 0x37 DUP2 PUSH1 0x0 CREATE SWAP3 POP POP JUMPDEST POP SWAP2 SWAP1 POP JUMP STOP LOG1 PUSH6 0x627A7A723058 KECCAK256 0xac SWAP13 SMOD EXTCODESIZE DELEGATECALL PUSH31 0x4C0830397E47776798F6D3129C2B7ED0EC25B08856F7F03B094E0029000000 "
        },
        "gasEstimates": {
          "creation": {
            "codeDepositCost": "873800",
            "executionCost": "infinite",
            "totalCost": "infinite"
          },
          "external": {
            "acceptOwnership()": "41216",
            "balances(address,address)": "726",
            "deposit(address,uint256)": "infinite",
            "emergencyCall(address,bytes)": "infinite",
            "guard()": "519",
            "owner()": "541",
            "pendingOwner()": "607",
            "registry()": "497",
            "transferOwnership(address)": "20909",
            "updateGuard(bytes32)": "infinite",
            "withdraw(address,uint256)": "infinite"
          },
          "internal": {
            "checkAccess(string memory)": "infinite",
            "createGuard(bytes32)": "infinite"
          }
        },
        "methodIdentifiers": {
          "acceptOwnership()": "79ba5097",
          "balances(address,address)": "c23f001f",
          "deposit(address,uint256)": "47e7ef24",
          "emergencyCall(address,bytes)": "c4bf0220",
          "guard()": "7ceab3b1",
          "owner()": "8da5cb5b",
          "pendingOwner()": "e30c3978",
          "registry()": "7b103999",
          "transferOwnership(address)": "f2fde38b",
          "updateGuard(bytes32)": "46c469a4",
          "withdraw(address,uint256)": "f3fef3a3"
        }
      },
      "userdoc": {
        "methods": {}
      }
    }
  }
}