{
  "contracts/vault/SetupVault.sol": {
    "SetupVault": {
      "abi": [
        {
          "constant": false,
          "inputs": [],
          "name": "Setup",
          "outputs": [],
          "payable": false,
          "stateMutability": "nonpayable",
          "type": "function"
        },
        {
          "constant": true,
          "inputs": [],
          "name": "isSolved",
          "outputs": [
            {
              "name": "",
              "type": "bool"
            }
          ],
          "payable": false,
          "stateMutability": "view",
          "type": "function"
        },
        {
          "constant": true,
          "inputs": [],
          "name": "registry",
          "outputs": [
            {
              "name": "",
              "type": "address"
            }
          ],
          "payable": false,
          "stateMutability": "view",
          "type": "function"
        },
        {
          "constant": true,
          "inputs": [],
          "name": "vault",
          "outputs": [
            {
              "name": "",
              "type": "address"
            }
          ],
          "payable": false,
          "stateMutability": "view",
          "type": "function"
        }
      ],
      "devdoc": {
        "methods": {}
      },
      "evm": {
        "assembly": "    /* \"contracts/vault/SetupVault.sol\":111:673  contract SetupVault {... */\n  mstore(0x40, 0x60)\n  jumpi(tag_1, iszero(callvalue))\n  0x0\n  dup1\n  revert\ntag_1:\ntag_2:\n  dataSize(sub_0)\n  dup1\n  dataOffset(sub_0)\n  0x0\n  codecopy\n  0x0\n  return\nstop\n\nsub_0: assembly {\n        /* \"contracts/vault/SetupVault.sol\":111:673  contract SetupVault {... */\n      mstore(0x40, 0x60)\n      calldataload(0x0)\n      0x100000000000000000000000000000000000000000000000000000000\n      swap1\n      div\n      0xffffffff\n      and\n      dup1\n      0x58793050\n      eq\n      tag_2\n      jumpi\n      dup1\n      0x64d98f6e\n      eq\n      tag_3\n      jumpi\n      dup1\n      0x7b103999\n      eq\n      tag_4\n      jumpi\n      dup1\n      0xfbfa77cf\n      eq\n      tag_5\n      jumpi\n    tag_1:\n      0x0\n      dup1\n      revert\n        /* \"contracts/vault/SetupVault.sol\":201:560  function Setup() public {... */\n    tag_2:\n      jumpi(tag_6, iszero(callvalue))\n      0x0\n      dup1\n      revert\n    tag_6:\n      tag_7\n      jump(tag_8)\n    tag_7:\n      stop\n        /* \"contracts/vault/SetupVault.sol\":570:671  function isSolved() public view returns (bool) {... */\n    tag_3:\n      jumpi(tag_9, iszero(callvalue))\n      0x0\n      dup1\n      revert\n    tag_9:\n      tag_10\n      jump(tag_11)\n    tag_10:\n      mload(0x40)\n      dup1\n      dup3\n      iszero\n      iszero\n      iszero\n      iszero\n      dup2\n      mstore\n      0x20\n      add\n      swap2\n      pop\n      pop\n      mload(0x40)\n      dup1\n      swap2\n      sub\n      swap1\n      return\n        /* \"contracts/vault/SetupVault.sol\":137:166  GuardRegistry public registry */\n    tag_4:\n      jumpi(tag_12, iszero(callvalue))\n      0x0\n      dup1\n      revert\n    tag_12:\n      tag_13\n      jump(tag_14)\n    tag_13:\n      mload(0x40)\n      dup1\n      dup3\n      0xffffffffffffffffffffffffffffffffffffffff\n      and\n      0xffffffffffffffffffffffffffffffffffffffff\n      and\n      dup2\n      mstore\n      0x20\n      add\n      swap2\n      pop\n      pop\n      mload(0x40)\n      dup1\n      swap2\n      sub\n      swap1\n      return\n        /* \"contracts/vault/SetupVault.sol\":172:190  Vault public vault */\n    tag_5:\n      jumpi(tag_15, iszero(callvalue))\n      0x0\n      dup1\n      revert\n    tag_15:\n      tag_16\n      jump(tag_17)\n    tag_16:\n      mload(0x40)\n      dup1\n      dup3\n      0xffffffffffffffffffffffffffffffffffffffff\n      and\n      0xffffffffffffffffffffffffffffffffffffffff\n      and\n      dup2\n      mstore\n      0x20\n      add\n      swap2\n      pop\n      pop\n      mload(0x40)\n      dup1\n      swap2\n      sub\n      swap1\n      return\n        /* \"contracts/vault/SetupVault.sol\":201:560  function Setup() public {... */\n    tag_8:\n        /* \"contracts/vault/SetupVault.sol\":406:428  SingleOwnerGuard guard */\n      0x0\n        /* \"contracts/vault/SetupVault.sol\":246:265  new GuardRegistry() */\n      tag_19\n      jump\t// in(tag_20)\n    tag_19:\n      mload(0x40)\n      dup1\n      swap2\n      sub\n      swap1\n      0x0\n      create\n      dup1\n      iszero\n      iszero\n      tag_21\n      jumpi\n      0x0\n      dup1\n      revert\n    tag_21:\n        /* \"contracts/vault/SetupVault.sol\":235:243  registry */\n      0x0\n      dup1\n        /* \"contracts/vault/SetupVault.sol\":235:265  registry = new GuardRegistry() */\n      0x100\n      exp\n      dup2\n      sload\n      dup2\n      0xffffffffffffffffffffffffffffffffffffffff\n      mul\n      not\n      and\n      swap1\n      dup4\n      0xffffffffffffffffffffffffffffffffffffffff\n      and\n      mul\n      or\n      swap1\n      sstore\n      pop\n        /* \"contracts/vault/SetupVault.sol\":275:283  registry */\n      0x0\n      dup1\n      swap1\n      sload\n      swap1\n      0x100\n      exp\n      swap1\n      div\n      0xffffffffffffffffffffffffffffffffffffffff\n      and\n        /* \"contracts/vault/SetupVault.sol\":275:311  registry.registerGuardImplementation */\n      0xffffffffffffffffffffffffffffffffffffffff\n      and\n      0x3eae978a\n        /* \"contracts/vault/SetupVault.sol\":312:334  new SingleOwnerGuard() */\n      tag_22\n      jump\t// in(tag_23)\n    tag_22:\n      mload(0x40)\n      dup1\n      swap2\n      sub\n      swap1\n      0x0\n      create\n      dup1\n      iszero\n      iszero\n      tag_24\n      jumpi\n      0x0\n      dup1\n      revert\n    tag_24:\n        /* \"contracts/vault/SetupVault.sol\":336:340  true */\n      0x1\n        /* \"contracts/vault/SetupVault.sol\":275:341  registry.registerGuardImplementation(new SingleOwnerGuard(), true) */\n      mload(0x40)\n      dup4\n      0xffffffff\n      and\n      0x100000000000000000000000000000000000000000000000000000000\n      mul\n      dup2\n      mstore\n      0x4\n      add\n      dup1\n      dup4\n      0xffffffffffffffffffffffffffffffffffffffff\n      and\n      0xffffffffffffffffffffffffffffffffffffffff\n      and\n      dup2\n      mstore\n      0x20\n      add\n      dup3\n      iszero\n      iszero\n      iszero\n      iszero\n      dup2\n      mstore\n      0x20\n      add\n      swap3\n      pop\n      pop\n      pop\n      0x0\n      mload(0x40)\n      dup1\n      dup4\n      sub\n      dup2\n      0x0\n      dup8\n      dup1\n      extcodesize\n      iszero\n      iszero\n      tag_25\n      jumpi\n      0x0\n      dup1\n      revert\n    tag_25:\n      sub(gas, 0x2c6)\n      call\n      iszero\n      iszero\n      tag_26\n      jumpi\n      0x0\n      dup1\n      revert\n    tag_26:\n      pop\n      pop\n      pop\n        /* \"contracts/vault/SetupVault.sol\":378:386  registry */\n      0x0\n      dup1\n      swap1\n      sload\n      swap1\n      0x100\n      exp\n      swap1\n      div\n      0xffffffffffffffffffffffffffffffffffffffff\n      and\n        /* \"contracts/vault/SetupVault.sol\":368:387  new Vault(registry) */\n      tag_27\n      jump\t// in(tag_28)\n    tag_27:\n      dup1\n      dup3\n      0xffffffffffffffffffffffffffffffffffffffff\n      and\n      0xffffffffffffffffffffffffffffffffffffffff\n      and\n      dup2\n      mstore\n      0x20\n      add\n      swap2\n      pop\n      pop\n      mload(0x40)\n      dup1\n      swap2\n      sub\n      swap1\n      0x0\n      create\n      dup1\n      iszero\n      iszero\n      tag_29\n      jumpi\n      0x0\n      dup1\n      revert\n    tag_29:\n        /* \"contracts/vault/SetupVault.sol\":360:365  vault */\n      0x1\n      0x0\n        /* \"contracts/vault/SetupVault.sol\":360:387  vault = new Vault(registry) */\n      0x100\n      exp\n      dup2\n      sload\n      dup2\n      0xffffffffffffffffffffffffffffffffffffffff\n      mul\n      not\n      and\n      swap1\n      dup4\n      0xffffffffffffffffffffffffffffffffffffffff\n      and\n      mul\n      or\n      swap1\n      sstore\n      pop\n        /* \"contracts/vault/SetupVault.sol\":448:453  vault */\n      0x1\n      0x0\n      swap1\n      sload\n      swap1\n      0x100\n      exp\n      swap1\n      div\n      0xffffffffffffffffffffffffffffffffffffffff\n      and\n        /* \"contracts/vault/SetupVault.sol\":448:459  vault.guard */\n      0xffffffffffffffffffffffffffffffffffffffff\n      and\n      0x7ceab3b1\n        /* \"contracts/vault/SetupVault.sol\":448:461  vault.guard() */\n      mstore(add(0x20, mload(0x40)), 0x0)\n      mload(0x40)\n      dup2\n      0xffffffff\n      and\n      0x100000000000000000000000000000000000000000000000000000000\n      mul\n      dup2\n      mstore\n      0x4\n      add\n      0x20\n      mload(0x40)\n      dup1\n      dup4\n      sub\n      dup2\n      0x0\n      dup8\n      dup1\n      extcodesize\n      iszero\n      iszero\n      tag_30\n      jumpi\n      0x0\n      dup1\n      revert\n    tag_30:\n      sub(gas, 0x2c6)\n      call\n      iszero\n      iszero\n      tag_31\n      jumpi\n      0x0\n      dup1\n      revert\n    tag_31:\n      pop\n      pop\n      pop\n      mload(0x40)\n      dup1\n      mload\n      swap1\n      pop\n        /* \"contracts/vault/SetupVault.sol\":406:462  SingleOwnerGuard guard = SingleOwnerGuard(vault.guard()) */\n      swap1\n      pop\n        /* \"contracts/vault/SetupVault.sol\":472:477  guard */\n      dup1\n        /* \"contracts/vault/SetupVault.sol\":472:496  guard.addPublicOperation */\n      0xffffffffffffffffffffffffffffffffffffffff\n      and\n      0x662ea8ec\n        /* \"contracts/vault/SetupVault.sol\":472:507  guard.addPublicOperation(\"deposit\") */\n      mload(0x40)\n      dup2\n      0xffffffff\n      and\n      0x100000000000000000000000000000000000000000000000000000000\n      mul\n      dup2\n      mstore\n      0x4\n      add\n      dup1\n      dup1\n      0x20\n      add\n      dup3\n      dup2\n      sub\n      dup3\n      mstore\n      0x7\n      dup2\n      mstore\n      0x20\n      add\n      dup1\n      0x6465706f73697400000000000000000000000000000000000000000000000000\n      dup2\n      mstore\n      pop\n      0x20\n      add\n      swap2\n      pop\n      pop\n      0x0\n      mload(0x40)\n      dup1\n      dup4\n      sub\n      dup2\n      0x0\n      dup8\n      dup1\n      extcodesize\n      iszero\n      iszero\n      tag_32\n      jumpi\n      0x0\n      dup1\n      revert\n    tag_32:\n      sub(gas, 0x2c6)\n      call\n      iszero\n      iszero\n      tag_33\n      jumpi\n      0x0\n      dup1\n      revert\n    tag_33:\n      pop\n      pop\n      pop\n        /* \"contracts/vault/SetupVault.sol\":517:522  guard */\n      dup1\n        /* \"contracts/vault/SetupVault.sol\":517:541  guard.addPublicOperation */\n      0xffffffffffffffffffffffffffffffffffffffff\n      and\n      0x662ea8ec\n        /* \"contracts/vault/SetupVault.sol\":517:553  guard.addPublicOperation(\"withdraw\") */\n      mload(0x40)\n      dup2\n      0xffffffff\n      and\n      0x100000000000000000000000000000000000000000000000000000000\n      mul\n      dup2\n      mstore\n      0x4\n      add\n      dup1\n      dup1\n      0x20\n      add\n      dup3\n      dup2\n      sub\n      dup3\n      mstore\n      0x8\n      dup2\n      mstore\n      0x20\n      add\n      dup1\n      0x7769746864726177000000000000000000000000000000000000000000000000\n      dup2\n      mstore\n      pop\n      0x20\n      add\n      swap2\n      pop\n      pop\n      0x0\n      mload(0x40)\n      dup1\n      dup4\n      sub\n      dup2\n      0x0\n      dup8\n      dup1\n      extcodesize\n      iszero\n      iszero\n      tag_34\n      jumpi\n      0x0\n      dup1\n      revert\n    tag_34:\n      sub(gas, 0x2c6)\n      call\n      iszero\n      iszero\n      tag_35\n      jumpi\n      0x0\n      dup1\n      revert\n    tag_35:\n      pop\n      pop\n      pop\n        /* \"contracts/vault/SetupVault.sol\":201:560  function Setup() public {... */\n    tag_18:\n      pop\n      jump\t// out\n        /* \"contracts/vault/SetupVault.sol\":570:671  function isSolved() public view returns (bool) {... */\n    tag_11:\n        /* \"contracts/vault/SetupVault.sol\":611:615  bool */\n      0x0\n        /* \"contracts/vault/SetupVault.sol\":659:663  this */\n      address\n        /* \"contracts/vault/SetupVault.sol\":634:664  vault.owner() != address(this) */\n      0xffffffffffffffffffffffffffffffffffffffff\n      and\n        /* \"contracts/vault/SetupVault.sol\":634:639  vault */\n      0x1\n      0x0\n      swap1\n      sload\n      swap1\n      0x100\n      exp\n      swap1\n      div\n      0xffffffffffffffffffffffffffffffffffffffff\n      and\n        /* \"contracts/vault/SetupVault.sol\":634:645  vault.owner */\n      0xffffffffffffffffffffffffffffffffffffffff\n      and\n      0x8da5cb5b\n        /* \"contracts/vault/SetupVault.sol\":634:647  vault.owner() */\n      mstore(add(0x20, mload(0x40)), 0x0)\n      mload(0x40)\n      dup2\n      0xffffffff\n      and\n      0x100000000000000000000000000000000000000000000000000000000\n      mul\n      dup2\n      mstore\n      0x4\n      add\n      0x20\n      mload(0x40)\n      dup1\n      dup4\n      sub\n      dup2\n      0x0\n      dup8\n      dup1\n      extcodesize\n      iszero\n      iszero\n      tag_37\n      jumpi\n      0x0\n      dup1\n      revert\n    tag_37:\n      sub(gas, 0x2c6)\n      call\n      iszero\n      iszero\n      tag_38\n      jumpi\n      0x0\n      dup1\n      revert\n    tag_38:\n      pop\n      pop\n      pop\n      mload(0x40)\n      dup1\n      mload\n      swap1\n      pop\n        /* \"contracts/vault/SetupVault.sol\":634:664  vault.owner() != address(this) */\n      0xffffffffffffffffffffffffffffffffffffffff\n      and\n      eq\n      iszero\n        /* \"contracts/vault/SetupVault.sol\":627:664  return vault.owner() != address(this) */\n      swap1\n      pop\n        /* \"contracts/vault/SetupVault.sol\":570:671  function isSolved() public view returns (bool) {... */\n    tag_36:\n      swap1\n      jump\t// out\n        /* \"contracts/vault/SetupVault.sol\":137:166  GuardRegistry public registry */\n    tag_14:\n      0x0\n      dup1\n      swap1\n      sload\n      swap1\n      0x100\n      exp\n      swap1\n      div\n      0xffffffffffffffffffffffffffffffffffffffff\n      and\n      dup2\n      jump\t// out\n        /* \"contracts/vault/SetupVault.sol\":172:190  Vault public vault */\n    tag_17:\n      0x1\n      0x0\n      swap1\n      sload\n      swap1\n      0x100\n      exp\n      swap1\n      div\n      0xffffffffffffffffffffffffffffffffffffffff\n      and\n      dup2\n      jump\t// out\n        /* \"contracts/vault/SetupVault.sol\":111:673  contract SetupVault {... */\n    tag_20:\n      mload(0x40)\n      dataSize(sub_0)\n      dup1\n      dataOffset(sub_0)\n      dup4\n      codecopy\n      add\n      swap1\n      jump\t// out\n    tag_23:\n      mload(0x40)\n      dataSize(sub_1)\n      dup1\n      dataOffset(sub_1)\n      dup4\n      codecopy\n      add\n      swap1\n      jump\t// out\n    tag_28:\n      mload(0x40)\n      dataSize(sub_2)\n      dup1\n      dataOffset(sub_2)\n      dup4\n      codecopy\n      add\n      swap1\n      jump\t// out\n    stop\n\n    sub_0: assembly {\n            /* \"contracts/vault/GuardRegistry.sol\":48:844  contract GuardRegistry {... */\n          mstore(0x40, 0x60)\n            /* \"contracts/vault/GuardRegistry.sol\":216:283  function GuardRegistry() public {... */\n          jumpi(tag_1, iszero(callvalue))\n          0x0\n          dup1\n          revert\n        tag_1:\n        tag_2:\n            /* \"contracts/vault/GuardRegistry.sol\":266:276  msg.sender */\n          caller\n            /* \"contracts/vault/GuardRegistry.sol\":258:263  owner */\n          0x1\n          0x0\n            /* \"contracts/vault/GuardRegistry.sol\":258:276  owner = msg.sender */\n          0x100\n          exp\n          dup2\n          sload\n          dup2\n          0xffffffffffffffffffffffffffffffffffffffff\n          mul\n          not\n          and\n          swap1\n          dup4\n          0xffffffffffffffffffffffffffffffffffffffff\n          and\n          mul\n          or\n          swap1\n          sstore\n          pop\n            /* \"contracts/vault/GuardRegistry.sol\":216:283  function GuardRegistry() public {... */\n        tag_3:\n            /* \"contracts/vault/GuardRegistry.sol\":48:844  contract GuardRegistry {... */\n        tag_4:\n          dataSize(sub_0)\n          dup1\n          dataOffset(sub_0)\n          0x0\n          codecopy\n          0x0\n          return\n        stop\n\n        sub_0: assembly {\n                /* \"contracts/vault/GuardRegistry.sol\":48:844  contract GuardRegistry {... */\n              mstore(0x40, 0x60)\n              calldataload(0x0)\n              0x100000000000000000000000000000000000000000000000000000000\n              swap1\n              div\n              0xffffffff\n              and\n              dup1\n              0x2cfeaca\n              eq\n              tag_2\n              jumpi\n              dup1\n              0x3eae978a\n              eq\n              tag_3\n              jumpi\n              dup1\n              0x8da5cb5b\n              eq\n              tag_4\n              jumpi\n              dup1\n              0xb39c4593\n              eq\n              tag_5\n              jumpi\n              dup1\n              0xf2fde38b\n              eq\n              tag_6\n              jumpi\n            tag_1:\n              0x0\n              dup1\n              revert\n                /* \"contracts/vault/GuardRegistry.sol\":77:127  mapping(bytes32 => address) public implementations */\n            tag_2:\n              jumpi(tag_7, iszero(callvalue))\n              0x0\n              dup1\n              revert\n            tag_7:\n              tag_8\n              0x4\n              dup1\n              dup1\n              calldataload\n              not(0x0)\n              and\n              swap1\n              0x20\n              add\n              swap1\n              swap2\n              swap1\n              pop\n              pop\n              jump(tag_9)\n            tag_8:\n              mload(0x40)\n              dup1\n              dup3\n              0xffffffffffffffffffffffffffffffffffffffff\n              and\n              0xffffffffffffffffffffffffffffffffffffffff\n              and\n              dup2\n              mstore\n              0x20\n              add\n              swap2\n              pop\n              pop\n              mload(0x40)\n              dup1\n              swap2\n              sub\n              swap1\n              return\n                /* \"contracts/vault/GuardRegistry.sol\":374:657  function registerGuardImplementation(address impl, bool def) public {... */\n            tag_3:\n              jumpi(tag_10, iszero(callvalue))\n              0x0\n              dup1\n              revert\n            tag_10:\n              tag_11\n              0x4\n              dup1\n              dup1\n              calldataload\n              0xffffffffffffffffffffffffffffffffffffffff\n              and\n              swap1\n              0x20\n              add\n              swap1\n              swap2\n              swap1\n              dup1\n              calldataload\n              iszero\n              iszero\n              swap1\n              0x20\n              add\n              swap1\n              swap2\n              swap1\n              pop\n              pop\n              jump(tag_12)\n            tag_11:\n              stop\n                /* \"contracts/vault/GuardRegistry.sol\":138:158  address public owner */\n            tag_4:\n              jumpi(tag_13, iszero(callvalue))\n              0x0\n              dup1\n              revert\n            tag_13:\n              tag_14\n              jump(tag_15)\n            tag_14:\n              mload(0x40)\n              dup1\n              dup3\n              0xffffffffffffffffffffffffffffffffffffffff\n              and\n              0xffffffffffffffffffffffffffffffffffffffff\n              and\n              dup2\n              mstore\n              0x20\n              add\n              swap2\n              pop\n              pop\n              mload(0x40)\n              dup1\n              swap2\n              sub\n              swap1\n              return\n                /* \"contracts/vault/GuardRegistry.sol\":169:205  bytes32 public defaultImplementation */\n            tag_5:\n              jumpi(tag_16, iszero(callvalue))\n              0x0\n              dup1\n              revert\n            tag_16:\n              tag_17\n              jump(tag_18)\n            tag_17:\n              mload(0x40)\n              dup1\n              dup3\n              not(0x0)\n              and\n              not(0x0)\n              and\n              dup2\n              mstore\n              0x20\n              add\n              swap2\n              pop\n              pop\n              mload(0x40)\n              dup1\n              swap2\n              sub\n              swap1\n              return\n                /* \"contracts/vault/GuardRegistry.sol\":710:842  function transferOwnership(address newOwner) public {... */\n            tag_6:\n              jumpi(tag_19, iszero(callvalue))\n              0x0\n              dup1\n              revert\n            tag_19:\n              tag_20\n              0x4\n              dup1\n              dup1\n              calldataload\n              0xffffffffffffffffffffffffffffffffffffffff\n              and\n              swap1\n              0x20\n              add\n              swap1\n              swap2\n              swap1\n              pop\n              pop\n              jump(tag_21)\n            tag_20:\n              stop\n                /* \"contracts/vault/GuardRegistry.sol\":77:127  mapping(bytes32 => address) public implementations */\n            tag_9:\n              mstore(0x20, 0x0)\n              dup1\n              0x0\n              mstore\n              keccak256(0x0, 0x40)\n              0x0\n              swap2\n              pop\n              sload\n              swap1\n              0x100\n              exp\n              swap1\n              div\n              0xffffffffffffffffffffffffffffffffffffffff\n              and\n              dup2\n              jump\t// out\n                /* \"contracts/vault/GuardRegistry.sol\":374:657  function registerGuardImplementation(address impl, bool def) public {... */\n            tag_12:\n                /* \"contracts/vault/GuardRegistry.sol\":499:509  bytes32 id */\n              0x0\n                /* \"contracts/vault/GuardRegistry.sol\":474:479  owner */\n              0x1\n              0x0\n              swap1\n              sload\n              swap1\n              0x100\n              exp\n              swap1\n              div\n              0xffffffffffffffffffffffffffffffffffffffff\n              and\n                /* \"contracts/vault/GuardRegistry.sol\":460:479  msg.sender == owner */\n              0xffffffffffffffffffffffffffffffffffffffff\n              and\n                /* \"contracts/vault/GuardRegistry.sol\":460:470  msg.sender */\n              caller\n                /* \"contracts/vault/GuardRegistry.sol\":460:479  msg.sender == owner */\n              0xffffffffffffffffffffffffffffffffffffffff\n              and\n              eq\n                /* \"contracts/vault/GuardRegistry.sol\":452:480  require(msg.sender == owner) */\n              iszero\n              iszero\n              tag_23\n              jumpi\n              0x0\n              dup1\n              revert\n            tag_23:\n                /* \"contracts/vault/GuardRegistry.sol\":526:530  impl */\n              dup3\n                /* \"contracts/vault/GuardRegistry.sol\":512:534  GuardIdGetter(impl).id */\n              0xffffffffffffffffffffffffffffffffffffffff\n              and\n              0xaf640d0f\n                /* \"contracts/vault/GuardRegistry.sol\":512:536  GuardIdGetter(impl).id() */\n              mstore(add(0x20, mload(0x40)), 0x0)\n              mload(0x40)\n              dup2\n              0xffffffff\n              and\n              0x100000000000000000000000000000000000000000000000000000000\n              mul\n              dup2\n              mstore\n              0x4\n              add\n              0x20\n              mload(0x40)\n              dup1\n              dup4\n              sub\n              dup2\n              0x0\n              dup8\n              dup1\n              extcodesize\n              iszero\n              iszero\n              tag_24\n              jumpi\n              0x0\n              dup1\n              revert\n            tag_24:\n              sub(gas, 0x2c6)\n              call\n              iszero\n              iszero\n              tag_25\n              jumpi\n              0x0\n              dup1\n              revert\n            tag_25:\n              pop\n              pop\n              pop\n              mload(0x40)\n              dup1\n              mload\n              swap1\n              pop\n                /* \"contracts/vault/GuardRegistry.sol\":499:536  bytes32 id = GuardIdGetter(impl).id() */\n              swap1\n              pop\n                /* \"contracts/vault/GuardRegistry.sol\":577:581  impl */\n              dup3\n                /* \"contracts/vault/GuardRegistry.sol\":555:570  implementations */\n              0x0\n                /* \"contracts/vault/GuardRegistry.sol\":555:574  implementations[id] */\n              dup1\n                /* \"contracts/vault/GuardRegistry.sol\":571:573  id */\n              dup4\n                /* \"contracts/vault/GuardRegistry.sol\":555:574  implementations[id] */\n              not(0x0)\n              and\n              not(0x0)\n              and\n              dup2\n              mstore\n              0x20\n              add\n              swap1\n              dup2\n              mstore\n              0x20\n              add\n              0x0\n              keccak256\n              0x0\n                /* \"contracts/vault/GuardRegistry.sol\":555:581  implementations[id] = impl */\n              0x100\n              exp\n              dup2\n              sload\n              dup2\n              0xffffffffffffffffffffffffffffffffffffffff\n              mul\n              not\n              and\n              swap1\n              dup4\n              0xffffffffffffffffffffffffffffffffffffffff\n              and\n              mul\n              or\n              swap1\n              sstore\n              pop\n                /* \"contracts/vault/GuardRegistry.sol\":595:598  def */\n              dup2\n                /* \"contracts/vault/GuardRegistry.sol\":591:651  if (def) {... */\n              iszero\n              tag_26\n              jumpi\n                /* \"contracts/vault/GuardRegistry.sol\":638:640  id */\n              dup1\n                /* \"contracts/vault/GuardRegistry.sol\":614:635  defaultImplementation */\n              0x2\n                /* \"contracts/vault/GuardRegistry.sol\":614:640  defaultImplementation = id */\n              dup2\n              not(0x0)\n              and\n              swap1\n              sstore\n              pop\n                /* \"contracts/vault/GuardRegistry.sol\":591:651  if (def) {... */\n            tag_26:\n                /* \"contracts/vault/GuardRegistry.sol\":374:657  function registerGuardImplementation(address impl, bool def) public {... */\n            tag_22:\n              pop\n              pop\n              pop\n              jump\t// out\n                /* \"contracts/vault/GuardRegistry.sol\":138:158  address public owner */\n            tag_15:\n              0x1\n              0x0\n              swap1\n              sload\n              swap1\n              0x100\n              exp\n              swap1\n              div\n              0xffffffffffffffffffffffffffffffffffffffff\n              and\n              dup2\n              jump\t// out\n                /* \"contracts/vault/GuardRegistry.sol\":169:205  bytes32 public defaultImplementation */\n            tag_18:\n              sload(0x2)\n              dup2\n              jump\t// out\n                /* \"contracts/vault/GuardRegistry.sol\":710:842  function transferOwnership(address newOwner) public {... */\n            tag_21:\n                /* \"contracts/vault/GuardRegistry.sol\":794:799  owner */\n              0x1\n              0x0\n              swap1\n              sload\n              swap1\n              0x100\n              exp\n              swap1\n              div\n              0xffffffffffffffffffffffffffffffffffffffff\n              and\n                /* \"contracts/vault/GuardRegistry.sol\":780:799  msg.sender == owner */\n              0xffffffffffffffffffffffffffffffffffffffff\n              and\n                /* \"contracts/vault/GuardRegistry.sol\":780:790  msg.sender */\n              caller\n                /* \"contracts/vault/GuardRegistry.sol\":780:799  msg.sender == owner */\n              0xffffffffffffffffffffffffffffffffffffffff\n              and\n              eq\n                /* \"contracts/vault/GuardRegistry.sol\":772:800  require(msg.sender == owner) */\n              iszero\n              iszero\n              tag_28\n              jumpi\n              0x0\n              dup1\n              revert\n            tag_28:\n                /* \"contracts/vault/GuardRegistry.sol\":827:835  newOwner */\n              dup1\n                /* \"contracts/vault/GuardRegistry.sol\":819:824  owner */\n              0x1\n              0x0\n                /* \"contracts/vault/GuardRegistry.sol\":819:835  owner = newOwner */\n              0x100\n              exp\n              dup2\n              sload\n              dup2\n              0xffffffffffffffffffffffffffffffffffffffff\n              mul\n              not\n              and\n              swap1\n              dup4\n              0xffffffffffffffffffffffffffffffffffffffff\n              and\n              mul\n              or\n              swap1\n              sstore\n              pop\n                /* \"contracts/vault/GuardRegistry.sol\":710:842  function transferOwnership(address newOwner) public {... */\n            tag_27:\n              pop\n              jump\t// out\n\n            auxdata: 0xa165627a7a723058206ddacfe69c40d406ee07e06339cac3405d13beee6def089ff15bfd5ba60c32920029\n        }\n    }\n\n    sub_1: assembly {\n            /* \"contracts/vault/SingleOwnerGuard.sol\":70:1487  contract SingleOwnerGuard is Guard {... */\n          mstore(0x40, 0x60)\n          jumpi(tag_1, iszero(callvalue))\n          0x0\n          dup1\n          revert\n        tag_1:\n        tag_2:\n          dataSize(sub_0)\n          dup1\n          dataOffset(sub_0)\n          0x0\n          codecopy\n          0x0\n          return\n        stop\n\n        sub_0: assembly {\n                /* \"contracts/vault/SingleOwnerGuard.sol\":70:1487  contract SingleOwnerGuard is Guard {... */\n              mstore(0x40, 0x60)\n              jumpi(tag_1, iszero(calldatasize))\n              calldataload(0x0)\n              0x100000000000000000000000000000000000000000000000000000000\n              swap1\n              div\n              0xffffffff\n              and\n              dup1\n              0x3cecd719\n              eq\n              tag_2\n              jumpi\n              dup1\n              0x57a07d2e\n              eq\n              tag_3\n              jumpi\n              dup1\n              0x662ea8ec\n              eq\n              tag_4\n              jumpi\n              dup1\n              0x8da5cb5b\n              eq\n              tag_5\n              jumpi\n              dup1\n              0xaf640d0f\n              eq\n              tag_6\n              jumpi\n              dup1\n              0xb9460632\n              eq\n              tag_7\n              jumpi\n              dup1\n              0xc4d66de8\n              eq\n              tag_8\n              jumpi\n            tag_1:\n              0x0\n              dup1\n              revert\n                /* \"contracts/vault/SingleOwnerGuard.sol\":530:692  function cleanup() external {... */\n            tag_2:\n              jumpi(tag_9, iszero(callvalue))\n              0x0\n              dup1\n              revert\n            tag_9:\n              tag_10\n              jump(tag_11)\n            tag_10:\n              stop\n                /* \"contracts/vault/SingleOwnerGuard.sol\":225:250  string[] public publicOps */\n            tag_3:\n              jumpi(tag_12, iszero(callvalue))\n              0x0\n              dup1\n              revert\n            tag_12:\n              tag_13\n              0x4\n              dup1\n              dup1\n              calldataload\n              swap1\n              0x20\n              add\n              swap1\n              swap2\n              swap1\n              pop\n              pop\n              jump(tag_14)\n            tag_13:\n              mload(0x40)\n              dup1\n              dup1\n              0x20\n              add\n              dup3\n              dup2\n              sub\n              dup3\n              mstore\n              dup4\n              dup2\n              dup2\n              mload\n              dup2\n              mstore\n              0x20\n              add\n              swap2\n              pop\n              dup1\n              mload\n              swap1\n              0x20\n              add\n              swap1\n              dup1\n              dup4\n              dup4\n                /* \"--CODEGEN--\":23:24   */\n              0x0\n                /* \"--CODEGEN--\":8:108   */\n            tag_15:\n                /* \"--CODEGEN--\":33:36   */\n              dup4\n                /* \"--CODEGEN--\":30:31   */\n              dup2\n                /* \"--CODEGEN--\":27:29   */\n              lt\n                /* \"--CODEGEN--\":8:108   */\n              iszero\n              tag_16\n              jumpi\n                /* \"--CODEGEN--\":99:100   */\n              dup1\n                /* \"--CODEGEN--\":94:97   */\n              dup3\n                /* \"--CODEGEN--\":90:93   */\n              add\n                /* \"--CODEGEN--\":84:89   */\n              mload\n                /* \"--CODEGEN--\":80:81   */\n              dup2\n                /* \"--CODEGEN--\":75:78   */\n              dup5\n                /* \"--CODEGEN--\":71:74   */\n              add\n                /* \"--CODEGEN--\":64:70   */\n              mstore\n                /* \"--CODEGEN--\":8:108   */\n            tag_17:\n                /* \"--CODEGEN--\":52:54   */\n              0x20\n                /* \"--CODEGEN--\":49:50   */\n              dup2\n                /* \"--CODEGEN--\":45:48   */\n              add\n                /* \"--CODEGEN--\":40:55   */\n              swap1\n              pop\n                /* \"--CODEGEN--\":8:108   */\n              jump(tag_15)\n            tag_16:\n                /* \"--CODEGEN--\":12:26   */\n              pop\n                /* \"--CODEGEN--\":3:112   */\n              pop\n              pop\n              pop\n              swap1\n              pop\n              swap1\n              dup2\n              add\n              swap1\n              0x1f\n              and\n              dup1\n              iszero\n              tag_18\n              jumpi\n              dup1\n              dup3\n              sub\n              dup1\n              mload\n              0x1\n              dup4\n              0x20\n              sub\n              0x100\n              exp\n              sub\n              not\n              and\n              dup2\n              mstore\n              0x20\n              add\n              swap2\n              pop\n            tag_18:\n              pop\n              swap3\n              pop\n              pop\n              pop\n              mload(0x40)\n              dup1\n              swap2\n              sub\n              swap1\n              return\n                /* \"contracts/vault/SingleOwnerGuard.sol\":1188:1320  function addPublicOperation(string op) external {... */\n            tag_4:\n              jumpi(tag_19, iszero(callvalue))\n              0x0\n              dup1\n              revert\n            tag_19:\n              tag_20\n              0x4\n              dup1\n              dup1\n              calldataload\n              swap1\n              0x20\n              add\n              swap1\n              dup3\n              add\n              dup1\n              calldataload\n              swap1\n              0x20\n              add\n              swap2\n              swap1\n              swap2\n              swap3\n              swap1\n              pop\n              pop\n              jump(tag_21)\n            tag_20:\n              stop\n                /* \"contracts/vault/SingleOwnerGuard.sol\":1401:1485  function owner() public view returns (address) {... */\n            tag_5:\n              jumpi(tag_22, iszero(callvalue))\n              0x0\n              dup1\n              revert\n            tag_22:\n              tag_23\n              jump(tag_24)\n            tag_23:\n              mload(0x40)\n              dup1\n              dup3\n              0xffffffffffffffffffffffffffffffffffffffff\n              and\n              0xffffffffffffffffffffffffffffffffffffffff\n              and\n              dup2\n              mstore\n              0x20\n              add\n              swap2\n              pop\n              pop\n              mload(0x40)\n              dup1\n              swap2\n              sub\n              swap1\n              return\n                /* \"contracts/vault/SingleOwnerGuard.sol\":111:154  bytes32 public constant id = \"single-owner\" */\n            tag_6:\n              jumpi(tag_25, iszero(callvalue))\n              0x0\n              dup1\n              revert\n            tag_25:\n              tag_26\n              jump(tag_27)\n            tag_26:\n              mload(0x40)\n              dup1\n              dup3\n              not(0x0)\n              and\n              not(0x0)\n              and\n              dup2\n              mstore\n              0x20\n              add\n              swap2\n              pop\n              pop\n              mload(0x40)\n              dup1\n              swap2\n              sub\n              swap1\n              return\n                /* \"contracts/vault/SingleOwnerGuard.sol\":766:1136  function isAllowed(address who, string op) external view returns (uint8, uint8) {... */\n            tag_7:\n              jumpi(tag_28, iszero(callvalue))\n              0x0\n              dup1\n              revert\n            tag_28:\n              tag_29\n              0x4\n              dup1\n              dup1\n              calldataload\n              0xffffffffffffffffffffffffffffffffffffffff\n              and\n              swap1\n              0x20\n              add\n              swap1\n              swap2\n              swap1\n              dup1\n              calldataload\n              swap1\n              0x20\n              add\n              swap1\n              dup3\n              add\n              dup1\n              calldataload\n              swap1\n              0x20\n              add\n              swap2\n              swap1\n              swap2\n              swap3\n              swap1\n              pop\n              pop\n              jump(tag_30)\n            tag_29:\n              mload(0x40)\n              dup1\n              dup4\n              0xff\n              and\n              0xff\n              and\n              dup2\n              mstore\n              0x20\n              add\n              dup3\n              0xff\n              and\n              0xff\n              and\n              dup2\n              mstore\n              0x20\n              add\n              swap3\n              pop\n              pop\n              pop\n              mload(0x40)\n              dup1\n              swap2\n              sub\n              swap1\n              return\n                /* \"contracts/vault/SingleOwnerGuard.sol\":318:460  function initialize(Vault vault_) external {... */\n            tag_8:\n              jumpi(tag_31, iszero(callvalue))\n              0x0\n              dup1\n              revert\n            tag_31:\n              tag_32\n              0x4\n              dup1\n              dup1\n              calldataload\n              0xffffffffffffffffffffffffffffffffffffffff\n              and\n              swap1\n              0x20\n              add\n              swap1\n              swap2\n              swap1\n              pop\n              pop\n              jump(tag_33)\n            tag_32:\n              stop\n                /* \"contracts/vault/SingleOwnerGuard.sol\":530:692  function cleanup() external {... */\n            tag_11:\n                /* \"contracts/vault/SingleOwnerGuard.sol\":598:603  vault */\n              0x0\n              0x1\n              swap1\n              sload\n              swap1\n              0x100\n              exp\n              swap1\n              div\n              0xffffffffffffffffffffffffffffffffffffffff\n              and\n                /* \"contracts/vault/SingleOwnerGuard.sol\":576:604  msg.sender == address(vault) */\n              0xffffffffffffffffffffffffffffffffffffffff\n              and\n                /* \"contracts/vault/SingleOwnerGuard.sol\":576:586  msg.sender */\n              caller\n                /* \"contracts/vault/SingleOwnerGuard.sol\":576:604  msg.sender == address(vault) */\n              0xffffffffffffffffffffffffffffffffffffffff\n              and\n              eq\n                /* \"contracts/vault/SingleOwnerGuard.sol\":568:605  require(msg.sender == address(vault)) */\n              iszero\n              iszero\n              tag_35\n              jumpi\n              0x0\n              dup1\n              revert\n            tag_35:\n                /* \"contracts/vault/SingleOwnerGuard.sol\":640:644  this */\n              address\n                /* \"contracts/vault/SingleOwnerGuard.sol\":623:644  vault.guard() == this */\n              0xffffffffffffffffffffffffffffffffffffffff\n              and\n                /* \"contracts/vault/SingleOwnerGuard.sol\":623:628  vault */\n              0x0\n              0x1\n              swap1\n              sload\n              swap1\n              0x100\n              exp\n              swap1\n              div\n              0xffffffffffffffffffffffffffffffffffffffff\n              and\n                /* \"contracts/vault/SingleOwnerGuard.sol\":623:634  vault.guard */\n              0xffffffffffffffffffffffffffffffffffffffff\n              and\n              0x7ceab3b1\n                /* \"contracts/vault/SingleOwnerGuard.sol\":623:636  vault.guard() */\n              mstore(add(0x20, mload(0x40)), 0x0)\n              mload(0x40)\n              dup2\n              0xffffffff\n              and\n              0x100000000000000000000000000000000000000000000000000000000\n              mul\n              dup2\n              mstore\n              0x4\n              add\n              0x20\n              mload(0x40)\n              dup1\n              dup4\n              sub\n              dup2\n              0x0\n              dup8\n              dup1\n              extcodesize\n              iszero\n              iszero\n              tag_36\n              jumpi\n              0x0\n              dup1\n              revert\n            tag_36:\n              sub(gas, 0x2c6)\n              call\n              iszero\n              iszero\n              tag_37\n              jumpi\n              0x0\n              dup1\n              revert\n            tag_37:\n              pop\n              pop\n              pop\n              mload(0x40)\n              dup1\n              mload\n              swap1\n              pop\n                /* \"contracts/vault/SingleOwnerGuard.sol\":623:644  vault.guard() == this */\n              0xffffffffffffffffffffffffffffffffffffffff\n              and\n              eq\n                /* \"contracts/vault/SingleOwnerGuard.sol\":615:645  require(vault.guard() == this) */\n              iszero\n              iszero\n              tag_38\n              jumpi\n              0x0\n              dup1\n              revert\n            tag_38:\n                /* \"contracts/vault/SingleOwnerGuard.sol\":677:684  owner() */\n              tag_39\n                /* \"contracts/vault/SingleOwnerGuard.sol\":677:682  owner */\n              tag_24\n                /* \"contracts/vault/SingleOwnerGuard.sol\":677:684  owner() */\n              jump\t// in\n            tag_39:\n                /* \"contracts/vault/SingleOwnerGuard.sol\":664:685  selfdestruct(owner()) */\n              0xffffffffffffffffffffffffffffffffffffffff\n              and\n              selfdestruct\n                /* \"contracts/vault/SingleOwnerGuard.sol\":530:692  function cleanup() external {... */\n            tag_34:\n              jump\t// out\n                /* \"contracts/vault/SingleOwnerGuard.sol\":225:250  string[] public publicOps */\n            tag_14:\n              0x1\n              dup2\n              dup2\n              sload\n              dup2\n              lt\n              iszero\n              iszero\n              tag_40\n              jumpi\n              invalid\n            tag_40:\n              swap1\n              0x0\n              mstore\n              keccak256(0x0, 0x20)\n              swap1\n              add\n              0x0\n            tag_41:\n              swap2\n              pop\n              swap1\n              pop\n              dup1\n              sload\n              0x1\n              dup2\n              0x1\n              and\n              iszero\n              0x100\n              mul\n              sub\n              and\n              0x2\n              swap1\n              div\n              dup1\n              0x1f\n              add\n              0x20\n              dup1\n              swap2\n              div\n              mul\n              0x20\n              add\n              mload(0x40)\n              swap1\n              dup2\n              add\n              0x40\n              mstore\n              dup1\n              swap3\n              swap2\n              swap1\n              dup2\n              dup2\n              mstore\n              0x20\n              add\n              dup3\n              dup1\n              sload\n              0x1\n              dup2\n              0x1\n              and\n              iszero\n              0x100\n              mul\n              sub\n              and\n              0x2\n              swap1\n              div\n              dup1\n              iszero\n              tag_42\n              jumpi\n              dup1\n              0x1f\n              lt\n              tag_43\n              jumpi\n              0x100\n              dup1\n              dup4\n              sload\n              div\n              mul\n              dup4\n              mstore\n              swap2\n              0x20\n              add\n              swap2\n              jump(tag_42)\n            tag_43:\n              dup3\n              add\n              swap2\n              swap1\n              0x0\n              mstore\n              keccak256(0x0, 0x20)\n              swap1\n            tag_44:\n              dup2\n              sload\n              dup2\n              mstore\n              swap1\n              0x1\n              add\n              swap1\n              0x20\n              add\n              dup1\n              dup4\n              gt\n              tag_44\n              jumpi\n              dup3\n              swap1\n              sub\n              0x1f\n              and\n              dup3\n              add\n              swap2\n            tag_42:\n              pop\n              pop\n              pop\n              pop\n              pop\n              dup2\n              jump\t// out\n                /* \"contracts/vault/SingleOwnerGuard.sol\":1188:1320  function addPublicOperation(string op) external {... */\n            tag_21:\n                /* \"contracts/vault/SingleOwnerGuard.sol\":1268:1275  owner() */\n              tag_46\n                /* \"contracts/vault/SingleOwnerGuard.sol\":1268:1273  owner */\n              tag_24\n                /* \"contracts/vault/SingleOwnerGuard.sol\":1268:1275  owner() */\n              jump\t// in\n            tag_46:\n                /* \"contracts/vault/SingleOwnerGuard.sol\":1254:1275  msg.sender == owner() */\n              0xffffffffffffffffffffffffffffffffffffffff\n              and\n                /* \"contracts/vault/SingleOwnerGuard.sol\":1254:1264  msg.sender */\n              caller\n                /* \"contracts/vault/SingleOwnerGuard.sol\":1254:1275  msg.sender == owner() */\n              0xffffffffffffffffffffffffffffffffffffffff\n              and\n              eq\n                /* \"contracts/vault/SingleOwnerGuard.sol\":1246:1276  require(msg.sender == owner()) */\n              iszero\n              iszero\n              tag_47\n              jumpi\n              0x0\n              dup1\n              revert\n            tag_47:\n                /* \"contracts/vault/SingleOwnerGuard.sol\":1295:1304  publicOps */\n              0x1\n                /* \"contracts/vault/SingleOwnerGuard.sol\":1295:1313  publicOps.push(op) */\n              dup1\n              sload\n              dup1\n              0x1\n              add\n              dup3\n              dup2\n              tag_48\n              swap2\n              swap1\n              jump\t// in(tag_49)\n            tag_48:\n              swap2\n              0x0\n              mstore\n              keccak256(0x0, 0x20)\n              swap1\n              add\n              0x0\n            tag_50:\n                /* \"contracts/vault/SingleOwnerGuard.sol\":1310:1312  op */\n              dup5\n              dup5\n                /* \"contracts/vault/SingleOwnerGuard.sol\":1295:1313  publicOps.push(op) */\n              swap1\n              swap2\n              swap3\n              swap1\n              swap2\n              swap3\n              pop\n              swap2\n              swap1\n              tag_51\n              swap3\n              swap2\n              swap1\n              jump\t// in(tag_52)\n            tag_51:\n              pop\n              pop\n                /* \"contracts/vault/SingleOwnerGuard.sol\":1188:1320  function addPublicOperation(string op) external {... */\n            tag_45:\n              pop\n              pop\n              jump\t// out\n                /* \"contracts/vault/SingleOwnerGuard.sol\":1401:1485  function owner() public view returns (address) {... */\n            tag_24:\n                /* \"contracts/vault/SingleOwnerGuard.sol\":1439:1446  address */\n              0x0\n                /* \"contracts/vault/SingleOwnerGuard.sol\":1465:1470  vault */\n              dup1\n              0x1\n              swap1\n              sload\n              swap1\n              0x100\n              exp\n              swap1\n              div\n              0xffffffffffffffffffffffffffffffffffffffff\n              and\n                /* \"contracts/vault/SingleOwnerGuard.sol\":1465:1476  vault.owner */\n              0xffffffffffffffffffffffffffffffffffffffff\n              and\n              0x8da5cb5b\n                /* \"contracts/vault/SingleOwnerGuard.sol\":1465:1478  vault.owner() */\n              mstore(add(0x20, mload(0x40)), 0x0)\n              mload(0x40)\n              dup2\n              0xffffffff\n              and\n              0x100000000000000000000000000000000000000000000000000000000\n              mul\n              dup2\n              mstore\n              0x4\n              add\n              0x20\n              mload(0x40)\n              dup1\n              dup4\n              sub\n              dup2\n              0x0\n              dup8\n              dup1\n              extcodesize\n              iszero\n              iszero\n              tag_54\n              jumpi\n              0x0\n              dup1\n              revert\n            tag_54:\n              sub(gas, 0x2c6)\n              call\n              iszero\n              iszero\n              tag_55\n              jumpi\n              0x0\n              dup1\n              revert\n            tag_55:\n              pop\n              pop\n              pop\n              mload(0x40)\n              dup1\n              mload\n              swap1\n              pop\n                /* \"contracts/vault/SingleOwnerGuard.sol\":1458:1478  return vault.owner() */\n              swap1\n              pop\n                /* \"contracts/vault/SingleOwnerGuard.sol\":1401:1485  function owner() public view returns (address) {... */\n            tag_53:\n              swap1\n              jump\t// out\n                /* \"contracts/vault/SingleOwnerGuard.sol\":111:154  bytes32 public constant id = \"single-owner\" */\n            tag_27:\n              0x73696e676c652d6f776e65720000000000000000000000000000000000000000\n              dup2\n              jump\t// out\n                /* \"contracts/vault/SingleOwnerGuard.sol\":766:1136  function isAllowed(address who, string op) external view returns (uint8, uint8) {... */\n            tag_30:\n                /* \"contracts/vault/SingleOwnerGuard.sol\":832:837  uint8 */\n              0x0\n                /* \"contracts/vault/SingleOwnerGuard.sol\":839:844  uint8 */\n              dup1\n                /* \"contracts/vault/SingleOwnerGuard.sol\":920:926  uint i */\n              0x0\n                /* \"contracts/vault/SingleOwnerGuard.sol\":867:874  owner() */\n              tag_57\n                /* \"contracts/vault/SingleOwnerGuard.sol\":867:872  owner */\n              tag_24\n                /* \"contracts/vault/SingleOwnerGuard.sol\":867:874  owner() */\n              jump\t// in\n            tag_57:\n                /* \"contracts/vault/SingleOwnerGuard.sol\":860:874  who == owner() */\n              0xffffffffffffffffffffffffffffffffffffffff\n              and\n                /* \"contracts/vault/SingleOwnerGuard.sol\":860:863  who */\n              dup7\n                /* \"contracts/vault/SingleOwnerGuard.sol\":860:874  who == owner() */\n              0xffffffffffffffffffffffffffffffffffffffff\n              and\n              eq\n                /* \"contracts/vault/SingleOwnerGuard.sol\":856:896  if (who == owner()) return (NO_ERROR, 1) */\n              iszero\n              tag_58\n              jumpi\n                /* \"contracts/vault/GuardConstants.sol\":90:91  0 */\n              0x0\n                /* \"contracts/vault/SingleOwnerGuard.sol\":894:895  1 */\n              0x1\n                /* \"contracts/vault/SingleOwnerGuard.sol\":876:896  return (NO_ERROR, 1) */\n              dup1\n              swap1\n              pop\n              swap3\n              pop\n              swap3\n              pop\n              jump(tag_56)\n                /* \"contracts/vault/SingleOwnerGuard.sol\":856:896  if (who == owner()) return (NO_ERROR, 1) */\n            tag_58:\n                /* \"contracts/vault/SingleOwnerGuard.sol\":929:930  0 */\n              0x0\n                /* \"contracts/vault/SingleOwnerGuard.sol\":920:930  uint i = 0 */\n              swap1\n              pop\n                /* \"contracts/vault/SingleOwnerGuard.sol\":915:1082  for (uint i = 0; i < publicOps.length; i++) {... */\n            tag_59:\n                /* \"contracts/vault/SingleOwnerGuard.sol\":936:945  publicOps */\n              0x1\n                /* \"contracts/vault/SingleOwnerGuard.sol\":936:952  publicOps.length */\n              dup1\n              sload\n              swap1\n              pop\n                /* \"contracts/vault/SingleOwnerGuard.sol\":932:933  i */\n              dup2\n                /* \"contracts/vault/SingleOwnerGuard.sol\":932:952  i < publicOps.length */\n              lt\n                /* \"contracts/vault/SingleOwnerGuard.sol\":915:1082  for (uint i = 0; i < publicOps.length; i++) {... */\n              iszero\n              tag_60\n              jumpi\n                /* \"contracts/vault/SingleOwnerGuard.sol\":1014:1016  op */\n              dup5\n              dup5\n                /* \"contracts/vault/SingleOwnerGuard.sol\":1004:1017  keccak256(op) */\n              mload(0x40)\n              dup1\n              dup4\n              dup4\n              dup1\n              dup3\n              dup5\n              calldatacopy\n              dup3\n              add\n              swap2\n              pop\n              pop\n              swap3\n              pop\n              pop\n              pop\n              mload(0x40)\n              dup1\n              swap2\n              sub\n              swap1\n              keccak256\n                /* \"contracts/vault/SingleOwnerGuard.sol\":977:1017  keccak256(publicOps[i]) == keccak256(op) */\n              not(0x0)\n              and\n                /* \"contracts/vault/SingleOwnerGuard.sol\":987:996  publicOps */\n              0x1\n                /* \"contracts/vault/SingleOwnerGuard.sol\":997:998  i */\n              dup3\n                /* \"contracts/vault/SingleOwnerGuard.sol\":987:999  publicOps[i] */\n              dup2\n              sload\n              dup2\n              lt\n              iszero\n              iszero\n              tag_62\n              jumpi\n              invalid\n            tag_62:\n              swap1\n              0x0\n              mstore\n              keccak256(0x0, 0x20)\n              swap1\n              add\n              0x0\n            tag_63:\n              pop\n                /* \"contracts/vault/SingleOwnerGuard.sol\":977:1000  keccak256(publicOps[i]) */\n              mload(0x40)\n              dup1\n              dup3\n              dup1\n              sload\n              0x1\n              dup2\n              0x1\n              and\n              iszero\n              0x100\n              mul\n              sub\n              and\n              0x2\n              swap1\n              div\n              dup1\n              iszero\n              tag_64\n              jumpi\n              dup1\n              0x1f\n              lt\n              tag_65\n              jumpi\n              0x100\n              dup1\n              dup4\n              sload\n              div\n              mul\n              dup4\n              mstore\n              swap2\n              dup3\n              add\n              swap2\n              jump(tag_64)\n            tag_65:\n              dup3\n              add\n              swap2\n              swap1\n              0x0\n              mstore\n              keccak256(0x0, 0x20)\n              swap1\n            tag_66:\n              dup2\n              sload\n              dup2\n              mstore\n              swap1\n              0x1\n              add\n              swap1\n              0x20\n              add\n              dup1\n              dup4\n              gt\n              tag_66\n              jumpi\n            tag_64:\n              pop\n              pop\n              swap2\n              pop\n              pop\n              mload(0x40)\n              dup1\n              swap2\n              sub\n              swap1\n              keccak256\n                /* \"contracts/vault/SingleOwnerGuard.sol\":977:1017  keccak256(publicOps[i]) == keccak256(op) */\n              not(0x0)\n              and\n              eq\n                /* \"contracts/vault/SingleOwnerGuard.sol\":973:1072  if (keccak256(publicOps[i]) == keccak256(op)) {... */\n              iszero\n              tag_67\n              jumpi\n                /* \"contracts/vault/GuardConstants.sol\":90:91  0 */\n              0x0\n                /* \"contracts/vault/SingleOwnerGuard.sol\":1055:1056  2 */\n              0x2\n                /* \"contracts/vault/SingleOwnerGuard.sol\":1037:1057  return (NO_ERROR, 2) */\n              dup1\n              swap1\n              pop\n              swap3\n              pop\n              swap3\n              pop\n              jump(tag_56)\n                /* \"contracts/vault/SingleOwnerGuard.sol\":973:1072  if (keccak256(publicOps[i]) == keccak256(op)) {... */\n            tag_67:\n                /* \"contracts/vault/SingleOwnerGuard.sol\":915:1082  for (uint i = 0; i < publicOps.length; i++) {... */\n            tag_61:\n                /* \"contracts/vault/SingleOwnerGuard.sol\":954:957  i++ */\n              dup1\n              dup1\n              0x1\n              add\n              swap2\n              pop\n              pop\n                /* \"contracts/vault/SingleOwnerGuard.sol\":915:1082  for (uint i = 0; i < publicOps.length; i++) {... */\n              jump(tag_59)\n            tag_60:\n                /* \"contracts/vault/GuardConstants.sol\":141:142  1 */\n              0x1\n                /* \"contracts/vault/SingleOwnerGuard.sol\":1127:1128  1 */\n              dup1\n                /* \"contracts/vault/SingleOwnerGuard.sol\":1100:1129  return (PERMISSION_DENIED, 1) */\n              dup1\n              swap1\n              pop\n              swap3\n              pop\n              swap3\n              pop\n                /* \"contracts/vault/SingleOwnerGuard.sol\":766:1136  function isAllowed(address who, string op) external view returns (uint8, uint8) {... */\n            tag_56:\n              pop\n              swap4\n              pop\n              swap4\n              swap2\n              pop\n              pop\n              jump\t// out\n                /* \"contracts/vault/SingleOwnerGuard.sol\":318:460  function initialize(Vault vault_) external {... */\n            tag_33:\n                /* \"contracts/vault/SingleOwnerGuard.sol\":380:391  initialized */\n              0x0\n              dup1\n              swap1\n              sload\n              swap1\n              0x100\n              exp\n              swap1\n              div\n              0xff\n              and\n                /* \"contracts/vault/SingleOwnerGuard.sol\":379:391  !initialized */\n              iszero\n                /* \"contracts/vault/SingleOwnerGuard.sol\":371:392  require(!initialized) */\n              iszero\n              iszero\n              tag_69\n              jumpi\n              0x0\n              dup1\n              revert\n            tag_69:\n                /* \"contracts/vault/SingleOwnerGuard.sol\":419:425  vault_ */\n              dup1\n                /* \"contracts/vault/SingleOwnerGuard.sol\":411:416  vault */\n              0x0\n              0x1\n                /* \"contracts/vault/SingleOwnerGuard.sol\":411:425  vault = vault_ */\n              0x100\n              exp\n              dup2\n              sload\n              dup2\n              0xffffffffffffffffffffffffffffffffffffffff\n              mul\n              not\n              and\n              swap1\n              dup4\n              0xffffffffffffffffffffffffffffffffffffffff\n              and\n              mul\n              or\n              swap1\n              sstore\n              pop\n                /* \"contracts/vault/SingleOwnerGuard.sol\":449:453  true */\n              0x1\n                /* \"contracts/vault/SingleOwnerGuard.sol\":435:446  initialized */\n              0x0\n              dup1\n                /* \"contracts/vault/SingleOwnerGuard.sol\":435:453  initialized = true */\n              0x100\n              exp\n              dup2\n              sload\n              dup2\n              0xff\n              mul\n              not\n              and\n              swap1\n              dup4\n              iszero\n              iszero\n              mul\n              or\n              swap1\n              sstore\n              pop\n                /* \"contracts/vault/SingleOwnerGuard.sol\":318:460  function initialize(Vault vault_) external {... */\n            tag_68:\n              pop\n              jump\t// out\n                /* \"contracts/vault/SingleOwnerGuard.sol\":70:1487  contract SingleOwnerGuard is Guard {... */\n            tag_49:\n              dup2\n              sload\n              dup2\n              dup4\n              sstore\n              dup2\n              dup2\n              iszero\n              gt\n              tag_70\n              jumpi\n              dup2\n              dup4\n              0x0\n              mstore\n              keccak256(0x0, 0x20)\n              swap2\n              dup3\n              add\n              swap2\n              add\n              tag_71\n              swap2\n              swap1\n              jump\t// in(tag_72)\n            tag_71:\n            tag_70:\n              pop\n              pop\n              pop\n              jump\t// out\n            tag_52:\n              dup3\n              dup1\n              sload\n              0x1\n              dup2\n              0x1\n              and\n              iszero\n              0x100\n              mul\n              sub\n              and\n              0x2\n              swap1\n              div\n              swap1\n              0x0\n              mstore\n              keccak256(0x0, 0x20)\n              swap1\n              0x1f\n              add\n              0x20\n              swap1\n              div\n              dup2\n              add\n              swap3\n              dup3\n              0x1f\n              lt\n              tag_74\n              jumpi\n              dup1\n              calldataload\n              not(0xff)\n              and\n              dup4\n              dup1\n              add\n              or\n              dup6\n              sstore\n              jump(tag_73)\n            tag_74:\n              dup3\n              dup1\n              add\n              0x1\n              add\n              dup6\n              sstore\n              dup3\n              iszero\n              tag_73\n              jumpi\n              swap2\n              dup3\n              add\n            tag_75:\n              dup3\n              dup2\n              gt\n              iszero\n              tag_76\n              jumpi\n              dup3\n              calldataload\n              dup3\n              sstore\n              swap2\n              0x20\n              add\n              swap2\n              swap1\n              0x1\n              add\n              swap1\n              jump(tag_75)\n            tag_76:\n            tag_73:\n              pop\n              swap1\n              pop\n              tag_77\n              swap2\n              swap1\n              jump\t// in(tag_78)\n            tag_77:\n              pop\n              swap1\n              jump\t// out\n            tag_72:\n              tag_79\n              swap2\n              swap1\n            tag_80:\n              dup1\n              dup3\n              gt\n              iszero\n              tag_81\n              jumpi\n              0x0\n              dup2\n              dup2\n              tag_82\n              swap2\n              swap1\n              jump\t// in(tag_83)\n            tag_82:\n              pop\n              0x1\n              add\n              jump(tag_80)\n            tag_81:\n              pop\n              swap1\n              jump\n            tag_79:\n              swap1\n              jump\t// out\n            tag_78:\n              tag_84\n              swap2\n              swap1\n            tag_85:\n              dup1\n              dup3\n              gt\n              iszero\n              tag_86\n              jumpi\n              0x0\n              dup2\n              0x0\n              swap1\n              sstore\n              pop\n              0x1\n              add\n              jump(tag_85)\n            tag_86:\n              pop\n              swap1\n              jump\n            tag_84:\n              swap1\n              jump\t// out\n            tag_83:\n              pop\n              dup1\n              sload\n              0x1\n              dup2\n              0x1\n              and\n              iszero\n              0x100\n              mul\n              sub\n              and\n              0x2\n              swap1\n              div\n              0x0\n              dup3\n              sstore\n              dup1\n              0x1f\n              lt\n              tag_88\n              jumpi\n              pop\n              jump(tag_87)\n            tag_88:\n              0x1f\n              add\n              0x20\n              swap1\n              div\n              swap1\n              0x0\n              mstore\n              keccak256(0x0, 0x20)\n              swap1\n              dup2\n              add\n              swap1\n              tag_89\n              swap2\n              swap1\n              jump\t// in(tag_78)\n            tag_89:\n            tag_87:\n              pop\n              jump\t// out\n\n            auxdata: 0xa165627a7a7230582043a756e76afb0b73f3d5563411b98ea86d00c2ccfd0c595ff304f9847fe4789d0029\n        }\n    }\n\n    sub_2: assembly {\n            /* \"contracts/vault/Vault.sol\":834:3305  contract Vault is GuardConstants, EIP1167Factory {... */\n          mstore(0x40, 0x60)\n            /* \"contracts/vault/Vault.sol\":1093:1269  function Vault(GuardRegistry registry_) public {... */\n          jumpi(tag_1, iszero(callvalue))\n          0x0\n          dup1\n          revert\n        tag_1:\n          mload(0x40)\n          0x20\n          dup1\n          bytecodeSize\n          dup4\n          codecopy\n          dup2\n          add\n          0x40\n          mstore\n          dup1\n          dup1\n          mload\n          swap1\n          0x20\n          add\n          swap1\n          swap2\n          swap1\n          pop\n          pop\n        tag_2:\n            /* \"contracts/vault/Vault.sol\":1158:1168  msg.sender */\n          caller\n            /* \"contracts/vault/Vault.sol\":1150:1155  owner */\n          0x0\n          dup1\n            /* \"contracts/vault/Vault.sol\":1150:1168  owner = msg.sender */\n          0x100\n          exp\n          dup2\n          sload\n          dup2\n          0xffffffffffffffffffffffffffffffffffffffff\n          mul\n          not\n          and\n          swap1\n          dup4\n          0xffffffffffffffffffffffffffffffffffffffff\n          and\n          mul\n          or\n          swap1\n          sstore\n          pop\n            /* \"contracts/vault/Vault.sol\":1189:1198  registry_ */\n          dup1\n            /* \"contracts/vault/Vault.sol\":1178:1186  registry */\n          0x2\n          0x0\n            /* \"contracts/vault/Vault.sol\":1178:1198  registry = registry_ */\n          0x100\n          exp\n          dup2\n          sload\n          dup2\n          0xffffffffffffffffffffffffffffffffffffffff\n          mul\n          not\n          and\n          swap1\n          dup4\n          0xffffffffffffffffffffffffffffffffffffffff\n          and\n          mul\n          or\n          swap1\n          sstore\n          pop\n            /* \"contracts/vault/Vault.sol\":1217:1262  createGuard(registry.defaultImplementation()) */\n          tag_4\n            /* \"contracts/vault/Vault.sol\":1229:1237  registry */\n          0x2\n          0x0\n          swap1\n          sload\n          swap1\n          0x100\n          exp\n          swap1\n          div\n          0xffffffffffffffffffffffffffffffffffffffff\n          and\n            /* \"contracts/vault/Vault.sol\":1229:1259  registry.defaultImplementation */\n          0xffffffffffffffffffffffffffffffffffffffff\n          and\n          0xb39c4593\n            /* \"contracts/vault/Vault.sol\":1229:1261  registry.defaultImplementation() */\n          mstore(add(0x20, mload(0x40)), 0x0)\n          mload(0x40)\n          dup2\n          0xffffffff\n          and\n          0x100000000000000000000000000000000000000000000000000000000\n          mul\n          dup2\n          mstore\n          0x4\n          add\n          0x20\n          mload(0x40)\n          dup1\n          dup4\n          sub\n          dup2\n          0x0\n          dup8\n          dup1\n          extcodesize\n          iszero\n          iszero\n          tag_5\n          jumpi\n          0x0\n          dup1\n          revert\n        tag_5:\n          sub(gas, 0x2c6)\n          call\n          iszero\n          iszero\n          tag_6\n          jumpi\n          0x0\n          dup1\n          revert\n        tag_6:\n          pop\n          pop\n          pop\n          mload(0x40)\n          dup1\n          mload\n          swap1\n          pop\n            /* \"contracts/vault/Vault.sol\":1217:1228  createGuard */\n          or(tag_0_51, mul(0x100000000, tag_7))\n            /* \"contracts/vault/Vault.sol\":1217:1262  createGuard(registry.defaultImplementation()) */\n          0x100000000\n          swap1\n          div\n          jump\t// in\n        tag_4:\n          pop\n            /* \"contracts/vault/Vault.sol\":1093:1269  function Vault(GuardRegistry registry_) public {... */\n        tag_3:\n          pop\n            /* \"contracts/vault/Vault.sol\":834:3305  contract Vault is GuardConstants, EIP1167Factory {... */\n          jump(tag_8)\n            /* \"contracts/vault/Vault.sol\":1312:1693  function createGuard(bytes32 implementation) private returns (Guard) {... */\n        tag_7:\n            /* \"contracts/vault/Vault.sol\":1374:1379  Guard */\n          0x0\n            /* \"contracts/vault/Vault.sol\":1391:1403  address impl */\n          dup1\n            /* \"contracts/vault/Vault.sol\":1406:1414  registry */\n          0x2\n          0x0\n          swap1\n          sload\n          swap1\n          0x100\n          exp\n          swap1\n          div\n          0xffffffffffffffffffffffffffffffffffffffff\n          and\n            /* \"contracts/vault/Vault.sol\":1406:1430  registry.implementations */\n          0xffffffffffffffffffffffffffffffffffffffff\n          and\n          0x2cfeaca\n            /* \"contracts/vault/Vault.sol\":1431:1445  implementation */\n          dup5\n            /* \"contracts/vault/Vault.sol\":1406:1446  registry.implementations(implementation) */\n          mstore(add(0x20, mload(0x40)), 0x0)\n          mload(0x40)\n          dup3\n          0xffffffff\n          and\n          0x100000000000000000000000000000000000000000000000000000000\n          mul\n          dup2\n          mstore\n          0x4\n          add\n          dup1\n          dup3\n          not(0x0)\n          and\n          not(0x0)\n          and\n          dup2\n          mstore\n          0x20\n          add\n          swap2\n          pop\n          pop\n          0x20\n          mload(0x40)\n          dup1\n          dup4\n          sub\n          dup2\n          0x0\n          dup8\n          dup1\n          extcodesize\n          iszero\n          iszero\n          tag_10\n          jumpi\n          0x0\n          dup1\n          revert\n        tag_10:\n          sub(gas, 0x2c6)\n          call\n          iszero\n          iszero\n          tag_11\n          jumpi\n          0x0\n          dup1\n          revert\n        tag_11:\n          pop\n          pop\n          pop\n          mload(0x40)\n          dup1\n          mload\n          swap1\n          pop\n            /* \"contracts/vault/Vault.sol\":1391:1446  address impl = registry.implementations(implementation) */\n          swap1\n          pop\n            /* \"contracts/vault/Vault.sol\":1480:1484  0x00 */\n          0x0\n            /* \"contracts/vault/Vault.sol\":1464:1485  impl != address(0x00) */\n          0xffffffffffffffffffffffffffffffffffffffff\n          and\n            /* \"contracts/vault/Vault.sol\":1464:1468  impl */\n          dup2\n            /* \"contracts/vault/Vault.sol\":1464:1485  impl != address(0x00) */\n          0xffffffffffffffffffffffffffffffffffffffff\n          and\n          eq\n          iszero\n            /* \"contracts/vault/Vault.sol\":1456:1486  require(impl != address(0x00)) */\n          iszero\n          iszero\n          tag_12\n          jumpi\n          0x0\n          dup1\n          revert\n        tag_12:\n            /* \"contracts/vault/Vault.sol\":1535:1539  0x00 */\n          0x0\n            /* \"contracts/vault/Vault.sol\":1509:1540  address(guard) != address(0x00) */\n          0xffffffffffffffffffffffffffffffffffffffff\n          and\n            /* \"contracts/vault/Vault.sol\":1517:1522  guard */\n          0x3\n          0x0\n          swap1\n          sload\n          swap1\n          0x100\n          exp\n          swap1\n          div\n          0xffffffffffffffffffffffffffffffffffffffff\n          and\n            /* \"contracts/vault/Vault.sol\":1509:1540  address(guard) != address(0x00) */\n          0xffffffffffffffffffffffffffffffffffffffff\n          and\n          eq\n          iszero\n            /* \"contracts/vault/Vault.sol\":1505:1582  if (address(guard) != address(0x00)) {... */\n          iszero\n          tag_13\n          jumpi\n            /* \"contracts/vault/Vault.sol\":1556:1561  guard */\n          0x3\n          0x0\n          swap1\n          sload\n          swap1\n          0x100\n          exp\n          swap1\n          div\n          0xffffffffffffffffffffffffffffffffffffffff\n          and\n            /* \"contracts/vault/Vault.sol\":1556:1569  guard.cleanup */\n          0xffffffffffffffffffffffffffffffffffffffff\n          and\n          0x3cecd719\n            /* \"contracts/vault/Vault.sol\":1556:1571  guard.cleanup() */\n          mload(0x40)\n          dup2\n          0xffffffff\n          and\n          0x100000000000000000000000000000000000000000000000000000000\n          mul\n          dup2\n          mstore\n          0x4\n          add\n          0x0\n          mload(0x40)\n          dup1\n          dup4\n          sub\n          dup2\n          0x0\n          dup8\n          dup1\n          extcodesize\n          iszero\n          iszero\n          tag_14\n          jumpi\n          0x0\n          dup1\n          revert\n        tag_14:\n          sub(gas, 0x2c6)\n          call\n          iszero\n          iszero\n          tag_15\n          jumpi\n          0x0\n          dup1\n          revert\n        tag_15:\n          pop\n          pop\n          pop\n            /* \"contracts/vault/Vault.sol\":1505:1582  if (address(guard) != address(0x00)) {... */\n        tag_13:\n            /* \"contracts/vault/Vault.sol\":1614:1631  createClone(impl) */\n          tag_16\n            /* \"contracts/vault/Vault.sol\":1626:1630  impl */\n          dup2\n            /* \"contracts/vault/Vault.sol\":1614:1625  createClone */\n          or(tag_0_91, mul(0x100000000, tag_17))\n            /* \"contracts/vault/Vault.sol\":1614:1631  createClone(impl) */\n          0x100000000\n          swap1\n          div\n          jump\t// in\n        tag_16:\n            /* \"contracts/vault/Vault.sol\":1600:1605  guard */\n          0x3\n          0x0\n            /* \"contracts/vault/Vault.sol\":1600:1632  guard = Guard(createClone(impl)) */\n          0x100\n          exp\n          dup2\n          sload\n          dup2\n          0xffffffffffffffffffffffffffffffffffffffff\n          mul\n          not\n          and\n          swap1\n          dup4\n          0xffffffffffffffffffffffffffffffffffffffff\n          and\n          mul\n          or\n          swap1\n          sstore\n          pop\n            /* \"contracts/vault/Vault.sol\":1642:1647  guard */\n          0x3\n          0x0\n          swap1\n          sload\n          swap1\n          0x100\n          exp\n          swap1\n          div\n          0xffffffffffffffffffffffffffffffffffffffff\n          and\n            /* \"contracts/vault/Vault.sol\":1642:1658  guard.initialize */\n          0xffffffffffffffffffffffffffffffffffffffff\n          and\n          0xc4d66de8\n            /* \"contracts/vault/Vault.sol\":1659:1663  this */\n          address\n            /* \"contracts/vault/Vault.sol\":1642:1664  guard.initialize(this) */\n          mload(0x40)\n          dup3\n          0xffffffff\n          and\n          0x100000000000000000000000000000000000000000000000000000000\n          mul\n          dup2\n          mstore\n          0x4\n          add\n          dup1\n          dup3\n          0xffffffffffffffffffffffffffffffffffffffff\n          and\n          0xffffffffffffffffffffffffffffffffffffffff\n          and\n          dup2\n          mstore\n          0x20\n          add\n          swap2\n          pop\n          pop\n          0x0\n          mload(0x40)\n          dup1\n          dup4\n          sub\n          dup2\n          0x0\n          dup8\n          dup1\n          extcodesize\n          iszero\n          iszero\n          tag_18\n          jumpi\n          0x0\n          dup1\n          revert\n        tag_18:\n          sub(gas, 0x2c6)\n          call\n          iszero\n          iszero\n          tag_19\n          jumpi\n          0x0\n          dup1\n          revert\n        tag_19:\n          pop\n          pop\n          pop\n            /* \"contracts/vault/Vault.sol\":1681:1686  guard */\n          0x3\n          0x0\n          swap1\n          sload\n          swap1\n          0x100\n          exp\n          swap1\n          div\n          0xffffffffffffffffffffffffffffffffffffffff\n          and\n            /* \"contracts/vault/Vault.sol\":1674:1686  return guard */\n          swap2\n          pop\n            /* \"contracts/vault/Vault.sol\":1312:1693  function createGuard(bytes32 implementation) private returns (Guard) {... */\n        tag_9:\n          pop\n          swap2\n          swap1\n          pop\n          jump\t// out\n            /* \"contracts/vault/Vault.sol\":345:830  function createClone(address target) internal returns (address result) {... */\n        tag_17:\n            /* \"contracts/vault/Vault.sol\":400:414  address result */\n          0x0\n            /* \"contracts/vault/Vault.sol\":426:445  bytes20 targetBytes */\n          dup1\n            /* \"contracts/vault/Vault.sol\":456:462  target */\n          dup3\n            /* \"contracts/vault/Vault.sol\":448:463  bytes20(target) */\n          0x1000000000000000000000000\n          mul\n            /* \"contracts/vault/Vault.sol\":426:463  bytes20 targetBytes = bytes20(target) */\n          swap1\n          pop\n            /* \"contracts/vault/Vault.sol\":515:519  0x40 */\n          0x40\n            /* \"contracts/vault/Vault.sol\":509:514  mload */\n          mload\n            /* \"contracts/vault/Vault.sol\":547:613  0x3d602d80600a3d3981f3363d3d373d3d3d363d73000000000000000000000000 */\n          0x3d602d80600a3d3981f3363d3d373d3d3d363d73000000000000000000000000\n            /* \"contracts/vault/Vault.sol\":540:545  clone */\n          dup2\n            /* \"contracts/vault/Vault.sol\":533:539  mstore */\n          mstore\n            /* \"contracts/vault/Vault.sol\":652:663  targetBytes */\n          dup2\n            /* \"contracts/vault/Vault.sol\":645:649  0x14 */\n          0x14\n            /* \"contracts/vault/Vault.sol\":638:643  clone */\n          dup3\n            /* \"contracts/vault/Vault.sol\":634:637  add */\n          add\n            /* \"contracts/vault/Vault.sol\":627:633  mstore */\n          mstore\n            /* \"contracts/vault/Vault.sol\":702:768  0x5af43d82803e903d91602b57fd5bf30000000000000000000000000000000000 */\n          0x5af43d82803e903d91602b57fd5bf30000000000000000000000000000000000\n            /* \"contracts/vault/Vault.sol\":695:699  0x28 */\n          0x28\n            /* \"contracts/vault/Vault.sol\":688:693  clone */\n          dup3\n            /* \"contracts/vault/Vault.sol\":684:687  add */\n          add\n            /* \"contracts/vault/Vault.sol\":677:683  mstore */\n          mstore\n            /* \"contracts/vault/Vault.sol\":809:813  0x37 */\n          0x37\n            /* \"contracts/vault/Vault.sol\":802:807  clone */\n          dup2\n            /* \"contracts/vault/Vault.sol\":799:800  0 */\n          0x0\n            /* \"contracts/vault/Vault.sol\":792:798  create */\n          create\n            /* \"contracts/vault/Vault.sol\":782:814  result := create(0, clone, 0x37) */\n          swap3\n          pop\n            /* \"contracts/vault/Vault.sol\":482:824  {... */\n          pop\n        tag_20:\n          pop\n          swap2\n          swap1\n          pop\n          jump\t// out\n            /* \"contracts/vault/Vault.sol\":834:3305  contract Vault is GuardConstants, EIP1167Factory {... */\n        tag_8:\n          dataSize(sub_0)\n          dup1\n          dataOffset(sub_0)\n          0x0\n          codecopy\n          0x0\n          return\n        stop\n\n        sub_0: assembly {\n                /* \"contracts/vault/Vault.sol\":834:3305  contract Vault is GuardConstants, EIP1167Factory {... */\n              mstore(0x40, 0x60)\n              jumpi(tag_1, iszero(calldatasize))\n              calldataload(0x0)\n              0x100000000000000000000000000000000000000000000000000000000\n              swap1\n              div\n              0xffffffff\n              and\n              dup1\n              0x46c469a4\n              eq\n              tag_2\n              jumpi\n              dup1\n              0x47e7ef24\n              eq\n              tag_3\n              jumpi\n              dup1\n              0x79ba5097\n              eq\n              tag_4\n              jumpi\n              dup1\n              0x7b103999\n              eq\n              tag_5\n              jumpi\n              dup1\n              0x7ceab3b1\n              eq\n              tag_6\n              jumpi\n              dup1\n              0x8da5cb5b\n              eq\n              tag_7\n              jumpi\n              dup1\n              0xc23f001f\n              eq\n              tag_8\n              jumpi\n              dup1\n              0xc4bf0220\n              eq\n              tag_9\n              jumpi\n              dup1\n              0xe30c3978\n              eq\n              tag_10\n              jumpi\n              dup1\n              0xf2fde38b\n              eq\n              tag_11\n              jumpi\n              dup1\n              0xf3fef3a3\n              eq\n              tag_12\n              jumpi\n            tag_1:\n              0x0\n              dup1\n              revert\n                /* \"contracts/vault/Vault.sol\":1958:2111  function updateGuard(bytes32 impl) public returns (Guard) {... */\n            tag_2:\n              jumpi(tag_13, iszero(callvalue))\n              0x0\n              dup1\n              revert\n            tag_13:\n              tag_14\n              0x4\n              dup1\n              dup1\n              calldataload\n              not(0x0)\n              and\n              swap1\n              0x20\n              add\n              swap1\n              swap2\n              swap1\n              pop\n              pop\n              jump(tag_15)\n            tag_14:\n              mload(0x40)\n              dup1\n              dup3\n              0xffffffffffffffffffffffffffffffffffffffff\n              and\n              0xffffffffffffffffffffffffffffffffffffffff\n              and\n              dup2\n              mstore\n              0x20\n              add\n              swap2\n              pop\n              pop\n              mload(0x40)\n              dup1\n              swap2\n              sub\n              swap1\n              return\n                /* \"contracts/vault/Vault.sol\":2143:2379  function deposit(ERC20Like tok, uint amnt) public {... */\n            tag_3:\n              jumpi(tag_16, iszero(callvalue))\n              0x0\n              dup1\n              revert\n            tag_16:\n              tag_17\n              0x4\n              dup1\n              dup1\n              calldataload\n              0xffffffffffffffffffffffffffffffffffffffff\n              and\n              swap1\n              0x20\n              add\n              swap1\n              swap2\n              swap1\n              dup1\n              calldataload\n              swap1\n              0x20\n              add\n              swap1\n              swap2\n              swap1\n              pop\n              pop\n              jump(tag_18)\n            tag_17:\n              stop\n                /* \"contracts/vault/Vault.sol\":3140:3303  function acceptOwnership() public {... */\n            tag_4:\n              jumpi(tag_19, iszero(callvalue))\n              0x0\n              dup1\n              revert\n            tag_19:\n              tag_20\n              jump(tag_21)\n            tag_20:\n              stop\n                /* \"contracts/vault/Vault.sol\":953:982  GuardRegistry public registry */\n            tag_5:\n              jumpi(tag_22, iszero(callvalue))\n              0x0\n              dup1\n              revert\n            tag_22:\n              tag_23\n              jump(tag_24)\n            tag_23:\n              mload(0x40)\n              dup1\n              dup3\n              0xffffffffffffffffffffffffffffffffffffffff\n              and\n              0xffffffffffffffffffffffffffffffffffffffff\n              and\n              dup2\n              mstore\n              0x20\n              add\n              swap2\n              pop\n              pop\n              mload(0x40)\n              dup1\n              swap2\n              sub\n              swap1\n              return\n                /* \"contracts/vault/Vault.sol\":993:1011  Guard public guard */\n            tag_6:\n              jumpi(tag_25, iszero(callvalue))\n              0x0\n              dup1\n              revert\n            tag_25:\n              tag_26\n              jump(tag_27)\n            tag_26:\n              mload(0x40)\n              dup1\n              dup3\n              0xffffffffffffffffffffffffffffffffffffffff\n              and\n              0xffffffffffffffffffffffffffffffffffffffff\n              and\n              dup2\n              mstore\n              0x20\n              add\n              swap2\n              pop\n              pop\n              mload(0x40)\n              dup1\n              swap2\n              sub\n              swap1\n              return\n                /* \"contracts/vault/Vault.sol\":889:909  address public owner */\n            tag_7:\n              jumpi(tag_28, iszero(callvalue))\n              0x0\n              dup1\n              revert\n            tag_28:\n              tag_29\n              jump(tag_30)\n            tag_29:\n              mload(0x40)\n              dup1\n              dup3\n              0xffffffffffffffffffffffffffffffffffffffff\n              and\n              0xffffffffffffffffffffffffffffffffffffffff\n              and\n              dup2\n              mstore\n              0x20\n              add\n              swap2\n              pop\n              pop\n              mload(0x40)\n              dup1\n              swap2\n              sub\n              swap1\n              return\n                /* \"contracts/vault/Vault.sol\":1022:1082  mapping(address => mapping(address => uint)) public balances */\n            tag_8:\n              jumpi(tag_31, iszero(callvalue))\n              0x0\n              dup1\n              revert\n            tag_31:\n              tag_32\n              0x4\n              dup1\n              dup1\n              calldataload\n              0xffffffffffffffffffffffffffffffffffffffff\n              and\n              swap1\n              0x20\n              add\n              swap1\n              swap2\n              swap1\n              dup1\n              calldataload\n              0xffffffffffffffffffffffffffffffffffffffff\n              and\n              swap1\n              0x20\n              add\n              swap1\n              swap2\n              swap1\n              pop\n              pop\n              jump(tag_33)\n            tag_32:\n              mload(0x40)\n              dup1\n              dup3\n              dup2\n              mstore\n              0x20\n              add\n              swap2\n              pop\n              pop\n              mload(0x40)\n              dup1\n              swap2\n              sub\n              swap1\n              return\n                /* \"contracts/vault/Vault.sol\":2729:2901  function emergencyCall(address target, bytes memory data) public {... */\n            tag_9:\n              jumpi(tag_34, iszero(callvalue))\n              0x0\n              dup1\n              revert\n            tag_34:\n              tag_35\n              0x4\n              dup1\n              dup1\n              calldataload\n              0xffffffffffffffffffffffffffffffffffffffff\n              and\n              swap1\n              0x20\n              add\n              swap1\n              swap2\n              swap1\n              dup1\n              calldataload\n              swap1\n              0x20\n              add\n              swap1\n              dup3\n              add\n              dup1\n              calldataload\n              swap1\n              0x20\n              add\n              swap1\n              dup1\n              dup1\n              0x1f\n              add\n              0x20\n              dup1\n              swap2\n              div\n              mul\n              0x20\n              add\n              mload(0x40)\n              swap1\n              dup2\n              add\n              0x40\n              mstore\n              dup1\n              swap4\n              swap3\n              swap2\n              swap1\n              dup2\n              dup2\n              mstore\n              0x20\n              add\n              dup4\n              dup4\n              dup1\n              dup3\n              dup5\n              calldatacopy\n              dup3\n              add\n              swap2\n              pop\n              pop\n              pop\n              pop\n              pop\n              pop\n              swap2\n              swap1\n              pop\n              pop\n              jump(tag_36)\n            tag_35:\n              stop\n                /* \"contracts/vault/Vault.sol\":915:942  address public pendingOwner */\n            tag_10:\n              jumpi(tag_37, iszero(callvalue))\n              0x0\n              dup1\n              revert\n            tag_37:\n              tag_38\n              jump(tag_39)\n            tag_38:\n              mload(0x40)\n              dup1\n              dup3\n              0xffffffffffffffffffffffffffffffffffffffff\n              and\n              0xffffffffffffffffffffffffffffffffffffffff\n              and\n              dup2\n              mstore\n              0x20\n              add\n              swap2\n              pop\n              pop\n              mload(0x40)\n              dup1\n              swap2\n              sub\n              swap1\n              return\n                /* \"contracts/vault/Vault.sol\":2954:3093  function transferOwnership(address newOwner) public {... */\n            tag_11:\n              jumpi(tag_40, iszero(callvalue))\n              0x0\n              dup1\n              revert\n            tag_40:\n              tag_41\n              0x4\n              dup1\n              dup1\n              calldataload\n              0xffffffffffffffffffffffffffffffffffffffff\n              and\n              swap1\n              0x20\n              add\n              swap1\n              swap2\n              swap1\n              pop\n              pop\n              jump(tag_42)\n            tag_41:\n              stop\n                /* \"contracts/vault/Vault.sol\":2412:2692  function withdraw(ERC20Like tok, uint amnt) public {... */\n            tag_12:\n              jumpi(tag_43, iszero(callvalue))\n              0x0\n              dup1\n              revert\n            tag_43:\n              tag_44\n              0x4\n              dup1\n              dup1\n              calldataload\n              0xffffffffffffffffffffffffffffffffffffffff\n              and\n              swap1\n              0x20\n              add\n              swap1\n              swap2\n              swap1\n              dup1\n              calldataload\n              swap1\n              0x20\n              add\n              swap1\n              swap2\n              swap1\n              pop\n              pop\n              jump(tag_45)\n            tag_44:\n              stop\n                /* \"contracts/vault/Vault.sol\":1958:2111  function updateGuard(bytes32 impl) public returns (Guard) {... */\n            tag_15:\n                /* \"contracts/vault/Vault.sol\":2009:2014  Guard */\n              0x0\n                /* \"contracts/vault/Vault.sol\":2034:2060  checkAccess(\"updateGuard\") */\n              tag_47\n              0x40\n              dup1\n              mload\n              swap1\n              dup2\n              add\n              0x40\n              mstore\n              dup1\n              0xb\n              dup2\n              mstore\n              0x20\n              add\n              0x7570646174654775617264000000000000000000000000000000000000000000\n              dup2\n              mstore\n              pop\n                /* \"contracts/vault/Vault.sol\":2034:2045  checkAccess */\n              tag_48\n                /* \"contracts/vault/Vault.sol\":2034:2060  checkAccess(\"updateGuard\") */\n              jump\t// in\n            tag_47:\n                /* \"contracts/vault/Vault.sol\":2026:2061  require(checkAccess(\"updateGuard\")) */\n              iszero\n              iszero\n              tag_49\n              jumpi\n              0x0\n              dup1\n              revert\n            tag_49:\n                /* \"contracts/vault/Vault.sol\":2087:2104  createGuard(impl) */\n              tag_50\n                /* \"contracts/vault/Vault.sol\":2099:2103  impl */\n              dup3\n                /* \"contracts/vault/Vault.sol\":2087:2098  createGuard */\n              tag_51\n                /* \"contracts/vault/Vault.sol\":2087:2104  createGuard(impl) */\n              jump\t// in\n            tag_50:\n                /* \"contracts/vault/Vault.sol\":2080:2104  return createGuard(impl) */\n              swap1\n              pop\n                /* \"contracts/vault/Vault.sol\":1958:2111  function updateGuard(bytes32 impl) public returns (Guard) {... */\n            tag_46:\n              swap2\n              swap1\n              pop\n              jump\t// out\n                /* \"contracts/vault/Vault.sol\":2143:2379  function deposit(ERC20Like tok, uint amnt) public {... */\n            tag_18:\n                /* \"contracts/vault/Vault.sol\":2211:2233  checkAccess(\"deposit\") */\n              tag_53\n              0x40\n              dup1\n              mload\n              swap1\n              dup2\n              add\n              0x40\n              mstore\n              dup1\n              0x7\n              dup2\n              mstore\n              0x20\n              add\n              0x6465706f73697400000000000000000000000000000000000000000000000000\n              dup2\n              mstore\n              pop\n                /* \"contracts/vault/Vault.sol\":2211:2222  checkAccess */\n              tag_48\n                /* \"contracts/vault/Vault.sol\":2211:2233  checkAccess(\"deposit\") */\n              jump\t// in\n            tag_53:\n                /* \"contracts/vault/Vault.sol\":2203:2234  require(checkAccess(\"deposit\")) */\n              iszero\n              iszero\n              tag_54\n              jumpi\n              0x0\n              dup1\n              revert\n            tag_54:\n                /* \"contracts/vault/Vault.sol\":2261:2264  tok */\n              dup2\n                /* \"contracts/vault/Vault.sol\":2261:2277  tok.transferFrom */\n              0xffffffffffffffffffffffffffffffffffffffff\n              and\n              0x23b872dd\n                /* \"contracts/vault/Vault.sol\":2278:2288  msg.sender */\n              caller\n                /* \"contracts/vault/Vault.sol\":2298:2302  this */\n              address\n                /* \"contracts/vault/Vault.sol\":2305:2309  amnt */\n              dup5\n                /* \"contracts/vault/Vault.sol\":2261:2310  tok.transferFrom(msg.sender, address(this), amnt) */\n              mstore(add(0x20, mload(0x40)), 0x0)\n              mload(0x40)\n              dup5\n              0xffffffff\n              and\n              0x100000000000000000000000000000000000000000000000000000000\n              mul\n              dup2\n              mstore\n              0x4\n              add\n              dup1\n              dup5\n              0xffffffffffffffffffffffffffffffffffffffff\n              and\n              0xffffffffffffffffffffffffffffffffffffffff\n              and\n              dup2\n              mstore\n              0x20\n              add\n              dup4\n              0xffffffffffffffffffffffffffffffffffffffff\n              and\n              0xffffffffffffffffffffffffffffffffffffffff\n              and\n              dup2\n              mstore\n              0x20\n              add\n              dup3\n              dup2\n              mstore\n              0x20\n              add\n              swap4\n              pop\n              pop\n              pop\n              pop\n              0x20\n              mload(0x40)\n              dup1\n              dup4\n              sub\n              dup2\n              0x0\n              dup8\n              dup1\n              extcodesize\n              iszero\n              iszero\n              tag_55\n              jumpi\n              0x0\n              dup1\n              revert\n            tag_55:\n              sub(gas, 0x2c6)\n              call\n              iszero\n              iszero\n              tag_56\n              jumpi\n              0x0\n              dup1\n              revert\n            tag_56:\n              pop\n              pop\n              pop\n              mload(0x40)\n              dup1\n              mload\n              swap1\n              pop\n                /* \"contracts/vault/Vault.sol\":2253:2311  require(tok.transferFrom(msg.sender, address(this), amnt)) */\n              iszero\n              iszero\n              tag_57\n              jumpi\n              0x0\n              dup1\n              revert\n            tag_57:\n                /* \"contracts/vault/Vault.sol\":2368:2372  amnt */\n              dup1\n                /* \"contracts/vault/Vault.sol\":2330:2338  balances */\n              0x4\n                /* \"contracts/vault/Vault.sol\":2330:2350  balances[msg.sender] */\n              0x0\n                /* \"contracts/vault/Vault.sol\":2339:2349  msg.sender */\n              caller\n                /* \"contracts/vault/Vault.sol\":2330:2350  balances[msg.sender] */\n              0xffffffffffffffffffffffffffffffffffffffff\n              and\n              0xffffffffffffffffffffffffffffffffffffffff\n              and\n              dup2\n              mstore\n              0x20\n              add\n              swap1\n              dup2\n              mstore\n              0x20\n              add\n              0x0\n              keccak256\n                /* \"contracts/vault/Vault.sol\":2330:2364  balances[msg.sender][address(tok)] */\n              0x0\n                /* \"contracts/vault/Vault.sol\":2359:2362  tok */\n              dup5\n                /* \"contracts/vault/Vault.sol\":2330:2364  balances[msg.sender][address(tok)] */\n              0xffffffffffffffffffffffffffffffffffffffff\n              and\n              0xffffffffffffffffffffffffffffffffffffffff\n              and\n              dup2\n              mstore\n              0x20\n              add\n              swap1\n              dup2\n              mstore\n              0x20\n              add\n              0x0\n              keccak256\n              0x0\n                /* \"contracts/vault/Vault.sol\":2330:2372  balances[msg.sender][address(tok)] += amnt */\n              dup3\n              dup3\n              sload\n              add\n              swap3\n              pop\n              pop\n              dup2\n              swap1\n              sstore\n              pop\n                /* \"contracts/vault/Vault.sol\":2143:2379  function deposit(ERC20Like tok, uint amnt) public {... */\n            tag_52:\n              pop\n              pop\n              jump\t// out\n                /* \"contracts/vault/Vault.sol\":3140:3303  function acceptOwnership() public {... */\n            tag_21:\n                /* \"contracts/vault/Vault.sol\":3206:3218  pendingOwner */\n              0x1\n              0x0\n              swap1\n              sload\n              swap1\n              0x100\n              exp\n              swap1\n              div\n              0xffffffffffffffffffffffffffffffffffffffff\n              and\n                /* \"contracts/vault/Vault.sol\":3192:3218  msg.sender == pendingOwner */\n              0xffffffffffffffffffffffffffffffffffffffff\n              and\n                /* \"contracts/vault/Vault.sol\":3192:3202  msg.sender */\n              caller\n                /* \"contracts/vault/Vault.sol\":3192:3218  msg.sender == pendingOwner */\n              0xffffffffffffffffffffffffffffffffffffffff\n              and\n              eq\n                /* \"contracts/vault/Vault.sol\":3184:3219  require(msg.sender == pendingOwner) */\n              iszero\n              iszero\n              tag_59\n              jumpi\n              0x0\n              dup1\n              revert\n            tag_59:\n                /* \"contracts/vault/Vault.sol\":3246:3258  pendingOwner */\n              0x1\n              0x0\n              swap1\n              sload\n              swap1\n              0x100\n              exp\n              swap1\n              div\n              0xffffffffffffffffffffffffffffffffffffffff\n              and\n                /* \"contracts/vault/Vault.sol\":3238:3243  owner */\n              0x0\n              dup1\n                /* \"contracts/vault/Vault.sol\":3238:3258  owner = pendingOwner */\n              0x100\n              exp\n              dup2\n              sload\n              dup2\n              0xffffffffffffffffffffffffffffffffffffffff\n              mul\n              not\n              and\n              swap1\n              dup4\n              0xffffffffffffffffffffffffffffffffffffffff\n              and\n              mul\n              or\n              swap1\n              sstore\n              pop\n                /* \"contracts/vault/Vault.sol\":3291:3295  0x00 */\n              0x0\n                /* \"contracts/vault/Vault.sol\":3268:3280  pendingOwner */\n              0x1\n              0x0\n                /* \"contracts/vault/Vault.sol\":3268:3296  pendingOwner = address(0x00) */\n              0x100\n              exp\n              dup2\n              sload\n              dup2\n              0xffffffffffffffffffffffffffffffffffffffff\n              mul\n              not\n              and\n              swap1\n              dup4\n              0xffffffffffffffffffffffffffffffffffffffff\n              and\n              mul\n              or\n              swap1\n              sstore\n              pop\n                /* \"contracts/vault/Vault.sol\":3140:3303  function acceptOwnership() public {... */\n            tag_58:\n              jump\t// out\n                /* \"contracts/vault/Vault.sol\":953:982  GuardRegistry public registry */\n            tag_24:\n              0x2\n              0x0\n              swap1\n              sload\n              swap1\n              0x100\n              exp\n              swap1\n              div\n              0xffffffffffffffffffffffffffffffffffffffff\n              and\n              dup2\n              jump\t// out\n                /* \"contracts/vault/Vault.sol\":993:1011  Guard public guard */\n            tag_27:\n              0x3\n              0x0\n              swap1\n              sload\n              swap1\n              0x100\n              exp\n              swap1\n              div\n              0xffffffffffffffffffffffffffffffffffffffff\n              and\n              dup2\n              jump\t// out\n                /* \"contracts/vault/Vault.sol\":889:909  address public owner */\n            tag_30:\n              0x0\n              dup1\n              swap1\n              sload\n              swap1\n              0x100\n              exp\n              swap1\n              div\n              0xffffffffffffffffffffffffffffffffffffffff\n              and\n              dup2\n              jump\t// out\n                /* \"contracts/vault/Vault.sol\":1022:1082  mapping(address => mapping(address => uint)) public balances */\n            tag_33:\n              mstore(0x20, 0x4)\n              dup2\n              0x0\n              mstore\n              mstore(0x20, keccak256(0x0, 0x40))\n              dup1\n              0x0\n              mstore\n              keccak256(0x0, 0x40)\n              0x0\n              swap2\n              pop\n              swap2\n              pop\n              pop\n              sload\n              dup2\n              jump\t// out\n                /* \"contracts/vault/Vault.sol\":2729:2901  function emergencyCall(address target, bytes memory data) public {... */\n            tag_36:\n                /* \"contracts/vault/Vault.sol\":2812:2840  checkAccess(\"emergencyCall\") */\n              tag_61\n              0x40\n              dup1\n              mload\n              swap1\n              dup2\n              add\n              0x40\n              mstore\n              dup1\n              0xd\n              dup2\n              mstore\n              0x20\n              add\n              0x656d657267656e637943616c6c00000000000000000000000000000000000000\n              dup2\n              mstore\n              pop\n                /* \"contracts/vault/Vault.sol\":2812:2823  checkAccess */\n              tag_48\n                /* \"contracts/vault/Vault.sol\":2812:2840  checkAccess(\"emergencyCall\") */\n              jump\t// in\n            tag_61:\n                /* \"contracts/vault/Vault.sol\":2804:2841  require(checkAccess(\"emergencyCall\")) */\n              iszero\n              iszero\n              tag_62\n              jumpi\n              0x0\n              dup1\n              revert\n            tag_62:\n                /* \"contracts/vault/Vault.sol\":2868:2874  target */\n              dup2\n                /* \"contracts/vault/Vault.sol\":2868:2887  target.delegatecall */\n              0xffffffffffffffffffffffffffffffffffffffff\n              and\n                /* \"contracts/vault/Vault.sol\":2888:2892  data */\n              dup2\n                /* \"contracts/vault/Vault.sol\":2868:2893  target.delegatecall(data) */\n              mload(0x40)\n              dup1\n              dup3\n              dup1\n              mload\n              swap1\n              0x20\n              add\n              swap1\n              dup1\n              dup4\n              dup4\n                /* \"--CODEGEN--\":23:24   */\n              0x0\n                /* \"--CODEGEN--\":8:108   */\n            tag_63:\n                /* \"--CODEGEN--\":33:36   */\n              dup4\n                /* \"--CODEGEN--\":30:31   */\n              dup2\n                /* \"--CODEGEN--\":27:29   */\n              lt\n                /* \"--CODEGEN--\":8:108   */\n              iszero\n              tag_64\n              jumpi\n                /* \"--CODEGEN--\":99:100   */\n              dup1\n                /* \"--CODEGEN--\":94:97   */\n              dup3\n                /* \"--CODEGEN--\":90:93   */\n              add\n                /* \"--CODEGEN--\":84:89   */\n              mload\n                /* \"--CODEGEN--\":80:81   */\n              dup2\n                /* \"--CODEGEN--\":75:78   */\n              dup5\n                /* \"--CODEGEN--\":71:74   */\n              add\n                /* \"--CODEGEN--\":64:70   */\n              mstore\n                /* \"--CODEGEN--\":8:108   */\n            tag_65:\n                /* \"--CODEGEN--\":52:54   */\n              0x20\n                /* \"--CODEGEN--\":49:50   */\n              dup2\n                /* \"--CODEGEN--\":45:48   */\n              add\n                /* \"--CODEGEN--\":40:55   */\n              swap1\n              pop\n                /* \"--CODEGEN--\":8:108   */\n              jump(tag_63)\n            tag_64:\n                /* \"--CODEGEN--\":12:26   */\n              pop\n                /* \"--CODEGEN--\":3:112   */\n              pop\n              pop\n              pop\n              swap1\n              pop\n              swap1\n              dup2\n              add\n              swap1\n              0x1f\n              and\n              dup1\n              iszero\n              tag_66\n              jumpi\n              dup1\n              dup3\n              sub\n              dup1\n              mload\n              0x1\n              dup4\n              0x20\n              sub\n              0x100\n              exp\n              sub\n              not\n              and\n              dup2\n              mstore\n              0x20\n              add\n              swap2\n              pop\n            tag_66:\n              pop\n              swap2\n              pop\n              pop\n              0x0\n              mload(0x40)\n              dup1\n              dup4\n              sub\n              dup2\n              dup6\n              sub(gas, 0x646e)\n              delegatecall\n              swap2\n              pop\n              pop\n                /* \"contracts/vault/Vault.sol\":2860:2894  require(target.delegatecall(data)) */\n              iszero\n              iszero\n              tag_67\n              jumpi\n              0x0\n              dup1\n              revert\n            tag_67:\n                /* \"contracts/vault/Vault.sol\":2729:2901  function emergencyCall(address target, bytes memory data) public {... */\n            tag_60:\n              pop\n              pop\n              jump\t// out\n                /* \"contracts/vault/Vault.sol\":915:942  address public pendingOwner */\n            tag_39:\n              0x1\n              0x0\n              swap1\n              sload\n              swap1\n              0x100\n              exp\n              swap1\n              div\n              0xffffffffffffffffffffffffffffffffffffffff\n              and\n              dup2\n              jump\t// out\n                /* \"contracts/vault/Vault.sol\":2954:3093  function transferOwnership(address newOwner) public {... */\n            tag_42:\n                /* \"contracts/vault/Vault.sol\":3038:3043  owner */\n              0x0\n              dup1\n              swap1\n              sload\n              swap1\n              0x100\n              exp\n              swap1\n              div\n              0xffffffffffffffffffffffffffffffffffffffff\n              and\n                /* \"contracts/vault/Vault.sol\":3024:3043  msg.sender == owner */\n              0xffffffffffffffffffffffffffffffffffffffff\n              and\n                /* \"contracts/vault/Vault.sol\":3024:3034  msg.sender */\n              caller\n                /* \"contracts/vault/Vault.sol\":3024:3043  msg.sender == owner */\n              0xffffffffffffffffffffffffffffffffffffffff\n              and\n              eq\n                /* \"contracts/vault/Vault.sol\":3016:3044  require(msg.sender == owner) */\n              iszero\n              iszero\n              tag_69\n              jumpi\n              0x0\n              dup1\n              revert\n            tag_69:\n                /* \"contracts/vault/Vault.sol\":3078:3086  newOwner */\n              dup1\n                /* \"contracts/vault/Vault.sol\":3063:3075  pendingOwner */\n              0x1\n              0x0\n                /* \"contracts/vault/Vault.sol\":3063:3086  pendingOwner = newOwner */\n              0x100\n              exp\n              dup2\n              sload\n              dup2\n              0xffffffffffffffffffffffffffffffffffffffff\n              mul\n              not\n              and\n              swap1\n              dup4\n              0xffffffffffffffffffffffffffffffffffffffff\n              and\n              mul\n              or\n              swap1\n              sstore\n              pop\n                /* \"contracts/vault/Vault.sol\":2954:3093  function transferOwnership(address newOwner) public {... */\n            tag_68:\n              pop\n              jump\t// out\n                /* \"contracts/vault/Vault.sol\":2412:2692  function withdraw(ERC20Like tok, uint amnt) public {... */\n            tag_45:\n                /* \"contracts/vault/Vault.sol\":2481:2504  checkAccess(\"withdraw\") */\n              tag_71\n              0x40\n              dup1\n              mload\n              swap1\n              dup2\n              add\n              0x40\n              mstore\n              dup1\n              0x8\n              dup2\n              mstore\n              0x20\n              add\n              0x7769746864726177000000000000000000000000000000000000000000000000\n              dup2\n              mstore\n              pop\n                /* \"contracts/vault/Vault.sol\":2481:2492  checkAccess */\n              tag_48\n                /* \"contracts/vault/Vault.sol\":2481:2504  checkAccess(\"withdraw\") */\n              jump\t// in\n            tag_71:\n                /* \"contracts/vault/Vault.sol\":2473:2505  require(checkAccess(\"withdraw\")) */\n              iszero\n              iszero\n              tag_72\n              jumpi\n              0x0\n              dup1\n              revert\n            tag_72:\n                /* \"contracts/vault/Vault.sol\":2570:2574  amnt */\n              dup1\n                /* \"contracts/vault/Vault.sol\":2532:2540  balances */\n              0x4\n                /* \"contracts/vault/Vault.sol\":2532:2552  balances[msg.sender] */\n              0x0\n                /* \"contracts/vault/Vault.sol\":2541:2551  msg.sender */\n              caller\n                /* \"contracts/vault/Vault.sol\":2532:2552  balances[msg.sender] */\n              0xffffffffffffffffffffffffffffffffffffffff\n              and\n              0xffffffffffffffffffffffffffffffffffffffff\n              and\n              dup2\n              mstore\n              0x20\n              add\n              swap1\n              dup2\n              mstore\n              0x20\n              add\n              0x0\n              keccak256\n                /* \"contracts/vault/Vault.sol\":2532:2566  balances[msg.sender][address(tok)] */\n              0x0\n                /* \"contracts/vault/Vault.sol\":2561:2564  tok */\n              dup5\n                /* \"contracts/vault/Vault.sol\":2532:2566  balances[msg.sender][address(tok)] */\n              0xffffffffffffffffffffffffffffffffffffffff\n              and\n              0xffffffffffffffffffffffffffffffffffffffff\n              and\n              dup2\n              mstore\n              0x20\n              add\n              swap1\n              dup2\n              mstore\n              0x20\n              add\n              0x0\n              keccak256\n              sload\n                /* \"contracts/vault/Vault.sol\":2532:2574  balances[msg.sender][address(tok)] >= amnt */\n              lt\n              iszero\n                /* \"contracts/vault/Vault.sol\":2524:2575  require(balances[msg.sender][address(tok)] >= amnt) */\n              iszero\n              iszero\n              tag_73\n              jumpi\n              0x0\n              dup1\n              revert\n            tag_73:\n                /* \"contracts/vault/Vault.sol\":2594:2597  tok */\n              dup2\n                /* \"contracts/vault/Vault.sol\":2594:2606  tok.transfer */\n              0xffffffffffffffffffffffffffffffffffffffff\n              and\n              0xa9059cbb\n                /* \"contracts/vault/Vault.sol\":2607:2617  msg.sender */\n              caller\n                /* \"contracts/vault/Vault.sol\":2619:2623  amnt */\n              dup4\n                /* \"contracts/vault/Vault.sol\":2594:2624  tok.transfer(msg.sender, amnt) */\n              mstore(add(0x20, mload(0x40)), 0x0)\n              mload(0x40)\n              dup4\n              0xffffffff\n              and\n              0x100000000000000000000000000000000000000000000000000000000\n              mul\n              dup2\n              mstore\n              0x4\n              add\n              dup1\n              dup4\n              0xffffffffffffffffffffffffffffffffffffffff\n              and\n              0xffffffffffffffffffffffffffffffffffffffff\n              and\n              dup2\n              mstore\n              0x20\n              add\n              dup3\n              dup2\n              mstore\n              0x20\n              add\n              swap3\n              pop\n              pop\n              pop\n              0x20\n              mload(0x40)\n              dup1\n              dup4\n              sub\n              dup2\n              0x0\n              dup8\n              dup1\n              extcodesize\n              iszero\n              iszero\n              tag_74\n              jumpi\n              0x0\n              dup1\n              revert\n            tag_74:\n              sub(gas, 0x2c6)\n              call\n              iszero\n              iszero\n              tag_75\n              jumpi\n              0x0\n              dup1\n              revert\n            tag_75:\n              pop\n              pop\n              pop\n              mload(0x40)\n              dup1\n              mload\n              swap1\n              pop\n              pop\n                /* \"contracts/vault/Vault.sol\":2681:2685  amnt */\n              dup1\n                /* \"contracts/vault/Vault.sol\":2643:2651  balances */\n              0x4\n                /* \"contracts/vault/Vault.sol\":2643:2663  balances[msg.sender] */\n              0x0\n                /* \"contracts/vault/Vault.sol\":2652:2662  msg.sender */\n              caller\n                /* \"contracts/vault/Vault.sol\":2643:2663  balances[msg.sender] */\n              0xffffffffffffffffffffffffffffffffffffffff\n              and\n              0xffffffffffffffffffffffffffffffffffffffff\n              and\n              dup2\n              mstore\n              0x20\n              add\n              swap1\n              dup2\n              mstore\n              0x20\n              add\n              0x0\n              keccak256\n                /* \"contracts/vault/Vault.sol\":2643:2677  balances[msg.sender][address(tok)] */\n              0x0\n                /* \"contracts/vault/Vault.sol\":2672:2675  tok */\n              dup5\n                /* \"contracts/vault/Vault.sol\":2643:2677  balances[msg.sender][address(tok)] */\n              0xffffffffffffffffffffffffffffffffffffffff\n              and\n              0xffffffffffffffffffffffffffffffffffffffff\n              and\n              dup2\n              mstore\n              0x20\n              add\n              swap1\n              dup2\n              mstore\n              0x20\n              add\n              0x0\n              keccak256\n              0x0\n                /* \"contracts/vault/Vault.sol\":2643:2685  balances[msg.sender][address(tok)] -= amnt */\n              dup3\n              dup3\n              sload\n              sub\n              swap3\n              pop\n              pop\n              dup2\n              swap1\n              sstore\n              pop\n                /* \"contracts/vault/Vault.sol\":2412:2692  function withdraw(ERC20Like tok, uint amnt) public {... */\n            tag_70:\n              pop\n              pop\n              jump\t// out\n                /* \"contracts/vault/Vault.sol\":1723:1909  function checkAccess(string memory op) private returns (bool) {... */\n            tag_48:\n                /* \"contracts/vault/Vault.sol\":1779:1783  bool */\n              0x0\n                /* \"contracts/vault/Vault.sol\":1795:1806  uint8 error */\n              dup1\n                /* \"contracts/vault/Vault.sol\":1828:1833  guard */\n              0x3\n              0x0\n              swap1\n              sload\n              swap1\n              0x100\n              exp\n              swap1\n              div\n              0xffffffffffffffffffffffffffffffffffffffff\n              and\n                /* \"contracts/vault/Vault.sol\":1828:1843  guard.isAllowed */\n              0xffffffffffffffffffffffffffffffffffffffff\n              and\n              0xb9460632\n                /* \"contracts/vault/Vault.sol\":1844:1854  msg.sender */\n              caller\n                /* \"contracts/vault/Vault.sol\":1856:1858  op */\n              dup6\n                /* \"contracts/vault/Vault.sol\":1828:1859  guard.isAllowed(msg.sender, op) */\n              mstore(add(0x40, mload(0x40)), 0x0)\n              mload(0x40)\n              dup4\n              0xffffffff\n              and\n              0x100000000000000000000000000000000000000000000000000000000\n              mul\n              dup2\n              mstore\n              0x4\n              add\n              dup1\n              dup4\n              0xffffffffffffffffffffffffffffffffffffffff\n              and\n              0xffffffffffffffffffffffffffffffffffffffff\n              and\n              dup2\n              mstore\n              0x20\n              add\n              dup1\n              0x20\n              add\n              dup3\n              dup2\n              sub\n              dup3\n              mstore\n              dup4\n              dup2\n              dup2\n              mload\n              dup2\n              mstore\n              0x20\n              add\n              swap2\n              pop\n              dup1\n              mload\n              swap1\n              0x20\n              add\n              swap1\n              dup1\n              dup4\n              dup4\n                /* \"--CODEGEN--\":23:24   */\n              0x0\n                /* \"--CODEGEN--\":8:108   */\n            tag_77:\n                /* \"--CODEGEN--\":33:36   */\n              dup4\n                /* \"--CODEGEN--\":30:31   */\n              dup2\n                /* \"--CODEGEN--\":27:29   */\n              lt\n                /* \"--CODEGEN--\":8:108   */\n              iszero\n              tag_78\n              jumpi\n                /* \"--CODEGEN--\":99:100   */\n              dup1\n                /* \"--CODEGEN--\":94:97   */\n              dup3\n                /* \"--CODEGEN--\":90:93   */\n              add\n                /* \"--CODEGEN--\":84:89   */\n              mload\n                /* \"--CODEGEN--\":80:81   */\n              dup2\n                /* \"--CODEGEN--\":75:78   */\n              dup5\n                /* \"--CODEGEN--\":71:74   */\n              add\n                /* \"--CODEGEN--\":64:70   */\n              mstore\n                /* \"--CODEGEN--\":8:108   */\n            tag_79:\n                /* \"--CODEGEN--\":52:54   */\n              0x20\n                /* \"--CODEGEN--\":49:50   */\n              dup2\n                /* \"--CODEGEN--\":45:48   */\n              add\n                /* \"--CODEGEN--\":40:55   */\n              swap1\n              pop\n                /* \"--CODEGEN--\":8:108   */\n              jump(tag_77)\n            tag_78:\n                /* \"--CODEGEN--\":12:26   */\n              pop\n                /* \"--CODEGEN--\":3:112   */\n              pop\n              pop\n              pop\n              swap1\n              pop\n              swap1\n              dup2\n              add\n              swap1\n              0x1f\n              and\n              dup1\n              iszero\n              tag_80\n              jumpi\n              dup1\n              dup3\n              sub\n              dup1\n              mload\n              0x1\n              dup4\n              0x20\n              sub\n              0x100\n              exp\n              sub\n              not\n              and\n              dup2\n              mstore\n              0x20\n              add\n              swap2\n              pop\n            tag_80:\n              pop\n              swap4\n              pop\n              pop\n              pop\n              pop\n              0x40\n              dup1\n              mload\n              dup1\n              dup4\n              sub\n              dup2\n              0x0\n              dup8\n              dup1\n              extcodesize\n              iszero\n              iszero\n              tag_81\n              jumpi\n              0x0\n              dup1\n              revert\n            tag_81:\n              sub(gas, 0x2c6)\n              call\n              iszero\n              iszero\n              tag_82\n              jumpi\n              0x0\n              dup1\n              revert\n            tag_82:\n              pop\n              pop\n              pop\n              mload(0x40)\n              dup1\n              mload\n              swap1\n              0x20\n              add\n              dup1\n              mload\n              swap1\n              pop\n                /* \"contracts/vault/Vault.sol\":1816:1859  (error, ) = guard.isAllowed(msg.sender, op) */\n              pop\n              dup1\n              swap2\n              pop\n              pop\n                /* \"contracts/vault/GuardConstants.sol\":90:91  0 */\n              0x0\n                /* \"contracts/vault/Vault.sol\":1885:1902  error == NO_ERROR */\n              0xff\n              and\n                /* \"contracts/vault/Vault.sol\":1885:1890  error */\n              dup2\n                /* \"contracts/vault/Vault.sol\":1885:1902  error == NO_ERROR */\n              0xff\n              and\n              eq\n                /* \"contracts/vault/Vault.sol\":1878:1902  return error == NO_ERROR */\n              swap2\n              pop\n                /* \"contracts/vault/Vault.sol\":1723:1909  function checkAccess(string memory op) private returns (bool) {... */\n            tag_76:\n              pop\n              swap2\n              swap1\n              pop\n              jump\t// out\n                /* \"contracts/vault/Vault.sol\":1312:1693  function createGuard(bytes32 implementation) private returns (Guard) {... */\n            tag_51:\n                /* \"contracts/vault/Vault.sol\":1374:1379  Guard */\n              0x0\n                /* \"contracts/vault/Vault.sol\":1391:1403  address impl */\n              dup1\n                /* \"contracts/vault/Vault.sol\":1406:1414  registry */\n              0x2\n              0x0\n              swap1\n              sload\n              swap1\n              0x100\n              exp\n              swap1\n              div\n              0xffffffffffffffffffffffffffffffffffffffff\n              and\n                /* \"contracts/vault/Vault.sol\":1406:1430  registry.implementations */\n              0xffffffffffffffffffffffffffffffffffffffff\n              and\n              0x2cfeaca\n                /* \"contracts/vault/Vault.sol\":1431:1445  implementation */\n              dup5\n                /* \"contracts/vault/Vault.sol\":1406:1446  registry.implementations(implementation) */\n              mstore(add(0x20, mload(0x40)), 0x0)\n              mload(0x40)\n              dup3\n              0xffffffff\n              and\n              0x100000000000000000000000000000000000000000000000000000000\n              mul\n              dup2\n              mstore\n              0x4\n              add\n              dup1\n              dup3\n              not(0x0)\n              and\n              not(0x0)\n              and\n              dup2\n              mstore\n              0x20\n              add\n              swap2\n              pop\n              pop\n              0x20\n              mload(0x40)\n              dup1\n              dup4\n              sub\n              dup2\n              0x0\n              dup8\n              dup1\n              extcodesize\n              iszero\n              iszero\n              tag_84\n              jumpi\n              0x0\n              dup1\n              revert\n            tag_84:\n              sub(gas, 0x2c6)\n              call\n              iszero\n              iszero\n              tag_85\n              jumpi\n              0x0\n              dup1\n              revert\n            tag_85:\n              pop\n              pop\n              pop\n              mload(0x40)\n              dup1\n              mload\n              swap1\n              pop\n                /* \"contracts/vault/Vault.sol\":1391:1446  address impl = registry.implementations(implementation) */\n              swap1\n              pop\n                /* \"contracts/vault/Vault.sol\":1480:1484  0x00 */\n              0x0\n                /* \"contracts/vault/Vault.sol\":1464:1485  impl != address(0x00) */\n              0xffffffffffffffffffffffffffffffffffffffff\n              and\n                /* \"contracts/vault/Vault.sol\":1464:1468  impl */\n              dup2\n                /* \"contracts/vault/Vault.sol\":1464:1485  impl != address(0x00) */\n              0xffffffffffffffffffffffffffffffffffffffff\n              and\n              eq\n              iszero\n                /* \"contracts/vault/Vault.sol\":1456:1486  require(impl != address(0x00)) */\n              iszero\n              iszero\n              tag_86\n              jumpi\n              0x0\n              dup1\n              revert\n            tag_86:\n                /* \"contracts/vault/Vault.sol\":1535:1539  0x00 */\n              0x0\n                /* \"contracts/vault/Vault.sol\":1509:1540  address(guard) != address(0x00) */\n              0xffffffffffffffffffffffffffffffffffffffff\n              and\n                /* \"contracts/vault/Vault.sol\":1517:1522  guard */\n              0x3\n              0x0\n              swap1\n              sload\n              swap1\n              0x100\n              exp\n              swap1\n              div\n              0xffffffffffffffffffffffffffffffffffffffff\n              and\n                /* \"contracts/vault/Vault.sol\":1509:1540  address(guard) != address(0x00) */\n              0xffffffffffffffffffffffffffffffffffffffff\n              and\n              eq\n              iszero\n                /* \"contracts/vault/Vault.sol\":1505:1582  if (address(guard) != address(0x00)) {... */\n              iszero\n              tag_87\n              jumpi\n                /* \"contracts/vault/Vault.sol\":1556:1561  guard */\n              0x3\n              0x0\n              swap1\n              sload\n              swap1\n              0x100\n              exp\n              swap1\n              div\n              0xffffffffffffffffffffffffffffffffffffffff\n              and\n                /* \"contracts/vault/Vault.sol\":1556:1569  guard.cleanup */\n              0xffffffffffffffffffffffffffffffffffffffff\n              and\n              0x3cecd719\n                /* \"contracts/vault/Vault.sol\":1556:1571  guard.cleanup() */\n              mload(0x40)\n              dup2\n              0xffffffff\n              and\n              0x100000000000000000000000000000000000000000000000000000000\n              mul\n              dup2\n              mstore\n              0x4\n              add\n              0x0\n              mload(0x40)\n              dup1\n              dup4\n              sub\n              dup2\n              0x0\n              dup8\n              dup1\n              extcodesize\n              iszero\n              iszero\n              tag_88\n              jumpi\n              0x0\n              dup1\n              revert\n            tag_88:\n              sub(gas, 0x2c6)\n              call\n              iszero\n              iszero\n              tag_89\n              jumpi\n              0x0\n              dup1\n              revert\n            tag_89:\n              pop\n              pop\n              pop\n                /* \"contracts/vault/Vault.sol\":1505:1582  if (address(guard) != address(0x00)) {... */\n            tag_87:\n                /* \"contracts/vault/Vault.sol\":1614:1631  createClone(impl) */\n              tag_90\n                /* \"contracts/vault/Vault.sol\":1626:1630  impl */\n              dup2\n                /* \"contracts/vault/Vault.sol\":1614:1625  createClone */\n              tag_91\n                /* \"contracts/vault/Vault.sol\":1614:1631  createClone(impl) */\n              jump\t// in\n            tag_90:\n                /* \"contracts/vault/Vault.sol\":1600:1605  guard */\n              0x3\n              0x0\n                /* \"contracts/vault/Vault.sol\":1600:1632  guard = Guard(createClone(impl)) */\n              0x100\n              exp\n              dup2\n              sload\n              dup2\n              0xffffffffffffffffffffffffffffffffffffffff\n              mul\n              not\n              and\n              swap1\n              dup4\n              0xffffffffffffffffffffffffffffffffffffffff\n              and\n              mul\n              or\n              swap1\n              sstore\n              pop\n                /* \"contracts/vault/Vault.sol\":1642:1647  guard */\n              0x3\n              0x0\n              swap1\n              sload\n              swap1\n              0x100\n              exp\n              swap1\n              div\n              0xffffffffffffffffffffffffffffffffffffffff\n              and\n                /* \"contracts/vault/Vault.sol\":1642:1658  guard.initialize */\n              0xffffffffffffffffffffffffffffffffffffffff\n              and\n              0xc4d66de8\n                /* \"contracts/vault/Vault.sol\":1659:1663  this */\n              address\n                /* \"contracts/vault/Vault.sol\":1642:1664  guard.initialize(this) */\n              mload(0x40)\n              dup3\n              0xffffffff\n              and\n              0x100000000000000000000000000000000000000000000000000000000\n              mul\n              dup2\n              mstore\n              0x4\n              add\n              dup1\n              dup3\n              0xffffffffffffffffffffffffffffffffffffffff\n              and\n              0xffffffffffffffffffffffffffffffffffffffff\n              and\n              dup2\n              mstore\n              0x20\n              add\n              swap2\n              pop\n              pop\n              0x0\n              mload(0x40)\n              dup1\n              dup4\n              sub\n              dup2\n              0x0\n              dup8\n              dup1\n              extcodesize\n              iszero\n              iszero\n              tag_92\n              jumpi\n              0x0\n              dup1\n              revert\n            tag_92:\n              sub(gas, 0x2c6)\n              call\n              iszero\n              iszero\n              tag_93\n              jumpi\n              0x0\n              dup1\n              revert\n            tag_93:\n              pop\n              pop\n              pop\n                /* \"contracts/vault/Vault.sol\":1681:1686  guard */\n              0x3\n              0x0\n              swap1\n              sload\n              swap1\n              0x100\n              exp\n              swap1\n              div\n              0xffffffffffffffffffffffffffffffffffffffff\n              and\n                /* \"contracts/vault/Vault.sol\":1674:1686  return guard */\n              swap2\n              pop\n                /* \"contracts/vault/Vault.sol\":1312:1693  function createGuard(bytes32 implementation) private returns (Guard) {... */\n            tag_83:\n              pop\n              swap2\n              swap1\n              pop\n              jump\t// out\n                /* \"contracts/vault/Vault.sol\":345:830  function createClone(address target) internal returns (address result) {... */\n            tag_91:\n                /* \"contracts/vault/Vault.sol\":400:414  address result */\n              0x0\n                /* \"contracts/vault/Vault.sol\":426:445  bytes20 targetBytes */\n              dup1\n                /* \"contracts/vault/Vault.sol\":456:462  target */\n              dup3\n                /* \"contracts/vault/Vault.sol\":448:463  bytes20(target) */\n              0x1000000000000000000000000\n              mul\n                /* \"contracts/vault/Vault.sol\":426:463  bytes20 targetBytes = bytes20(target) */\n              swap1\n              pop\n                /* \"contracts/vault/Vault.sol\":515:519  0x40 */\n              0x40\n                /* \"contracts/vault/Vault.sol\":509:514  mload */\n              mload\n                /* \"contracts/vault/Vault.sol\":547:613  0x3d602d80600a3d3981f3363d3d373d3d3d363d73000000000000000000000000 */\n              0x3d602d80600a3d3981f3363d3d373d3d3d363d73000000000000000000000000\n                /* \"contracts/vault/Vault.sol\":540:545  clone */\n              dup2\n                /* \"contracts/vault/Vault.sol\":533:539  mstore */\n              mstore\n                /* \"contracts/vault/Vault.sol\":652:663  targetBytes */\n              dup2\n                /* \"contracts/vault/Vault.sol\":645:649  0x14 */\n              0x14\n                /* \"contracts/vault/Vault.sol\":638:643  clone */\n              dup3\n                /* \"contracts/vault/Vault.sol\":634:637  add */\n              add\n                /* \"contracts/vault/Vault.sol\":627:633  mstore */\n              mstore\n                /* \"contracts/vault/Vault.sol\":702:768  0x5af43d82803e903d91602b57fd5bf30000000000000000000000000000000000 */\n              0x5af43d82803e903d91602b57fd5bf30000000000000000000000000000000000\n                /* \"contracts/vault/Vault.sol\":695:699  0x28 */\n              0x28\n                /* \"contracts/vault/Vault.sol\":688:693  clone */\n              dup3\n                /* \"contracts/vault/Vault.sol\":684:687  add */\n              add\n                /* \"contracts/vault/Vault.sol\":677:683  mstore */\n              mstore\n                /* \"contracts/vault/Vault.sol\":809:813  0x37 */\n              0x37\n                /* \"contracts/vault/Vault.sol\":802:807  clone */\n              dup2\n                /* \"contracts/vault/Vault.sol\":799:800  0 */\n              0x0\n                /* \"contracts/vault/Vault.sol\":792:798  create */\n              create\n                /* \"contracts/vault/Vault.sol\":782:814  result := create(0, clone, 0x37) */\n              swap3\n              pop\n                /* \"contracts/vault/Vault.sol\":482:824  {... */\n              pop\n            tag_94:\n              pop\n              swap2\n              swap1\n              pop\n              jump\t// out\n\n            auxdata: 0xa165627a7a72305820ac9c073bf47e4c0830397e47776798f6d3129c2b7ed0ec25b08856f7f03b094e0029\n        }\n    }\n\n    auxdata: 0xa165627a7a72305820c7c89f2a340e58a8261ece001ad974e7cb779f0cc3ae86287367d9d5ef76bc0d0029\n}\n",
        "bytecode": {
          "linkReferences": {},
          "object": "6060604052341561000f57600080fd5b5b612b738061001f6000396000f30060606040526000357c0100000000000000000000000000000000000000000000000000000000900463ffffffff168063587930501461005f57806364d98f6e146100745780637b103999146100a1578063fbfa77cf146100f6575b600080fd5b341561006a57600080fd5b61007261014b565b005b341561007f57600080fd5b61008761056e565b604051808215151515815260200191505060405180910390f35b34156100ac57600080fd5b6100b461064e565b604051808273ffffffffffffffffffffffffffffffffffffffff1673ffffffffffffffffffffffffffffffffffffffff16815260200191505060405180910390f35b341561010157600080fd5b610109610673565b604051808273ffffffffffffffffffffffffffffffffffffffff1673ffffffffffffffffffffffffffffffffffffffff16815260200191505060405180910390f35b6000610155610699565b604051809103906000f080151561016b57600080fd5b6000806101000a81548173ffffffffffffffffffffffffffffffffffffffff021916908373ffffffffffffffffffffffffffffffffffffffff1602179055506000809054906101000a900473ffffffffffffffffffffffffffffffffffffffff1673ffffffffffffffffffffffffffffffffffffffff16633eae978a6101ef6106a9565b604051809103906000f080151561020557600080fd5b60016040518363ffffffff167c0100000000000000000000000000000000000000000000000000000000028152600401808373ffffffffffffffffffffffffffffffffffffffff1673ffffffffffffffffffffffffffffffffffffffff1681526020018215151515815260200192505050600060405180830381600087803b151561028f57600080fd5b6102c65a03f115156102a057600080fd5b5050506000809054906101000a900473ffffffffffffffffffffffffffffffffffffffff166102cd6106b9565b808273ffffffffffffffffffffffffffffffffffffffff1673ffffffffffffffffffffffffffffffffffffffff168152602001915050604051809103906000f080151561031957600080fd5b600160006101000a81548173ffffffffffffffffffffffffffffffffffffffff021916908373ffffffffffffffffffffffffffffffffffffffff160217905550600160009054906101000a900473ffffffffffffffffffffffffffffffffffffffff1673ffffffffffffffffffffffffffffffffffffffff16637ceab3b16000604051602001526040518163ffffffff167c0100000000000000000000000000000000000000000000000000000000028152600401602060405180830381600087803b15156103e757600080fd5b6102c65a03f115156103f857600080fd5b5050506040518051905090508073ffffffffffffffffffffffffffffffffffffffff1663662ea8ec6040518163ffffffff167c01000000000000000000000000000000000000000000000000000000000281526004018080602001828103825260078152602001807f6465706f73697400000000000000000000000000000000000000000000000000815250602001915050600060405180830381600087803b15156104a357600080fd5b6102c65a03f115156104b457600080fd5b5050508073ffffffffffffffffffffffffffffffffffffffff1663662ea8ec6040518163ffffffff167c01000000000000000000000000000000000000000000000000000000000281526004018080602001828103825260088152602001807f7769746864726177000000000000000000000000000000000000000000000000815250602001915050600060405180830381600087803b151561055657600080fd5b6102c65a03f1151561056757600080fd5b5050505b50565b60003073ffffffffffffffffffffffffffffffffffffffff16600160009054906101000a900473ffffffffffffffffffffffffffffffffffffffff1673ffffffffffffffffffffffffffffffffffffffff16638da5cb5b6000604051602001526040518163ffffffff167c0100000000000000000000000000000000000000000000000000000000028152600401602060405180830381600087803b151561061557600080fd5b6102c65a03f1151561062657600080fd5b5050506040518051905073ffffffffffffffffffffffffffffffffffffffff16141590505b90565b6000809054906101000a900473ffffffffffffffffffffffffffffffffffffffff1681565b600160009054906101000a900473ffffffffffffffffffffffffffffffffffffffff1681565b6040516104ba806106ca83390190565b60405161095980610b8483390190565b60405161166b806114dd8339019056006060604052341561000f57600080fd5b5b33600160006101000a81548173ffffffffffffffffffffffffffffffffffffffff021916908373ffffffffffffffffffffffffffffffffffffffff1602179055505b5b610458806100626000396000f30060606040526000357c0100000000000000000000000000000000000000000000000000000000900463ffffffff16806302cfeaca1461006a5780633eae978a146100d15780638da5cb5b14610115578063b39c45931461016a578063f2fde38b1461019b575b600080fd5b341561007557600080fd5b61008f6004808035600019169060200190919050506101d4565b604051808273ffffffffffffffffffffffffffffffffffffffff1673ffffffffffffffffffffffffffffffffffffffff16815260200191505060405180910390f35b34156100dc57600080fd5b610113600480803573ffffffffffffffffffffffffffffffffffffffff169060200190919080351515906020019091905050610207565b005b341561012057600080fd5b61012861035f565b604051808273ffffffffffffffffffffffffffffffffffffffff1673ffffffffffffffffffffffffffffffffffffffff16815260200191505060405180910390f35b341561017557600080fd5b61017d610385565b60405180826000191660001916815260200191505060405180910390f35b34156101a657600080fd5b6101d2600480803573ffffffffffffffffffffffffffffffffffffffff1690602001909190505061038b565b005b60006020528060005260406000206000915054906101000a900473ffffffffffffffffffffffffffffffffffffffff1681565b6000600160009054906101000a900473ffffffffffffffffffffffffffffffffffffffff1673ffffffffffffffffffffffffffffffffffffffff163373ffffffffffffffffffffffffffffffffffffffff1614151561026557600080fd5b8273ffffffffffffffffffffffffffffffffffffffff1663af640d0f6000604051602001526040518163ffffffff167c0100000000000000000000000000000000000000000000000000000000028152600401602060405180830381600087803b15156102d157600080fd5b6102c65a03f115156102e257600080fd5b50505060405180519050905082600080836000191660001916815260200190815260200160002060006101000a81548173ffffffffffffffffffffffffffffffffffffffff021916908373ffffffffffffffffffffffffffffffffffffffff16021790555081156103595780600281600019169055505b5b505050565b600160009054906101000a900473ffffffffffffffffffffffffffffffffffffffff1681565b60025481565b600160009054906101000a900473ffffffffffffffffffffffffffffffffffffffff1673ffffffffffffffffffffffffffffffffffffffff163373ffffffffffffffffffffffffffffffffffffffff161415156103e757600080fd5b80600160006101000a81548173ffffffffffffffffffffffffffffffffffffffff021916908373ffffffffffffffffffffffffffffffffffffffff1602179055505b505600a165627a7a723058206ddacfe69c40d406ee07e06339cac3405d13beee6def089ff15bfd5ba60c329200296060604052341561000f57600080fd5b5b61093a8061001f6000396000f30060606040523615610081576000357c0100000000000000000000000000000000000000000000000000000000900463ffffffff1680633cecd7191461008657806357a07d2e1461009b578063662ea8ec146101385780638da5cb5b14610166578063af640d0f146101bb578063b9460632146101ec578063c4d66de814610260575b600080fd5b341561009157600080fd5b610099610299565b005b34156100a657600080fd5b6100bc60048080359060200190919050506103f9565b6040518080602001828103825283818151815260200191508051906020019080838360005b838110156100fd5780820151818401525b6020810190506100e1565b50505050905090810190601f16801561012a5780820380516001836020036101000a031916815260200191505b509250505060405180910390f35b341561014357600080fd5b610164600480803590602001908201803590602001919091929050506104b6565b005b341561017157600080fd5b610179610536565b604051808273ffffffffffffffffffffffffffffffffffffffff1673ffffffffffffffffffffffffffffffffffffffff16815260200191505060405180910390f35b34156101c657600080fd5b6101ce6105e6565b60405180826000191660001916815260200191505060405180910390f35b34156101f757600080fd5b610237600480803573ffffffffffffffffffffffffffffffffffffffff16906020019091908035906020019082018035906020019190919290505061060a565b604051808360ff1660ff1681526020018260ff1660ff1681526020019250505060405180910390f35b341561026b57600080fd5b610297600480803573ffffffffffffffffffffffffffffffffffffffff1690602001909190505061074f565b005b600060019054906101000a900473ffffffffffffffffffffffffffffffffffffffff1673ffffffffffffffffffffffffffffffffffffffff163373ffffffffffffffffffffffffffffffffffffffff161415156102f557600080fd5b3073ffffffffffffffffffffffffffffffffffffffff16600060019054906101000a900473ffffffffffffffffffffffffffffffffffffffff1673ffffffffffffffffffffffffffffffffffffffff16637ceab3b16000604051602001526040518163ffffffff167c0100000000000000000000000000000000000000000000000000000000028152600401602060405180830381600087803b151561039a57600080fd5b6102c65a03f115156103ab57600080fd5b5050506040518051905073ffffffffffffffffffffffffffffffffffffffff161415156103d757600080fd5b6103df610536565b73ffffffffffffffffffffffffffffffffffffffff16ff5b565b60018181548110151561040857fe5b906000526020600020900160005b915090508054600181600116156101000203166002900480601f0160208091040260200160405190810160405280929190818152602001828054600181600116156101000203166002900480156104ae5780601f10610483576101008083540402835291602001916104ae565b820191906000526020600020905b81548152906001019060200180831161049157829003601f168201915b505050505081565b6104be610536565b73ffffffffffffffffffffffffffffffffffffffff163373ffffffffffffffffffffffffffffffffffffffff161415156104f757600080fd5b6001805480600101828161050b91906107c9565b916000526020600020900160005b848490919290919250919061052f9291906107f5565b50505b5050565b60008060019054906101000a900473ffffffffffffffffffffffffffffffffffffffff1673ffffffffffffffffffffffffffffffffffffffff16638da5cb5b6000604051602001526040518163ffffffff167c0100000000000000000000000000000000000000000000000000000000028152600401602060405180830381600087803b15156105c557600080fd5b6102c65a03f115156105d657600080fd5b5050506040518051905090505b90565b7f73696e676c652d6f776e6572000000000000000000000000000000000000000081565b6000806000610617610536565b73ffffffffffffffffffffffffffffffffffffffff168673ffffffffffffffffffffffffffffffffffffffff16141561065a576000600180905092509250610746565b600090505b60018054905081101561073b5784846040518083838082843782019150509250505060405180910390206000191660018281548110151561069c57fe5b906000526020600020900160005b5060405180828054600181600116156101000203166002900480156107065780601f106106e4576101008083540402835291820191610706565b820191906000526020600020905b8154815290600101906020018083116106f2575b5050915050604051809103902060001916141561072d576000600280905092509250610746565b5b808060010191505061065f565b600180809050925092505b50935093915050565b6000809054906101000a900460ff1615151561076a57600080fd5b80600060016101000a81548173ffffffffffffffffffffffffffffffffffffffff021916908373ffffffffffffffffffffffffffffffffffffffff16021790555060016000806101000a81548160ff0219169083151502179055505b50565b8154818355818115116107f0578183600052602060002091820191016107ef9190610875565b5b505050565b828054600181600116156101000203166002900490600052602060002090601f016020900481019282601f1061083657803560ff1916838001178555610864565b82800160010185558215610864579182015b82811115610863578235825591602001919060010190610848565b5b50905061087191906108a1565b5090565b61089e91905b8082111561089a576000818161089191906108c6565b5060010161087b565b5090565b90565b6108c391905b808211156108bf5760008160009055506001016108a7565b5090565b90565b50805460018160011615610100020316600290046000825580601f106108ec575061090b565b601f01602090049060005260206000209081019061090a91906108a1565b5b505600a165627a7a7230582043a756e76afb0b73f3d5563411b98ea86d00c2ccfd0c595ff304f9847fe4789d0029606060405234156200001057600080fd5b6040516020806200166b833981016040528080519060200190919050505b336000806101000a81548173ffffffffffffffffffffffffffffffffffffffff021916908373ffffffffffffffffffffffffffffffffffffffff16021790555080600260006101000a81548173ffffffffffffffffffffffffffffffffffffffff021916908373ffffffffffffffffffffffffffffffffffffffff16021790555062000178600260009054906101000a900473ffffffffffffffffffffffffffffffffffffffff1673ffffffffffffffffffffffffffffffffffffffff1663b39c45936000604051602001526040518163ffffffff167c0100000000000000000000000000000000000000000000000000000000028152600401602060405180830381600087803b15156200014257600080fd5b6102c65a03f115156200015457600080fd5b50505060405180519050620001816401000000000262000d3a176401000000009004565b505b506200054a565b600080600260009054906101000a900473ffffffffffffffffffffffffffffffffffffffff1673ffffffffffffffffffffffffffffffffffffffff166302cfeaca846000604051602001526040518263ffffffff167c0100000000000000000000000000000000000000000000000000000000028152600401808260001916600019168152602001915050602060405180830381600087803b15156200022657600080fd5b6102c65a03f115156200023857600080fd5b505050604051805190509050600073ffffffffffffffffffffffffffffffffffffffff168173ffffffffffffffffffffffffffffffffffffffff16141515156200028157600080fd5b600073ffffffffffffffffffffffffffffffffffffffff16600360009054906101000a900473ffffffffffffffffffffffffffffffffffffffff1673ffffffffffffffffffffffffffffffffffffffff161415156200037657600360009054906101000a900473ffffffffffffffffffffffffffffffffffffffff1673ffffffffffffffffffffffffffffffffffffffff16633cecd7196040518163ffffffff167c0100000000000000000000000000000000000000000000000000000000028152600401600060405180830381600087803b15156200036057600080fd5b6102c65a03f115156200037257600080fd5b5050505b6200039581620004d3640100000000026200106e176401000000009004565b600360006101000a81548173ffffffffffffffffffffffffffffffffffffffff021916908373ffffffffffffffffffffffffffffffffffffffff160217905550600360009054906101000a900473ffffffffffffffffffffffffffffffffffffffff1673ffffffffffffffffffffffffffffffffffffffff1663c4d66de8306040518263ffffffff167c0100000000000000000000000000000000000000000000000000000000028152600401808273ffffffffffffffffffffffffffffffffffffffff1673ffffffffffffffffffffffffffffffffffffffff168152602001915050600060405180830381600087803b15156200049257600080fd5b6102c65a03f11515620004a457600080fd5b505050600360009054906101000a900473ffffffffffffffffffffffffffffffffffffffff1691505b50919050565b600080826c010000000000000000000000000290506040517f3d602d80600a3d3981f3363d3d373d3d3d363d7300000000000000000000000081528160148201527f5af43d82803e903d91602b57fd5bf3000000000000000000000000000000000060288201526037816000f09250505b50919050565b611111806200055a6000396000f300606060405236156100ad576000357c0100000000000000000000000000000000000000000000000000000000900463ffffffff16806346c469a4146100b257806347e7ef241461011957806379ba50971461015b5780637b103999146101705780637ceab3b1146101c55780638da5cb5b1461021a578063c23f001f1461026f578063c4bf0220146102db578063e30c397814610357578063f2fde38b146103ac578063f3fef3a3146103e5575b600080fd5b34156100bd57600080fd5b6100d7600480803560001916906020019091905050610427565b604051808273ffffffffffffffffffffffffffffffffffffffff1673ffffffffffffffffffffffffffffffffffffffff16815260200191505060405180910390f35b341561012457600080fd5b610159600480803573ffffffffffffffffffffffffffffffffffffffff16906020019091908035906020019091905050610483565b005b341561016657600080fd5b61016e610660565b005b341561017b57600080fd5b610183610763565b604051808273ffffffffffffffffffffffffffffffffffffffff1673ffffffffffffffffffffffffffffffffffffffff16815260200191505060405180910390f35b34156101d057600080fd5b6101d8610789565b604051808273ffffffffffffffffffffffffffffffffffffffff1673ffffffffffffffffffffffffffffffffffffffff16815260200191505060405180910390f35b341561022557600080fd5b61022d6107af565b604051808273ffffffffffffffffffffffffffffffffffffffff1673ffffffffffffffffffffffffffffffffffffffff16815260200191505060405180910390f35b341561027a57600080fd5b6102c5600480803573ffffffffffffffffffffffffffffffffffffffff1690602001909190803573ffffffffffffffffffffffffffffffffffffffff169060200190919050506107d4565b6040518082815260200191505060405180910390f35b34156102e657600080fd5b610355600480803573ffffffffffffffffffffffffffffffffffffffff1690602001909190803590602001908201803590602001908080601f016020809104026020016040519081016040528093929190818152602001838380828437820191505050505050919050506107f9565b005b341561036257600080fd5b61036a6108dc565b604051808273ffffffffffffffffffffffffffffffffffffffff1673ffffffffffffffffffffffffffffffffffffffff16815260200191505060405180910390f35b34156103b757600080fd5b6103e3600480803573ffffffffffffffffffffffffffffffffffffffff16906020019091905050610902565b005b34156103f057600080fd5b610425600480803573ffffffffffffffffffffffffffffffffffffffff169060200190919080359060200190919050506109a2565b005b60006104676040805190810160405280600b81526020017f7570646174654775617264000000000000000000000000000000000000000000815250610bcc565b151561047257600080fd5b61047b82610d3a565b90505b919050565b6104c16040805190810160405280600781526020017f6465706f73697400000000000000000000000000000000000000000000000000815250610bcc565b15156104cc57600080fd5b8173ffffffffffffffffffffffffffffffffffffffff166323b872dd3330846000604051602001526040518463ffffffff167c0100000000000000000000000000000000000000000000000000000000028152600401808473ffffffffffffffffffffffffffffffffffffffff1673ffffffffffffffffffffffffffffffffffffffff1681526020018373ffffffffffffffffffffffffffffffffffffffff1673ffffffffffffffffffffffffffffffffffffffff1681526020018281526020019350505050602060405180830381600087803b15156105ab57600080fd5b6102c65a03f115156105bc57600080fd5b5050506040518051905015156105d157600080fd5b80600460003373ffffffffffffffffffffffffffffffffffffffff1673ffffffffffffffffffffffffffffffffffffffff16815260200190815260200160002060008473ffffffffffffffffffffffffffffffffffffffff1673ffffffffffffffffffffffffffffffffffffffff168152602001908152602001600020600082825401925050819055505b5050565b600160009054906101000a900473ffffffffffffffffffffffffffffffffffffffff1673ffffffffffffffffffffffffffffffffffffffff163373ffffffffffffffffffffffffffffffffffffffff161415156106bc57600080fd5b600160009054906101000a900473ffffffffffffffffffffffffffffffffffffffff166000806101000a81548173ffffffffffffffffffffffffffffffffffffffff021916908373ffffffffffffffffffffffffffffffffffffffff1602179055506000600160006101000a81548173ffffffffffffffffffffffffffffffffffffffff021916908373ffffffffffffffffffffffffffffffffffffffff1602179055505b565b600260009054906101000a900473ffffffffffffffffffffffffffffffffffffffff1681565b600360009054906101000a900473ffffffffffffffffffffffffffffffffffffffff1681565b6000809054906101000a900473ffffffffffffffffffffffffffffffffffffffff1681565b6004602052816000526040600020602052806000526040600020600091509150505481565b6108376040805190810160405280600d81526020017f656d657267656e637943616c6c00000000000000000000000000000000000000815250610bcc565b151561084257600080fd5b8173ffffffffffffffffffffffffffffffffffffffff168160405180828051906020019080838360005b838110156108885780820151818401525b60208101905061086c565b50505050905090810190601f1680156108b55780820380516001836020036101000a031916815260200191505b509150506000604051808303818561646e5a03f491505015156108d757600080fd5b5b5050565b600160009054906101000a900473ffffffffffffffffffffffffffffffffffffffff1681565b6000809054906101000a900473ffffffffffffffffffffffffffffffffffffffff1673ffffffffffffffffffffffffffffffffffffffff163373ffffffffffffffffffffffffffffffffffffffff1614151561095d57600080fd5b80600160006101000a81548173ffffffffffffffffffffffffffffffffffffffff021916908373ffffffffffffffffffffffffffffffffffffffff1602179055505b50565b6109e06040805190810160405280600881526020017f7769746864726177000000000000000000000000000000000000000000000000815250610bcc565b15156109eb57600080fd5b80600460003373ffffffffffffffffffffffffffffffffffffffff1673ffffffffffffffffffffffffffffffffffffffff16815260200190815260200160002060008473ffffffffffffffffffffffffffffffffffffffff1673ffffffffffffffffffffffffffffffffffffffff1681526020019081526020016000205410151515610a7657600080fd5b8173ffffffffffffffffffffffffffffffffffffffff1663a9059cbb33836000604051602001526040518363ffffffff167c0100000000000000000000000000000000000000000000000000000000028152600401808373ffffffffffffffffffffffffffffffffffffffff1673ffffffffffffffffffffffffffffffffffffffff16815260200182815260200192505050602060405180830381600087803b1515610b2157600080fd5b6102c65a03f11515610b3257600080fd5b505050604051805190505080600460003373ffffffffffffffffffffffffffffffffffffffff1673ffffffffffffffffffffffffffffffffffffffff16815260200190815260200160002060008473ffffffffffffffffffffffffffffffffffffffff1673ffffffffffffffffffffffffffffffffffffffff168152602001908152602001600020600082825403925050819055505b5050565b600080600360009054906101000a900473ffffffffffffffffffffffffffffffffffffffff1673ffffffffffffffffffffffffffffffffffffffff1663b946063233856000604051604001526040518363ffffffff167c0100000000000000000000000000000000000000000000000000000000028152600401808373ffffffffffffffffffffffffffffffffffffffff1673ffffffffffffffffffffffffffffffffffffffff16815260200180602001828103825283818151815260200191508051906020019080838360005b83811015610cb65780820151818401525b602081019050610c9a565b50505050905090810190601f168015610ce35780820380516001836020036101000a031916815260200191505b5093505050506040805180830381600087803b1515610d0157600080fd5b6102c65a03f11515610d1257600080fd5b505050604051805190602001805190505080915050600060ff168160ff161491505b50919050565b600080600260009054906101000a900473ffffffffffffffffffffffffffffffffffffffff1673ffffffffffffffffffffffffffffffffffffffff166302cfeaca846000604051602001526040518263ffffffff167c0100000000000000000000000000000000000000000000000000000000028152600401808260001916600019168152602001915050602060405180830381600087803b1515610dde57600080fd5b6102c65a03f11515610def57600080fd5b505050604051805190509050600073ffffffffffffffffffffffffffffffffffffffff168173ffffffffffffffffffffffffffffffffffffffff1614151515610e3757600080fd5b600073ffffffffffffffffffffffffffffffffffffffff16600360009054906101000a900473ffffffffffffffffffffffffffffffffffffffff1673ffffffffffffffffffffffffffffffffffffffff16141515610f2957600360009054906101000a900473ffffffffffffffffffffffffffffffffffffffff1673ffffffffffffffffffffffffffffffffffffffff16633cecd7196040518163ffffffff167c0100000000000000000000000000000000000000000000000000000000028152600401600060405180830381600087803b1515610f1457600080fd5b6102c65a03f11515610f2557600080fd5b5050505b610f328161106e565b600360006101000a81548173ffffffffffffffffffffffffffffffffffffffff021916908373ffffffffffffffffffffffffffffffffffffffff160217905550600360009054906101000a900473ffffffffffffffffffffffffffffffffffffffff1673ffffffffffffffffffffffffffffffffffffffff1663c4d66de8306040518263ffffffff167c0100000000000000000000000000000000000000000000000000000000028152600401808273ffffffffffffffffffffffffffffffffffffffff1673ffffffffffffffffffffffffffffffffffffffff168152602001915050600060405180830381600087803b151561102e57600080fd5b6102c65a03f1151561103f57600080fd5b505050600360009054906101000a900473ffffffffffffffffffffffffffffffffffffffff1691505b50919050565b600080826c010000000000000000000000000290506040517f3d602d80600a3d3981f3363d3d373d3d3d363d7300000000000000000000000081528160148201527f5af43d82803e903d91602b57fd5bf3000000000000000000000000000000000060288201526037816000f09250505b509190505600a165627a7a72305820ac9c073bf47e4c0830397e47776798f6d3129c2b7ed0ec25b08856f7f03b094e0029a165627a7a72305820c7c89f2a340e58a8261ece001ad974e7cb779f0cc3ae86287367d9d5ef76bc0d0029",
          "opcodes": "PUSH1 0x60 PUSH1 0x40 MSTORE CALLVALUE ISZERO PUSH2 0xF JUMPI PUSH1 0x0 DUP1 REVERT JUMPDEST JUMPDEST PUSH2 0x2B73 DUP1 PUSH2 0x1F PUSH1 0x0 CODECOPY PUSH1 0x0 RETURN STOP PUSH1 0x60 PUSH1 0x40 MSTORE PUSH1 0x0 CALLDATALOAD PUSH29 0x100000000000000000000000000000000000000000000000000000000 SWAP1 DIV PUSH4 0xFFFFFFFF AND DUP1 PUSH4 0x58793050 EQ PUSH2 0x5F JUMPI DUP1 PUSH4 0x64D98F6E EQ PUSH2 0x74 JUMPI DUP1 PUSH4 0x7B103999 EQ PUSH2 0xA1 JUMPI DUP1 PUSH4 0xFBFA77CF EQ PUSH2 0xF6 JUMPI JUMPDEST PUSH1 0x0 DUP1 REVERT JUMPDEST CALLVALUE ISZERO PUSH2 0x6A JUMPI PUSH1 0x0 DUP1 REVERT JUMPDEST PUSH2 0x72 PUSH2 0x14B JUMP JUMPDEST STOP JUMPDEST CALLVALUE ISZERO PUSH2 0x7F JUMPI PUSH1 0x0 DUP1 REVERT JUMPDEST PUSH2 0x87 PUSH2 0x56E JUMP JUMPDEST PUSH1 0x40 MLOAD DUP1 DUP3 ISZERO ISZERO ISZERO ISZERO DUP2 MSTORE PUSH1 0x20 ADD SWAP2 POP POP PUSH1 0x40 MLOAD DUP1 SWAP2 SUB SWAP1 RETURN JUMPDEST CALLVALUE ISZERO PUSH2 0xAC JUMPI PUSH1 0x0 DUP1 REVERT JUMPDEST PUSH2 0xB4 PUSH2 0x64E JUMP JUMPDEST PUSH1 0x40 MLOAD DUP1 DUP3 PUSH20 0xFFFFFFFFFFFFFFFFFFFFFFFFFFFFFFFFFFFFFFFF AND PUSH20 0xFFFFFFFFFFFFFFFFFFFFFFFFFFFFFFFFFFFFFFFF AND DUP2 MSTORE PUSH1 0x20 ADD SWAP2 POP POP PUSH1 0x40 MLOAD DUP1 SWAP2 SUB SWAP1 RETURN JUMPDEST CALLVALUE ISZERO PUSH2 0x101 JUMPI PUSH1 0x0 DUP1 REVERT JUMPDEST PUSH2 0x109 PUSH2 0x673 JUMP JUMPDEST PUSH1 0x40 MLOAD DUP1 DUP3 PUSH20 0xFFFFFFFFFFFFFFFFFFFFFFFFFFFFFFFFFFFFFFFF AND PUSH20 0xFFFFFFFFFFFFFFFFFFFFFFFFFFFFFFFFFFFFFFFF AND DUP2 MSTORE PUSH1 0x20 ADD SWAP2 POP POP PUSH1 0x40 MLOAD DUP1 SWAP2 SUB SWAP1 RETURN JUMPDEST PUSH1 0x0 PUSH2 0x155 PUSH2 0x699 JUMP JUMPDEST PUSH1 0x40 MLOAD DUP1 SWAP2 SUB SWAP1 PUSH1 0x0 CREATE DUP1 ISZERO ISZERO PUSH2 0x16B JUMPI PUSH1 0x0 DUP1 REVERT JUMPDEST PUSH1 0x0 DUP1 PUSH2 0x100 EXP DUP2 SLOAD DUP2 PUSH20 0xFFFFFFFFFFFFFFFFFFFFFFFFFFFFFFFFFFFFFFFF MUL NOT AND SWAP1 DUP4 PUSH20 0xFFFFFFFFFFFFFFFFFFFFFFFFFFFFFFFFFFFFFFFF AND MUL OR SWAP1 SSTORE POP PUSH1 0x0 DUP1 SWAP1 SLOAD SWAP1 PUSH2 0x100 EXP SWAP1 DIV PUSH20 0xFFFFFFFFFFFFFFFFFFFFFFFFFFFFFFFFFFFFFFFF AND PUSH20 0xFFFFFFFFFFFFFFFFFFFFFFFFFFFFFFFFFFFFFFFF AND PUSH4 0x3EAE978A PUSH2 0x1EF PUSH2 0x6A9 JUMP JUMPDEST PUSH1 0x40 MLOAD DUP1 SWAP2 SUB SWAP1 PUSH1 0x0 CREATE DUP1 ISZERO ISZERO PUSH2 0x205 JUMPI PUSH1 0x0 DUP1 REVERT JUMPDEST PUSH1 0x1 PUSH1 0x40 MLOAD DUP4 PUSH4 0xFFFFFFFF AND PUSH29 0x100000000000000000000000000000000000000000000000000000000 MUL DUP2 MSTORE PUSH1 0x4 ADD DUP1 DUP4 PUSH20 0xFFFFFFFFFFFFFFFFFFFFFFFFFFFFFFFFFFFFFFFF AND PUSH20 0xFFFFFFFFFFFFFFFFFFFFFFFFFFFFFFFFFFFFFFFF AND DUP2 MSTORE PUSH1 0x20 ADD DUP3 ISZERO ISZERO ISZERO ISZERO DUP2 MSTORE PUSH1 0x20 ADD SWAP3 POP POP POP PUSH1 0x0 PUSH1 0x40 MLOAD DUP1 DUP4 SUB DUP2 PUSH1 0x0 DUP8 DUP1 EXTCODESIZE ISZERO ISZERO PUSH2 0x28F JUMPI PUSH1 0x0 DUP1 REVERT JUMPDEST PUSH2 0x2C6 GAS SUB CALL ISZERO ISZERO PUSH2 0x2A0 JUMPI PUSH1 0x0 DUP1 REVERT JUMPDEST POP POP POP PUSH1 0x0 DUP1 SWAP1 SLOAD SWAP1 PUSH2 0x100 EXP SWAP1 DIV PUSH20 0xFFFFFFFFFFFFFFFFFFFFFFFFFFFFFFFFFFFFFFFF AND PUSH2 0x2CD PUSH2 0x6B9 JUMP JUMPDEST DUP1 DUP3 PUSH20 0xFFFFFFFFFFFFFFFFFFFFFFFFFFFFFFFFFFFFFFFF AND PUSH20 0xFFFFFFFFFFFFFFFFFFFFFFFFFFFFFFFFFFFFFFFF AND DUP2 MSTORE PUSH1 0x20 ADD SWAP2 POP POP PUSH1 0x40 MLOAD DUP1 SWAP2 SUB SWAP1 PUSH1 0x0 CREATE DUP1 ISZERO ISZERO PUSH2 0x319 JUMPI PUSH1 0x0 DUP1 REVERT JUMPDEST PUSH1 0x1 PUSH1 0x0 PUSH2 0x100 EXP DUP2 SLOAD DUP2 PUSH20 0xFFFFFFFFFFFFFFFFFFFFFFFFFFFFFFFFFFFFFFFF MUL NOT AND SWAP1 DUP4 PUSH20 0xFFFFFFFFFFFFFFFFFFFFFFFFFFFFFFFFFFFFFFFF AND MUL OR SWAP1 SSTORE POP PUSH1 0x1 PUSH1 0x0 SWAP1 SLOAD SWAP1 PUSH2 0x100 EXP SWAP1 DIV PUSH20 0xFFFFFFFFFFFFFFFFFFFFFFFFFFFFFFFFFFFFFFFF AND PUSH20 0xFFFFFFFFFFFFFFFFFFFFFFFFFFFFFFFFFFFFFFFF AND PUSH4 0x7CEAB3B1 PUSH1 0x0 PUSH1 0x40 MLOAD PUSH1 0x20 ADD MSTORE PUSH1 0x40 MLOAD DUP2 PUSH4 0xFFFFFFFF AND PUSH29 0x100000000000000000000000000000000000000000000000000000000 MUL DUP2 MSTORE PUSH1 0x4 ADD PUSH1 0x20 PUSH1 0x40 MLOAD DUP1 DUP4 SUB DUP2 PUSH1 0x0 DUP8 DUP1 EXTCODESIZE ISZERO ISZERO PUSH2 0x3E7 JUMPI PUSH1 0x0 DUP1 REVERT JUMPDEST PUSH2 0x2C6 GAS SUB CALL ISZERO ISZERO PUSH2 0x3F8 JUMPI PUSH1 0x0 DUP1 REVERT JUMPDEST POP POP POP PUSH1 0x40 MLOAD DUP1 MLOAD SWAP1 POP SWAP1 POP DUP1 PUSH20 0xFFFFFFFFFFFFFFFFFFFFFFFFFFFFFFFFFFFFFFFF AND PUSH4 0x662EA8EC PUSH1 0x40 MLOAD DUP2 PUSH4 0xFFFFFFFF AND PUSH29 0x100000000000000000000000000000000000000000000000000000000 MUL DUP2 MSTORE PUSH1 0x4 ADD DUP1 DUP1 PUSH1 0x20 ADD DUP3 DUP2 SUB DUP3 MSTORE PUSH1 0x7 DUP2 MSTORE PUSH1 0x20 ADD DUP1 PUSH32 0x6465706F73697400000000000000000000000000000000000000000000000000 DUP2 MSTORE POP PUSH1 0x20 ADD SWAP2 POP POP PUSH1 0x0 PUSH1 0x40 MLOAD DUP1 DUP4 SUB DUP2 PUSH1 0x0 DUP8 DUP1 EXTCODESIZE ISZERO ISZERO PUSH2 0x4A3 JUMPI PUSH1 0x0 DUP1 REVERT JUMPDEST PUSH2 0x2C6 GAS SUB CALL ISZERO ISZERO PUSH2 0x4B4 JUMPI PUSH1 0x0 DUP1 REVERT JUMPDEST POP POP POP DUP1 PUSH20 0xFFFFFFFFFFFFFFFFFFFFFFFFFFFFFFFFFFFFFFFF AND PUSH4 0x662EA8EC PUSH1 0x40 MLOAD DUP2 PUSH4 0xFFFFFFFF AND PUSH29 0x100000000000000000000000000000000000000000000000000000000 MUL DUP2 MSTORE PUSH1 0x4 ADD DUP1 DUP1 PUSH1 0x20 ADD DUP3 DUP2 SUB DUP3 MSTORE PUSH1 0x8 DUP2 MSTORE PUSH1 0x20 ADD DUP1 PUSH32 0x7769746864726177000000000000000000000000000000000000000000000000 DUP2 MSTORE POP PUSH1 0x20 ADD SWAP2 POP POP PUSH1 0x0 PUSH1 0x40 MLOAD DUP1 DUP4 SUB DUP2 PUSH1 0x0 DUP8 DUP1 EXTCODESIZE ISZERO ISZERO PUSH2 0x556 JUMPI PUSH1 0x0 DUP1 REVERT JUMPDEST PUSH2 0x2C6 GAS SUB CALL ISZERO ISZERO PUSH2 0x567 JUMPI PUSH1 0x0 DUP1 REVERT JUMPDEST POP POP POP JUMPDEST POP JUMP JUMPDEST PUSH1 0x0 ADDRESS PUSH20 0xFFFFFFFFFFFFFFFFFFFFFFFFFFFFFFFFFFFFFFFF AND PUSH1 0x1 PUSH1 0x0 SWAP1 SLOAD SWAP1 PUSH2 0x100 EXP SWAP1 DIV PUSH20 0xFFFFFFFFFFFFFFFFFFFFFFFFFFFFFFFFFFFFFFFF AND PUSH20 0xFFFFFFFFFFFFFFFFFFFFFFFFFFFFFFFFFFFFFFFF AND PUSH4 0x8DA5CB5B PUSH1 0x0 PUSH1 0x40 MLOAD PUSH1 0x20 ADD MSTORE PUSH1 0x40 MLOAD DUP2 PUSH4 0xFFFFFFFF AND PUSH29 0x100000000000000000000000000000000000000000000000000000000 MUL DUP2 MSTORE PUSH1 0x4 ADD PUSH1 0x20 PUSH1 0x40 MLOAD DUP1 DUP4 SUB DUP2 PUSH1 0x0 DUP8 DUP1 EXTCODESIZE ISZERO ISZERO PUSH2 0x615 JUMPI PUSH1 0x0 DUP1 REVERT JUMPDEST PUSH2 0x2C6 GAS SUB CALL ISZERO ISZERO PUSH2 0x626 JUMPI PUSH1 0x0 DUP1 REVERT JUMPDEST POP POP POP PUSH1 0x40 MLOAD DUP1 MLOAD SWAP1 POP PUSH20 0xFFFFFFFFFFFFFFFFFFFFFFFFFFFFFFFFFFFFFFFF AND EQ ISZERO SWAP1 POP JUMPDEST SWAP1 JUMP JUMPDEST PUSH1 0x0 DUP1 SWAP1 SLOAD SWAP1 PUSH2 0x100 EXP SWAP1 DIV PUSH20 0xFFFFFFFFFFFFFFFFFFFFFFFFFFFFFFFFFFFFFFFF AND DUP2 JUMP JUMPDEST PUSH1 0x1 PUSH1 0x0 SWAP1 SLOAD SWAP1 PUSH2 0x100 EXP SWAP1 DIV PUSH20 0xFFFFFFFFFFFFFFFFFFFFFFFFFFFFFFFFFFFFFFFF AND DUP2 JUMP JUMPDEST PUSH1 0x40 MLOAD PUSH2 0x4BA DUP1 PUSH2 0x6CA DUP4 CODECOPY ADD SWAP1 JUMP JUMPDEST PUSH1 0x40 MLOAD PUSH2 0x959 DUP1 PUSH2 0xB84 DUP4 CODECOPY ADD SWAP1 JUMP JUMPDEST PUSH1 0x40 MLOAD PUSH2 0x166B DUP1 PUSH2 0x14DD DUP4 CODECOPY ADD SWAP1 JUMP STOP PUSH1 0x60 PUSH1 0x40 MSTORE CALLVALUE ISZERO PUSH2 0xF JUMPI PUSH1 0x0 DUP1 REVERT JUMPDEST JUMPDEST CALLER PUSH1 0x1 PUSH1 0x0 PUSH2 0x100 EXP DUP2 SLOAD DUP2 PUSH20 0xFFFFFFFFFFFFFFFFFFFFFFFFFFFFFFFFFFFFFFFF MUL NOT AND SWAP1 DUP4 PUSH20 0xFFFFFFFFFFFFFFFFFFFFFFFFFFFFFFFFFFFFFFFF AND MUL OR SWAP1 SSTORE POP JUMPDEST JUMPDEST PUSH2 0x458 DUP1 PUSH2 0x62 PUSH1 0x0 CODECOPY PUSH1 0x0 RETURN STOP PUSH1 0x60 PUSH1 0x40 MSTORE PUSH1 0x0 CALLDATALOAD PUSH29 0x100000000000000000000000000000000000000000000000000000000 SWAP1 DIV PUSH4 0xFFFFFFFF AND DUP1 PUSH4 0x2CFEACA EQ PUSH2 0x6A JUMPI DUP1 PUSH4 0x3EAE978A EQ PUSH2 0xD1 JUMPI DUP1 PUSH4 0x8DA5CB5B EQ PUSH2 0x115 JUMPI DUP1 PUSH4 0xB39C4593 EQ PUSH2 0x16A JUMPI DUP1 PUSH4 0xF2FDE38B EQ PUSH2 0x19B JUMPI JUMPDEST PUSH1 0x0 DUP1 REVERT JUMPDEST CALLVALUE ISZERO PUSH2 0x75 JUMPI PUSH1 0x0 DUP1 REVERT JUMPDEST PUSH2 0x8F PUSH1 0x4 DUP1 DUP1 CALLDATALOAD PUSH1 0x0 NOT AND SWAP1 PUSH1 0x20 ADD SWAP1 SWAP2 SWAP1 POP POP PUSH2 0x1D4 JUMP JUMPDEST PUSH1 0x40 MLOAD DUP1 DUP3 PUSH20 0xFFFFFFFFFFFFFFFFFFFFFFFFFFFFFFFFFFFFFFFF AND PUSH20 0xFFFFFFFFFFFFFFFFFFFFFFFFFFFFFFFFFFFFFFFF AND DUP2 MSTORE PUSH1 0x20 ADD SWAP2 POP POP PUSH1 0x40 MLOAD DUP1 SWAP2 SUB SWAP1 RETURN JUMPDEST CALLVALUE ISZERO PUSH2 0xDC JUMPI PUSH1 0x0 DUP1 REVERT JUMPDEST PUSH2 0x113 PUSH1 0x4 DUP1 DUP1 CALLDATALOAD PUSH20 0xFFFFFFFFFFFFFFFFFFFFFFFFFFFFFFFFFFFFFFFF AND SWAP1 PUSH1 0x20 ADD SWAP1 SWAP2 SWAP1 DUP1 CALLDATALOAD ISZERO ISZERO SWAP1 PUSH1 0x20 ADD SWAP1 SWAP2 SWAP1 POP POP PUSH2 0x207 JUMP JUMPDEST STOP JUMPDEST CALLVALUE ISZERO PUSH2 0x120 JUMPI PUSH1 0x0 DUP1 REVERT JUMPDEST PUSH2 0x128 PUSH2 0x35F JUMP JUMPDEST PUSH1 0x40 MLOAD DUP1 DUP3 PUSH20 0xFFFFFFFFFFFFFFFFFFFFFFFFFFFFFFFFFFFFFFFF AND PUSH20 0xFFFFFFFFFFFFFFFFFFFFFFFFFFFFFFFFFFFFFFFF AND DUP2 MSTORE PUSH1 0x20 ADD SWAP2 POP POP PUSH1 0x40 MLOAD DUP1 SWAP2 SUB SWAP1 RETURN JUMPDEST CALLVALUE ISZERO PUSH2 0x175 JUMPI PUSH1 0x0 DUP1 REVERT JUMPDEST PUSH2 0x17D PUSH2 0x385 JUMP JUMPDEST PUSH1 0x40 MLOAD DUP1 DUP3 PUSH1 0x0 NOT AND PUSH1 0x0 NOT AND DUP2 MSTORE PUSH1 0x20 ADD SWAP2 POP POP PUSH1 0x40 MLOAD DUP1 SWAP2 SUB SWAP1 RETURN JUMPDEST CALLVALUE ISZERO PUSH2 0x1A6 JUMPI PUSH1 0x0 DUP1 REVERT JUMPDEST PUSH2 0x1D2 PUSH1 0x4 DUP1 DUP1 CALLDATALOAD PUSH20 0xFFFFFFFFFFFFFFFFFFFFFFFFFFFFFFFFFFFFFFFF AND SWAP1 PUSH1 0x20 ADD SWAP1 SWAP2 SWAP1 POP POP PUSH2 0x38B JUMP JUMPDEST STOP JUMPDEST PUSH1 0x0 PUSH1 0x20 MSTORE DUP1 PUSH1 0x0 MSTORE PUSH1 0x40 PUSH1 0x0 KECCAK256 PUSH1 0x0 SWAP2 POP SLOAD SWAP1 PUSH2 0x100 EXP SWAP1 DIV PUSH20 0xFFFFFFFFFFFFFFFFFFFFFFFFFFFFFFFFFFFFFFFF AND DUP2 JUMP JUMPDEST PUSH1 0x0 PUSH1 0x1 PUSH1 0x0 SWAP1 SLOAD SWAP1 PUSH2 0x100 EXP SWAP1 DIV PUSH20 0xFFFFFFFFFFFFFFFFFFFFFFFFFFFFFFFFFFFFFFFF AND PUSH20 0xFFFFFFFFFFFFFFFFFFFFFFFFFFFFFFFFFFFFFFFF AND CALLER PUSH20 0xFFFFFFFFFFFFFFFFFFFFFFFFFFFFFFFFFFFFFFFF AND EQ ISZERO ISZERO PUSH2 0x265 JUMPI PUSH1 0x0 DUP1 REVERT JUMPDEST DUP3 PUSH20 0xFFFFFFFFFFFFFFFFFFFFFFFFFFFFFFFFFFFFFFFF AND PUSH4 0xAF640D0F PUSH1 0x0 PUSH1 0x40 MLOAD PUSH1 0x20 ADD MSTORE PUSH1 0x40 MLOAD DUP2 PUSH4 0xFFFFFFFF AND PUSH29 0x100000000000000000000000000000000000000000000000000000000 MUL DUP2 MSTORE PUSH1 0x4 ADD PUSH1 0x20 PUSH1 0x40 MLOAD DUP1 DUP4 SUB DUP2 PUSH1 0x0 DUP8 DUP1 EXTCODESIZE ISZERO ISZERO PUSH2 0x2D1 JUMPI PUSH1 0x0 DUP1 REVERT JUMPDEST PUSH2 0x2C6 GAS SUB CALL ISZERO ISZERO PUSH2 0x2E2 JUMPI PUSH1 0x0 DUP1 REVERT JUMPDEST POP POP POP PUSH1 0x40 MLOAD DUP1 MLOAD SWAP1 POP SWAP1 POP DUP3 PUSH1 0x0 DUP1 DUP4 PUSH1 0x0 NOT AND PUSH1 0x0 NOT AND DUP2 MSTORE PUSH1 0x20 ADD SWAP1 DUP2 MSTORE PUSH1 0x20 ADD PUSH1 0x0 KECCAK256 PUSH1 0x0 PUSH2 0x100 EXP DUP2 SLOAD DUP2 PUSH20 0xFFFFFFFFFFFFFFFFFFFFFFFFFFFFFFFFFFFFFFFF MUL NOT AND SWAP1 DUP4 PUSH20 0xFFFFFFFFFFFFFFFFFFFFFFFFFFFFFFFFFFFFFFFF AND MUL OR SWAP1 SSTORE POP DUP2 ISZERO PUSH2 0x359 JUMPI DUP1 PUSH1 0x2 DUP2 PUSH1 0x0 NOT AND SWAP1 SSTORE POP JUMPDEST JUMPDEST POP POP POP JUMP JUMPDEST PUSH1 0x1 PUSH1 0x0 SWAP1 SLOAD SWAP1 PUSH2 0x100 EXP SWAP1 DIV PUSH20 0xFFFFFFFFFFFFFFFFFFFFFFFFFFFFFFFFFFFFFFFF AND DUP2 JUMP JUMPDEST PUSH1 0x2 SLOAD DUP2 JUMP JUMPDEST PUSH1 0x1 PUSH1 0x0 SWAP1 SLOAD SWAP1 PUSH2 0x100 EXP SWAP1 DIV PUSH20 0xFFFFFFFFFFFFFFFFFFFFFFFFFFFFFFFFFFFFFFFF AND PUSH20 0xFFFFFFFFFFFFFFFFFFFFFFFFFFFFFFFFFFFFFFFF AND CALLER PUSH20 0xFFFFFFFFFFFFFFFFFFFFFFFFFFFFFFFFFFFFFFFF AND EQ ISZERO ISZERO PUSH2 0x3E7 JUMPI PUSH1 0x0 DUP1 REVERT JUMPDEST DUP1 PUSH1 0x1 PUSH1 0x0 PUSH2 0x100 EXP DUP2 SLOAD DUP2 PUSH20 0xFFFFFFFFFFFFFFFFFFFFFFFFFFFFFFFFFFFFFFFF MUL NOT AND SWAP1 DUP4 PUSH20 0xFFFFFFFFFFFFFFFFFFFFFFFFFFFFFFFFFFFFFFFF AND MUL OR SWAP1 SSTORE POP JUMPDEST POP JUMP STOP LOG1 PUSH6 0x627A7A723058 KECCAK256 PUSH14 0xDACFE69C40D406EE07E06339CAC3 BLOCKHASH 0x5d SGT 0xbe 0xee PUSH14 0xEF089FF15BFD5BA60C3292002960 PUSH1 0x60 BLOCKHASH MSTORE CALLVALUE ISZERO PUSH2 0xF JUMPI PUSH1 0x0 DUP1 REVERT JUMPDEST JUMPDEST PUSH2 0x93A DUP1 PUSH2 0x1F PUSH1 0x0 CODECOPY PUSH1 0x0 RETURN STOP PUSH1 0x60 PUSH1 0x40 MSTORE CALLDATASIZE ISZERO PUSH2 0x81 JUMPI PUSH1 0x0 CALLDATALOAD PUSH29 0x100000000000000000000000000000000000000000000000000000000 SWAP1 DIV PUSH4 0xFFFFFFFF AND DUP1 PUSH4 0x3CECD719 EQ PUSH2 0x86 JUMPI DUP1 PUSH4 0x57A07D2E EQ PUSH2 0x9B JUMPI DUP1 PUSH4 0x662EA8EC EQ PUSH2 0x138 JUMPI DUP1 PUSH4 0x8DA5CB5B EQ PUSH2 0x166 JUMPI DUP1 PUSH4 0xAF640D0F EQ PUSH2 0x1BB JUMPI DUP1 PUSH4 0xB9460632 EQ PUSH2 0x1EC JUMPI DUP1 PUSH4 0xC4D66DE8 EQ PUSH2 0x260 JUMPI JUMPDEST PUSH1 0x0 DUP1 REVERT JUMPDEST CALLVALUE ISZERO PUSH2 0x91 JUMPI PUSH1 0x0 DUP1 REVERT JUMPDEST PUSH2 0x99 PUSH2 0x299 JUMP JUMPDEST STOP JUMPDEST CALLVALUE ISZERO PUSH2 0xA6 JUMPI PUSH1 0x0 DUP1 REVERT JUMPDEST PUSH2 0xBC PUSH1 0x4 DUP1 DUP1 CALLDATALOAD SWAP1 PUSH1 0x20 ADD SWAP1 SWAP2 SWAP1 POP POP PUSH2 0x3F9 JUMP JUMPDEST PUSH1 0x40 MLOAD DUP1 DUP1 PUSH1 0x20 ADD DUP3 DUP2 SUB DUP3 MSTORE DUP4 DUP2 DUP2 MLOAD DUP2 MSTORE PUSH1 0x20 ADD SWAP2 POP DUP1 MLOAD SWAP1 PUSH1 0x20 ADD SWAP1 DUP1 DUP4 DUP4 PUSH1 0x0 JUMPDEST DUP4 DUP2 LT ISZERO PUSH2 0xFD JUMPI DUP1 DUP3 ADD MLOAD DUP2 DUP5 ADD MSTORE JUMPDEST PUSH1 0x20 DUP2 ADD SWAP1 POP PUSH2 0xE1 JUMP JUMPDEST POP POP POP POP SWAP1 POP SWAP1 DUP2 ADD SWAP1 PUSH1 0x1F AND DUP1 ISZERO PUSH2 0x12A JUMPI DUP1 DUP3 SUB DUP1 MLOAD PUSH1 0x1 DUP4 PUSH1 0x20 SUB PUSH2 0x100 EXP SUB NOT AND DUP2 MSTORE PUSH1 0x20 ADD SWAP2 POP JUMPDEST POP SWAP3 POP POP POP PUSH1 0x40 MLOAD DUP1 SWAP2 SUB SWAP1 RETURN JUMPDEST CALLVALUE ISZERO PUSH2 0x143 JUMPI PUSH1 0x0 DUP1 REVERT JUMPDEST PUSH2 0x164 PUSH1 0x4 DUP1 DUP1 CALLDATALOAD SWAP1 PUSH1 0x20 ADD SWAP1 DUP3 ADD DUP1 CALLDATALOAD SWAP1 PUSH1 0x20 ADD SWAP2 SWAP1 SWAP2 SWAP3 SWAP1 POP POP PUSH2 0x4B6 JUMP JUMPDEST STOP JUMPDEST CALLVALUE ISZERO PUSH2 0x171 JUMPI PUSH1 0x0 DUP1 REVERT JUMPDEST PUSH2 0x179 PUSH2 0x536 JUMP JUMPDEST PUSH1 0x40 MLOAD DUP1 DUP3 PUSH20 0xFFFFFFFFFFFFFFFFFFFFFFFFFFFFFFFFFFFFFFFF AND PUSH20 0xFFFFFFFFFFFFFFFFFFFFFFFFFFFFFFFFFFFFFFFF AND DUP2 MSTORE PUSH1 0x20 ADD SWAP2 POP POP PUSH1 0x40 MLOAD DUP1 SWAP2 SUB SWAP1 RETURN JUMPDEST CALLVALUE ISZERO PUSH2 0x1C6 JUMPI PUSH1 0x0 DUP1 REVERT JUMPDEST PUSH2 0x1CE PUSH2 0x5E6 JUMP JUMPDEST PUSH1 0x40 MLOAD DUP1 DUP3 PUSH1 0x0 NOT AND PUSH1 0x0 NOT AND DUP2 MSTORE PUSH1 0x20 ADD SWAP2 POP POP PUSH1 0x40 MLOAD DUP1 SWAP2 SUB SWAP1 RETURN JUMPDEST CALLVALUE ISZERO PUSH2 0x1F7 JUMPI PUSH1 0x0 DUP1 REVERT JUMPDEST PUSH2 0x237 PUSH1 0x4 DUP1 DUP1 CALLDATALOAD PUSH20 0xFFFFFFFFFFFFFFFFFFFFFFFFFFFFFFFFFFFFFFFF AND SWAP1 PUSH1 0x20 ADD SWAP1 SWAP2 SWAP1 DUP1 CALLDATALOAD SWAP1 PUSH1 0x20 ADD SWAP1 DUP3 ADD DUP1 CALLDATALOAD SWAP1 PUSH1 0x20 ADD SWAP2 SWAP1 SWAP2 SWAP3 SWAP1 POP POP PUSH2 0x60A JUMP JUMPDEST PUSH1 0x40 MLOAD DUP1 DUP4 PUSH1 0xFF AND PUSH1 0xFF AND DUP2 MSTORE PUSH1 0x20 ADD DUP3 PUSH1 0xFF AND PUSH1 0xFF AND DUP2 MSTORE PUSH1 0x20 ADD SWAP3 POP POP POP PUSH1 0x40 MLOAD DUP1 SWAP2 SUB SWAP1 RETURN JUMPDEST CALLVALUE ISZERO PUSH2 0x26B JUMPI PUSH1 0x0 DUP1 REVERT JUMPDEST PUSH2 0x297 PUSH1 0x4 DUP1 DUP1 CALLDATALOAD PUSH20 0xFFFFFFFFFFFFFFFFFFFFFFFFFFFFFFFFFFFFFFFF AND SWAP1 PUSH1 0x20 ADD SWAP1 SWAP2 SWAP1 POP POP PUSH2 0x74F JUMP JUMPDEST STOP JUMPDEST PUSH1 0x0 PUSH1 0x1 SWAP1 SLOAD SWAP1 PUSH2 0x100 EXP SWAP1 DIV PUSH20 0xFFFFFFFFFFFFFFFFFFFFFFFFFFFFFFFFFFFFFFFF AND PUSH20 0xFFFFFFFFFFFFFFFFFFFFFFFFFFFFFFFFFFFFFFFF AND CALLER PUSH20 0xFFFFFFFFFFFFFFFFFFFFFFFFFFFFFFFFFFFFFFFF AND EQ ISZERO ISZERO PUSH2 0x2F5 JUMPI PUSH1 0x0 DUP1 REVERT JUMPDEST ADDRESS PUSH20 0xFFFFFFFFFFFFFFFFFFFFFFFFFFFFFFFFFFFFFFFF AND PUSH1 0x0 PUSH1 0x1 SWAP1 SLOAD SWAP1 PUSH2 0x100 EXP SWAP1 DIV PUSH20 0xFFFFFFFFFFFFFFFFFFFFFFFFFFFFFFFFFFFFFFFF AND PUSH20 0xFFFFFFFFFFFFFFFFFFFFFFFFFFFFFFFFFFFFFFFF AND PUSH4 0x7CEAB3B1 PUSH1 0x0 PUSH1 0x40 MLOAD PUSH1 0x20 ADD MSTORE PUSH1 0x40 MLOAD DUP2 PUSH4 0xFFFFFFFF AND PUSH29 0x100000000000000000000000000000000000000000000000000000000 MUL DUP2 MSTORE PUSH1 0x4 ADD PUSH1 0x20 PUSH1 0x40 MLOAD DUP1 DUP4 SUB DUP2 PUSH1 0x0 DUP8 DUP1 EXTCODESIZE ISZERO ISZERO PUSH2 0x39A JUMPI PUSH1 0x0 DUP1 REVERT JUMPDEST PUSH2 0x2C6 GAS SUB CALL ISZERO ISZERO PUSH2 0x3AB JUMPI PUSH1 0x0 DUP1 REVERT JUMPDEST POP POP POP PUSH1 0x40 MLOAD DUP1 MLOAD SWAP1 POP PUSH20 0xFFFFFFFFFFFFFFFFFFFFFFFFFFFFFFFFFFFFFFFF AND EQ ISZERO ISZERO PUSH2 0x3D7 JUMPI PUSH1 0x0 DUP1 REVERT JUMPDEST PUSH2 0x3DF PUSH2 0x536 JUMP JUMPDEST PUSH20 0xFFFFFFFFFFFFFFFFFFFFFFFFFFFFFFFFFFFFFFFF AND SELFDESTRUCT JUMPDEST JUMP JUMPDEST PUSH1 0x1 DUP2 DUP2 SLOAD DUP2 LT ISZERO ISZERO PUSH2 0x408 JUMPI INVALID JUMPDEST SWAP1 PUSH1 0x0 MSTORE PUSH1 0x20 PUSH1 0x0 KECCAK256 SWAP1 ADD PUSH1 0x0 JUMPDEST SWAP2 POP SWAP1 POP DUP1 SLOAD PUSH1 0x1 DUP2 PUSH1 0x1 AND ISZERO PUSH2 0x100 MUL SUB AND PUSH1 0x2 SWAP1 DIV DUP1 PUSH1 0x1F ADD PUSH1 0x20 DUP1 SWAP2 DIV MUL PUSH1 0x20 ADD PUSH1 0x40 MLOAD SWAP1 DUP2 ADD PUSH1 0x40 MSTORE DUP1 SWAP3 SWAP2 SWAP1 DUP2 DUP2 MSTORE PUSH1 0x20 ADD DUP3 DUP1 SLOAD PUSH1 0x1 DUP2 PUSH1 0x1 AND ISZERO PUSH2 0x100 MUL SUB AND PUSH1 0x2 SWAP1 DIV DUP1 ISZERO PUSH2 0x4AE JUMPI DUP1 PUSH1 0x1F LT PUSH2 0x483 JUMPI PUSH2 0x100 DUP1 DUP4 SLOAD DIV MUL DUP4 MSTORE SWAP2 PUSH1 0x20 ADD SWAP2 PUSH2 0x4AE JUMP JUMPDEST DUP3 ADD SWAP2 SWAP1 PUSH1 0x0 MSTORE PUSH1 0x20 PUSH1 0x0 KECCAK256 SWAP1 JUMPDEST DUP2 SLOAD DUP2 MSTORE SWAP1 PUSH1 0x1 ADD SWAP1 PUSH1 0x20 ADD DUP1 DUP4 GT PUSH2 0x491 JUMPI DUP3 SWAP1 SUB PUSH1 0x1F AND DUP3 ADD SWAP2 JUMPDEST POP POP POP POP POP DUP2 JUMP JUMPDEST PUSH2 0x4BE PUSH2 0x536 JUMP JUMPDEST PUSH20 0xFFFFFFFFFFFFFFFFFFFFFFFFFFFFFFFFFFFFFFFF AND CALLER PUSH20 0xFFFFFFFFFFFFFFFFFFFFFFFFFFFFFFFFFFFFFFFF AND EQ ISZERO ISZERO PUSH2 0x4F7 JUMPI PUSH1 0x0 DUP1 REVERT JUMPDEST PUSH1 0x1 DUP1 SLOAD DUP1 PUSH1 0x1 ADD DUP3 DUP2 PUSH2 0x50B SWAP2 SWAP1 PUSH2 0x7C9 JUMP JUMPDEST SWAP2 PUSH1 0x0 MSTORE PUSH1 0x20 PUSH1 0x0 KECCAK256 SWAP1 ADD PUSH1 0x0 JUMPDEST DUP5 DUP5 SWAP1 SWAP2 SWAP3 SWAP1 SWAP2 SWAP3 POP SWAP2 SWAP1 PUSH2 0x52F SWAP3 SWAP2 SWAP1 PUSH2 0x7F5 JUMP JUMPDEST POP POP JUMPDEST POP POP JUMP JUMPDEST PUSH1 0x0 DUP1 PUSH1 0x1 SWAP1 SLOAD SWAP1 PUSH2 0x100 EXP SWAP1 DIV PUSH20 0xFFFFFFFFFFFFFFFFFFFFFFFFFFFFFFFFFFFFFFFF AND PUSH20 0xFFFFFFFFFFFFFFFFFFFFFFFFFFFFFFFFFFFFFFFF AND PUSH4 0x8DA5CB5B PUSH1 0x0 PUSH1 0x40 MLOAD PUSH1 0x20 ADD MSTORE PUSH1 0x40 MLOAD DUP2 PUSH4 0xFFFFFFFF AND PUSH29 0x100000000000000000000000000000000000000000000000000000000 MUL DUP2 MSTORE PUSH1 0x4 ADD PUSH1 0x20 PUSH1 0x40 MLOAD DUP1 DUP4 SUB DUP2 PUSH1 0x0 DUP8 DUP1 EXTCODESIZE ISZERO ISZERO PUSH2 0x5C5 JUMPI PUSH1 0x0 DUP1 REVERT JUMPDEST PUSH2 0x2C6 GAS SUB CALL ISZERO ISZERO PUSH2 0x5D6 JUMPI PUSH1 0x0 DUP1 REVERT JUMPDEST POP POP POP PUSH1 0x40 MLOAD DUP1 MLOAD SWAP1 POP SWAP1 POP JUMPDEST SWAP1 JUMP JUMPDEST PUSH32 0x73696E676C652D6F776E65720000000000000000000000000000000000000000 DUP2 JUMP JUMPDEST PUSH1 0x0 DUP1 PUSH1 0x0 PUSH2 0x617 PUSH2 0x536 JUMP JUMPDEST PUSH20 0xFFFFFFFFFFFFFFFFFFFFFFFFFFFFFFFFFFFFFFFF AND DUP7 PUSH20 0xFFFFFFFFFFFFFFFFFFFFFFFFFFFFFFFFFFFFFFFF AND EQ ISZERO PUSH2 0x65A JUMPI PUSH1 0x0 PUSH1 0x1 DUP1 SWAP1 POP SWAP3 POP SWAP3 POP PUSH2 0x746 JUMP JUMPDEST PUSH1 0x0 SWAP1 POP JUMPDEST PUSH1 0x1 DUP1 SLOAD SWAP1 POP DUP2 LT ISZERO PUSH2 0x73B JUMPI DUP5 DUP5 PUSH1 0x40 MLOAD DUP1 DUP4 DUP4 DUP1 DUP3 DUP5 CALLDATACOPY DUP3 ADD SWAP2 POP POP SWAP3 POP POP POP PUSH1 0x40 MLOAD DUP1 SWAP2 SUB SWAP1 KECCAK256 PUSH1 0x0 NOT AND PUSH1 0x1 DUP3 DUP2 SLOAD DUP2 LT ISZERO ISZERO PUSH2 0x69C JUMPI INVALID JUMPDEST SWAP1 PUSH1 0x0 MSTORE PUSH1 0x20 PUSH1 0x0 KECCAK256 SWAP1 ADD PUSH1 0x0 JUMPDEST POP PUSH1 0x40 MLOAD DUP1 DUP3 DUP1 SLOAD PUSH1 0x1 DUP2 PUSH1 0x1 AND ISZERO PUSH2 0x100 MUL SUB AND PUSH1 0x2 SWAP1 DIV DUP1 ISZERO PUSH2 0x706 JUMPI DUP1 PUSH1 0x1F LT PUSH2 0x6E4 JUMPI PUSH2 0x100 DUP1 DUP4 SLOAD DIV MUL DUP4 MSTORE SWAP2 DUP3 ADD SWAP2 PUSH2 0x706 JUMP JUMPDEST DUP3 ADD SWAP2 SWAP1 PUSH1 0x0 MSTORE PUSH1 0x20 PUSH1 0x0 KECCAK256 SWAP1 JUMPDEST DUP2 SLOAD DUP2 MSTORE SWAP1 PUSH1 0x1 ADD SWAP1 PUSH1 0x20 ADD DUP1 DUP4 GT PUSH2 0x6F2 JUMPI JUMPDEST POP POP SWAP2 POP POP PUSH1 0x40 MLOAD DUP1 SWAP2 SUB SWAP1 KECCAK256 PUSH1 0x0 NOT AND EQ ISZERO PUSH2 0x72D JUMPI PUSH1 0x0 PUSH1 0x2 DUP1 SWAP1 POP SWAP3 POP SWAP3 POP PUSH2 0x746 JUMP JUMPDEST JUMPDEST DUP1 DUP1 PUSH1 0x1 ADD SWAP2 POP POP PUSH2 0x65F JUMP JUMPDEST PUSH1 0x1 DUP1 DUP1 SWAP1 POP SWAP3 POP SWAP3 POP JUMPDEST POP SWAP4 POP SWAP4 SWAP2 POP POP JUMP JUMPDEST PUSH1 0x0 DUP1 SWAP1 SLOAD SWAP1 PUSH2 0x100 EXP SWAP1 DIV PUSH1 0xFF AND ISZERO ISZERO ISZERO PUSH2 0x76A JUMPI PUSH1 0x0 DUP1 REVERT JUMPDEST DUP1 PUSH1 0x0 PUSH1 0x1 PUSH2 0x100 EXP DUP2 SLOAD DUP2 PUSH20 0xFFFFFFFFFFFFFFFFFFFFFFFFFFFFFFFFFFFFFFFF MUL NOT AND SWAP1 DUP4 PUSH20 0xFFFFFFFFFFFFFFFFFFFFFFFFFFFFFFFFFFFFFFFF AND MUL OR SWAP1 SSTORE POP PUSH1 0x1 PUSH1 0x0 DUP1 PUSH2 0x100 EXP DUP2 SLOAD DUP2 PUSH1 0xFF MUL NOT AND SWAP1 DUP4 ISZERO ISZERO MUL OR SWAP1 SSTORE POP JUMPDEST POP JUMP JUMPDEST DUP2 SLOAD DUP2 DUP4 SSTORE DUP2 DUP2 ISZERO GT PUSH2 0x7F0 JUMPI DUP2 DUP4 PUSH1 0x0 MSTORE PUSH1 0x20 PUSH1 0x0 KECCAK256 SWAP2 DUP3 ADD SWAP2 ADD PUSH2 0x7EF SWAP2 SWAP1 PUSH2 0x875 JUMP JUMPDEST JUMPDEST POP POP POP JUMP JUMPDEST DUP3 DUP1 SLOAD PUSH1 0x1 DUP2 PUSH1 0x1 AND ISZERO PUSH2 0x100 MUL SUB AND PUSH1 0x2 SWAP1 DIV SWAP1 PUSH1 0x0 MSTORE PUSH1 0x20 PUSH1 0x0 KECCAK256 SWAP1 PUSH1 0x1F ADD PUSH1 0x20 SWAP1 DIV DUP2 ADD SWAP3 DUP3 PUSH1 0x1F LT PUSH2 0x836 JUMPI DUP1 CALLDATALOAD PUSH1 0xFF NOT AND DUP4 DUP1 ADD OR DUP6 SSTORE PUSH2 0x864 JUMP JUMPDEST DUP3 DUP1 ADD PUSH1 0x1 ADD DUP6 SSTORE DUP3 ISZERO PUSH2 0x864 JUMPI SWAP2 DUP3 ADD JUMPDEST DUP3 DUP2 GT ISZERO PUSH2 0x863 JUMPI DUP3 CALLDATALOAD DUP3 SSTORE SWAP2 PUSH1 0x20 ADD SWAP2 SWAP1 PUSH1 0x1 ADD SWAP1 PUSH2 0x848 JUMP JUMPDEST JUMPDEST POP SWAP1 POP PUSH2 0x871 SWAP2 SWAP1 PUSH2 0x8A1 JUMP JUMPDEST POP SWAP1 JUMP JUMPDEST PUSH2 0x89E SWAP2 SWAP1 JUMPDEST DUP1 DUP3 GT ISZERO PUSH2 0x89A JUMPI PUSH1 0x0 DUP2 DUP2 PUSH2 0x891 SWAP2 SWAP1 PUSH2 0x8C6 JUMP JUMPDEST POP PUSH1 0x1 ADD PUSH2 0x87B JUMP JUMPDEST POP SWAP1 JUMP JUMPDEST SWAP1 JUMP JUMPDEST PUSH2 0x8C3 SWAP2 SWAP1 JUMPDEST DUP1 DUP3 GT ISZERO PUSH2 0x8BF JUMPI PUSH1 0x0 DUP2 PUSH1 0x0 SWAP1 SSTORE POP PUSH1 0x1 ADD PUSH2 0x8A7 JUMP JUMPDEST POP SWAP1 JUMP JUMPDEST SWAP1 JUMP JUMPDEST POP DUP1 SLOAD PUSH1 0x1 DUP2 PUSH1 0x1 AND ISZERO PUSH2 0x100 MUL SUB AND PUSH1 0x2 SWAP1 DIV PUSH1 0x0 DUP3 SSTORE DUP1 PUSH1 0x1F LT PUSH2 0x8EC JUMPI POP PUSH2 0x90B JUMP JUMPDEST PUSH1 0x1F ADD PUSH1 0x20 SWAP1 DIV SWAP1 PUSH1 0x0 MSTORE PUSH1 0x20 PUSH1 0x0 KECCAK256 SWAP1 DUP2 ADD SWAP1 PUSH2 0x90A SWAP2 SWAP1 PUSH2 0x8A1 JUMP JUMPDEST JUMPDEST POP JUMP STOP LOG1 PUSH6 0x627A7A723058 KECCAK256 NUMBER 0xa7 JUMP 0xe7 PUSH11 0xFB0B73F3D5563411B98EA8 PUSH14 0xC2CCFD0C595FF304F9847FE478 SWAP14 STOP 0x29 PUSH1 0x60 PUSH1 0x40 MSTORE CALLVALUE ISZERO PUSH3 0x10 JUMPI PUSH1 0x0 DUP1 REVERT JUMPDEST PUSH1 0x40 MLOAD PUSH1 0x20 DUP1 PUSH3 0x166B DUP4 CODECOPY DUP2 ADD PUSH1 0x40 MSTORE DUP1 DUP1 MLOAD SWAP1 PUSH1 0x20 ADD SWAP1 SWAP2 SWAP1 POP POP JUMPDEST CALLER PUSH1 0x0 DUP1 PUSH2 0x100 EXP DUP2 SLOAD DUP2 PUSH20 0xFFFFFFFFFFFFFFFFFFFFFFFFFFFFFFFFFFFFFFFF MUL NOT AND SWAP1 DUP4 PUSH20 0xFFFFFFFFFFFFFFFFFFFFFFFFFFFFFFFFFFFFFFFF AND MUL OR SWAP1 SSTORE POP DUP1 PUSH1 0x2 PUSH1 0x0 PUSH2 0x100 EXP DUP2 SLOAD DUP2 PUSH20 0xFFFFFFFFFFFFFFFFFFFFFFFFFFFFFFFFFFFFFFFF MUL NOT AND SWAP1 DUP4 PUSH20 0xFFFFFFFFFFFFFFFFFFFFFFFFFFFFFFFFFFFFFFFF AND MUL OR SWAP1 SSTORE POP PUSH3 0x178 PUSH1 0x2 PUSH1 0x0 SWAP1 SLOAD SWAP1 PUSH2 0x100 EXP SWAP1 DIV PUSH20 0xFFFFFFFFFFFFFFFFFFFFFFFFFFFFFFFFFFFFFFFF AND PUSH20 0xFFFFFFFFFFFFFFFFFFFFFFFFFFFFFFFFFFFFFFFF AND PUSH4 0xB39C4593 PUSH1 0x0 PUSH1 0x40 MLOAD PUSH1 0x20 ADD MSTORE PUSH1 0x40 MLOAD DUP2 PUSH4 0xFFFFFFFF AND PUSH29 0x100000000000000000000000000000000000000000000000000000000 MUL DUP2 MSTORE PUSH1 0x4 ADD PUSH1 0x20 PUSH1 0x40 MLOAD DUP1 DUP4 SUB DUP2 PUSH1 0x0 DUP8 DUP1 EXTCODESIZE ISZERO ISZERO PUSH3 0x142 JUMPI PUSH1 0x0 DUP1 REVERT JUMPDEST PUSH2 0x2C6 GAS SUB CALL ISZERO ISZERO PUSH3 0x154 JUMPI PUSH1 0x0 DUP1 REVERT JUMPDEST POP POP POP PUSH1 0x40 MLOAD DUP1 MLOAD SWAP1 POP PUSH3 0x181 PUSH5 0x100000000 MUL PUSH3 0xD3A OR PUSH5 0x100000000 SWAP1 DIV JUMP JUMPDEST POP JUMPDEST POP PUSH3 0x54A JUMP JUMPDEST PUSH1 0x0 DUP1 PUSH1 0x2 PUSH1 0x0 SWAP1 SLOAD SWAP1 PUSH2 0x100 EXP SWAP1 DIV PUSH20 0xFFFFFFFFFFFFFFFFFFFFFFFFFFFFFFFFFFFFFFFF AND PUSH20 0xFFFFFFFFFFFFFFFFFFFFFFFFFFFFFFFFFFFFFFFF AND PUSH4 0x2CFEACA DUP5 PUSH1 0x0 PUSH1 0x40 MLOAD PUSH1 0x20 ADD MSTORE PUSH1 0x40 MLOAD DUP3 PUSH4 0xFFFFFFFF AND PUSH29 0x100000000000000000000000000000000000000000000000000000000 MUL DUP2 MSTORE PUSH1 0x4 ADD DUP1 DUP3 PUSH1 0x0 NOT AND PUSH1 0x0 NOT AND DUP2 MSTORE PUSH1 0x20 ADD SWAP2 POP POP PUSH1 0x20 PUSH1 0x40 MLOAD DUP1 DUP4 SUB DUP2 PUSH1 0x0 DUP8 DUP1 EXTCODESIZE ISZERO ISZERO PUSH3 0x226 JUMPI PUSH1 0x0 DUP1 REVERT JUMPDEST PUSH2 0x2C6 GAS SUB CALL ISZERO ISZERO PUSH3 0x238 JUMPI PUSH1 0x0 DUP1 REVERT JUMPDEST POP POP POP PUSH1 0x40 MLOAD DUP1 MLOAD SWAP1 POP SWAP1 POP PUSH1 0x0 PUSH20 0xFFFFFFFFFFFFFFFFFFFFFFFFFFFFFFFFFFFFFFFF AND DUP2 PUSH20 0xFFFFFFFFFFFFFFFFFFFFFFFFFFFFFFFFFFFFFFFF AND EQ ISZERO ISZERO ISZERO PUSH3 0x281 JUMPI PUSH1 0x0 DUP1 REVERT JUMPDEST PUSH1 0x0 PUSH20 0xFFFFFFFFFFFFFFFFFFFFFFFFFFFFFFFFFFFFFFFF AND PUSH1 0x3 PUSH1 0x0 SWAP1 SLOAD SWAP1 PUSH2 0x100 EXP SWAP1 DIV PUSH20 0xFFFFFFFFFFFFFFFFFFFFFFFFFFFFFFFFFFFFFFFF AND PUSH20 0xFFFFFFFFFFFFFFFFFFFFFFFFFFFFFFFFFFFFFFFF AND EQ ISZERO ISZERO PUSH3 0x376 JUMPI PUSH1 0x3 PUSH1 0x0 SWAP1 SLOAD SWAP1 PUSH2 0x100 EXP SWAP1 DIV PUSH20 0xFFFFFFFFFFFFFFFFFFFFFFFFFFFFFFFFFFFFFFFF AND PUSH20 0xFFFFFFFFFFFFFFFFFFFFFFFFFFFFFFFFFFFFFFFF AND PUSH4 0x3CECD719 PUSH1 0x40 MLOAD DUP2 PUSH4 0xFFFFFFFF AND PUSH29 0x100000000000000000000000000000000000000000000000000000000 MUL DUP2 MSTORE PUSH1 0x4 ADD PUSH1 0x0 PUSH1 0x40 MLOAD DUP1 DUP4 SUB DUP2 PUSH1 0x0 DUP8 DUP1 EXTCODESIZE ISZERO ISZERO PUSH3 0x360 JUMPI PUSH1 0x0 DUP1 REVERT JUMPDEST PUSH2 0x2C6 GAS SUB CALL ISZERO ISZERO PUSH3 0x372 JUMPI PUSH1 0x0 DUP1 REVERT JUMPDEST POP POP POP JUMPDEST PUSH3 0x395 DUP2 PUSH3 0x4D3 PUSH5 0x100000000 MUL PUSH3 0x106E OR PUSH5 0x100000000 SWAP1 DIV JUMP JUMPDEST PUSH1 0x3 PUSH1 0x0 PUSH2 0x100 EXP DUP2 SLOAD DUP2 PUSH20 0xFFFFFFFFFFFFFFFFFFFFFFFFFFFFFFFFFFFFFFFF MUL NOT AND SWAP1 DUP4 PUSH20 0xFFFFFFFFFFFFFFFFFFFFFFFFFFFFFFFFFFFFFFFF AND MUL OR SWAP1 SSTORE POP PUSH1 0x3 PUSH1 0x0 SWAP1 SLOAD SWAP1 PUSH2 0x100 EXP SWAP1 DIV PUSH20 0xFFFFFFFFFFFFFFFFFFFFFFFFFFFFFFFFFFFFFFFF AND PUSH20 0xFFFFFFFFFFFFFFFFFFFFFFFFFFFFFFFFFFFFFFFF AND PUSH4 0xC4D66DE8 ADDRESS PUSH1 0x40 MLOAD DUP3 PUSH4 0xFFFFFFFF AND PUSH29 0x100000000000000000000000000000000000000000000000000000000 MUL DUP2 MSTORE PUSH1 0x4 ADD DUP1 DUP3 PUSH20 0xFFFFFFFFFFFFFFFFFFFFFFFFFFFFFFFFFFFFFFFF AND PUSH20 0xFFFFFFFFFFFFFFFFFFFFFFFFFFFFFFFFFFFFFFFF AND DUP2 MSTORE PUSH1 0x20 ADD SWAP2 POP POP PUSH1 0x0 PUSH1 0x40 MLOAD DUP1 DUP4 SUB DUP2 PUSH1 0x0 DUP8 DUP1 EXTCODESIZE ISZERO ISZERO PUSH3 0x492 JUMPI PUSH1 0x0 DUP1 REVERT JUMPDEST PUSH2 0x2C6 GAS SUB CALL ISZERO ISZERO PUSH3 0x4A4 JUMPI PUSH1 0x0 DUP1 REVERT JUMPDEST POP POP POP PUSH1 0x3 PUSH1 0x0 SWAP1 SLOAD SWAP1 PUSH2 0x100 EXP SWAP1 DIV PUSH20 0xFFFFFFFFFFFFFFFFFFFFFFFFFFFFFFFFFFFFFFFF AND SWAP2 POP JUMPDEST POP SWAP2 SWAP1 POP JUMP JUMPDEST PUSH1 0x0 DUP1 DUP3 PUSH13 0x1000000000000000000000000 MUL SWAP1 POP PUSH1 0x40 MLOAD PUSH32 0x3D602D80600A3D3981F3363D3D373D3D3D363D73000000000000000000000000 DUP2 MSTORE DUP2 PUSH1 0x14 DUP3 ADD MSTORE PUSH32 0x5AF43D82803E903D91602B57FD5BF30000000000000000000000000000000000 PUSH1 0x28 DUP3 ADD MSTORE PUSH1 0x37 DUP2 PUSH1 0x0 CREATE SWAP3 POP POP JUMPDEST POP SWAP2 SWAP1 POP JUMP JUMPDEST PUSH2 0x1111 DUP1 PUSH3 0x55A PUSH1 0x0 CODECOPY PUSH1 0x0 RETURN STOP PUSH1 0x60 PUSH1 0x40 MSTORE CALLDATASIZE ISZERO PUSH2 0xAD JUMPI PUSH1 0x0 CALLDATALOAD PUSH29 0x100000000000000000000000000000000000000000000000000000000 SWAP1 DIV PUSH4 0xFFFFFFFF AND DUP1 PUSH4 0x46C469A4 EQ PUSH2 0xB2 JUMPI DUP1 PUSH4 0x47E7EF24 EQ PUSH2 0x119 JUMPI DUP1 PUSH4 0x79BA5097 EQ PUSH2 0x15B JUMPI DUP1 PUSH4 0x7B103999 EQ PUSH2 0x170 JUMPI DUP1 PUSH4 0x7CEAB3B1 EQ PUSH2 0x1C5 JUMPI DUP1 PUSH4 0x8DA5CB5B EQ PUSH2 0x21A JUMPI DUP1 PUSH4 0xC23F001F EQ PUSH2 0x26F JUMPI DUP1 PUSH4 0xC4BF0220 EQ PUSH2 0x2DB JUMPI DUP1 PUSH4 0xE30C3978 EQ PUSH2 0x357 JUMPI DUP1 PUSH4 0xF2FDE38B EQ PUSH2 0x3AC JUMPI DUP1 PUSH4 0xF3FEF3A3 EQ PUSH2 0x3E5 JUMPI JUMPDEST PUSH1 0x0 DUP1 REVERT JUMPDEST CALLVALUE ISZERO PUSH2 0xBD JUMPI PUSH1 0x0 DUP1 REVERT JUMPDEST PUSH2 0xD7 PUSH1 0x4 DUP1 DUP1 CALLDATALOAD PUSH1 0x0 NOT AND SWAP1 PUSH1 0x20 ADD SWAP1 SWAP2 SWAP1 POP POP PUSH2 0x427 JUMP JUMPDEST PUSH1 0x40 MLOAD DUP1 DUP3 PUSH20 0xFFFFFFFFFFFFFFFFFFFFFFFFFFFFFFFFFFFFFFFF AND PUSH20 0xFFFFFFFFFFFFFFFFFFFFFFFFFFFFFFFFFFFFFFFF AND DUP2 MSTORE PUSH1 0x20 ADD SWAP2 POP POP PUSH1 0x40 MLOAD DUP1 SWAP2 SUB SWAP1 RETURN JUMPDEST CALLVALUE ISZERO PUSH2 0x124 JUMPI PUSH1 0x0 DUP1 REVERT JUMPDEST PUSH2 0x159 PUSH1 0x4 DUP1 DUP1 CALLDATALOAD PUSH20 0xFFFFFFFFFFFFFFFFFFFFFFFFFFFFFFFFFFFFFFFF AND SWAP1 PUSH1 0x20 ADD SWAP1 SWAP2 SWAP1 DUP1 CALLDATALOAD SWAP1 PUSH1 0x20 ADD SWAP1 SWAP2 SWAP1 POP POP PUSH2 0x483 JUMP JUMPDEST STOP JUMPDEST CALLVALUE ISZERO PUSH2 0x166 JUMPI PUSH1 0x0 DUP1 REVERT JUMPDEST PUSH2 0x16E PUSH2 0x660 JUMP JUMPDEST STOP JUMPDEST CALLVALUE ISZERO PUSH2 0x17B JUMPI PUSH1 0x0 DUP1 REVERT JUMPDEST PUSH2 0x183 PUSH2 0x763 JUMP JUMPDEST PUSH1 0x40 MLOAD DUP1 DUP3 PUSH20 0xFFFFFFFFFFFFFFFFFFFFFFFFFFFFFFFFFFFFFFFF AND PUSH20 0xFFFFFFFFFFFFFFFFFFFFFFFFFFFFFFFFFFFFFFFF AND DUP2 MSTORE PUSH1 0x20 ADD SWAP2 POP POP PUSH1 0x40 MLOAD DUP1 SWAP2 SUB SWAP1 RETURN JUMPDEST CALLVALUE ISZERO PUSH2 0x1D0 JUMPI PUSH1 0x0 DUP1 REVERT JUMPDEST PUSH2 0x1D8 PUSH2 0x789 JUMP JUMPDEST PUSH1 0x40 MLOAD DUP1 DUP3 PUSH20 0xFFFFFFFFFFFFFFFFFFFFFFFFFFFFFFFFFFFFFFFF AND PUSH20 0xFFFFFFFFFFFFFFFFFFFFFFFFFFFFFFFFFFFFFFFF AND DUP2 MSTORE PUSH1 0x20 ADD SWAP2 POP POP PUSH1 0x40 MLOAD DUP1 SWAP2 SUB SWAP1 RETURN JUMPDEST CALLVALUE ISZERO PUSH2 0x225 JUMPI PUSH1 0x0 DUP1 REVERT JUMPDEST PUSH2 0x22D PUSH2 0x7AF JUMP JUMPDEST PUSH1 0x40 MLOAD DUP1 DUP3 PUSH20 0xFFFFFFFFFFFFFFFFFFFFFFFFFFFFFFFFFFFFFFFF AND PUSH20 0xFFFFFFFFFFFFFFFFFFFFFFFFFFFFFFFFFFFFFFFF AND DUP2 MSTORE PUSH1 0x20 ADD SWAP2 POP POP PUSH1 0x40 MLOAD DUP1 SWAP2 SUB SWAP1 RETURN JUMPDEST CALLVALUE ISZERO PUSH2 0x27A JUMPI PUSH1 0x0 DUP1 REVERT JUMPDEST PUSH2 0x2C5 PUSH1 0x4 DUP1 DUP1 CALLDATALOAD PUSH20 0xFFFFFFFFFFFFFFFFFFFFFFFFFFFFFFFFFFFFFFFF AND SWAP1 PUSH1 0x20 ADD SWAP1 SWAP2 SWAP1 DUP1 CALLDATALOAD PUSH20 0xFFFFFFFFFFFFFFFFFFFFFFFFFFFFFFFFFFFFFFFF AND SWAP1 PUSH1 0x20 ADD SWAP1 SWAP2 SWAP1 POP POP PUSH2 0x7D4 JUMP JUMPDEST PUSH1 0x40 MLOAD DUP1 DUP3 DUP2 MSTORE PUSH1 0x20 ADD SWAP2 POP POP PUSH1 0x40 MLOAD DUP1 SWAP2 SUB SWAP1 RETURN JUMPDEST CALLVALUE ISZERO PUSH2 0x2E6 JUMPI PUSH1 0x0 DUP1 REVERT JUMPDEST PUSH2 0x355 PUSH1 0x4 DUP1 DUP1 CALLDATALOAD PUSH20 0xFFFFFFFFFFFFFFFFFFFFFFFFFFFFFFFFFFFFFFFF AND SWAP1 PUSH1 0x20 ADD SWAP1 SWAP2 SWAP1 DUP1 CALLDATALOAD SWAP1 PUSH1 0x20 ADD SWAP1 DUP3 ADD DUP1 CALLDATALOAD SWAP1 PUSH1 0x20 ADD SWAP1 DUP1 DUP1 PUSH1 0x1F ADD PUSH1 0x20 DUP1 SWAP2 DIV MUL PUSH1 0x20 ADD PUSH1 0x40 MLOAD SWAP1 DUP2 ADD PUSH1 0x40 MSTORE DUP1 SWAP4 SWAP3 SWAP2 SWAP1 DUP2 DUP2 MSTORE PUSH1 0x20 ADD DUP4 DUP4 DUP1 DUP3 DUP5 CALLDATACOPY DUP3 ADD SWAP2 POP POP POP POP POP POP SWAP2 SWAP1 POP POP PUSH2 0x7F9 JUMP JUMPDEST STOP JUMPDEST CALLVALUE ISZERO PUSH2 0x362 JUMPI PUSH1 0x0 DUP1 REVERT JUMPDEST PUSH2 0x36A PUSH2 0x8DC JUMP JUMPDEST PUSH1 0x40 MLOAD DUP1 DUP3 PUSH20 0xFFFFFFFFFFFFFFFFFFFFFFFFFFFFFFFFFFFFFFFF AND PUSH20 0xFFFFFFFFFFFFFFFFFFFFFFFFFFFFFFFFFFFFFFFF AND DUP2 MSTORE PUSH1 0x20 ADD SWAP2 POP POP PUSH1 0x40 MLOAD DUP1 SWAP2 SUB SWAP1 RETURN JUMPDEST CALLVALUE ISZERO PUSH2 0x3B7 JUMPI PUSH1 0x0 DUP1 REVERT JUMPDEST PUSH2 0x3E3 PUSH1 0x4 DUP1 DUP1 CALLDATALOAD PUSH20 0xFFFFFFFFFFFFFFFFFFFFFFFFFFFFFFFFFFFFFFFF AND SWAP1 PUSH1 0x20 ADD SWAP1 SWAP2 SWAP1 POP POP PUSH2 0x902 JUMP JUMPDEST STOP JUMPDEST CALLVALUE ISZERO PUSH2 0x3F0 JUMPI PUSH1 0x0 DUP1 REVERT JUMPDEST PUSH2 0x425 PUSH1 0x4 DUP1 DUP1 CALLDATALOAD PUSH20 0xFFFFFFFFFFFFFFFFFFFFFFFFFFFFFFFFFFFFFFFF AND SWAP1 PUSH1 0x20 ADD SWAP1 SWAP2 SWAP1 DUP1 CALLDATALOAD SWAP1 PUSH1 0x20 ADD SWAP1 SWAP2 SWAP1 POP POP PUSH2 0x9A2 JUMP JUMPDEST STOP JUMPDEST PUSH1 0x0 PUSH2 0x467 PUSH1 0x40 DUP1 MLOAD SWAP1 DUP2 ADD PUSH1 0x40 MSTORE DUP1 PUSH1 0xB DUP2 MSTORE PUSH1 0x20 ADD PUSH32 0x7570646174654775617264000000000000000000000000000000000000000000 DUP2 MSTORE POP PUSH2 0xBCC JUMP JUMPDEST ISZERO ISZERO PUSH2 0x472 JUMPI PUSH1 0x0 DUP1 REVERT JUMPDEST PUSH2 0x47B DUP3 PUSH2 0xD3A JUMP JUMPDEST SWAP1 POP JUMPDEST SWAP2 SWAP1 POP JUMP JUMPDEST PUSH2 0x4C1 PUSH1 0x40 DUP1 MLOAD SWAP1 DUP2 ADD PUSH1 0x40 MSTORE DUP1 PUSH1 0x7 DUP2 MSTORE PUSH1 0x20 ADD PUSH32 0x6465706F73697400000000000000000000000000000000000000000000000000 DUP2 MSTORE POP PUSH2 0xBCC JUMP JUMPDEST ISZERO ISZERO PUSH2 0x4CC JUMPI PUSH1 0x0 DUP1 REVERT JUMPDEST DUP2 PUSH20 0xFFFFFFFFFFFFFFFFFFFFFFFFFFFFFFFFFFFFFFFF AND PUSH4 0x23B872DD CALLER ADDRESS DUP5 PUSH1 0x0 PUSH1 0x40 MLOAD PUSH1 0x20 ADD MSTORE PUSH1 0x40 MLOAD DUP5 PUSH4 0xFFFFFFFF AND PUSH29 0x100000000000000000000000000000000000000000000000000000000 MUL DUP2 MSTORE PUSH1 0x4 ADD DUP1 DUP5 PUSH20 0xFFFFFFFFFFFFFFFFFFFFFFFFFFFFFFFFFFFFFFFF AND PUSH20 0xFFFFFFFFFFFFFFFFFFFFFFFFFFFFFFFFFFFFFFFF AND DUP2 MSTORE PUSH1 0x20 ADD DUP4 PUSH20 0xFFFFFFFFFFFFFFFFFFFFFFFFFFFFFFFFFFFFFFFF AND PUSH20 0xFFFFFFFFFFFFFFFFFFFFFFFFFFFFFFFFFFFFFFFF AND DUP2 MSTORE PUSH1 0x20 ADD DUP3 DUP2 MSTORE PUSH1 0x20 ADD SWAP4 POP POP POP POP PUSH1 0x20 PUSH1 0x40 MLOAD DUP1 DUP4 SUB DUP2 PUSH1 0x0 DUP8 DUP1 EXTCODESIZE ISZERO ISZERO PUSH2 0x5AB JUMPI PUSH1 0x0 DUP1 REVERT JUMPDEST PUSH2 0x2C6 GAS SUB CALL ISZERO ISZERO PUSH2 0x5BC JUMPI PUSH1 0x0 DUP1 REVERT JUMPDEST POP POP POP PUSH1 0x40 MLOAD DUP1 MLOAD SWAP1 POP ISZERO ISZERO PUSH2 0x5D1 JUMPI PUSH1 0x0 DUP1 REVERT JUMPDEST DUP1 PUSH1 0x4 PUSH1 0x0 CALLER PUSH20 0xFFFFFFFFFFFFFFFFFFFFFFFFFFFFFFFFFFFFFFFF AND PUSH20 0xFFFFFFFFFFFFFFFFFFFFFFFFFFFFFFFFFFFFFFFF AND DUP2 MSTORE PUSH1 0x20 ADD SWAP1 DUP2 MSTORE PUSH1 0x20 ADD PUSH1 0x0 KECCAK256 PUSH1 0x0 DUP5 PUSH20 0xFFFFFFFFFFFFFFFFFFFFFFFFFFFFFFFFFFFFFFFF AND PUSH20 0xFFFFFFFFFFFFFFFFFFFFFFFFFFFFFFFFFFFFFFFF AND DUP2 MSTORE PUSH1 0x20 ADD SWAP1 DUP2 MSTORE PUSH1 0x20 ADD PUSH1 0x0 KECCAK256 PUSH1 0x0 DUP3 DUP3 SLOAD ADD SWAP3 POP POP DUP2 SWAP1 SSTORE POP JUMPDEST POP POP JUMP JUMPDEST PUSH1 0x1 PUSH1 0x0 SWAP1 SLOAD SWAP1 PUSH2 0x100 EXP SWAP1 DIV PUSH20 0xFFFFFFFFFFFFFFFFFFFFFFFFFFFFFFFFFFFFFFFF AND PUSH20 0xFFFFFFFFFFFFFFFFFFFFFFFFFFFFFFFFFFFFFFFF AND CALLER PUSH20 0xFFFFFFFFFFFFFFFFFFFFFFFFFFFFFFFFFFFFFFFF AND EQ ISZERO ISZERO PUSH2 0x6BC JUMPI PUSH1 0x0 DUP1 REVERT JUMPDEST PUSH1 0x1 PUSH1 0x0 SWAP1 SLOAD SWAP1 PUSH2 0x100 EXP SWAP1 DIV PUSH20 0xFFFFFFFFFFFFFFFFFFFFFFFFFFFFFFFFFFFFFFFF AND PUSH1 0x0 DUP1 PUSH2 0x100 EXP DUP2 SLOAD DUP2 PUSH20 0xFFFFFFFFFFFFFFFFFFFFFFFFFFFFFFFFFFFFFFFF MUL NOT AND SWAP1 DUP4 PUSH20 0xFFFFFFFFFFFFFFFFFFFFFFFFFFFFFFFFFFFFFFFF AND MUL OR SWAP1 SSTORE POP PUSH1 0x0 PUSH1 0x1 PUSH1 0x0 PUSH2 0x100 EXP DUP2 SLOAD DUP2 PUSH20 0xFFFFFFFFFFFFFFFFFFFFFFFFFFFFFFFFFFFFFFFF MUL NOT AND SWAP1 DUP4 PUSH20 0xFFFFFFFFFFFFFFFFFFFFFFFFFFFFFFFFFFFFFFFF AND MUL OR SWAP1 SSTORE POP JUMPDEST JUMP JUMPDEST PUSH1 0x2 PUSH1 0x0 SWAP1 SLOAD SWAP1 PUSH2 0x100 EXP SWAP1 DIV PUSH20 0xFFFFFFFFFFFFFFFFFFFFFFFFFFFFFFFFFFFFFFFF AND DUP2 JUMP JUMPDEST PUSH1 0x3 PUSH1 0x0 SWAP1 SLOAD SWAP1 PUSH2 0x100 EXP SWAP1 DIV PUSH20 0xFFFFFFFFFFFFFFFFFFFFFFFFFFFFFFFFFFFFFFFF AND DUP2 JUMP JUMPDEST PUSH1 0x0 DUP1 SWAP1 SLOAD SWAP1 PUSH2 0x100 EXP SWAP1 DIV PUSH20 0xFFFFFFFFFFFFFFFFFFFFFFFFFFFFFFFFFFFFFFFF AND DUP2 JUMP JUMPDEST PUSH1 0x4 PUSH1 0x20 MSTORE DUP2 PUSH1 0x0 MSTORE PUSH1 0x40 PUSH1 0x0 KECCAK256 PUSH1 0x20 MSTORE DUP1 PUSH1 0x0 MSTORE PUSH1 0x40 PUSH1 0x0 KECCAK256 PUSH1 0x0 SWAP2 POP SWAP2 POP POP SLOAD DUP2 JUMP JUMPDEST PUSH2 0x837 PUSH1 0x40 DUP1 MLOAD SWAP1 DUP2 ADD PUSH1 0x40 MSTORE DUP1 PUSH1 0xD DUP2 MSTORE PUSH1 0x20 ADD PUSH32 0x656D657267656E637943616C6C00000000000000000000000000000000000000 DUP2 MSTORE POP PUSH2 0xBCC JUMP JUMPDEST ISZERO ISZERO PUSH2 0x842 JUMPI PUSH1 0x0 DUP1 REVERT JUMPDEST DUP2 PUSH20 0xFFFFFFFFFFFFFFFFFFFFFFFFFFFFFFFFFFFFFFFF AND DUP2 PUSH1 0x40 MLOAD DUP1 DUP3 DUP1 MLOAD SWAP1 PUSH1 0x20 ADD SWAP1 DUP1 DUP4 DUP4 PUSH1 0x0 JUMPDEST DUP4 DUP2 LT ISZERO PUSH2 0x888 JUMPI DUP1 DUP3 ADD MLOAD DUP2 DUP5 ADD MSTORE JUMPDEST PUSH1 0x20 DUP2 ADD SWAP1 POP PUSH2 0x86C JUMP JUMPDEST POP POP POP POP SWAP1 POP SWAP1 DUP2 ADD SWAP1 PUSH1 0x1F AND DUP1 ISZERO PUSH2 0x8B5 JUMPI DUP1 DUP3 SUB DUP1 MLOAD PUSH1 0x1 DUP4 PUSH1 0x20 SUB PUSH2 0x100 EXP SUB NOT AND DUP2 MSTORE PUSH1 0x20 ADD SWAP2 POP JUMPDEST POP SWAP2 POP POP PUSH1 0x0 PUSH1 0x40 MLOAD DUP1 DUP4 SUB DUP2 DUP6 PUSH2 0x646E GAS SUB DELEGATECALL SWAP2 POP POP ISZERO ISZERO PUSH2 0x8D7 JUMPI PUSH1 0x0 DUP1 REVERT JUMPDEST JUMPDEST POP POP JUMP JUMPDEST PUSH1 0x1 PUSH1 0x0 SWAP1 SLOAD SWAP1 PUSH2 0x100 EXP SWAP1 DIV PUSH20 0xFFFFFFFFFFFFFFFFFFFFFFFFFFFFFFFFFFFFFFFF AND DUP2 JUMP JUMPDEST PUSH1 0x0 DUP1 SWAP1 SLOAD SWAP1 PUSH2 0x100 EXP SWAP1 DIV PUSH20 0xFFFFFFFFFFFFFFFFFFFFFFFFFFFFFFFFFFFFFFFF AND PUSH20 0xFFFFFFFFFFFFFFFFFFFFFFFFFFFFFFFFFFFFFFFF AND CALLER PUSH20 0xFFFFFFFFFFFFFFFFFFFFFFFFFFFFFFFFFFFFFFFF AND EQ ISZERO ISZERO PUSH2 0x95D JUMPI PUSH1 0x0 DUP1 REVERT JUMPDEST DUP1 PUSH1 0x1 PUSH1 0x0 PUSH2 0x100 EXP DUP2 SLOAD DUP2 PUSH20 0xFFFFFFFFFFFFFFFFFFFFFFFFFFFFFFFFFFFFFFFF MUL NOT AND SWAP1 DUP4 PUSH20 0xFFFFFFFFFFFFFFFFFFFFFFFFFFFFFFFFFFFFFFFF AND MUL OR SWAP1 SSTORE POP JUMPDEST POP JUMP JUMPDEST PUSH2 0x9E0 PUSH1 0x40 DUP1 MLOAD SWAP1 DUP2 ADD PUSH1 0x40 MSTORE DUP1 PUSH1 0x8 DUP2 MSTORE PUSH1 0x20 ADD PUSH32 0x7769746864726177000000000000000000000000000000000000000000000000 DUP2 MSTORE POP PUSH2 0xBCC JUMP JUMPDEST ISZERO ISZERO PUSH2 0x9EB JUMPI PUSH1 0x0 DUP1 REVERT JUMPDEST DUP1 PUSH1 0x4 PUSH1 0x0 CALLER PUSH20 0xFFFFFFFFFFFFFFFFFFFFFFFFFFFFFFFFFFFFFFFF AND PUSH20 0xFFFFFFFFFFFFFFFFFFFFFFFFFFFFFFFFFFFFFFFF AND DUP2 MSTORE PUSH1 0x20 ADD SWAP1 DUP2 MSTORE PUSH1 0x20 ADD PUSH1 0x0 KECCAK256 PUSH1 0x0 DUP5 PUSH20 0xFFFFFFFFFFFFFFFFFFFFFFFFFFFFFFFFFFFFFFFF AND PUSH20 0xFFFFFFFFFFFFFFFFFFFFFFFFFFFFFFFFFFFFFFFF AND DUP2 MSTORE PUSH1 0x20 ADD SWAP1 DUP2 MSTORE PUSH1 0x20 ADD PUSH1 0x0 KECCAK256 SLOAD LT ISZERO ISZERO ISZERO PUSH2 0xA76 JUMPI PUSH1 0x0 DUP1 REVERT JUMPDEST DUP2 PUSH20 0xFFFFFFFFFFFFFFFFFFFFFFFFFFFFFFFFFFFFFFFF AND PUSH4 0xA9059CBB CALLER DUP4 PUSH1 0x0 PUSH1 0x40 MLOAD PUSH1 0x20 ADD MSTORE PUSH1 0x40 MLOAD DUP4 PUSH4 0xFFFFFFFF AND PUSH29 0x100000000000000000000000000000000000000000000000000000000 MUL DUP2 MSTORE PUSH1 0x4 ADD DUP1 DUP4 PUSH20 0xFFFFFFFFFFFFFFFFFFFFFFFFFFFFFFFFFFFFFFFF AND PUSH20 0xFFFFFFFFFFFFFFFFFFFFFFFFFFFFFFFFFFFFFFFF AND DUP2 MSTORE PUSH1 0x20 ADD DUP3 DUP2 MSTORE PUSH1 0x20 ADD SWAP3 POP POP POP PUSH1 0x20 PUSH1 0x40 MLOAD DUP1 DUP4 SUB DUP2 PUSH1 0x0 DUP8 DUP1 EXTCODESIZE ISZERO ISZERO PUSH2 0xB21 JUMPI PUSH1 0x0 DUP1 REVERT JUMPDEST PUSH2 0x2C6 GAS SUB CALL ISZERO ISZERO PUSH2 0xB32 JUMPI PUSH1 0x0 DUP1 REVERT JUMPDEST POP POP POP PUSH1 0x40 MLOAD DUP1 MLOAD SWAP1 POP POP DUP1 PUSH1 0x4 PUSH1 0x0 CALLER PUSH20 0xFFFFFFFFFFFFFFFFFFFFFFFFFFFFFFFFFFFFFFFF AND PUSH20 0xFFFFFFFFFFFFFFFFFFFFFFFFFFFFFFFFFFFFFFFF AND DUP2 MSTORE PUSH1 0x20 ADD SWAP1 DUP2 MSTORE PUSH1 0x20 ADD PUSH1 0x0 KECCAK256 PUSH1 0x0 DUP5 PUSH20 0xFFFFFFFFFFFFFFFFFFFFFFFFFFFFFFFFFFFFFFFF AND PUSH20 0xFFFFFFFFFFFFFFFFFFFFFFFFFFFFFFFFFFFFFFFF AND DUP2 MSTORE PUSH1 0x20 ADD SWAP1 DUP2 MSTORE PUSH1 0x20 ADD PUSH1 0x0 KECCAK256 PUSH1 0x0 DUP3 DUP3 SLOAD SUB SWAP3 POP POP DUP2 SWAP1 SSTORE POP JUMPDEST POP POP JUMP JUMPDEST PUSH1 0x0 DUP1 PUSH1 0x3 PUSH1 0x0 SWAP1 SLOAD SWAP1 PUSH2 0x100 EXP SWAP1 DIV PUSH20 0xFFFFFFFFFFFFFFFFFFFFFFFFFFFFFFFFFFFFFFFF AND PUSH20 0xFFFFFFFFFFFFFFFFFFFFFFFFFFFFFFFFFFFFFFFF AND PUSH4 0xB9460632 CALLER DUP6 PUSH1 0x0 PUSH1 0x40 MLOAD PUSH1 0x40 ADD MSTORE PUSH1 0x40 MLOAD DUP4 PUSH4 0xFFFFFFFF AND PUSH29 0x100000000000000000000000000000000000000000000000000000000 MUL DUP2 MSTORE PUSH1 0x4 ADD DUP1 DUP4 PUSH20 0xFFFFFFFFFFFFFFFFFFFFFFFFFFFFFFFFFFFFFFFF AND PUSH20 0xFFFFFFFFFFFFFFFFFFFFFFFFFFFFFFFFFFFFFFFF AND DUP2 MSTORE PUSH1 0x20 ADD DUP1 PUSH1 0x20 ADD DUP3 DUP2 SUB DUP3 MSTORE DUP4 DUP2 DUP2 MLOAD DUP2 MSTORE PUSH1 0x20 ADD SWAP2 POP DUP1 MLOAD SWAP1 PUSH1 0x20 ADD SWAP1 DUP1 DUP4 DUP4 PUSH1 0x0 JUMPDEST DUP4 DUP2 LT ISZERO PUSH2 0xCB6 JUMPI DUP1 DUP3 ADD MLOAD DUP2 DUP5 ADD MSTORE JUMPDEST PUSH1 0x20 DUP2 ADD SWAP1 POP PUSH2 0xC9A JUMP JUMPDEST POP POP POP POP SWAP1 POP SWAP1 DUP2 ADD SWAP1 PUSH1 0x1F AND DUP1 ISZERO PUSH2 0xCE3 JUMPI DUP1 DUP3 SUB DUP1 MLOAD PUSH1 0x1 DUP4 PUSH1 0x20 SUB PUSH2 0x100 EXP SUB NOT AND DUP2 MSTORE PUSH1 0x20 ADD SWAP2 POP JUMPDEST POP SWAP4 POP POP POP POP PUSH1 0x40 DUP1 MLOAD DUP1 DUP4 SUB DUP2 PUSH1 0x0 DUP8 DUP1 EXTCODESIZE ISZERO ISZERO PUSH2 0xD01 JUMPI PUSH1 0x0 DUP1 REVERT JUMPDEST PUSH2 0x2C6 GAS SUB CALL ISZERO ISZERO PUSH2 0xD12 JUMPI PUSH1 0x0 DUP1 REVERT JUMPDEST POP POP POP PUSH1 0x40 MLOAD DUP1 MLOAD SWAP1 PUSH1 0x20 ADD DUP1 MLOAD SWAP1 POP POP DUP1 SWAP2 POP POP PUSH1 0x0 PUSH1 0xFF AND DUP2 PUSH1 0xFF AND EQ SWAP2 POP JUMPDEST POP SWAP2 SWAP1 POP JUMP JUMPDEST PUSH1 0x0 DUP1 PUSH1 0x2 PUSH1 0x0 SWAP1 SLOAD SWAP1 PUSH2 0x100 EXP SWAP1 DIV PUSH20 0xFFFFFFFFFFFFFFFFFFFFFFFFFFFFFFFFFFFFFFFF AND PUSH20 0xFFFFFFFFFFFFFFFFFFFFFFFFFFFFFFFFFFFFFFFF AND PUSH4 0x2CFEACA DUP5 PUSH1 0x0 PUSH1 0x40 MLOAD PUSH1 0x20 ADD MSTORE PUSH1 0x40 MLOAD DUP3 PUSH4 0xFFFFFFFF AND PUSH29 0x100000000000000000000000000000000000000000000000000000000 MUL DUP2 MSTORE PUSH1 0x4 ADD DUP1 DUP3 PUSH1 0x0 NOT AND PUSH1 0x0 NOT AND DUP2 MSTORE PUSH1 0x20 ADD SWAP2 POP POP PUSH1 0x20 PUSH1 0x40 MLOAD DUP1 DUP4 SUB DUP2 PUSH1 0x0 DUP8 DUP1 EXTCODESIZE ISZERO ISZERO PUSH2 0xDDE JUMPI PUSH1 0x0 DUP1 REVERT JUMPDEST PUSH2 0x2C6 GAS SUB CALL ISZERO ISZERO PUSH2 0xDEF JUMPI PUSH1 0x0 DUP1 REVERT JUMPDEST POP POP POP PUSH1 0x40 MLOAD DUP1 MLOAD SWAP1 POP SWAP1 POP PUSH1 0x0 PUSH20 0xFFFFFFFFFFFFFFFFFFFFFFFFFFFFFFFFFFFFFFFF AND DUP2 PUSH20 0xFFFFFFFFFFFFFFFFFFFFFFFFFFFFFFFFFFFFFFFF AND EQ ISZERO ISZERO ISZERO PUSH2 0xE37 JUMPI PUSH1 0x0 DUP1 REVERT JUMPDEST PUSH1 0x0 PUSH20 0xFFFFFFFFFFFFFFFFFFFFFFFFFFFFFFFFFFFFFFFF AND PUSH1 0x3 PUSH1 0x0 SWAP1 SLOAD SWAP1 PUSH2 0x100 EXP SWAP1 DIV PUSH20 0xFFFFFFFFFFFFFFFFFFFFFFFFFFFFFFFFFFFFFFFF AND PUSH20 0xFFFFFFFFFFFFFFFFFFFFFFFFFFFFFFFFFFFFFFFF AND EQ ISZERO ISZERO PUSH2 0xF29 JUMPI PUSH1 0x3 PUSH1 0x0 SWAP1 SLOAD SWAP1 PUSH2 0x100 EXP SWAP1 DIV PUSH20 0xFFFFFFFFFFFFFFFFFFFFFFFFFFFFFFFFFFFFFFFF AND PUSH20 0xFFFFFFFFFFFFFFFFFFFFFFFFFFFFFFFFFFFFFFFF AND PUSH4 0x3CECD719 PUSH1 0x40 MLOAD DUP2 PUSH4 0xFFFFFFFF AND PUSH29 0x100000000000000000000000000000000000000000000000000000000 MUL DUP2 MSTORE PUSH1 0x4 ADD PUSH1 0x0 PUSH1 0x40 MLOAD DUP1 DUP4 SUB DUP2 PUSH1 0x0 DUP8 DUP1 EXTCODESIZE ISZERO ISZERO PUSH2 0xF14 JUMPI PUSH1 0x0 DUP1 REVERT JUMPDEST PUSH2 0x2C6 GAS SUB CALL ISZERO ISZERO PUSH2 0xF25 JUMPI PUSH1 0x0 DUP1 REVERT JUMPDEST POP POP POP JUMPDEST PUSH2 0xF32 DUP2 PUSH2 0x106E JUMP JUMPDEST PUSH1 0x3 PUSH1 0x0 PUSH2 0x100 EXP DUP2 SLOAD DUP2 PUSH20 0xFFFFFFFFFFFFFFFFFFFFFFFFFFFFFFFFFFFFFFFF MUL NOT AND SWAP1 DUP4 PUSH20 0xFFFFFFFFFFFFFFFFFFFFFFFFFFFFFFFFFFFFFFFF AND MUL OR SWAP1 SSTORE POP PUSH1 0x3 PUSH1 0x0 SWAP1 SLOAD SWAP1 PUSH2 0x100 EXP SWAP1 DIV PUSH20 0xFFFFFFFFFFFFFFFFFFFFFFFFFFFFFFFFFFFFFFFF AND PUSH20 0xFFFFFFFFFFFFFFFFFFFFFFFFFFFFFFFFFFFFFFFF AND PUSH4 0xC4D66DE8 ADDRESS PUSH1 0x40 MLOAD DUP3 PUSH4 0xFFFFFFFF AND PUSH29 0x100000000000000000000000000000000000000000000000000000000 MUL DUP2 MSTORE PUSH1 0x4 ADD DUP1 DUP3 PUSH20 0xFFFFFFFFFFFFFFFFFFFFFFFFFFFFFFFFFFFFFFFF AND PUSH20 0xFFFFFFFFFFFFFFFFFFFFFFFFFFFFFFFFFFFFFFFF AND DUP2 MSTORE PUSH1 0x20 ADD SWAP2 POP POP PUSH1 0x0 PUSH1 0x40 MLOAD DUP1 DUP4 SUB DUP2 PUSH1 0x0 DUP8 DUP1 EXTCODESIZE ISZERO ISZERO PUSH2 0x102E JUMPI PUSH1 0x0 DUP1 REVERT JUMPDEST PUSH2 0x2C6 GAS SUB CALL ISZERO ISZERO PUSH2 0x103F JUMPI PUSH1 0x0 DUP1 REVERT JUMPDEST POP POP POP PUSH1 0x3 PUSH1 0x0 SWAP1 SLOAD SWAP1 PUSH2 0x100 EXP SWAP1 DIV PUSH20 0xFFFFFFFFFFFFFFFFFFFFFFFFFFFFFFFFFFFFFFFF AND SWAP2 POP JUMPDEST POP SWAP2 SWAP1 POP JUMP JUMPDEST PUSH1 0x0 DUP1 DUP3 PUSH13 0x1000000000000000000000000 MUL SWAP1 POP PUSH1 0x40 MLOAD PUSH32 0x3D602D80600A3D3981F3363D3D373D3D3D363D73000000000000000000000000 DUP2 MSTORE DUP2 PUSH1 0x14 DUP3 ADD MSTORE PUSH32 0x5AF43D82803E903D91602B57FD5BF30000000000000000000000000000000000 PUSH1 0x28 DUP3 ADD MSTORE PUSH1 0x37 DUP2 PUSH1 0x0 CREATE SWAP3 POP POP JUMPDEST POP SWAP2 SWAP1 POP JUMP STOP LOG1 PUSH6 0x627A7A723058 KECCAK256 0xac SWAP13 SMOD EXTCODESIZE DELEGATECALL PUSH31 0x4C0830397E47776798F6D3129C2B7ED0EC25B08856F7F03B094E0029A16562 PUSH27 0x7A72305820C7C89F2A340E58A8261ECE001AD974E7CB779F0CC3AE DUP7 0x28 PUSH20 0x67D9D5EF76BC0D00290000000000000000000000 "
        },
        "gasEstimates": {
          "creation": {
            "codeDepositCost": "2224600",
            "executionCost": "2371",
            "totalCost": "2226971"
          },
          "external": {
            "Setup()": "infinite",
            "isSolved()": "infinite",
            "registry()": "457",
            "vault()": "479"
          }
        },
        "methodIdentifiers": {
          "Setup()": "58793050",
          "isSolved()": "64d98f6e",
          "registry()": "7b103999",
          "vault()": "fbfa77cf"
        }
      },
      "userdoc": {
        "methods": {}
      }
    }
  }
}