{
  "_format": "hh-sol-artifact-1",
  "contractName": "GuardRegistry",
  "sourceName": "contracts/vault/GuardRegistry.sol",
  "abi": [
    {
      "constant": true,
      "inputs": [
        {
          "name": "",
          "type": "bytes32"
        }
      ],
      "name": "implementations",
      "outputs": [
        {
          "name": "",
          "type": "address"
        }
      ],
      "payable": false,
      "stateMutability": "view",
      "type": "function"
    },
    {
      "constant": false,
      "inputs": [
        {
          "name": "impl",
          "type": "address"
        },
        {
          "name": "def",
          "type": "bool"
        }
      ],
      "name": "registerGuardImplementation",
      "outputs": [],
      "payable": false,
      "stateMutability": "nonpayable",
      "type": "function"
    },
    {
      "constant": true,
      "inputs": [],
      "name": "owner",
      "outputs": [
        {
          "name": "",
          "type": "address"
        }
      ],
      "payable": false,
      "stateMutability": "view",
      "type": "function"
    },
    {
      "constant": true,
      "inputs": [],
      "name": "defaultImplementation",
      "outputs": [
        {
          "name": "",
          "type": "bytes32"
        }
      ],
      "payable": false,
      "stateMutability": "view",
      "type": "function"
    },
    {
      "constant": false,
      "inputs": [
        {
          "name": "newOwner",
          "type": "address"
        }
      ],
      "name": "transferOwnership",
      "outputs": [],
      "payable": false,
      "stateMutability": "nonpayable",
      "type": "function"
    },
    {
      "inputs": [],
      "payable": false,
      "stateMutability": "nonpayable",
      "type": "constructor"
    }
  ],
  "bytecode": "0x6060604052341561000f57600080fd5b5b33600160006101000a81548173ffffffffffffffffffffffffffffffffffffffff021916908373ffffffffffffffffffffffffffffffffffffffff1602179055505b5b610458806100626000396000f30060606040526000357c0100000000000000000000000000000000000000000000000000000000900463ffffffff16806302cfeaca1461006a5780633eae978a146100d15780638da5cb5b14610115578063b39c45931461016a578063f2fde38b1461019b575b600080fd5b341561007557600080fd5b61008f6004808035600019169060200190919050506101d4565b604051808273ffffffffffffffffffffffffffffffffffffffff1673ffffffffffffffffffffffffffffffffffffffff16815260200191505060405180910390f35b34156100dc57600080fd5b610113600480803573ffffffffffffffffffffffffffffffffffffffff169060200190919080351515906020019091905050610207565b005b341561012057600080fd5b61012861035f565b604051808273ffffffffffffffffffffffffffffffffffffffff1673ffffffffffffffffffffffffffffffffffffffff16815260200191505060405180910390f35b341561017557600080fd5b61017d610385565b60405180826000191660001916815260200191505060405180910390f35b34156101a657600080fd5b6101d2600480803573ffffffffffffffffffffffffffffffffffffffff1690602001909190505061038b565b005b60006020528060005260406000206000915054906101000a900473ffffffffffffffffffffffffffffffffffffffff1681565b6000600160009054906101000a900473ffffffffffffffffffffffffffffffffffffffff1673ffffffffffffffffffffffffffffffffffffffff163373ffffffffffffffffffffffffffffffffffffffff1614151561026557600080fd5b8273ffffffffffffffffffffffffffffffffffffffff1663af640d0f6000604051602001526040518163ffffffff167c0100000000000000000000000000000000000000000000000000000000028152600401602060405180830381600087803b15156102d157600080fd5b6102c65a03f115156102e257600080fd5b50505060405180519050905082600080836000191660001916815260200190815260200160002060006101000a81548173ffffffffffffffffffffffffffffffffffffffff021916908373ffffffffffffffffffffffffffffffffffffffff16021790555081156103595780600281600019169055505b5b505050565b600160009054906101000a900473ffffffffffffffffffffffffffffffffffffffff1681565b60025481565b600160009054906101000a900473ffffffffffffffffffffffffffffffffffffffff1673ffffffffffffffffffffffffffffffffffffffff163373ffffffffffffffffffffffffffffffffffffffff161415156103e757600080fd5b80600160006101000a81548173ffffffffffffffffffffffffffffffffffffffff021916908373ffffffffffffffffffffffffffffffffffffffff1602179055505b505600a165627a7a723058206ddacfe69c40d406ee07e06339cac3405d13beee6def089ff15bfd5ba60c32920029",
  "linkReferences": {},
  "deployedLinkReferences": {}
}