{
  "_format": "hh-sol-artifact-1",
  "contractName": "SetupBabySandbox",
  "sourceName": "contracts/babysandbox/SetupBabySandbox.sol",
  "abi": [
    {
      "inputs": [],
      "stateMutability": "nonpayable",
      "type": "constructor"
    },
    {
      "inputs": [],
      "name": "isSolved",
      "outputs": [
        {
          "internalType": "bool",
          "name": "",
          "type": "bool"
        }
      ],
      "stateMutability": "view",
      "type": "function"
    },
    {
      "inputs": [],
      "name": "sandbox",
      "outputs": [
        {
          "internalType": "contract BabySandbox",
          "name": "",
          "type": "address"
        }
      ],
      "stateMutability": "view",
      "type": "function"
    }
  ],
  "bytecode": "0x608060405234801561001057600080fd5b5060405161001d9061007e565b604051809103906000f080158015610039573d6000803e3d6000fd5b506000806101000a81548173ffffffffffffffffffffffffffffffffffffffff021916908373ffffffffffffffffffffffffffffffffffffffff16021790555061008b565b61014c8061018d83390190565b60f4806100996000396000f3fe6080604052348015600f57600080fd5b506004361060325760003560e01c80631984916f14603757806364d98f6e146069575b600080fd5b603d6087565b604051808273ffffffffffffffffffffffffffffffffffffffff16815260200191505060405180910390f35b606f60ab565b60405180821515815260200191505060405180910390f35b60008054906101000a900473ffffffffffffffffffffffffffffffffffffffff1681565b6000806000543b9050600081149150509056fea26469706673582212206089fa941b8165090ae4df42fc64247d15c79ad8fd4cc6b6c962740f8130b2e564736f6c63430007000033608060405234801561001057600080fd5b5061012c806100206000396000f3fe608060405260043610601c5760003560e01c8063522bb704146021575b600080fd5b606060048036036020811015603557600080fd5b81019080803573ffffffffffffffffffffffffffffffffffffffff1690602001909291905050506062565b005b30331415609a57600080600080845af46000811460845760018114608e576098565b3d6000803e3d6000fd5b3d6000803e3d6000f35b505b61f0005a101560a857600080fd5b366000803760008036600030614000fa60c057600080fd5b6000803660008030614000f16000811460de576001811460e85760f2565b3d6000803e3d6000fd5b3d6000803e3d6000f35b505056fea26469706673582212208fdbfa6bf9f1f15affb8fe6a162950ff955101325b72cf5bdf47ed43fa92eb7464736f6c63430007000033",
  "linkReferences": {},
  "deployedLinkReferences": {}
}