{
  "_format": "hh-sol-artifact-1",
  "contractName": "SetupBroker",
  "sourceName": "contracts/broker/SetupBroker.sol",
  "abi": [
    {
      "inputs": [
        {
          "internalType": "address",
          "name": "_weth",
          "type": "address"
        },
        {
          "internalType": "address",
          "name": "_factory",
          "type": "address"
        }
      ],
      "stateMutability": "payable",
      "type": "constructor"
    },
    {
      "inputs": [],
      "name": "broker",
      "outputs": [
        {
          "internalType": "contract Broker",
          "name": "",
          "type": "address"
        }
      ],
      "stateMutability": "view",
      "type": "function"
    },
    {
      "inputs": [],
      "name": "factory",
      "outputs": [
        {
          "internalType": "contract IUniswapV2Factory",
          "name": "",
          "type": "address"
        }
      ],
      "stateMutability": "view",
      "type": "function"
    },
    {
      "inputs": [],
      "name": "isSolved",
      "outputs": [
        {
          "internalType": "bool",
          "name": "",
          "type": "bool"
        }
      ],
      "stateMutability": "view",
      "type": "function"
    },
    {
      "inputs": [],
      "name": "pair",
      "outputs": [
        {
          "internalType": "contract IUniswapV2Pair",
          "name": "",
          "type": "address"
        }
      ],
      "stateMutability": "view",
      "type": "function"
    },
    {
      "inputs": [],
      "name": "token",
      "outputs": [
        {
          "internalType": "contract Token",
          "name": "",
          "type": "address"
        }
      ],
      "stateMutability": "view",
      "type": "function"
    },
    {
      "inputs": [],
      "name": "totalBefore",
      "outputs": [
        {
          "internalType": "uint256",
          "name": "",
          "type": "uint256"
        }
      ],
      "stateMutability": "view",
      "type": "function"
    },
    {
      "inputs": [],
      "name": "weth",
      "outputs": [
        {
          "internalType": "contract iWETH9",
          "name": "",
          "type": "address"
        }
      ],
      "stateMutability": "view",
      "type": "function"
    }
  ],
  "bytecode": "0x6080604052604051620037ac380380620037ac833981810160405281019062000029919062000ca6565b816000806101000a81548173ffffffffffffffffffffffffffffffffffffffff021916908373ffffffffffffffffffffffffffffffffffffffff16021790555080600160006101000a81548173ffffffffffffffffffffffffffffffffffffffff021916908373ffffffffffffffffffffffffffffffffffffffff1602179055506802b5e3af16b18800003414620000f8576040517f08c379a0000000000000000000000000000000000000000000000000000000008152600401620000ef9062000ee5565b60405180910390fd5b60008054906101000a900473ffffffffffffffffffffffffffffffffffffffff1673ffffffffffffffffffffffffffffffffffffffff1663d0e30db0346040518263ffffffff1660e01b81526004016000604051808303818588803b1580156200016157600080fd5b505af115801562000176573d6000803e3d6000fd5b5050505050604051620001899062000c19565b604051809103906000f080158015620001a6573d6000803e3d6000fd5b50600260006101000a81548173ffffffffffffffffffffffffffffffffffffffff021916908373ffffffffffffffffffffffffffffffffffffffff160217905550600160009054906101000a900473ffffffffffffffffffffffffffffffffffffffff1673ffffffffffffffffffffffffffffffffffffffff1663c9c6539660008054906101000a900473ffffffffffffffffffffffffffffffffffffffff16600260009054906101000a900473ffffffffffffffffffffffffffffffffffffffff166040518363ffffffff1660e01b81526004016200028892919062000e04565b602060405180830381600087803b158015620002a357600080fd5b505af1158015620002b8573d6000803e3d6000fd5b505050506040513d601f19601f82011682018060405250810190620002de919062000c7a565b600360006101000a81548173ffffffffffffffffffffffffffffffffffffffff021916908373ffffffffffffffffffffffffffffffffffffffff160217905550600360009054906101000a900473ffffffffffffffffffffffffffffffffffffffff16600260009054906101000a900473ffffffffffffffffffffffffffffffffffffffff1660008054906101000a900473ffffffffffffffffffffffffffffffffffffffff16604051620003939062000c27565b620003a19392919062000e8b565b604051809103906000f080158015620003be573d6000803e3d6000fd5b50600460006101000a81548173ffffffffffffffffffffffffffffffffffffffff021916908373ffffffffffffffffffffffffffffffffffffffff160217905550600260009054906101000a900473ffffffffffffffffffffffffffffffffffffffff1673ffffffffffffffffffffffffffffffffffffffff1663a9059cbb600460009054906101000a900473ffffffffffffffffffffffffffffffffffffffff16670de0b6b3a76400006207a12062000479919062000fca565b6040518363ffffffff1660e01b81526004016200049892919062000e5e565b602060405180830381600087803b158015620004b357600080fd5b505af1158015620004c8573d6000803e3d6000fd5b505050506040513d601f19601f82011682018060405250810190620004ee919062000ce7565b5060008054906101000a900473ffffffffffffffffffffffffffffffffffffffff1673ffffffffffffffffffffffffffffffffffffffff1663a9059cbb600360009054906101000a900473ffffffffffffffffffffffffffffffffffffffff1668015af1d78b58c400006040518363ffffffff1660e01b81526004016200057792919062000e31565b602060405180830381600087803b1580156200059257600080fd5b505af1158015620005a7573d6000803e3d6000fd5b505050506040513d601f19601f82011682018060405250810190620005cd919062000ce7565b50600260009054906101000a900473ffffffffffffffffffffffffffffffffffffffff1673ffffffffffffffffffffffffffffffffffffffff1663a9059cbb600360009054906101000a900473ffffffffffffffffffffffffffffffffffffffff16670de0b6b3a76400006207a12062000648919062000fca565b6040518363ffffffff1660e01b81526004016200066792919062000e5e565b602060405180830381600087803b1580156200068257600080fd5b505af115801562000697573d6000803e3d6000fd5b505050506040513d601f19601f82011682018060405250810190620006bd919062000ce7565b50600360009054906101000a900473ffffffffffffffffffffffffffffffffffffffff1673ffffffffffffffffffffffffffffffffffffffff16636a627842306040518263ffffffff1660e01b81526004016200071b919062000de7565b602060405180830381600087803b1580156200073657600080fd5b505af11580156200074b573d6000803e3d6000fd5b505050506040513d601f19601f8201168201806040525081019062000771919062000d13565b5060008054906101000a900473ffffffffffffffffffffffffffffffffffffffff1673ffffffffffffffffffffffffffffffffffffffff1663095ea7b3600460009054906101000a900473ffffffffffffffffffffffffffffffffffffffff167fffffffffffffffffffffffffffffffffffffffffffffffffffffffffffffffff6040518363ffffffff1660e01b81526004016200081192919062000e5e565b602060405180830381600087803b1580156200082c57600080fd5b505af115801562000841573d6000803e3d6000fd5b505050506040513d601f19601f8201168201806040525081019062000867919062000ce7565b50600460009054906101000a900473ffffffffffffffffffffffffffffffffffffffff1673ffffffffffffffffffffffffffffffffffffffff1663b6b55f2568015af1d78b58c400006040518263ffffffff1660e01b8152600401620008ce919062000ec8565b600060405180830381600087803b158015620008e957600080fd5b505af1158015620008fe573d6000803e3d6000fd5b50505050600460009054906101000a900473ffffffffffffffffffffffffffffffffffffffff1673ffffffffffffffffffffffffffffffffffffffff1663c5ebeaec670de0b6b3a76400006203d09062000959919062000fca565b6040518263ffffffff1660e01b815260040162000977919062000f07565b600060405180830381600087803b1580156200099257600080fd5b505af1158015620009a7573d6000803e3d6000fd5b50505050600460009054906101000a900473ffffffffffffffffffffffffffffffffffffffff1673ffffffffffffffffffffffffffffffffffffffff16632c4e722e6040518163ffffffff1660e01b815260040160206040518083038186803b15801562000a1457600080fd5b505afa15801562000a29573d6000803e3d6000fd5b505050506040513d601f19601f8201168201806040525081019062000a4f919062000d13565b600260009054906101000a900473ffffffffffffffffffffffffffffffffffffffff1673ffffffffffffffffffffffffffffffffffffffff166370a08231600460009054906101000a900473ffffffffffffffffffffffffffffffffffffffff166040518263ffffffff1660e01b815260040162000ace919062000de7565b60206040518083038186803b15801562000ae757600080fd5b505afa15801562000afc573d6000803e3d6000fd5b505050506040513d601f19601f8201168201806040525081019062000b22919062000d13565b62000b2e919062000f92565b60008054906101000a900473ffffffffffffffffffffffffffffffffffffffff1673ffffffffffffffffffffffffffffffffffffffff166370a08231600460009054906101000a900473ffffffffffffffffffffffffffffffffffffffff166040518263ffffffff1660e01b815260040162000bab919062000de7565b60206040518083038186803b15801562000bc457600080fd5b505afa15801562000bd9573d6000803e3d6000fd5b505050506040513d601f19601f8201168201806040525081019062000bff919062000d13565b62000c0b919062000f35565b6005819055505050620011ad565b610a19806200178683390190565b61160d806200219f83390190565b60008151905062000c46816200115f565b92915050565b60008151905062000c5d8162001179565b92915050565b60008151905062000c748162001193565b92915050565b60006020828403121562000c8d57600080fd5b600062000c9d8482850162000c35565b91505092915050565b6000806040838503121562000cba57600080fd5b600062000cca8582860162000c35565b925050602062000cdd8582860162000c35565b9150509250929050565b60006020828403121562000cfa57600080fd5b600062000d0a8482850162000c4c565b91505092915050565b60006020828403121562000d2657600080fd5b600062000d368482850162000c63565b91505092915050565b62000d4a816200102b565b82525050565b62000d5b8162001075565b82525050565b62000d6c816200109d565b82525050565b62000d7d81620010c5565b82525050565b62000d8e81620010ed565b82525050565b600062000da360198362000f24565b91507f4e4f5420454e4f5547485420494e495449414c204d4f4e4559000000000000006000830152602082019050919050565b62000de1816200106b565b82525050565b600060208201905062000dfe600083018462000d3f565b92915050565b600060408201905062000e1b600083018562000d3f565b62000e2a602083018462000d3f565b9392505050565b600060408201905062000e48600083018562000d3f565b62000e57602083018462000d83565b9392505050565b600060408201905062000e75600083018562000d3f565b62000e84602083018462000dd6565b9392505050565b600060608201905062000ea2600083018662000d61565b62000eb1602083018562000d50565b62000ec0604083018462000d72565b949350505050565b600060208201905062000edf600083018462000d83565b92915050565b6000602082019050818103600083015262000f008162000d94565b9050919050565b600060208201905062000f1e600083018462000dd6565b92915050565b600082825260208201905092915050565b600062000f42826200106b565b915062000f4f836200106b565b9250827fffffffffffffffffffffffffffffffffffffffffffffffffffffffffffffffff0382111562000f875762000f8662001101565b5b828201905092915050565b600062000f9f826200106b565b915062000fac836200106b565b92508262000fbf5762000fbe62001130565b5b828204905092915050565b600062000fd7826200106b565b915062000fe4836200106b565b9250817fffffffffffffffffffffffffffffffffffffffffffffffffffffffffffffffff048311821515161562001020576200101f62001101565b5b828202905092915050565b600062001038826200104b565b9050919050565b60008115159050919050565b600073ffffffffffffffffffffffffffffffffffffffff82169050919050565b6000819050919050565b6000620010828262001089565b9050919050565b600062001096826200104b565b9050919050565b6000620010aa82620010b1565b9050919050565b6000620010be826200104b565b9050919050565b6000620010d282620010d9565b9050919050565b6000620010e6826200104b565b9050919050565b6000620010fa826200106b565b9050919050565b7f4e487b7100000000000000000000000000000000000000000000000000000000600052601160045260246000fd5b7f4e487b7100000000000000000000000000000000000000000000000000000000600052601260045260246000fd5b6200116a816200102b565b81146200117657600080fd5b50565b62001184816200103f565b81146200119057600080fd5b50565b6200119e816200106b565b8114620011aa57600080fd5b50565b6105c980620011bd6000396000f3fe608060405234801561001057600080fd5b506004361061007d5760003560e01c8063abff01101161005b578063abff0110146100dc578063b49eac65146100fa578063c45a015514610118578063fc0c546a146101365761007d565b80633fc8cef31461008257806364d98f6e146100a0578063a8aa1b31146100be575b600080fd5b61008a610154565b604051610097919061044a565b60405180910390f35b6100a8610178565b6040516100b591906103c3565b60405180910390f35b6100c6610254565b6040516100d39190610414565b60405180910390f35b6100e461027a565b6040516100f191906103de565b60405180910390f35b6101026102a0565b60405161010f9190610465565b60405180910390f35b6101206102a6565b60405161012d91906103f9565b60405180910390f35b61013e6102cc565b60405161014b919061042f565b60405180910390f35b60008054906101000a900473ffffffffffffffffffffffffffffffffffffffff1681565b6000674563918244f4000060008054906101000a900473ffffffffffffffffffffffffffffffffffffffff1673ffffffffffffffffffffffffffffffffffffffff166370a08231600460009054906101000a900473ffffffffffffffffffffffffffffffffffffffff166040518263ffffffff1660e01b81526004016101fe91906103a8565b60206040518083038186803b15801561021657600080fd5b505afa15801561022a573d6000803e3d6000fd5b505050506040513d601f19601f8201168201806040525081019061024e9190610307565b10905090565b600360009054906101000a900473ffffffffffffffffffffffffffffffffffffffff1681565b600460009054906101000a900473ffffffffffffffffffffffffffffffffffffffff1681565b60055481565b600160009054906101000a900473ffffffffffffffffffffffffffffffffffffffff1681565b600260009054906101000a900473ffffffffffffffffffffffffffffffffffffffff1681565b6000815190506103018161057c565b92915050565b60006020828403121561031957600080fd5b6000610327848285016102f2565b91505092915050565b61033981610480565b82525050565b61034881610492565b82525050565b610357816104c8565b82525050565b610366816104ec565b82525050565b61037581610510565b82525050565b61038481610534565b82525050565b61039381610558565b82525050565b6103a2816104be565b82525050565b60006020820190506103bd6000830184610330565b92915050565b60006020820190506103d8600083018461033f565b92915050565b60006020820190506103f3600083018461034e565b92915050565b600060208201905061040e600083018461035d565b92915050565b6000602082019050610429600083018461036c565b92915050565b6000602082019050610444600083018461037b565b92915050565b600060208201905061045f600083018461038a565b92915050565b600060208201905061047a6000830184610399565b92915050565b600061048b8261049e565b9050919050565b60008115159050919050565b600073ffffffffffffffffffffffffffffffffffffffff82169050919050565b6000819050919050565b60006104d3826104da565b9050919050565b60006104e58261049e565b9050919050565b60006104f7826104fe565b9050919050565b60006105098261049e565b9050919050565b600061051b82610522565b9050919050565b600061052d8261049e565b9050919050565b600061053f82610546565b9050919050565b60006105518261049e565b9050919050565b60006105638261056a565b9050919050565b60006105758261049e565b9050919050565b610585816104be565b811461059057600080fd5b5056fea26469706673582212207abf5503bbeb18a5e73255a0c1f48d7023f2c7056c77f87394ecfce23c04fcba64736f6c63430008000033608060405269d3c21bcecceda1000000600355620186a0600354610023919061007d565b60045534801561003257600080fd5b506003546000803373ffffffffffffffffffffffffffffffffffffffff1673ffffffffffffffffffffffffffffffffffffffff168152602001908152602001600020819055506100e7565b6000610088826100ae565b9150610093836100ae565b9250826100a3576100a26100b8565b5b828204905092915050565b6000819050919050565b7f4e487b7100000000000000000000000000000000000000000000000000000000600052601260045260246000fd5b610923806100f66000396000f3fe608060405234801561001057600080fd5b50600436106100935760003560e01c806370a082311161006657806370a08231146101205780638837c796146101505780639e39448714610180578063a9059cbb1461019e578063dd62ed3e146101ce57610093565b8063095ea7b31461009857806318160ddd146100c857806323b872dd146100e65780633884d63514610116575b600080fd5b6100b260048036038101906100ad91906106bd565b6101fe565b6040516100bf9190610757565b60405180910390f35b6100d061028b565b6040516100dd9190610792565b60405180910390f35b61010060048036038101906100fb919061066e565b610291565b60405161010d9190610757565b60405180910390f35b61011e61040f565b005b61013a60048036038101906101359190610609565b610567565b6040516101479190610792565b60405180910390f35b61016a60048036038101906101659190610609565b61057f565b6040516101779190610757565b60405180910390f35b61018861059f565b6040516101959190610792565b60405180910390f35b6101b860048036038101906101b391906106bd565b6105a5565b6040516101c59190610757565b60405180910390f35b6101e860048036038101906101e39190610632565b6105ba565b6040516101f59190610792565b60405180910390f35b600081600260003373ffffffffffffffffffffffffffffffffffffffff1673ffffffffffffffffffffffffffffffffffffffff16815260200190815260200160002060008573ffffffffffffffffffffffffffffffffffffffff1673ffffffffffffffffffffffffffffffffffffffff168152602001908152602001600020819055506001905092915050565b60035481565b60003373ffffffffffffffffffffffffffffffffffffffff168473ffffffffffffffffffffffffffffffffffffffff161461035a5781600260008673ffffffffffffffffffffffffffffffffffffffff1673ffffffffffffffffffffffffffffffffffffffff16815260200190815260200160002060008573ffffffffffffffffffffffffffffffffffffffff1673ffffffffffffffffffffffffffffffffffffffff16815260200190815260200160002060008282546103529190610814565b925050819055505b816000808673ffffffffffffffffffffffffffffffffffffffff1673ffffffffffffffffffffffffffffffffffffffff16815260200190815260200160002060008282546103a89190610814565b92505081905550816000808573ffffffffffffffffffffffffffffffffffffffff1673ffffffffffffffffffffffffffffffffffffffff16815260200190815260200160002060008282546103fd91906107be565b92505081905550600190509392505050565b600160003373ffffffffffffffffffffffffffffffffffffffff1673ffffffffffffffffffffffffffffffffffffffff16815260200190815260200160002060009054906101000a900460ff161561049c576040517f08c379a000000000000000000000000000000000000000000000000000000000815260040161049390610772565b60405180910390fd5b60018060003373ffffffffffffffffffffffffffffffffffffffff1673ffffffffffffffffffffffffffffffffffffffff16815260200190815260200160002060006101000a81548160ff0219169083151502179055506004546000803373ffffffffffffffffffffffffffffffffffffffff1673ffffffffffffffffffffffffffffffffffffffff168152602001908152602001600020600082825461054391906107be565b925050819055506004546003600082825461055e91906107be565b92505081905550565b60006020528060005260406000206000915090505481565b60016020528060005260406000206000915054906101000a900460ff1681565b60045481565b60006105b2338484610291565b905092915050565b6002602052816000526040600020602052806000526040600020600091509150505481565b6000813590506105ee816108bf565b92915050565b600081359050610603816108d6565b92915050565b60006020828403121561061b57600080fd5b6000610629848285016105df565b91505092915050565b6000806040838503121561064557600080fd5b6000610653858286016105df565b9250506020610664858286016105df565b9150509250929050565b60008060006060848603121561068357600080fd5b6000610691868287016105df565b93505060206106a2868287016105df565b92505060406106b3868287016105f4565b9150509250925092565b600080604083850312156106d057600080fd5b60006106de858286016105df565b92505060206106ef858286016105f4565b9150509250929050565b6107028161085a565b82525050565b6000610715600e836107ad565b91507f6572723a206f6e6c79206f6e63650000000000000000000000000000000000006000830152602082019050919050565b61075181610886565b82525050565b600060208201905061076c60008301846106f9565b92915050565b6000602082019050818103600083015261078b81610708565b9050919050565b60006020820190506107a76000830184610748565b92915050565b600082825260208201905092915050565b60006107c982610886565b91506107d483610886565b9250827fffffffffffffffffffffffffffffffffffffffffffffffffffffffffffffffff0382111561080957610808610890565b5b828201905092915050565b600061081f82610886565b915061082a83610886565b92508282101561083d5761083c610890565b5b828203905092915050565b600061085382610866565b9050919050565b60008115159050919050565b600073ffffffffffffffffffffffffffffffffffffffff82169050919050565b6000819050919050565b7f4e487b7100000000000000000000000000000000000000000000000000000000600052601160045260246000fd5b6108c881610848565b81146108d357600080fd5b50565b6108df81610886565b81146108ea57600080fd5b5056fea2646970667358221220aaa60d4408e39f2fd5860aa4998f493aca7bd7b19659a975a4186b9b8766ab1a64736f6c6343000800003360a06040523480156200001157600080fd5b506040516200160d3803806200160d83398181016040528101906200003791906200013d565b826000806101000a81548173ffffffffffffffffffffffffffffffffffffffff021916908373ffffffffffffffffffffffffffffffffffffffff16021790555081600160006101000a81548173ffffffffffffffffffffffffffffffffffffffff021916908373ffffffffffffffffffffffffffffffffffffffff1602179055508073ffffffffffffffffffffffffffffffffffffffff1660808173ffffffffffffffffffffffffffffffffffffffff1660601b8152505050505062000251565b600081519050620001098162000203565b92915050565b60008151905062000120816200021d565b92915050565b600081519050620001378162000237565b92915050565b6000806000606084860312156200015357600080fd5b600062000163868287016200010f565b93505060206200017686828701620000f8565b9250506040620001898682870162000126565b9150509250925092565b6000620001a082620001e3565b9050919050565b6000620001b48262000193565b9050919050565b6000620001c88262000193565b9050919050565b6000620001dc8262000193565b9050919050565b600073ffffffffffffffffffffffffffffffffffffffff82169050919050565b6200020e81620001a7565b81146200021a57600080fd5b50565b6200022881620001bb565b81146200023457600080fd5b50565b6200024281620001cf565b81146200024e57600080fd5b50565b60805160601c611388620002856000396000818161050401528181610733015281816107e90152610a4701526113886000f3fe608060405234801561001057600080fd5b50600436106100cf5760003560e01c80639b6c56ec1161008c578063bcbaf48711610066578063bcbaf48714610201578063c5ebeaec14610231578063cb13cddb1461024d578063fc0c546a1461027d576100cf565b80639b6c56ec14610197578063a8aa1b31146101c7578063b6b55f25146101e5576100cf565b80630902f1ac146100d45780632c4e722e146100f35780632e1a7d4d146101115780632e4651651461012d578063371fd8e61461015d5780633fc8cef314610179575b600080fd5b6100dc61029b565b6040516100ea929190611008565b60405180910390f35b6100fb610350565b6040516101089190611031565b60405180910390f35b61012b60048036038101906101269190610e14565b610422565b005b61014760048036038101906101429190610d37565b6105b3565b6040516101549190611031565b60405180910390f35b61017760048036038101906101729190610e14565b610626565b005b610181610731565b60405161018e9190610fad565b60405180910390f35b6101b160048036038101906101ac9190610d37565b610755565b6040516101be9190611031565b60405180910390f35b6101cf61076d565b6040516101dc9190610f92565b60405180910390f35b6101ff60048036038101906101fa9190610e14565b610791565b005b61021b60048036038101906102169190610d60565b61089a565b6040516102289190611031565b60405180910390f35b61024b60048036038101906102469190610e14565b610afd565b005b61026760048036038101906102629190610d37565b610c90565b6040516102749190611031565b60405180910390f35b610285610ca8565b6040516102929190610f77565b60405180910390f35b60008060008060008054906101000a900473ffffffffffffffffffffffffffffffffffffffff1673ffffffffffffffffffffffffffffffffffffffff16630902f1ac6040518163ffffffff1660e01b815260040160606040518083038186803b15801561030757600080fd5b505afa15801561031b573d6000803e3d6000fd5b505050506040513d601f19601f8201168201806040525081019061033f9190610dc5565b509150915081819350935050509091565b60008060008060009054906101000a900473ffffffffffffffffffffffffffffffffffffffff1673ffffffffffffffffffffffffffffffffffffffff16630902f1ac6040518163ffffffff1660e01b815260040160606040518083038186803b1580156103bc57600080fd5b505afa1580156103d0573d6000803e3d6000fd5b505050506040513d601f19601f820116820180604052508101906103f49190610dc5565b50915091506000828261040791906110b3565b6dffffffffffffffffffffffffffff16905080935050505090565b80600260003373ffffffffffffffffffffffffffffffffffffffff1673ffffffffffffffffffffffffffffffffffffffff1681526020019081526020016000206000828254610471919061116f565b92505081905550600360003373ffffffffffffffffffffffffffffffffffffffff1673ffffffffffffffffffffffffffffffffffffffff168152602001908152602001600020546104c1336105b3565b1015610502576040517f08c379a00000000000000000000000000000000000000000000000000000000081526004016104f990610fe8565b60405180910390fd5b7f000000000000000000000000000000000000000000000000000000000000000073ffffffffffffffffffffffffffffffffffffffff1663a9059cbb33836040518363ffffffff1660e01b815260040161055d929190610f4e565b602060405180830381600087803b15801561057757600080fd5b505af115801561058b573d6000803e3d6000fd5b505050506040513d601f19601f820116820180604052508101906105af9190610d9c565b5050565b6000600360026105c1610350565b600260008673ffffffffffffffffffffffffffffffffffffffff1673ffffffffffffffffffffffffffffffffffffffff1681526020019081526020016000205461060b9190611115565b6106159190611115565b61061f91906110e4565b9050919050565b80600360003373ffffffffffffffffffffffffffffffffffffffff1673ffffffffffffffffffffffffffffffffffffffff1681526020019081526020016000206000828254610675919061116f565b92505081905550600160009054906101000a900473ffffffffffffffffffffffffffffffffffffffff1673ffffffffffffffffffffffffffffffffffffffff166323b872dd3330846040518463ffffffff1660e01b81526004016106db93929190610f17565b602060405180830381600087803b1580156106f557600080fd5b505af1158015610709573d6000803e3d6000fd5b505050506040513d601f19601f8201168201806040525081019061072d9190610d9c565b5050565b7f000000000000000000000000000000000000000000000000000000000000000081565b60036020528060005260406000206000915090505481565b60008054906101000a900473ffffffffffffffffffffffffffffffffffffffff1681565b80600260003373ffffffffffffffffffffffffffffffffffffffff1673ffffffffffffffffffffffffffffffffffffffff16815260200190815260200160002060008282546107e0919061105d565b925050819055507f000000000000000000000000000000000000000000000000000000000000000073ffffffffffffffffffffffffffffffffffffffff166323b872dd3330846040518463ffffffff1660e01b815260040161084493929190610f17565b602060405180830381600087803b15801561085e57600080fd5b505af1158015610872573d6000803e3d6000fd5b505050506040513d601f19601f820116820180604052508101906108969190610d9c565b5050565b6000600360008473ffffffffffffffffffffffffffffffffffffffff1673ffffffffffffffffffffffffffffffffffffffff168152602001908152602001600020546108e5846105b3565b1115610926576040517f08c379a000000000000000000000000000000000000000000000000000000000815260040161091d90610fc8565b60405180910390fd5b81600360008573ffffffffffffffffffffffffffffffffffffffff1673ffffffffffffffffffffffffffffffffffffffff1681526020019081526020016000206000828254610975919061116f565b92505081905550600160009054906101000a900473ffffffffffffffffffffffffffffffffffffffff1673ffffffffffffffffffffffffffffffffffffffff166323b872dd3330856040518463ffffffff1660e01b81526004016109db93929190610f17565b602060405180830381600087803b1580156109f557600080fd5b505af1158015610a09573d6000803e3d6000fd5b505050506040513d601f19601f82011682018060405250810190610a2d9190610d9c565b506000610a38610350565b83610a4391906110e4565b90507f000000000000000000000000000000000000000000000000000000000000000073ffffffffffffffffffffffffffffffffffffffff1663a9059cbb33836040518363ffffffff1660e01b8152600401610aa0929190610f4e565b602060405180830381600087803b158015610aba57600080fd5b505af1158015610ace573d6000803e3d6000fd5b505050506040513d601f19601f82011682018060405250810190610af29190610d9c565b508091505092915050565b80600360003373ffffffffffffffffffffffffffffffffffffffff1673ffffffffffffffffffffffffffffffffffffffff1681526020019081526020016000206000828254610b4c919061105d565b92505081905550600360003373ffffffffffffffffffffffffffffffffffffffff1673ffffffffffffffffffffffffffffffffffffffff16815260200190815260200160002054610b9c336105b3565b1015610bdd576040517f08c379a0000000000000000000000000000000000000000000000000000000008152600401610bd490610fe8565b60405180910390fd5b600160009054906101000a900473ffffffffffffffffffffffffffffffffffffffff1673ffffffffffffffffffffffffffffffffffffffff1663a9059cbb33836040518363ffffffff1660e01b8152600401610c3a929190610f4e565b602060405180830381600087803b158015610c5457600080fd5b505af1158015610c68573d6000803e3d6000fd5b505050506040513d601f19601f82011682018060405250810190610c8c9190610d9c565b5050565b60026020528060005260406000206000915090505481565b600160009054906101000a900473ffffffffffffffffffffffffffffffffffffffff1681565b600081359050610cdd816112df565b92915050565b600081519050610cf2816112f6565b92915050565b600081519050610d078161130d565b92915050565b600081359050610d1c81611324565b92915050565b600081519050610d318161133b565b92915050565b600060208284031215610d4957600080fd5b6000610d5784828501610cce565b91505092915050565b60008060408385031215610d7357600080fd5b6000610d8185828601610cce565b9250506020610d9285828601610d0d565b9150509250929050565b600060208284031215610dae57600080fd5b6000610dbc84828501610ce3565b91505092915050565b600080600060608486031215610dda57600080fd5b6000610de886828701610cf8565b9350506020610df986828701610cf8565b9250506040610e0a86828701610d22565b9150509250925092565b600060208284031215610e2657600080fd5b6000610e3484828501610d0d565b91505092915050565b610e46816111a3565b82525050565b610e5581611215565b82525050565b610e6481611239565b82525050565b610e738161125d565b82525050565b6000610e8660178361104c565b91507f6572723a206f766572636f6c6c61746572616c697a65640000000000000000006000830152602082019050919050565b6000610ec660188361104c565b91507f6572723a20756e646572636f6c6c61746572616c697a656400000000000000006000830152602082019050919050565b610f02816111c1565b82525050565b610f11816111fb565b82525050565b6000606082019050610f2c6000830186610e3d565b610f396020830185610e3d565b610f466040830184610f08565b949350505050565b6000604082019050610f636000830185610e3d565b610f706020830184610f08565b9392505050565b6000602082019050610f8c6000830184610e4c565b92915050565b6000602082019050610fa76000830184610e5b565b92915050565b6000602082019050610fc26000830184610e6a565b92915050565b60006020820190508181036000830152610fe181610e79565b9050919050565b6000602082019050818103600083015261100181610eb9565b9050919050565b600060408201905061101d6000830185610ef9565b61102a6020830184610ef9565b9392505050565b60006020820190506110466000830184610f08565b92915050565b600082825260208201905092915050565b6000611068826111fb565b9150611073836111fb565b9250827fffffffffffffffffffffffffffffffffffffffffffffffffffffffffffffffff038211156110a8576110a7611281565b5b828201905092915050565b60006110be826111c1565b91506110c9836111c1565b9250826110d9576110d86112b0565b5b828204905092915050565b60006110ef826111fb565b91506110fa836111fb565b92508261110a576111096112b0565b5b828204905092915050565b6000611120826111fb565b915061112b836111fb565b9250817fffffffffffffffffffffffffffffffffffffffffffffffffffffffffffffffff048311821515161561116457611163611281565b5b828202905092915050565b600061117a826111fb565b9150611185836111fb565b92508282101561119857611197611281565b5b828203905092915050565b60006111ae826111db565b9050919050565b60008115159050919050565b60006dffffffffffffffffffffffffffff82169050919050565b600073ffffffffffffffffffffffffffffffffffffffff82169050919050565b6000819050919050565b600063ffffffff82169050919050565b600061122082611227565b9050919050565b6000611232826111db565b9050919050565b60006112448261124b565b9050919050565b6000611256826111db565b9050919050565b60006112688261126f565b9050919050565b600061127a826111db565b9050919050565b7f4e487b7100000000000000000000000000000000000000000000000000000000600052601160045260246000fd5b7f4e487b7100000000000000000000000000000000000000000000000000000000600052601260045260246000fd5b6112e8816111a3565b81146112f357600080fd5b50565b6112ff816111b5565b811461130a57600080fd5b50565b611316816111c1565b811461132157600080fd5b50565b61132d816111fb565b811461133857600080fd5b50565b61134481611205565b811461134f57600080fd5b5056fea26469706673582212204840a1e3936073f6d138d902344c9f7b591560de52a27c6f1f7244148964a62c64736f6c63430008000033",
  "linkReferences": {},
  "deployedLinkReferences": {}
}