{
  "_format": "hh-sol-artifact-1",
  "contractName": "Token",
  "sourceName": "contracts/broker/SetupBroker.sol",
  "abi": [
    {
      "inputs": [],
      "stateMutability": "nonpayable",
      "type": "constructor"
    },
    {
      "inputs": [],
      "name": "AMT",
      "outputs": [
        {
          "internalType": "uint256",
          "name": "",
          "type": "uint256"
        }
      ],
      "stateMutability": "view",
      "type": "function"
    },
    {
      "inputs": [],
      "name": "airdrop",
      "outputs": [],
      "stateMutability": "nonpayable",
      "type": "function"
    },
    {
      "inputs": [
        {
          "internalType": "address",
          "name": "",
          "type": "address"
        },
        {
          "internalType": "address",
          "name": "",
          "type": "address"
        }
      ],
      "name": "allowance",
      "outputs": [
        {
          "internalType": "uint256",
          "name": "",
          "type": "uint256"
        }
      ],
      "stateMutability": "view",
      "type": "function"
    },
    {
      "inputs": [
        {
          "internalType": "address",
          "name": "to",
          "type": "address"
        },
        {
          "internalType": "uint256",
          "name": "amount",
          "type": "uint256"
        }
      ],
      "name": "approve",
      "outputs": [
        {
          "internalType": "bool",
          "name": "",
          "type": "bool"
        }
      ],
      "stateMutability": "nonpayable",
      "type": "function"
    },
    {
      "inputs": [
        {
          "internalType": "address",
          "name": "",
          "type": "address"
        }
      ],
      "name": "balanceOf",
      "outputs": [
        {
          "internalType": "uint256",
          "name": "",
          "type": "uint256"
        }
      ],
      "stateMutability": "view",
      "type": "function"
    },
    {
      "inputs": [
        {
          "internalType": "address",
          "name": "",
          "type": "address"
        }
      ],
      "name": "dropped",
      "outputs": [
        {
          "internalType": "bool",
          "name": "",
          "type": "bool"
        }
      ],
      "stateMutability": "view",
      "type": "function"
    },
    {
      "inputs": [],
      "name": "totalSupply",
      "outputs": [
        {
          "internalType": "uint256",
          "name": "",
          "type": "uint256"
        }
      ],
      "stateMutability": "view",
      "type": "function"
    },
    {
      "inputs": [
        {
          "internalType": "address",
          "name": "to",
          "type": "address"
        },
        {
          "internalType": "uint256",
          "name": "amount",
          "type": "uint256"
        }
      ],
      "name": "transfer",
      "outputs": [
        {
          "internalType": "bool",
          "name": "",
          "type": "bool"
        }
      ],
      "stateMutability": "nonpayable",
      "type": "function"
    },
    {
      "inputs": [
        {
          "internalType": "address",
          "name": "from",
          "type": "address"
        },
        {
          "internalType": "address",
          "name": "to",
          "type": "address"
        },
        {
          "internalType": "uint256",
          "name": "amount",
          "type": "uint256"
        }
      ],
      "name": "transferFrom",
      "outputs": [
        {
          "internalType": "bool",
          "name": "",
          "type": "bool"
        }
      ],
      "stateMutability": "nonpayable",
      "type": "function"
    }
  ],
  "bytecode": "0x608060405269d3c21bcecceda1000000600355620186a0600354610023919061007d565b60045534801561003257600080fd5b506003546000803373ffffffffffffffffffffffffffffffffffffffff1673ffffffffffffffffffffffffffffffffffffffff168152602001908152602001600020819055506100e7565b6000610088826100ae565b9150610093836100ae565b9250826100a3576100a26100b8565b5b828204905092915050565b6000819050919050565b7f4e487b7100000000000000000000000000000000000000000000000000000000600052601260045260246000fd5b610923806100f66000396000f3fe608060405234801561001057600080fd5b50600436106100935760003560e01c806370a082311161006657806370a08231146101205780638837c796146101505780639e39448714610180578063a9059cbb1461019e578063dd62ed3e146101ce57610093565b8063095ea7b31461009857806318160ddd146100c857806323b872dd146100e65780633884d63514610116575b600080fd5b6100b260048036038101906100ad91906106bd565b6101fe565b6040516100bf9190610757565b60405180910390f35b6100d061028b565b6040516100dd9190610792565b60405180910390f35b61010060048036038101906100fb919061066e565b610291565b60405161010d9190610757565b60405180910390f35b61011e61040f565b005b61013a60048036038101906101359190610609565b610567565b6040516101479190610792565b60405180910390f35b61016a60048036038101906101659190610609565b61057f565b6040516101779190610757565b60405180910390f35b61018861059f565b6040516101959190610792565b60405180910390f35b6101b860048036038101906101b391906106bd565b6105a5565b6040516101c59190610757565b60405180910390f35b6101e860048036038101906101e39190610632565b6105ba565b6040516101f59190610792565b60405180910390f35b600081600260003373ffffffffffffffffffffffffffffffffffffffff1673ffffffffffffffffffffffffffffffffffffffff16815260200190815260200160002060008573ffffffffffffffffffffffffffffffffffffffff1673ffffffffffffffffffffffffffffffffffffffff168152602001908152602001600020819055506001905092915050565b60035481565b60003373ffffffffffffffffffffffffffffffffffffffff168473ffffffffffffffffffffffffffffffffffffffff161461035a5781600260008673ffffffffffffffffffffffffffffffffffffffff1673ffffffffffffffffffffffffffffffffffffffff16815260200190815260200160002060008573ffffffffffffffffffffffffffffffffffffffff1673ffffffffffffffffffffffffffffffffffffffff16815260200190815260200160002060008282546103529190610814565b925050819055505b816000808673ffffffffffffffffffffffffffffffffffffffff1673ffffffffffffffffffffffffffffffffffffffff16815260200190815260200160002060008282546103a89190610814565b92505081905550816000808573ffffffffffffffffffffffffffffffffffffffff1673ffffffffffffffffffffffffffffffffffffffff16815260200190815260200160002060008282546103fd91906107be565b92505081905550600190509392505050565b600160003373ffffffffffffffffffffffffffffffffffffffff1673ffffffffffffffffffffffffffffffffffffffff16815260200190815260200160002060009054906101000a900460ff161561049c576040517f08c379a000000000000000000000000000000000000000000000000000000000815260040161049390610772565b60405180910390fd5b60018060003373ffffffffffffffffffffffffffffffffffffffff1673ffffffffffffffffffffffffffffffffffffffff16815260200190815260200160002060006101000a81548160ff0219169083151502179055506004546000803373ffffffffffffffffffffffffffffffffffffffff1673ffffffffffffffffffffffffffffffffffffffff168152602001908152602001600020600082825461054391906107be565b925050819055506004546003600082825461055e91906107be565b92505081905550565b60006020528060005260406000206000915090505481565b60016020528060005260406000206000915054906101000a900460ff1681565b60045481565b60006105b2338484610291565b905092915050565b6002602052816000526040600020602052806000526040600020600091509150505481565b6000813590506105ee816108bf565b92915050565b600081359050610603816108d6565b92915050565b60006020828403121561061b57600080fd5b6000610629848285016105df565b91505092915050565b6000806040838503121561064557600080fd5b6000610653858286016105df565b9250506020610664858286016105df565b9150509250929050565b60008060006060848603121561068357600080fd5b6000610691868287016105df565b93505060206106a2868287016105df565b92505060406106b3868287016105f4565b9150509250925092565b600080604083850312156106d057600080fd5b60006106de858286016105df565b92505060206106ef858286016105f4565b9150509250929050565b6107028161085a565b82525050565b6000610715600e836107ad565b91507f6572723a206f6e6c79206f6e63650000000000000000000000000000000000006000830152602082019050919050565b61075181610886565b82525050565b600060208201905061076c60008301846106f9565b92915050565b6000602082019050818103600083015261078b81610708565b9050919050565b60006020820190506107a76000830184610748565b92915050565b600082825260208201905092915050565b60006107c982610886565b91506107d483610886565b9250827fffffffffffffffffffffffffffffffffffffffffffffffffffffffffffffffff0382111561080957610808610890565b5b828201905092915050565b600061081f82610886565b915061082a83610886565b92508282101561083d5761083c610890565b5b828203905092915050565b600061085382610866565b9050919050565b60008115159050919050565b600073ffffffffffffffffffffffffffffffffffffffff82169050919050565b6000819050919050565b7f4e487b7100000000000000000000000000000000000000000000000000000000600052601160045260246000fd5b6108c881610848565b81146108d357600080fd5b50565b6108df81610886565b81146108ea57600080fd5b5056fea2646970667358221220aaa60d4408e39f2fd5860aa4998f493aca7bd7b19659a975a4186b9b8766ab1a64736f6c63430008000033",
  "linkReferences": {},
  "deployedLinkReferences": {}
}