{
  "_format": "hh-sol-artifact-1",
  "contractName": "Party",
  "sourceName": "contracts/bouncer/Bouncer.sol",
  "abi": [
    {
      "inputs": [
        {
          "internalType": "contract Bouncer",
          "name": "_bouncer",
          "type": "address"
        }
      ],
      "stateMutability": "nonpayable",
      "type": "constructor"
    },
    {
      "inputs": [
        {
          "internalType": "address",
          "name": "who",
          "type": "address"
        }
      ],
      "name": "isAllowed",
      "outputs": [
        {
          "internalType": "bool",
          "name": "",
          "type": "bool"
        }
      ],
      "stateMutability": "view",
      "type": "function"
    }
  ],
  "bytecode": "0x608060405234801561001057600080fd5b5060405161089c38038061089c8339818101604052810190610032919061008d565b806000806101000a81548173ffffffffffffffffffffffffffffffffffffffff021916908373ffffffffffffffffffffffffffffffffffffffff16021790555050610111565b600081519050610087816100fa565b92915050565b60006020828403121561009f57600080fd5b60006100ad84828501610078565b91505092915050565b60006100c1826100da565b9050919050565b60006100d3826100b6565b9050919050565b600073ffffffffffffffffffffffffffffffffffffffff82169050919050565b610103816100c8565b811461010e57600080fd5b50565b61077c806101206000396000f3fe608060405234801561001057600080fd5b506004361061002b5760003560e01c8063babcc53914610030575b600080fd5b61004a600480360381019061004591906103e5565b610060565b6040516100579190610522565b60405180910390f35b600080600267ffffffffffffffff8111156100a4577f4e487b7100000000000000000000000000000000000000000000000000000000600052604160045260246000fd5b6040519080825280602002602001820160405280156100d25781602001602082028036833780820191505090505b509050736b175474e89094c44da98b954eedeac495271d0f81600081518110610124577f4e487b7100000000000000000000000000000000000000000000000000000000600052603260045260246000fd5b602002602001019073ffffffffffffffffffffffffffffffffffffffff16908173ffffffffffffffffffffffffffffffffffffffff168152505073c02aaa39b223fe8d0a0e5c4f27ead9083c756cc2816001815181106101ad577f4e487b7100000000000000000000000000000000000000000000000000000000600052603260045260246000fd5b602002602001019073ffffffffffffffffffffffffffffffffffffffff16908173ffffffffffffffffffffffffffffffffffffffff168152505060008060009054906101000a900473ffffffffffffffffffffffffffffffffffffffff1673ffffffffffffffffffffffffffffffffffffffff1663a3f1a0a685846040518363ffffffff1660e01b81526004016102459291906104f2565b60006040518083038186803b15801561025d57600080fd5b505afa158015610271573d6000803e3d6000fd5b505050506040513d6000823e3d601f19601f8201168201806040525081019061029a919061040e565b9050600080600090505b825181101561030e578281815181106102e6577f4e487b7100000000000000000000000000000000000000000000000000000000600052603260045260246000fd5b6020026020010151826102f991906105d3565b9150808061030690610671565b9150506102a4565b50683635c9adc5dea0000081119350505050919050565b60006103386103338461056e565b61053d565b9050808382526020820190508285602086028201111561035757600080fd5b60005b85811015610387578161036d88826103d0565b84526020840193506020830192505060018101905061035a565b5050509392505050565b6000813590506103a081610718565b92915050565b600082601f8301126103b757600080fd5b81516103c7848260208601610325565b91505092915050565b6000815190506103df8161072f565b92915050565b6000602082840312156103f757600080fd5b600061040584828501610391565b91505092915050565b60006020828403121561042057600080fd5b600082015167ffffffffffffffff81111561043a57600080fd5b610446848285016103a6565b91505092915050565b600061045b8383610467565b60208301905092915050565b61047081610629565b82525050565b61047f81610629565b82525050565b6000610490826105aa565b61049a81856105c2565b93506104a58361059a565b8060005b838110156104d65781516104bd888261044f565b97506104c8836105b5565b9250506001810190506104a9565b5085935050505092915050565b6104ec8161063b565b82525050565b60006040820190506105076000830185610476565b81810360208301526105198184610485565b90509392505050565b600060208201905061053760008301846104e3565b92915050565b6000604051905081810181811067ffffffffffffffff82111715610564576105636106e9565b5b8060405250919050565b600067ffffffffffffffff821115610589576105886106e9565b5b602082029050602081019050919050565b6000819050602082019050919050565b600081519050919050565b6000602082019050919050565b600082825260208201905092915050565b60006105de82610667565b91506105e983610667565b9250827fffffffffffffffffffffffffffffffffffffffffffffffffffffffffffffffff0382111561061e5761061d6106ba565b5b828201905092915050565b600061063482610647565b9050919050565b60008115159050919050565b600073ffffffffffffffffffffffffffffffffffffffff82169050919050565b6000819050919050565b600061067c82610667565b91507fffffffffffffffffffffffffffffffffffffffffffffffffffffffffffffffff8214156106af576106ae6106ba565b5b600182019050919050565b7f4e487b7100000000000000000000000000000000000000000000000000000000600052601160045260246000fd5b7f4e487b7100000000000000000000000000000000000000000000000000000000600052604160045260246000fd5b61072181610629565b811461072c57600080fd5b50565b61073881610667565b811461074357600080fd5b5056fea2646970667358221220fb770ef2289e63386099600f85c5cea51dce1f7d95aa7810ac7f7e2cdbc3064d64736f6c63430008000033",
  "linkReferences": {},
  "deployedLinkReferences": {}
}