{
  "_format": "hh-sol-artifact-1",
  "contractName": "MiniBank",
  "sourceName": "contracts/yield-aggregator/SetupYieldAggregator.sol",
  "abi": [
    {
      "inputs": [
        {
          "internalType": "address",
          "name": "_underlying",
          "type": "address"
        }
      ],
      "stateMutability": "nonpayable",
      "type": "constructor"
    },
    {
      "inputs": [
        {
          "internalType": "address",
          "name": "",
          "type": "address"
        }
      ],
      "name": "balanceOf",
      "outputs": [
        {
          "internalType": "uint256",
          "name": "",
          "type": "uint256"
        }
      ],
      "stateMutability": "view",
      "type": "function"
    },
    {
      "inputs": [],
      "name": "balanceUnderlying",
      "outputs": [
        {
          "internalType": "uint256",
          "name": "",
          "type": "uint256"
        }
      ],
      "stateMutability": "view",
      "type": "function"
    },
    {
      "inputs": [
        {
          "internalType": "uint256",
          "name": "amount",
          "type": "uint256"
        }
      ],
      "name": "burn",
      "outputs": [],
      "stateMutability": "nonpayable",
      "type": "function"
    },
    {
      "inputs": [
        {
          "internalType": "uint256",
          "name": "amount",
          "type": "uint256"
        }
      ],
      "name": "mint",
      "outputs": [],
      "stateMutability": "nonpayable",
      "type": "function"
    },
    {
      "inputs": [],
      "name": "rate",
      "outputs": [
        {
          "internalType": "uint256",
          "name": "",
          "type": "uint256"
        }
      ],
      "stateMutability": "view",
      "type": "function"
    },
    {
      "inputs": [],
      "name": "totalSupply",
      "outputs": [
        {
          "internalType": "uint256",
          "name": "",
          "type": "uint256"
        }
      ],
      "stateMutability": "view",
      "type": "function"
    },
    {
      "inputs": [],
      "name": "underlying",
      "outputs": [
        {
          "internalType": "contract ERC20Like",
          "name": "",
          "type": "address"
        }
      ],
      "stateMutability": "view",
      "type": "function"
    }
  ],
  "bytecode": "0x608060405234801561001057600080fd5b506040516109343803806109348339818101604052810190610032919061008d565b806000806101000a81548173ffffffffffffffffffffffffffffffffffffffff021916908373ffffffffffffffffffffffffffffffffffffffff160217905550506100ff565b600081519050610087816100e8565b92915050565b60006020828403121561009f57600080fd5b60006100ad84828501610078565b91505092915050565b60006100c1826100c8565b9050919050565b600073ffffffffffffffffffffffffffffffffffffffff82169050919050565b6100f1816100b6565b81146100fc57600080fd5b50565b6108268061010e6000396000f3fe608060405234801561001057600080fd5b506004361061007d5760003560e01c80636f307dc31161005b5780636f307dc3146100da57806370a08231146100f85780638da876c914610128578063a0712d68146101465761007d565b806318160ddd146100825780632c4e722e146100a057806342966c68146100be575b600080fd5b61008a610162565b604051610097919061066b565b60405180910390f35b6100a8610168565b6040516100b5919061066b565b60405180910390f35b6100d860048036038101906100d39190610556565b610171565b005b6100e2610299565b6040516100ef9190610650565b60405180910390f35b610112600480360381019061010d9190610504565b6102bd565b60405161011f919061066b565b60405180910390f35b6101306102d5565b60405161013d919061066b565b60405180910390f35b610160600480360381019061015b9190610556565b610386565b005b60025481565b60006001905090565b80600160003373ffffffffffffffffffffffffffffffffffffffff1673ffffffffffffffffffffffffffffffffffffffff16815260200190815260200160002060008282546101c091906106dc565b9250508190555080600260008282546101d991906106dc565b9250508190555060008054906101000a900473ffffffffffffffffffffffffffffffffffffffff1673ffffffffffffffffffffffffffffffffffffffff1663a9059cbb33836040518363ffffffff1660e01b815260040161023b929190610627565b602060405180830381600087803b15801561025557600080fd5b505af1158015610269573d6000803e3d6000fd5b505050506040513d601f19601f8201168201806040525081019061028d919061052d565b61029657600080fd5b50565b60008054906101000a900473ffffffffffffffffffffffffffffffffffffffff1681565b60016020528060005260406000206000915090505481565b60008060009054906101000a900473ffffffffffffffffffffffffffffffffffffffff1673ffffffffffffffffffffffffffffffffffffffff166370a08231306040518263ffffffff1660e01b815260040161033191906105d5565b60206040518083038186803b15801561034957600080fd5b505afa15801561035d573d6000803e3d6000fd5b505050506040513d601f19601f82011682018060405250810190610381919061057f565b905090565b60008054906101000a900473ffffffffffffffffffffffffffffffffffffffff1673ffffffffffffffffffffffffffffffffffffffff166323b872dd3330846040518463ffffffff1660e01b81526004016103e3939291906105f0565b602060405180830381600087803b1580156103fd57600080fd5b505af1158015610411573d6000803e3d6000fd5b505050506040513d601f19601f82011682018060405250810190610435919061052d565b61043e57600080fd5b80600160003373ffffffffffffffffffffffffffffffffffffffff1673ffffffffffffffffffffffffffffffffffffffff168152602001908152602001600020600082825461048d9190610686565b9250508190555080600260008282546104a69190610686565b9250508190555050565b6000813590506104bf816107ab565b92915050565b6000815190506104d4816107c2565b92915050565b6000813590506104e9816107d9565b92915050565b6000815190506104fe816107d9565b92915050565b60006020828403121561051657600080fd5b6000610524848285016104b0565b91505092915050565b60006020828403121561053f57600080fd5b600061054d848285016104c5565b91505092915050565b60006020828403121561056857600080fd5b6000610576848285016104da565b91505092915050565b60006020828403121561059157600080fd5b600061059f848285016104ef565b91505092915050565b6105b181610710565b82525050565b6105c081610758565b82525050565b6105cf8161074e565b82525050565b60006020820190506105ea60008301846105a8565b92915050565b600060608201905061060560008301866105a8565b61061260208301856105a8565b61061f60408301846105c6565b949350505050565b600060408201905061063c60008301856105a8565b61064960208301846105c6565b9392505050565b600060208201905061066560008301846105b7565b92915050565b600060208201905061068060008301846105c6565b92915050565b60006106918261074e565b915061069c8361074e565b9250827fffffffffffffffffffffffffffffffffffffffffffffffffffffffffffffffff038211156106d1576106d061077c565b5b828201905092915050565b60006106e78261074e565b91506106f28361074e565b9250828210156107055761070461077c565b5b828203905092915050565b600061071b8261072e565b9050919050565b60008115159050919050565b600073ffffffffffffffffffffffffffffffffffffffff82169050919050565b6000819050919050565b60006107638261076a565b9050919050565b60006107758261072e565b9050919050565b7f4e487b7100000000000000000000000000000000000000000000000000000000600052601160045260246000fd5b6107b481610710565b81146107bf57600080fd5b50565b6107cb81610722565b81146107d657600080fd5b50565b6107e28161074e565b81146107ed57600080fd5b5056fea2646970667358221220893ec4b55f2ffc03d4d73b08c1b4194b4f2a41ccea86d8ece0d151813e1b167764736f6c63430008000033",
  "linkReferences": {},
  "deployedLinkReferences": {}
}