{
  "_format": "hh-sol-artifact-1",
  "contractName": "SetupYieldAggregator",
  "sourceName": "contracts/yield-aggregator/SetupYieldAggregator.sol",
  "abi": [
    {
      "inputs": [
        {
          "internalType": "address",
          "name": "_weth",
          "type": "address"
        }
      ],
      "stateMutability": "payable",
      "type": "constructor"
    },
    {
      "inputs": [],
      "name": "aggregator",
      "outputs": [
        {
          "internalType": "contract YieldAggregator",
          "name": "",
          "type": "address"
        }
      ],
      "stateMutability": "view",
      "type": "function"
    },
    {
      "inputs": [],
      "name": "bank",
      "outputs": [
        {
          "internalType": "contract MiniBank",
          "name": "",
          "type": "address"
        }
      ],
      "stateMutability": "view",
      "type": "function"
    },
    {
      "inputs": [],
      "name": "isSolved",
      "outputs": [
        {
          "internalType": "bool",
          "name": "",
          "type": "bool"
        }
      ],
      "stateMutability": "view",
      "type": "function"
    },
    {
      "inputs": [],
      "name": "weth",
      "outputs": [
        {
          "internalType": "contract iWETH9",
          "name": "",
          "type": "address"
        }
      ],
      "stateMutability": "view",
      "type": "function"
    }
  ],
  "bytecode": "0x60806040526040516200272c3803806200272c8339818101604052810190620000299190620005bc565b6802fb474098f67c000034146200003f57600080fd5b80600260006101000a81548173ffffffffffffffffffffffffffffffffffffffff021916908373ffffffffffffffffffffffffffffffffffffffff160217905550806040516200008f9062000572565b6200009b919062000771565b604051809103906000f080158015620000b8573d6000803e3d6000fd5b50600160006101000a81548173ffffffffffffffffffffffffffffffffffffffff021916908373ffffffffffffffffffffffffffffffffffffffff160217905550604051620001079062000580565b604051809103906000f08015801562000124573d6000803e3d6000fd5b506000806101000a81548173ffffffffffffffffffffffffffffffffffffffff021916908373ffffffffffffffffffffffffffffffffffffffff160217905550600260009054906101000a900473ffffffffffffffffffffffffffffffffffffffff1673ffffffffffffffffffffffffffffffffffffffff1663d0e30db0346040518263ffffffff1660e01b81526004016000604051808303818588803b158015620001cf57600080fd5b505af1158015620001e4573d6000803e3d6000fd5b5050505050600260009054906101000a900473ffffffffffffffffffffffffffffffffffffffff1673ffffffffffffffffffffffffffffffffffffffff1663095ea7b360008054906101000a900473ffffffffffffffffffffffffffffffffffffffff167fffffffffffffffffffffffffffffffffffffffffffffffffffffffffffffffff6040518363ffffffff1660e01b8152600401620002889291906200078e565b602060405180830381600087803b158015620002a357600080fd5b505af1158015620002b8573d6000803e3d6000fd5b505050506040513d601f19601f82011682018060405250810190620002de9190620005e8565b506000600167ffffffffffffffff81111562000323577f4e487b7100000000000000000000000000000000000000000000000000000000600052604160045260246000fd5b604051908082528060200260200182016040528015620003525781602001602082028036833780820191505090505b509050600260009054906101000a900473ffffffffffffffffffffffffffffffffffffffff1681600081518110620003b3577f4e487b7100000000000000000000000000000000000000000000000000000000600052603260045260246000fd5b602002602001019073ffffffffffffffffffffffffffffffffffffffff16908173ffffffffffffffffffffffffffffffffffffffff16815250506000600167ffffffffffffffff81111562000431577f4e487b7100000000000000000000000000000000000000000000000000000000600052604160045260246000fd5b604051908082528060200260200182016040528015620004605781602001602082028036833780820191505090505b5090506802b5e3af16b188000081600081518110620004a8577f4e487b7100000000000000000000000000000000000000000000000000000000600052603260045260246000fd5b60200260200101818152505060008054906101000a900473ffffffffffffffffffffffffffffffffffffffff1673ffffffffffffffffffffffffffffffffffffffff1663562fa0df600160009054906101000a900473ffffffffffffffffffffffffffffffffffffffff1684846040518463ffffffff1660e01b81526004016200053593929190620007bb565b600060405180830381600087803b1580156200055057600080fd5b505af115801562000565573d6000803e3d6000fd5b505050505050506200091e565b6109348062000e2483390190565b610fd4806200175883390190565b6000815190506200059f81620008ea565b92915050565b600081519050620005b68162000904565b92915050565b600060208284031215620005cf57600080fd5b6000620005df848285016200058e565b91505092915050565b600060208284031215620005fb57600080fd5b60006200060b84828501620005a5565b91505092915050565b600062000622838362000648565b60208301905092915050565b60006200063c83836200074f565b60208301905092915050565b620006538162000878565b82525050565b620006648162000878565b82525050565b6000620006778262000826565b62000683818562000856565b9350620006908362000806565b8060005b83811015620006c7578151620006ab888262000614565b9750620006b8836200083c565b92505060018101905062000694565b5085935050505092915050565b6000620006e18262000831565b620006ed818562000867565b9350620006fa8362000816565b8060005b83811015620007315781516200071588826200062e565b9750620007228362000849565b925050600181019050620006fe565b5085935050505092915050565b6200074981620008c2565b82525050565b6200075a81620008b8565b82525050565b6200076b81620008b8565b82525050565b600060208201905062000788600083018462000659565b92915050565b6000604082019050620007a5600083018562000659565b620007b4602083018462000760565b9392505050565b6000606082019050620007d260008301866200073e565b8181036020830152620007e681856200066a565b90508181036040830152620007fc8184620006d4565b9050949350505050565b6000819050602082019050919050565b6000819050602082019050919050565b600081519050919050565b600081519050919050565b6000602082019050919050565b6000602082019050919050565b600082825260208201905092915050565b600082825260208201905092915050565b6000620008858262000898565b9050919050565b60008115159050919050565b600073ffffffffffffffffffffffffffffffffffffffff82169050919050565b6000819050919050565b6000620008cf82620008d6565b9050919050565b6000620008e38262000898565b9050919050565b620008f58162000878565b81146200090157600080fd5b50565b6200090f816200088c565b81146200091b57600080fd5b50565b6104f6806200092e6000396000f3fe608060405234801561001057600080fd5b506004361061004c5760003560e01c8063245a7bfc146100515780633fc8cef31461006f57806364d98f6e1461008d57806376cdb03b146100ab575b600080fd5b6100596100c9565b60405161006691906103bf565b60405180910390f35b6100776100ed565b60405161008491906103da565b60405180910390f35b610095610113565b6040516100a29190610389565b60405180910390f35b6100b36102bf565b6040516100c091906103a4565b60405180910390f35b60008054906101000a900473ffffffffffffffffffffffffffffffffffffffff1681565b600260009054906101000a900473ffffffffffffffffffffffffffffffffffffffff1681565b600080600260009054906101000a900473ffffffffffffffffffffffffffffffffffffffff1673ffffffffffffffffffffffffffffffffffffffff166370a0823160008054906101000a900473ffffffffffffffffffffffffffffffffffffffff166040518263ffffffff1660e01b8152600401610191919061036e565b60206040518083038186803b1580156101a957600080fd5b505afa1580156101bd573d6000803e3d6000fd5b505050506040513d601f19601f820116820180604052508101906101e191906102fa565b1480156102ba57506000600260009054906101000a900473ffffffffffffffffffffffffffffffffffffffff1673ffffffffffffffffffffffffffffffffffffffff166370a08231600160009054906101000a900473ffffffffffffffffffffffffffffffffffffffff166040518263ffffffff1660e01b8152600401610268919061036e565b60206040518083038186803b15801561028057600080fd5b505afa158015610294573d6000803e3d6000fd5b505050506040513d601f19601f820116820180604052508101906102b891906102fa565b145b905090565b600160009054906101000a900473ffffffffffffffffffffffffffffffffffffffff1681565b6000815190506102f4816104a9565b92915050565b60006020828403121561030c57600080fd5b600061031a848285016102e5565b91505092915050565b61032c816103f5565b82525050565b61033b81610407565b82525050565b61034a8161043d565b82525050565b61035981610461565b82525050565b61036881610485565b82525050565b60006020820190506103836000830184610323565b92915050565b600060208201905061039e6000830184610332565b92915050565b60006020820190506103b96000830184610341565b92915050565b60006020820190506103d46000830184610350565b92915050565b60006020820190506103ef600083018461035f565b92915050565b600061040082610413565b9050919050565b60008115159050919050565b600073ffffffffffffffffffffffffffffffffffffffff82169050919050565b6000819050919050565b60006104488261044f565b9050919050565b600061045a82610413565b9050919050565b600061046c82610473565b9050919050565b600061047e82610413565b9050919050565b600061049082610497565b9050919050565b60006104a282610413565b9050919050565b6104b281610433565b81146104bd57600080fd5b5056fea2646970667358221220c2322873998409308825121f161e51583c6ba4ca6d0ce0f0f32d8598b9b5e70b64736f6c63430008000033608060405234801561001057600080fd5b506040516109343803806109348339818101604052810190610032919061008d565b806000806101000a81548173ffffffffffffffffffffffffffffffffffffffff021916908373ffffffffffffffffffffffffffffffffffffffff160217905550506100ff565b600081519050610087816100e8565b92915050565b60006020828403121561009f57600080fd5b60006100ad84828501610078565b91505092915050565b60006100c1826100c8565b9050919050565b600073ffffffffffffffffffffffffffffffffffffffff82169050919050565b6100f1816100b6565b81146100fc57600080fd5b50565b6108268061010e6000396000f3fe608060405234801561001057600080fd5b506004361061007d5760003560e01c80636f307dc31161005b5780636f307dc3146100da57806370a08231146100f85780638da876c914610128578063a0712d68146101465761007d565b806318160ddd146100825780632c4e722e146100a057806342966c68146100be575b600080fd5b61008a610162565b604051610097919061066b565b60405180910390f35b6100a8610168565b6040516100b5919061066b565b60405180910390f35b6100d860048036038101906100d39190610556565b610171565b005b6100e2610299565b6040516100ef9190610650565b60405180910390f35b610112600480360381019061010d9190610504565b6102bd565b60405161011f919061066b565b60405180910390f35b6101306102d5565b60405161013d919061066b565b60405180910390f35b610160600480360381019061015b9190610556565b610386565b005b60025481565b60006001905090565b80600160003373ffffffffffffffffffffffffffffffffffffffff1673ffffffffffffffffffffffffffffffffffffffff16815260200190815260200160002060008282546101c091906106dc565b9250508190555080600260008282546101d991906106dc565b9250508190555060008054906101000a900473ffffffffffffffffffffffffffffffffffffffff1673ffffffffffffffffffffffffffffffffffffffff1663a9059cbb33836040518363ffffffff1660e01b815260040161023b929190610627565b602060405180830381600087803b15801561025557600080fd5b505af1158015610269573d6000803e3d6000fd5b505050506040513d601f19601f8201168201806040525081019061028d919061052d565b61029657600080fd5b50565b60008054906101000a900473ffffffffffffffffffffffffffffffffffffffff1681565b60016020528060005260406000206000915090505481565b60008060009054906101000a900473ffffffffffffffffffffffffffffffffffffffff1673ffffffffffffffffffffffffffffffffffffffff166370a08231306040518263ffffffff1660e01b815260040161033191906105d5565b60206040518083038186803b15801561034957600080fd5b505afa15801561035d573d6000803e3d6000fd5b505050506040513d601f19601f82011682018060405250810190610381919061057f565b905090565b60008054906101000a900473ffffffffffffffffffffffffffffffffffffffff1673ffffffffffffffffffffffffffffffffffffffff166323b872dd3330846040518463ffffffff1660e01b81526004016103e3939291906105f0565b602060405180830381600087803b1580156103fd57600080fd5b505af1158015610411573d6000803e3d6000fd5b505050506040513d601f19601f82011682018060405250810190610435919061052d565b61043e57600080fd5b80600160003373ffffffffffffffffffffffffffffffffffffffff1673ffffffffffffffffffffffffffffffffffffffff168152602001908152602001600020600082825461048d9190610686565b9250508190555080600260008282546104a69190610686565b9250508190555050565b6000813590506104bf816107ab565b92915050565b6000815190506104d4816107c2565b92915050565b6000813590506104e9816107d9565b92915050565b6000815190506104fe816107d9565b92915050565b60006020828403121561051657600080fd5b6000610524848285016104b0565b91505092915050565b60006020828403121561053f57600080fd5b600061054d848285016104c5565b91505092915050565b60006020828403121561056857600080fd5b6000610576848285016104da565b91505092915050565b60006020828403121561059157600080fd5b600061059f848285016104ef565b91505092915050565b6105b181610710565b82525050565b6105c081610758565b82525050565b6105cf8161074e565b82525050565b60006020820190506105ea60008301846105a8565b92915050565b600060608201905061060560008301866105a8565b61061260208301856105a8565b61061f60408301846105c6565b949350505050565b600060408201905061063c60008301856105a8565b61064960208301846105c6565b9392505050565b600060208201905061066560008301846105b7565b92915050565b600060208201905061068060008301846105c6565b92915050565b60006106918261074e565b915061069c8361074e565b9250827fffffffffffffffffffffffffffffffffffffffffffffffffffffffffffffffff038211156106d1576106d061077c565b5b828201905092915050565b60006106e78261074e565b91506106f28361074e565b9250828210156107055761070461077c565b5b828203905092915050565b600061071b8261072e565b9050919050565b60008115159050919050565b600073ffffffffffffffffffffffffffffffffffffffff82169050919050565b6000819050919050565b60006107638261076a565b9050919050565b60006107758261072e565b9050919050565b7f4e487b7100000000000000000000000000000000000000000000000000000000600052601160045260246000fd5b6107b481610710565b81146107bf57600080fd5b50565b6107cb81610722565b81146107d657600080fd5b50565b6107e28161074e565b81146107ed57600080fd5b5056fea2646970667358221220893ec4b55f2ffc03d4d73b08c1b4194b4f2a41ccea86d8ece0d151813e1b167764736f6c63430008000033608060405234801561001057600080fd5b50336000806101000a81548173ffffffffffffffffffffffffffffffffffffffff021916908373ffffffffffffffffffffffffffffffffffffffff160217905550610f74806100606000396000f3fe608060405234801561001057600080fd5b50600436106100575760003560e01c80634bdaeac11461005c578063562fa0df1461007a5780638da5cb5b14610096578063a9126169146100b4578063edbd7668146100e4575b600080fd5b610064610100565b6040516100719190610bfd565b60405180910390f35b610094600480360381019061008f9190610b28565b610126565b005b61009e6105ee565b6040516100ab9190610bfd565b60405180910390f35b6100ce60048036038101906100c99190610ad6565b610612565b6040516100db9190610ca1565b60405180910390f35b6100fe60048036038101906100f99190610b28565b61062a565b005b600160009054906101000a900473ffffffffffffffffffffffffffffffffffffffff1681565b60008373ffffffffffffffffffffffffffffffffffffffff16638da876c96040518163ffffffff1660e01b815260040160206040518083038186803b15801561016e57600080fd5b505afa158015610182573d6000803e3d6000fd5b505050506040513d601f19601f820116820180604052508101906101a69190610ba7565b905060005b83518110156104fd5760008482815181106101ef577f4e487b7100000000000000000000000000000000000000000000000000000000600052603260045260246000fd5b602002602001015190506000848381518110610234577f4e487b7100000000000000000000000000000000000000000000000000000000600052603260045260246000fd5b602002602001015190508173ffffffffffffffffffffffffffffffffffffffff166323b872dd3330846040518463ffffffff1660e01b815260040161027b93929190610c18565b602060405180830381600087803b15801561029557600080fd5b505af11580156102a9573d6000803e3d6000fd5b505050506040513d601f19601f820116820180604052508101906102cd9190610aff565b508173ffffffffffffffffffffffffffffffffffffffff1663095ea7b38860006040518363ffffffff1660e01b815260040161030a929190610c4f565b602060405180830381600087803b15801561032457600080fd5b505af1158015610338573d6000803e3d6000fd5b505050506040513d601f19601f8201168201806040525081019061035c9190610aff565b508173ffffffffffffffffffffffffffffffffffffffff1663095ea7b388836040518363ffffffff1660e01b8152600401610398929190610c78565b602060405180830381600087803b1580156103b257600080fd5b505af11580156103c6573d6000803e3d6000fd5b505050506040513d601f19601f820116820180604052508101906103ea9190610aff565b508673ffffffffffffffffffffffffffffffffffffffff1663a0712d68826040518263ffffffff1660e01b81526004016104249190610ca1565b600060405180830381600087803b15801561043e57600080fd5b505af192505050801561044f575060015b6104e7578173ffffffffffffffffffffffffffffffffffffffff1663095ea7b38860006040518363ffffffff1660e01b815260040161048f929190610c4f565b602060405180830381600087803b1580156104a957600080fd5b505af11580156104bd573d6000803e3d6000fd5b505050506040513d601f19601f820116820180604052508101906104e19190610aff565b506104e8565b5b505080806104f590610e3b565b9150506101ab565b5060008473ffffffffffffffffffffffffffffffffffffffff16638da876c96040518163ffffffff1660e01b815260040160206040518083038186803b15801561054657600080fd5b505afa15801561055a573d6000803e3d6000fd5b505050506040513d601f19601f8201168201806040525081019061057e9190610ba7565b90506000828261058e9190610d9b565b905080600260003373ffffffffffffffffffffffffffffffffffffffff1673ffffffffffffffffffffffffffffffffffffffff16815260200190815260200160002060008282546105df9190610d45565b92505081905550505050505050565b60008054906101000a900473ffffffffffffffffffffffffffffffffffffffff1681565b60026020528060005260406000206000915090505481565b60008373ffffffffffffffffffffffffffffffffffffffff16638da876c96040518163ffffffff1660e01b815260040160206040518083038186803b15801561067257600080fd5b505afa158015610686573d6000803e3d6000fd5b505050506040513d601f19601f820116820180604052508101906106aa9190610ba7565b905060005b83518110156108505760008482815181106106f3577f4e487b7100000000000000000000000000000000000000000000000000000000600052603260045260246000fd5b602002602001015190506000848381518110610738577f4e487b7100000000000000000000000000000000000000000000000000000000600052603260045260246000fd5b602002602001015190508673ffffffffffffffffffffffffffffffffffffffff166342966c68826040518263ffffffff1660e01b815260040161077b9190610ca1565b600060405180830381600087803b15801561079557600080fd5b505af11580156107a9573d6000803e3d6000fd5b505050508173ffffffffffffffffffffffffffffffffffffffff1663a9059cbb33836040518363ffffffff1660e01b81526004016107e8929190610c78565b602060405180830381600087803b15801561080257600080fd5b505af1158015610816573d6000803e3d6000fd5b505050506040513d601f19601f8201168201806040525081019061083a9190610aff565b505050808061084890610e3b565b9150506106af565b5060008473ffffffffffffffffffffffffffffffffffffffff16638da876c96040518163ffffffff1660e01b815260040160206040518083038186803b15801561089957600080fd5b505afa1580156108ad573d6000803e3d6000fd5b505050506040513d601f19601f820116820180604052508101906108d19190610ba7565b9050600081836108e19190610d9b565b905080600260003373ffffffffffffffffffffffffffffffffffffffff1673ffffffffffffffffffffffffffffffffffffffff16815260200190815260200160002060008282546109329190610d9b565b92505081905550505050505050565b600061095461094f84610ced565b610cbc565b9050808382526020820190508285602086028201111561097357600080fd5b60005b858110156109a357816109898882610a19565b845260208401935060208301925050600181019050610976565b5050509392505050565b60006109c06109bb84610d19565b610cbc565b905080838252602082019050828560208602820111156109df57600080fd5b60005b85811015610a0f57816109f58882610aac565b8452602084019350602083019250506001810190506109e2565b5050509392505050565b600081359050610a2881610ee2565b92915050565b600082601f830112610a3f57600080fd5b8135610a4f848260208601610941565b91505092915050565b600082601f830112610a6957600080fd5b8135610a798482602086016109ad565b91505092915050565b600081519050610a9181610ef9565b92915050565b600081359050610aa681610f10565b92915050565b600081359050610abb81610f27565b92915050565b600081519050610ad081610f27565b92915050565b600060208284031215610ae857600080fd5b6000610af684828501610a19565b91505092915050565b600060208284031215610b1157600080fd5b6000610b1f84828501610a82565b91505092915050565b600080600060608486031215610b3d57600080fd5b6000610b4b86828701610a97565b935050602084013567ffffffffffffffff811115610b6857600080fd5b610b7486828701610a2e565b925050604084013567ffffffffffffffff811115610b9157600080fd5b610b9d86828701610a58565b9150509250925092565b600060208284031215610bb957600080fd5b6000610bc784828501610ac1565b91505092915050565b610bd981610dcf565b82525050565b610be881610e29565b82525050565b610bf781610e1f565b82525050565b6000602082019050610c126000830184610bd0565b92915050565b6000606082019050610c2d6000830186610bd0565b610c3a6020830185610bd0565b610c476040830184610bee565b949350505050565b6000604082019050610c646000830185610bd0565b610c716020830184610bdf565b9392505050565b6000604082019050610c8d6000830185610bd0565b610c9a6020830184610bee565b9392505050565b6000602082019050610cb66000830184610bee565b92915050565b6000604051905081810181811067ffffffffffffffff82111715610ce357610ce2610eb3565b5b8060405250919050565b600067ffffffffffffffff821115610d0857610d07610eb3565b5b602082029050602081019050919050565b600067ffffffffffffffff821115610d3457610d33610eb3565b5b602082029050602081019050919050565b6000610d5082610e1f565b9150610d5b83610e1f565b9250827fffffffffffffffffffffffffffffffffffffffffffffffffffffffffffffffff03821115610d9057610d8f610e84565b5b828201905092915050565b6000610da682610e1f565b9150610db183610e1f565b925082821015610dc457610dc3610e84565b5b828203905092915050565b6000610dda82610dff565b9050919050565b60008115159050919050565b6000610df882610dcf565b9050919050565b600073ffffffffffffffffffffffffffffffffffffffff82169050919050565b6000819050919050565b6000610e3482610e1f565b9050919050565b6000610e4682610e1f565b91507fffffffffffffffffffffffffffffffffffffffffffffffffffffffffffffffff821415610e7957610e78610e84565b5b600182019050919050565b7f4e487b7100000000000000000000000000000000000000000000000000000000600052601160045260246000fd5b7f4e487b7100000000000000000000000000000000000000000000000000000000600052604160045260246000fd5b610eeb81610dcf565b8114610ef657600080fd5b50565b610f0281610de1565b8114610f0d57600080fd5b50565b610f1981610ded565b8114610f2457600080fd5b50565b610f3081610e1f565b8114610f3b57600080fd5b5056fea26469706673582212202d42538b6b0ac4bf7e490f55875b8f8e5d2416e967357093a1301d64cb18f03064736f6c63430008000033",
  "linkReferences": {},
  "deployedLinkReferences": {}
}