{
  "_format": "hh-sol-artifact-1",
  "contractName": "Broker",
  "sourceName": "contracts/broker/Broker.sol",
  "abi": [
    {
      "inputs": [
        {
          "internalType": "contract IUniswapV2Pair",
          "name": "_pair",
          "type": "address"
        },
        {
          "internalType": "contract ERC20Like",
          "name": "_token",
          "type": "address"
        },
        {
          "internalType": "contract iWETH9",
          "name": "_weth",
          "type": "address"
        }
      ],
      "stateMutability": "nonpayable",
      "type": "constructor"
    },
    {
      "inputs": [
        {
          "internalType": "uint256",
          "name": "amount",
          "type": "uint256"
        }
      ],
      "name": "borrow",
      "outputs": [],
      "stateMutability": "nonpayable",
      "type": "function"
    },
    {
      "inputs": [
        {
          "internalType": "address",
          "name": "",
          "type": "address"
        }
      ],
      "name": "debt",
      "outputs": [
        {
          "internalType": "uint256",
          "name": "",
          "type": "uint256"
        }
      ],
      "stateMutability": "view",
      "type": "function"
    },
    {
      "inputs": [
        {
          "internalType": "uint256",
          "name": "amount",
          "type": "uint256"
        }
      ],
      "name": "deposit",
      "outputs": [],
      "stateMutability": "nonpayable",
      "type": "function"
    },
    {
      "inputs": [
        {
          "internalType": "address",
          "name": "",
          "type": "address"
        }
      ],
      "name": "deposited",
      "outputs": [
        {
          "internalType": "uint256",
          "name": "",
          "type": "uint256"
        }
      ],
      "stateMutability": "view",
      "type": "function"
    },
    {
      "inputs": [],
      "name": "getReserves",
      "outputs": [
        {
          "internalType": "uint112",
          "name": "",
          "type": "uint112"
        },
        {
          "internalType": "uint112",
          "name": "",
          "type": "uint112"
        }
      ],
      "stateMutability": "view",
      "type": "function"
    },
    {
      "inputs": [
        {
          "internalType": "address",
          "name": "user",
          "type": "address"
        },
        {
          "internalType": "uint256",
          "name": "amount",
          "type": "uint256"
        }
      ],
      "name": "liquidate",
      "outputs": [
        {
          "internalType": "uint256",
          "name": "",
          "type": "uint256"
        }
      ],
      "stateMutability": "nonpayable",
      "type": "function"
    },
    {
      "inputs": [],
      "name": "pair",
      "outputs": [
        {
          "internalType": "contract IUniswapV2Pair",
          "name": "",
          "type": "address"
        }
      ],
      "stateMutability": "view",
      "type": "function"
    },
    {
      "inputs": [],
      "name": "rate",
      "outputs": [
        {
          "internalType": "uint256",
          "name": "",
          "type": "uint256"
        }
      ],
      "stateMutability": "view",
      "type": "function"
    },
    {
      "inputs": [
        {
          "internalType": "uint256",
          "name": "amount",
          "type": "uint256"
        }
      ],
      "name": "repay",
      "outputs": [],
      "stateMutability": "nonpayable",
      "type": "function"
    },
    {
      "inputs": [
        {
          "internalType": "address",
          "name": "user",
          "type": "address"
        }
      ],
      "name": "safeDebt",
      "outputs": [
        {
          "internalType": "uint256",
          "name": "",
          "type": "uint256"
        }
      ],
      "stateMutability": "view",
      "type": "function"
    },
    {
      "inputs": [],
      "name": "token",
      "outputs": [
        {
          "internalType": "contract ERC20Like",
          "name": "",
          "type": "address"
        }
      ],
      "stateMutability": "view",
      "type": "function"
    },
    {
      "inputs": [],
      "name": "weth",
      "outputs": [
        {
          "internalType": "contract iWETH9",
          "name": "",
          "type": "address"
        }
      ],
      "stateMutability": "view",
      "type": "function"
    },
    {
      "inputs": [
        {
          "internalType": "uint256",
          "name": "amount",
          "type": "uint256"
        }
      ],
      "name": "withdraw",
      "outputs": [],
      "stateMutability": "nonpayable",
      "type": "function"
    }
  ],
  "bytecode": "0x60a06040523480156200001157600080fd5b506040516200160d3803806200160d83398181016040528101906200003791906200013d565b826000806101000a81548173ffffffffffffffffffffffffffffffffffffffff021916908373ffffffffffffffffffffffffffffffffffffffff16021790555081600160006101000a81548173ffffffffffffffffffffffffffffffffffffffff021916908373ffffffffffffffffffffffffffffffffffffffff1602179055508073ffffffffffffffffffffffffffffffffffffffff1660808173ffffffffffffffffffffffffffffffffffffffff1660601b8152505050505062000251565b600081519050620001098162000203565b92915050565b60008151905062000120816200021d565b92915050565b600081519050620001378162000237565b92915050565b6000806000606084860312156200015357600080fd5b600062000163868287016200010f565b93505060206200017686828701620000f8565b9250506040620001898682870162000126565b9150509250925092565b6000620001a082620001e3565b9050919050565b6000620001b48262000193565b9050919050565b6000620001c88262000193565b9050919050565b6000620001dc8262000193565b9050919050565b600073ffffffffffffffffffffffffffffffffffffffff82169050919050565b6200020e81620001a7565b81146200021a57600080fd5b50565b6200022881620001bb565b81146200023457600080fd5b50565b6200024281620001cf565b81146200024e57600080fd5b50565b60805160601c611388620002856000396000818161050401528181610733015281816107e90152610a4701526113886000f3fe608060405234801561001057600080fd5b50600436106100cf5760003560e01c80639b6c56ec1161008c578063bcbaf48711610066578063bcbaf48714610201578063c5ebeaec14610231578063cb13cddb1461024d578063fc0c546a1461027d576100cf565b80639b6c56ec14610197578063a8aa1b31146101c7578063b6b55f25146101e5576100cf565b80630902f1ac146100d45780632c4e722e146100f35780632e1a7d4d146101115780632e4651651461012d578063371fd8e61461015d5780633fc8cef314610179575b600080fd5b6100dc61029b565b6040516100ea929190611008565b60405180910390f35b6100fb610350565b6040516101089190611031565b60405180910390f35b61012b60048036038101906101269190610e14565b610422565b005b61014760048036038101906101429190610d37565b6105b3565b6040516101549190611031565b60405180910390f35b61017760048036038101906101729190610e14565b610626565b005b610181610731565b60405161018e9190610fad565b60405180910390f35b6101b160048036038101906101ac9190610d37565b610755565b6040516101be9190611031565b60405180910390f35b6101cf61076d565b6040516101dc9190610f92565b60405180910390f35b6101ff60048036038101906101fa9190610e14565b610791565b005b61021b60048036038101906102169190610d60565b61089a565b6040516102289190611031565b60405180910390f35b61024b60048036038101906102469190610e14565b610afd565b005b61026760048036038101906102629190610d37565b610c90565b6040516102749190611031565b60405180910390f35b610285610ca8565b6040516102929190610f77565b60405180910390f35b60008060008060008054906101000a900473ffffffffffffffffffffffffffffffffffffffff1673ffffffffffffffffffffffffffffffffffffffff16630902f1ac6040518163ffffffff1660e01b815260040160606040518083038186803b15801561030757600080fd5b505afa15801561031b573d6000803e3d6000fd5b505050506040513d601f19601f8201168201806040525081019061033f9190610dc5565b509150915081819350935050509091565b60008060008060009054906101000a900473ffffffffffffffffffffffffffffffffffffffff1673ffffffffffffffffffffffffffffffffffffffff16630902f1ac6040518163ffffffff1660e01b815260040160606040518083038186803b1580156103bc57600080fd5b505afa1580156103d0573d6000803e3d6000fd5b505050506040513d601f19601f820116820180604052508101906103f49190610dc5565b50915091506000828261040791906110b3565b6dffffffffffffffffffffffffffff16905080935050505090565b80600260003373ffffffffffffffffffffffffffffffffffffffff1673ffffffffffffffffffffffffffffffffffffffff1681526020019081526020016000206000828254610471919061116f565b92505081905550600360003373ffffffffffffffffffffffffffffffffffffffff1673ffffffffffffffffffffffffffffffffffffffff168152602001908152602001600020546104c1336105b3565b1015610502576040517f08c379a00000000000000000000000000000000000000000000000000000000081526004016104f990610fe8565b60405180910390fd5b7f000000000000000000000000000000000000000000000000000000000000000073ffffffffffffffffffffffffffffffffffffffff1663a9059cbb33836040518363ffffffff1660e01b815260040161055d929190610f4e565b602060405180830381600087803b15801561057757600080fd5b505af115801561058b573d6000803e3d6000fd5b505050506040513d601f19601f820116820180604052508101906105af9190610d9c565b5050565b6000600360026105c1610350565b600260008673ffffffffffffffffffffffffffffffffffffffff1673ffffffffffffffffffffffffffffffffffffffff1681526020019081526020016000205461060b9190611115565b6106159190611115565b61061f91906110e4565b9050919050565b80600360003373ffffffffffffffffffffffffffffffffffffffff1673ffffffffffffffffffffffffffffffffffffffff1681526020019081526020016000206000828254610675919061116f565b92505081905550600160009054906101000a900473ffffffffffffffffffffffffffffffffffffffff1673ffffffffffffffffffffffffffffffffffffffff166323b872dd3330846040518463ffffffff1660e01b81526004016106db93929190610f17565b602060405180830381600087803b1580156106f557600080fd5b505af1158015610709573d6000803e3d6000fd5b505050506040513d601f19601f8201168201806040525081019061072d9190610d9c565b5050565b7f000000000000000000000000000000000000000000000000000000000000000081565b60036020528060005260406000206000915090505481565b60008054906101000a900473ffffffffffffffffffffffffffffffffffffffff1681565b80600260003373ffffffffffffffffffffffffffffffffffffffff1673ffffffffffffffffffffffffffffffffffffffff16815260200190815260200160002060008282546107e0919061105d565b925050819055507f000000000000000000000000000000000000000000000000000000000000000073ffffffffffffffffffffffffffffffffffffffff166323b872dd3330846040518463ffffffff1660e01b815260040161084493929190610f17565b602060405180830381600087803b15801561085e57600080fd5b505af1158015610872573d6000803e3d6000fd5b505050506040513d601f19601f820116820180604052508101906108969190610d9c565b5050565b6000600360008473ffffffffffffffffffffffffffffffffffffffff1673ffffffffffffffffffffffffffffffffffffffff168152602001908152602001600020546108e5846105b3565b1115610926576040517f08c379a000000000000000000000000000000000000000000000000000000000815260040161091d90610fc8565b60405180910390fd5b81600360008573ffffffffffffffffffffffffffffffffffffffff1673ffffffffffffffffffffffffffffffffffffffff1681526020019081526020016000206000828254610975919061116f565b92505081905550600160009054906101000a900473ffffffffffffffffffffffffffffffffffffffff1673ffffffffffffffffffffffffffffffffffffffff166323b872dd3330856040518463ffffffff1660e01b81526004016109db93929190610f17565b602060405180830381600087803b1580156109f557600080fd5b505af1158015610a09573d6000803e3d6000fd5b505050506040513d601f19601f82011682018060405250810190610a2d9190610d9c565b506000610a38610350565b83610a4391906110e4565b90507f000000000000000000000000000000000000000000000000000000000000000073ffffffffffffffffffffffffffffffffffffffff1663a9059cbb33836040518363ffffffff1660e01b8152600401610aa0929190610f4e565b602060405180830381600087803b158015610aba57600080fd5b505af1158015610ace573d6000803e3d6000fd5b505050506040513d601f19601f82011682018060405250810190610af29190610d9c565b508091505092915050565b80600360003373ffffffffffffffffffffffffffffffffffffffff1673ffffffffffffffffffffffffffffffffffffffff1681526020019081526020016000206000828254610b4c919061105d565b92505081905550600360003373ffffffffffffffffffffffffffffffffffffffff1673ffffffffffffffffffffffffffffffffffffffff16815260200190815260200160002054610b9c336105b3565b1015610bdd576040517f08c379a0000000000000000000000000000000000000000000000000000000008152600401610bd490610fe8565b60405180910390fd5b600160009054906101000a900473ffffffffffffffffffffffffffffffffffffffff1673ffffffffffffffffffffffffffffffffffffffff1663a9059cbb33836040518363ffffffff1660e01b8152600401610c3a929190610f4e565b602060405180830381600087803b158015610c5457600080fd5b505af1158015610c68573d6000803e3d6000fd5b505050506040513d601f19601f82011682018060405250810190610c8c9190610d9c565b5050565b60026020528060005260406000206000915090505481565b600160009054906101000a900473ffffffffffffffffffffffffffffffffffffffff1681565b600081359050610cdd816112df565b92915050565b600081519050610cf2816112f6565b92915050565b600081519050610d078161130d565b92915050565b600081359050610d1c81611324565b92915050565b600081519050610d318161133b565b92915050565b600060208284031215610d4957600080fd5b6000610d5784828501610cce565b91505092915050565b60008060408385031215610d7357600080fd5b6000610d8185828601610cce565b9250506020610d9285828601610d0d565b9150509250929050565b600060208284031215610dae57600080fd5b6000610dbc84828501610ce3565b91505092915050565b600080600060608486031215610dda57600080fd5b6000610de886828701610cf8565b9350506020610df986828701610cf8565b9250506040610e0a86828701610d22565b9150509250925092565b600060208284031215610e2657600080fd5b6000610e3484828501610d0d565b91505092915050565b610e46816111a3565b82525050565b610e5581611215565b82525050565b610e6481611239565b82525050565b610e738161125d565b82525050565b6000610e8660178361104c565b91507f6572723a206f766572636f6c6c61746572616c697a65640000000000000000006000830152602082019050919050565b6000610ec660188361104c565b91507f6572723a20756e646572636f6c6c61746572616c697a656400000000000000006000830152602082019050919050565b610f02816111c1565b82525050565b610f11816111fb565b82525050565b6000606082019050610f2c6000830186610e3d565b610f396020830185610e3d565b610f466040830184610f08565b949350505050565b6000604082019050610f636000830185610e3d565b610f706020830184610f08565b9392505050565b6000602082019050610f8c6000830184610e4c565b92915050565b6000602082019050610fa76000830184610e5b565b92915050565b6000602082019050610fc26000830184610e6a565b92915050565b60006020820190508181036000830152610fe181610e79565b9050919050565b6000602082019050818103600083015261100181610eb9565b9050919050565b600060408201905061101d6000830185610ef9565b61102a6020830184610ef9565b9392505050565b60006020820190506110466000830184610f08565b92915050565b600082825260208201905092915050565b6000611068826111fb565b9150611073836111fb565b9250827fffffffffffffffffffffffffffffffffffffffffffffffffffffffffffffffff038211156110a8576110a7611281565b5b828201905092915050565b60006110be826111c1565b91506110c9836111c1565b9250826110d9576110d86112b0565b5b828204905092915050565b60006110ef826111fb565b91506110fa836111fb565b92508261110a576111096112b0565b5b828204905092915050565b6000611120826111fb565b915061112b836111fb565b9250817fffffffffffffffffffffffffffffffffffffffffffffffffffffffffffffffff048311821515161561116457611163611281565b5b828202905092915050565b600061117a826111fb565b9150611185836111fb565b92508282101561119857611197611281565b5b828203905092915050565b60006111ae826111db565b9050919050565b60008115159050919050565b60006dffffffffffffffffffffffffffff82169050919050565b600073ffffffffffffffffffffffffffffffffffffffff82169050919050565b6000819050919050565b600063ffffffff82169050919050565b600061122082611227565b9050919050565b6000611232826111db565b9050919050565b60006112448261124b565b9050919050565b6000611256826111db565b9050919050565b60006112688261126f565b9050919050565b600061127a826111db565b9050919050565b7f4e487b7100000000000000000000000000000000000000000000000000000000600052601160045260246000fd5b7f4e487b7100000000000000000000000000000000000000000000000000000000600052601260045260246000fd5b6112e8816111a3565b81146112f357600080fd5b50565b6112ff816111b5565b811461130a57600080fd5b50565b611316816111c1565b811461132157600080fd5b50565b61132d816111fb565b811461133857600080fd5b50565b61134481611205565b811461134f57600080fd5b5056fea26469706673582212204840a1e3936073f6d138d902344c9f7b591560de52a27c6f1f7244148964a62c64736f6c63430008000033",
  "linkReferences": {},
  "deployedLinkReferences": {}
}