{
  "_format": "hh-sol-artifact-1",
  "contractName": "SingleOwnerGuard",
  "sourceName": "contracts/vault/SingleOwnerGuard.sol",
  "abi": [
    {
      "constant": false,
      "inputs": [],
      "name": "cleanup",
      "outputs": [],
      "payable": false,
      "stateMutability": "nonpayable",
      "type": "function"
    },
    {
      "constant": true,
      "inputs": [
        {
          "name": "",
          "type": "uint256"
        }
      ],
      "name": "publicOps",
      "outputs": [
        {
          "name": "",
          "type": "string"
        }
      ],
      "payable": false,
      "stateMutability": "view",
      "type": "function"
    },
    {
      "constant": false,
      "inputs": [
        {
          "name": "op",
          "type": "string"
        }
      ],
      "name": "addPublicOperation",
      "outputs": [],
      "payable": false,
      "stateMutability": "nonpayable",
      "type": "function"
    },
    {
      "constant": true,
      "inputs": [],
      "name": "owner",
      "outputs": [
        {
          "name": "",
          "type": "address"
        }
      ],
      "payable": false,
      "stateMutability": "view",
      "type": "function"
    },
    {
      "constant": true,
      "inputs": [],
      "name": "id",
      "outputs": [
        {
          "name": "",
          "type": "bytes32"
        }
      ],
      "payable": false,
      "stateMutability": "view",
      "type": "function"
    },
    {
      "constant": true,
      "inputs": [
        {
          "name": "who",
          "type": "address"
        },
        {
          "name": "op",
          "type": "string"
        }
      ],
      "name": "isAllowed",
      "outputs": [
        {
          "name": "",
          "type": "uint8"
        },
        {
          "name": "",
          "type": "uint8"
        }
      ],
      "payable": false,
      "stateMutability": "view",
      "type": "function"
    },
    {
      "constant": false,
      "inputs": [
        {
          "name": "vault_",
          "type": "address"
        }
      ],
      "name": "initialize",
      "outputs": [],
      "payable": false,
      "stateMutability": "nonpayable",
      "type": "function"
    }
  ],
  "bytecode": "0x6060604052341561000f57600080fd5b5b61093a8061001f6000396000f30060606040523615610081576000357c0100000000000000000000000000000000000000000000000000000000900463ffffffff1680633cecd7191461008657806357a07d2e1461009b578063662ea8ec146101385780638da5cb5b14610166578063af640d0f146101bb578063b9460632146101ec578063c4d66de814610260575b600080fd5b341561009157600080fd5b610099610299565b005b34156100a657600080fd5b6100bc60048080359060200190919050506103f9565b6040518080602001828103825283818151815260200191508051906020019080838360005b838110156100fd5780820151818401525b6020810190506100e1565b50505050905090810190601f16801561012a5780820380516001836020036101000a031916815260200191505b509250505060405180910390f35b341561014357600080fd5b610164600480803590602001908201803590602001919091929050506104b6565b005b341561017157600080fd5b610179610536565b604051808273ffffffffffffffffffffffffffffffffffffffff1673ffffffffffffffffffffffffffffffffffffffff16815260200191505060405180910390f35b34156101c657600080fd5b6101ce6105e6565b60405180826000191660001916815260200191505060405180910390f35b34156101f757600080fd5b610237600480803573ffffffffffffffffffffffffffffffffffffffff16906020019091908035906020019082018035906020019190919290505061060a565b604051808360ff1660ff1681526020018260ff1660ff1681526020019250505060405180910390f35b341561026b57600080fd5b610297600480803573ffffffffffffffffffffffffffffffffffffffff1690602001909190505061074f565b005b600060019054906101000a900473ffffffffffffffffffffffffffffffffffffffff1673ffffffffffffffffffffffffffffffffffffffff163373ffffffffffffffffffffffffffffffffffffffff161415156102f557600080fd5b3073ffffffffffffffffffffffffffffffffffffffff16600060019054906101000a900473ffffffffffffffffffffffffffffffffffffffff1673ffffffffffffffffffffffffffffffffffffffff16637ceab3b16000604051602001526040518163ffffffff167c0100000000000000000000000000000000000000000000000000000000028152600401602060405180830381600087803b151561039a57600080fd5b6102c65a03f115156103ab57600080fd5b5050506040518051905073ffffffffffffffffffffffffffffffffffffffff161415156103d757600080fd5b6103df610536565b73ffffffffffffffffffffffffffffffffffffffff16ff5b565b60018181548110151561040857fe5b906000526020600020900160005b915090508054600181600116156101000203166002900480601f0160208091040260200160405190810160405280929190818152602001828054600181600116156101000203166002900480156104ae5780601f10610483576101008083540402835291602001916104ae565b820191906000526020600020905b81548152906001019060200180831161049157829003601f168201915b505050505081565b6104be610536565b73ffffffffffffffffffffffffffffffffffffffff163373ffffffffffffffffffffffffffffffffffffffff161415156104f757600080fd5b6001805480600101828161050b91906107c9565b916000526020600020900160005b848490919290919250919061052f9291906107f5565b50505b5050565b60008060019054906101000a900473ffffffffffffffffffffffffffffffffffffffff1673ffffffffffffffffffffffffffffffffffffffff16638da5cb5b6000604051602001526040518163ffffffff167c0100000000000000000000000000000000000000000000000000000000028152600401602060405180830381600087803b15156105c557600080fd5b6102c65a03f115156105d657600080fd5b5050506040518051905090505b90565b7f73696e676c652d6f776e6572000000000000000000000000000000000000000081565b6000806000610617610536565b73ffffffffffffffffffffffffffffffffffffffff168673ffffffffffffffffffffffffffffffffffffffff16141561065a576000600180905092509250610746565b600090505b60018054905081101561073b5784846040518083838082843782019150509250505060405180910390206000191660018281548110151561069c57fe5b906000526020600020900160005b5060405180828054600181600116156101000203166002900480156107065780601f106106e4576101008083540402835291820191610706565b820191906000526020600020905b8154815290600101906020018083116106f2575b5050915050604051809103902060001916141561072d576000600280905092509250610746565b5b808060010191505061065f565b600180809050925092505b50935093915050565b6000809054906101000a900460ff1615151561076a57600080fd5b80600060016101000a81548173ffffffffffffffffffffffffffffffffffffffff021916908373ffffffffffffffffffffffffffffffffffffffff16021790555060016000806101000a81548160ff0219169083151502179055505b50565b8154818355818115116107f0578183600052602060002091820191016107ef9190610875565b5b505050565b828054600181600116156101000203166002900490600052602060002090601f016020900481019282601f1061083657803560ff1916838001178555610864565b82800160010185558215610864579182015b82811115610863578235825591602001919060010190610848565b5b50905061087191906108a1565b5090565b61089e91905b8082111561089a576000818161089191906108c6565b5060010161087b565b5090565b90565b6108c391905b808211156108bf5760008160009055506001016108a7565b5090565b90565b50805460018160011615610100020316600290046000825580601f106108ec575061090b565b601f01602090049060005260206000209081019061090a91906108a1565b5b505600a165627a7a7230582043a756e76afb0b73f3d5563411b98ea86d00c2ccfd0c595ff304f9847fe4789d0029",
  "linkReferences": {},
  "deployedLinkReferences": {}
}