{
  "_format": "hh-sol-artifact-1",
  "contractName": "BabySandbox",
  "sourceName": "contracts/babysandbox/BabySandbox.sol",
  "abi": [
    {
      "inputs": [
        {
          "internalType": "address",
          "name": "code",
          "type": "address"
        }
      ],
      "name": "run",
      "outputs": [],
      "stateMutability": "payable",
      "type": "function"
    }
  ],
  "bytecode": "0x608060405234801561001057600080fd5b5061012c806100206000396000f3fe608060405260043610601c5760003560e01c8063522bb704146021575b600080fd5b606060048036036020811015603557600080fd5b81019080803573ffffffffffffffffffffffffffffffffffffffff1690602001909291905050506062565b005b30331415609a57600080600080845af46000811460845760018114608e576098565b3d6000803e3d6000fd5b3d6000803e3d6000f35b505b61f0005a101560a857600080fd5b366000803760008036600030614000fa60c057600080fd5b6000803660008030614000f16000811460de576001811460e85760f2565b3d6000803e3d6000fd5b3d6000803e3d6000f35b505056fea26469706673582212208fdbfa6bf9f1f15affb8fe6a162950ff955101325b72cf5bdf47ed43fa92eb7464736f6c63430007000033",
  "linkReferences": {},
  "deployedLinkReferences": {}
}