{
  "_format": "hh-sol-artifact-1",
  "contractName": "YieldAggregator",
  "sourceName": "contracts/yield-aggregator/YieldAggregator.sol",
  "abi": [
    {
      "inputs": [],
      "stateMutability": "nonpayable",
      "type": "constructor"
    },
    {
      "inputs": [
        {
          "internalType": "contract Protocol",
          "name": "protocol",
          "type": "address"
        },
        {
          "internalType": "address[]",
          "name": "tokens",
          "type": "address[]"
        },
        {
          "internalType": "uint256[]",
          "name": "amounts",
          "type": "uint256[]"
        }
      ],
      "name": "deposit",
      "outputs": [],
      "stateMutability": "nonpayable",
      "type": "function"
    },
    {
      "inputs": [],
      "name": "harvester",
      "outputs": [
        {
          "internalType": "address",
          "name": "",
          "type": "address"
        }
      ],
      "stateMutability": "view",
      "type": "function"
    },
    {
      "inputs": [],
      "name": "owner",
      "outputs": [
        {
          "internalType": "address",
          "name": "",
          "type": "address"
        }
      ],
      "stateMutability": "view",
      "type": "function"
    },
    {
      "inputs": [
        {
          "internalType": "address",
          "name": "",
          "type": "address"
        }
      ],
      "name": "poolTokens",
      "outputs": [
        {
          "internalType": "uint256",
          "name": "",
          "type": "uint256"
        }
      ],
      "stateMutability": "view",
      "type": "function"
    },
    {
      "inputs": [
        {
          "internalType": "contract Protocol",
          "name": "protocol",
          "type": "address"
        },
        {
          "internalType": "address[]",
          "name": "tokens",
          "type": "address[]"
        },
        {
          "internalType": "uint256[]",
          "name": "amounts",
          "type": "uint256[]"
        }
      ],
      "name": "withdraw",
      "outputs": [],
      "stateMutability": "nonpayable",
      "type": "function"
    }
  ],
  "bytecode": "0x608060405234801561001057600080fd5b50336000806101000a81548173ffffffffffffffffffffffffffffffffffffffff021916908373ffffffffffffffffffffffffffffffffffffffff160217905550610f74806100606000396000f3fe608060405234801561001057600080fd5b50600436106100575760003560e01c80634bdaeac11461005c578063562fa0df1461007a5780638da5cb5b14610096578063a9126169146100b4578063edbd7668146100e4575b600080fd5b610064610100565b6040516100719190610bfd565b60405180910390f35b610094600480360381019061008f9190610b28565b610126565b005b61009e6105ee565b6040516100ab9190610bfd565b60405180910390f35b6100ce60048036038101906100c99190610ad6565b610612565b6040516100db9190610ca1565b60405180910390f35b6100fe60048036038101906100f99190610b28565b61062a565b005b600160009054906101000a900473ffffffffffffffffffffffffffffffffffffffff1681565b60008373ffffffffffffffffffffffffffffffffffffffff16638da876c96040518163ffffffff1660e01b815260040160206040518083038186803b15801561016e57600080fd5b505afa158015610182573d6000803e3d6000fd5b505050506040513d601f19601f820116820180604052508101906101a69190610ba7565b905060005b83518110156104fd5760008482815181106101ef577f4e487b7100000000000000000000000000000000000000000000000000000000600052603260045260246000fd5b602002602001015190506000848381518110610234577f4e487b7100000000000000000000000000000000000000000000000000000000600052603260045260246000fd5b602002602001015190508173ffffffffffffffffffffffffffffffffffffffff166323b872dd3330846040518463ffffffff1660e01b815260040161027b93929190610c18565b602060405180830381600087803b15801561029557600080fd5b505af11580156102a9573d6000803e3d6000fd5b505050506040513d601f19601f820116820180604052508101906102cd9190610aff565b508173ffffffffffffffffffffffffffffffffffffffff1663095ea7b38860006040518363ffffffff1660e01b815260040161030a929190610c4f565b602060405180830381600087803b15801561032457600080fd5b505af1158015610338573d6000803e3d6000fd5b505050506040513d601f19601f8201168201806040525081019061035c9190610aff565b508173ffffffffffffffffffffffffffffffffffffffff1663095ea7b388836040518363ffffffff1660e01b8152600401610398929190610c78565b602060405180830381600087803b1580156103b257600080fd5b505af11580156103c6573d6000803e3d6000fd5b505050506040513d601f19601f820116820180604052508101906103ea9190610aff565b508673ffffffffffffffffffffffffffffffffffffffff1663a0712d68826040518263ffffffff1660e01b81526004016104249190610ca1565b600060405180830381600087803b15801561043e57600080fd5b505af192505050801561044f575060015b6104e7578173ffffffffffffffffffffffffffffffffffffffff1663095ea7b38860006040518363ffffffff1660e01b815260040161048f929190610c4f565b602060405180830381600087803b1580156104a957600080fd5b505af11580156104bd573d6000803e3d6000fd5b505050506040513d601f19601f820116820180604052508101906104e19190610aff565b506104e8565b5b505080806104f590610e3b565b9150506101ab565b5060008473ffffffffffffffffffffffffffffffffffffffff16638da876c96040518163ffffffff1660e01b815260040160206040518083038186803b15801561054657600080fd5b505afa15801561055a573d6000803e3d6000fd5b505050506040513d601f19601f8201168201806040525081019061057e9190610ba7565b90506000828261058e9190610d9b565b905080600260003373ffffffffffffffffffffffffffffffffffffffff1673ffffffffffffffffffffffffffffffffffffffff16815260200190815260200160002060008282546105df9190610d45565b92505081905550505050505050565b60008054906101000a900473ffffffffffffffffffffffffffffffffffffffff1681565b60026020528060005260406000206000915090505481565b60008373ffffffffffffffffffffffffffffffffffffffff16638da876c96040518163ffffffff1660e01b815260040160206040518083038186803b15801561067257600080fd5b505afa158015610686573d6000803e3d6000fd5b505050506040513d601f19601f820116820180604052508101906106aa9190610ba7565b905060005b83518110156108505760008482815181106106f3577f4e487b7100000000000000000000000000000000000000000000000000000000600052603260045260246000fd5b602002602001015190506000848381518110610738577f4e487b7100000000000000000000000000000000000000000000000000000000600052603260045260246000fd5b602002602001015190508673ffffffffffffffffffffffffffffffffffffffff166342966c68826040518263ffffffff1660e01b815260040161077b9190610ca1565b600060405180830381600087803b15801561079557600080fd5b505af11580156107a9573d6000803e3d6000fd5b505050508173ffffffffffffffffffffffffffffffffffffffff1663a9059cbb33836040518363ffffffff1660e01b81526004016107e8929190610c78565b602060405180830381600087803b15801561080257600080fd5b505af1158015610816573d6000803e3d6000fd5b505050506040513d601f19601f8201168201806040525081019061083a9190610aff565b505050808061084890610e3b565b9150506106af565b5060008473ffffffffffffffffffffffffffffffffffffffff16638da876c96040518163ffffffff1660e01b815260040160206040518083038186803b15801561089957600080fd5b505afa1580156108ad573d6000803e3d6000fd5b505050506040513d601f19601f820116820180604052508101906108d19190610ba7565b9050600081836108e19190610d9b565b905080600260003373ffffffffffffffffffffffffffffffffffffffff1673ffffffffffffffffffffffffffffffffffffffff16815260200190815260200160002060008282546109329190610d9b565b92505081905550505050505050565b600061095461094f84610ced565b610cbc565b9050808382526020820190508285602086028201111561097357600080fd5b60005b858110156109a357816109898882610a19565b845260208401935060208301925050600181019050610976565b5050509392505050565b60006109c06109bb84610d19565b610cbc565b905080838252602082019050828560208602820111156109df57600080fd5b60005b85811015610a0f57816109f58882610aac565b8452602084019350602083019250506001810190506109e2565b5050509392505050565b600081359050610a2881610ee2565b92915050565b600082601f830112610a3f57600080fd5b8135610a4f848260208601610941565b91505092915050565b600082601f830112610a6957600080fd5b8135610a798482602086016109ad565b91505092915050565b600081519050610a9181610ef9565b92915050565b600081359050610aa681610f10565b92915050565b600081359050610abb81610f27565b92915050565b600081519050610ad081610f27565b92915050565b600060208284031215610ae857600080fd5b6000610af684828501610a19565b91505092915050565b600060208284031215610b1157600080fd5b6000610b1f84828501610a82565b91505092915050565b600080600060608486031215610b3d57600080fd5b6000610b4b86828701610a97565b935050602084013567ffffffffffffffff811115610b6857600080fd5b610b7486828701610a2e565b925050604084013567ffffffffffffffff811115610b9157600080fd5b610b9d86828701610a58565b9150509250925092565b600060208284031215610bb957600080fd5b6000610bc784828501610ac1565b91505092915050565b610bd981610dcf565b82525050565b610be881610e29565b82525050565b610bf781610e1f565b82525050565b6000602082019050610c126000830184610bd0565b92915050565b6000606082019050610c2d6000830186610bd0565b610c3a6020830185610bd0565b610c476040830184610bee565b949350505050565b6000604082019050610c646000830185610bd0565b610c716020830184610bdf565b9392505050565b6000604082019050610c8d6000830185610bd0565b610c9a6020830184610bee565b9392505050565b6000602082019050610cb66000830184610bee565b92915050565b6000604051905081810181811067ffffffffffffffff82111715610ce357610ce2610eb3565b5b8060405250919050565b600067ffffffffffffffff821115610d0857610d07610eb3565b5b602082029050602081019050919050565b600067ffffffffffffffff821115610d3457610d33610eb3565b5b602082029050602081019050919050565b6000610d5082610e1f565b9150610d5b83610e1f565b9250827fffffffffffffffffffffffffffffffffffffffffffffffffffffffffffffffff03821115610d9057610d8f610e84565b5b828201905092915050565b6000610da682610e1f565b9150610db183610e1f565b925082821015610dc457610dc3610e84565b5b828203905092915050565b6000610dda82610dff565b9050919050565b60008115159050919050565b6000610df882610dcf565b9050919050565b600073ffffffffffffffffffffffffffffffffffffffff82169050919050565b6000819050919050565b6000610e3482610e1f565b9050919050565b6000610e4682610e1f565b91507fffffffffffffffffffffffffffffffffffffffffffffffffffffffffffffffff821415610e7957610e78610e84565b5b600182019050919050565b7f4e487b7100000000000000000000000000000000000000000000000000000000600052601160045260246000fd5b7f4e487b7100000000000000000000000000000000000000000000000000000000600052604160045260246000fd5b610eeb81610dcf565b8114610ef657600080fd5b50565b610f0281610de1565b8114610f0d57600080fd5b50565b610f1981610ded565b8114610f2457600080fd5b50565b610f3081610e1f565b8114610f3b57600080fd5b5056fea26469706673582212202d42538b6b0ac4bf7e490f55875b8f8e5d2416e967357093a1301d64cb18f03064736f6c63430008000033",
  "linkReferences": {},
  "deployedLinkReferences": {}
}